{
  "_format": "hh-sol-artifact-1",
  "contractName": "ERC721ScholarshipDistribution",
  "sourceName": "contracts/ERC721ScholarshipDistribution.sol",
  "abi": [
    {
      "inputs": [
        {
          "internalType": "address",
          "name": "nftContractAddress",
          "type": "address"
        }
      ],
      "stateMutability": "nonpayable",
      "type": "constructor"
    },
    {
      "inputs": [
        {
          "internalType": "address",
          "name": "userAddress",
          "type": "address"
        }
      ],
      "name": "addToManagers",
      "outputs": [
        {
          "internalType": "bool",
          "name": "",
          "type": "bool"
        }
      ],
      "stateMutability": "nonpayable",
      "type": "function"
    },
    {
      "inputs": [],
      "name": "getBatchLimit",
      "outputs": [
        {
          "internalType": "uint256",
          "name": "",
          "type": "uint256"
        }
      ],
      "stateMutability": "view",
      "type": "function"
    },
    {
      "inputs": [],
      "name": "getMintingBatchLimit",
      "outputs": [
        {
          "internalType": "uint256",
          "name": "",
          "type": "uint256"
        }
      ],
      "stateMutability": "view",
      "type": "function"
    },
    {
      "inputs": [],
      "name": "getNftContractAddress",
      "outputs": [
        {
          "internalType": "address",
          "name": "",
          "type": "address"
        }
      ],
      "stateMutability": "view",
      "type": "function"
    },
    {
      "inputs": [],
      "name": "getTimestamp",
      "outputs": [
        {
          "internalType": "uint256",
          "name": "",
          "type": "uint256"
        }
      ],
      "stateMutability": "view",
      "type": "function"
    },
    {
      "inputs": [
        {
          "internalType": "uint256",
          "name": "tokenId",
          "type": "uint256"
        }
      ],
      "name": "getTokenCreationTimestamp",
      "outputs": [
        {
          "internalType": "uint256",
          "name": "",
          "type": "uint256"
        }
      ],
      "stateMutability": "view",
      "type": "function"
    },
    {
      "inputs": [
        {
          "internalType": "address",
          "name": "userAddress",
          "type": "address"
        },
        {
          "internalType": "uint256",
          "name": "index",
          "type": "uint256"
        }
      ],
      "name": "getTokenDetails",
      "outputs": [
        {
          "internalType": "uint256",
          "name": "tokenTypeId",
          "type": "uint256"
        },
        {
          "internalType": "string",
          "name": "tokenURI",
          "type": "string"
        },
        {
          "internalType": "bool",
          "name": "minted",
          "type": "bool"
        }
      ],
      "stateMutability": "view",
      "type": "function"
    },
    {
      "inputs": [
        {
          "internalType": "uint256",
          "name": "tokenId",
          "type": "uint256"
        }
      ],
      "name": "getTokenMetabolism",
      "outputs": [
        {
          "internalType": "uint256",
          "name": "",
          "type": "uint256"
        }
      ],
      "stateMutability": "view",
      "type": "function"
    },
    {
      "inputs": [
        {
          "internalType": "uint256",
          "name": "tokenId",
          "type": "uint256"
        }
      ],
      "name": "getTokenTypeId",
      "outputs": [
        {
          "internalType": "uint256",
          "name": "",
          "type": "uint256"
        }
      ],
      "stateMutability": "view",
      "type": "function"
    },
    {
      "inputs": [
        {
          "internalType": "uint256",
          "name": "tokenTypeId",
          "type": "uint256"
        }
      ],
      "name": "getTokenTypeMetabolism",
      "outputs": [
        {
          "internalType": "uint256",
          "name": "",
          "type": "uint256"
        }
      ],
      "stateMutability": "view",
      "type": "function"
    },
    {
      "inputs": [
        {
          "internalType": "uint256",
          "name": "tokenTypeId",
          "type": "uint256"
        }
      ],
      "name": "getTokenTypeURI",
      "outputs": [
        {
          "internalType": "string",
          "name": "",
          "type": "string"
        }
      ],
      "stateMutability": "view",
      "type": "function"
    },
    {
      "inputs": [
        {
          "internalType": "address",
          "name": "userAddress",
          "type": "address"
        }
      ],
      "name": "getTokensNumber",
      "outputs": [
        {
          "internalType": "uint256",
          "name": "",
          "type": "uint256"
        }
      ],
      "stateMutability": "view",
      "type": "function"
    },
    {
      "inputs": [
        {
          "internalType": "address",
          "name": "userAddress",
          "type": "address"
        }
      ],
      "name": "isManager",
      "outputs": [
        {
          "internalType": "bool",
          "name": "",
          "type": "bool"
        }
      ],
      "stateMutability": "view",
      "type": "function"
    },
    {
      "inputs": [
        {
          "internalType": "uint256",
          "name": "index",
          "type": "uint256"
        }
      ],
      "name": "mintAirdrop",
      "outputs": [
        {
          "internalType": "bool",
          "name": "",
          "type": "bool"
        }
      ],
      "stateMutability": "nonpayable",
      "type": "function"
    },
    {
      "inputs": [],
      "name": "mintAirdropAll",
      "outputs": [
        {
          "internalType": "bool",
          "name": "",
          "type": "bool"
        }
      ],
      "stateMutability": "nonpayable",
      "type": "function"
    },
    {
      "inputs": [],
      "name": "owner",
      "outputs": [
        {
          "internalType": "address",
          "name": "",
          "type": "address"
        }
      ],
      "stateMutability": "view",
      "type": "function"
    },
    {
      "inputs": [
        {
          "internalType": "address[]",
          "name": "userAddresses",
          "type": "address[]"
        },
        {
          "internalType": "uint256[]",
          "name": "tokenTypeIds",
          "type": "uint256[]"
        }
      ],
      "name": "proceedAirdrop",
      "outputs": [
        {
          "internalType": "bool",
          "name": "",
          "type": "bool"
        }
      ],
      "stateMutability": "nonpayable",
      "type": "function"
    },
    {
      "inputs": [
        {
          "internalType": "address",
          "name": "userAddress",
          "type": "address"
        }
      ],
      "name": "removeFromManagers",
      "outputs": [
        {
          "internalType": "bool",
          "name": "",
          "type": "bool"
        }
      ],
      "stateMutability": "nonpayable",
      "type": "function"
    },
    {
      "inputs": [
        {
          "internalType": "uint256",
          "name": "batchLimit",
          "type": "uint256"
        }
      ],
      "name": "setBatchLimit",
      "outputs": [
        {
          "internalType": "bool",
          "name": "",
          "type": "bool"
        }
      ],
      "stateMutability": "nonpayable",
      "type": "function"
    },
    {
      "inputs": [
        {
          "internalType": "uint256",
          "name": "mintingBatchLimit",
          "type": "uint256"
        }
      ],
      "name": "setMintingBatchLimit",
      "outputs": [
        {
          "internalType": "bool",
          "name": "",
          "type": "bool"
        }
      ],
      "stateMutability": "nonpayable",
      "type": "function"
    },
    {
      "inputs": [
        {
          "internalType": "address",
          "name": "nftContractAddress",
          "type": "address"
        }
      ],
      "name": "setNftContractAddress",
      "outputs": [
        {
          "internalType": "bool",
          "name": "",
          "type": "bool"
        }
      ],
      "stateMutability": "nonpayable",
      "type": "function"
    },
    {
      "inputs": [
        {
          "internalType": "uint256",
          "name": "tokenTypeId",
          "type": "uint256"
        },
        {
          "internalType": "uint256",
          "name": "metabolism",
          "type": "uint256"
        }
      ],
      "name": "setTokenTypeMetabolism",
      "outputs": [
        {
          "internalType": "bool",
          "name": "",
          "type": "bool"
        }
      ],
      "stateMutability": "nonpayable",
      "type": "function"
    },
    {
      "inputs": [
        {
          "internalType": "uint256",
          "name": "tokenTypeId",
          "type": "uint256"
        },
        {
          "internalType": "string",
          "name": "uri",
          "type": "string"
        }
      ],
      "name": "setTokenTypeURI",
      "outputs": [
        {
          "internalType": "bool",
          "name": "",
          "type": "bool"
        }
      ],
      "stateMutability": "nonpayable",
      "type": "function"
    },
    {
      "inputs": [
        {
          "internalType": "address",
          "name": "newOwner",
          "type": "address"
        }
      ],
      "name": "transferOwnership",
      "outputs": [
        {
          "internalType": "bool",
          "name": "",
          "type": "bool"
        }
      ],
      "stateMutability": "nonpayable",
      "type": "function"
    }
  ],
  "bytecode": "0x60806040526064600355603260045534801561001a57600080fd5b506040516114b53803806114b5833981016040819052610039916100bd565b600180546001600160a01b03191633178082556001600160a01b039081166000908152602081905260409020805460ff191690921790915581166100985760405162461bcd60e51b815260040161008f906100eb565b60405180910390fd5b600280546001600160a01b0319166001600160a01b0392909216919091179055610130565b6000602082840312156100ce578081fd5b81516001600160a01b03811681146100e4578182fd5b9392505050565b60208082526025908201527f6e6674436f6e7472616374416464726573732073686f756c64206e6f74206265604082015264207a65726f60d81b606082015260800190565b6113768061013f6000396000f3fe608060405234801561001057600080fd5b50600436106101585760003560e01c8063b000437d116100c3578063e03d0ff21161007c578063e03d0ff2146102bd578063ee06051f146102d0578063ee8f2cb9146102e3578063f2600b56146102f6578063f2fde38b14610309578063f3ae24151461031c57610158565b8063b000437d14610254578063b03d018f14610274578063b8959a8b14610287578063b98a78c61461028f578063cbafcf36146102a2578063da31d640146102aa57610158565b80631a0c1679116101155780631a0c1679146101e75780631a22acd5146101ef578063431a3f9d146101f757806368209e531461020a57806368dc74e81461022c5780638da5cb5b1461023f57610158565b806303e0f8d71461015d57806308564ae3146101865780630a962f89146101a65780630f51c327146101b9578063127d5ad0146101cc578063188ec356146101df575b600080fd5b61017061016b366004610ea2565b61032f565b60405161017d919061129e565b60405180910390f35b610199610194366004610ea2565b610344565b60405161017d919061108c565b6101996101b4366004610dcf565b61048f565b6101706101c7366004610ea2565b6104e1565b6101706101da366004610ea2565b61057c565b610170610603565b610199610607565b61017061067e565b610170610205366004610ea2565b610684565b61021d610218366004610df0565b6106b5565b60405161017d939291906112a7565b61017061023a366004610dcf565b61079c565b6102476107b7565b60405161017d9190610fb5565b610267610262366004610ea2565b6107c6565b60405161017d9190611097565b610199610282366004610f49565b610868565b6102476108ad565b61019961029d366004610e19565b6108bc565b610170610aa9565b6101996102b8366004610dcf565b610aaf565b6101996102cb366004610ea2565b610b29565b6101996102de366004610dcf565b610b61565b6101996102f1366004610ed2565b610bb7565b610199610304366004610ea2565b610c0a565b610199610317366004610dcf565b610c42565b61019961032a366004610dcf565b610cb8565b6000818152600960205260409020545b919050565b3360009081526007602090815260408083208484529091528120546103845760405162461bcd60e51b815260040161037b90611169565b60405180910390fd5b33600090815260086020908152604080832085845290915290205460ff16156103bf5760405162461bcd60e51b815260040161037b90611195565b3360008181526008602090815260408083208684528252808320805460ff191660011790556002548484526007835281842087855283528184205480855260059093529281902090516334ff261960e21b81526001600160a01b03939093169363d3fc98649361043493919290600401610fc9565b602060405180830381600087803b15801561044e57600080fd5b505af1158015610462573d6000803e3d6000fd5b505050506040513d601f19601f820116820180604052508101906104869190610e82565b50600192915050565b6001546000906001600160a01b031633146104bc5760405162461bcd60e51b815260040161037b906110ed565b506001600160a01b03166000908152602081905260409020805460ff19169055600190565b600254604051630127d5ad60e41b815260009182916001600160a01b039091169063127d5ad09061051690869060040161129e565b60206040518083038186803b15801561052e57600080fd5b505afa158015610542573d6000803e3d6000fd5b505050506040513d601f19601f820116820180604052508101906105669190610eba565b6000908152600960205260409020549392505050565b600254604051630127d5ad60e41b81526000916001600160a01b03169063127d5ad0906105ad90859060040161129e565b60206040518083038186803b1580156105c557600080fd5b505afa1580156105d9573d6000803e3d6000fd5b505050506040513d601f19601f820116820180604052508101906105fd9190610eba565b92915050565b4290565b600060015b3360009081526006602052604090205481116106765760045481111561063157610676565b33600090815260086020908152604080832084845290915290205460ff161561065957610664565b61066281610344565b505b8061066e81611319565b91505061060c565b506001905090565b60045490565b60025460405163431a3f9d60e01b81526000916001600160a01b03169063431a3f9d906105ad90859060040161129e565b6001600160a01b038216600081815260076020908152604080832085845282528083205480845260058352818420948452600883528184208685529092528220548354929360609385939260ff1690829061070f906112de565b80601f016020809104026020016040519081016040528092919081815260200182805461073b906112de565b80156107885780601f1061075d57610100808354040283529160200191610788565b820191906000526020600020905b81548152906001019060200180831161076b57829003601f168201915b505050505091509250925092509250925092565b6001600160a01b031660009081526006602052604090205490565b6001546001600160a01b031690565b60008181526005602052604090208054606091906107e3906112de565b80601f016020809104026020016040519081016040528092919081815260200182805461080f906112de565b801561085c5780601f106108315761010080835404028352916020019161085c565b820191906000526020600020905b81548152906001019060200180831161083f57829003601f168201915b50505050509050919050565b3360009081526020819052604081205460ff166108975760405162461bcd60e51b815260040161037b90611267565b5060009182526009602052604090912055600190565b6002546001600160a01b031690565b3360009081526020819052604081205460ff166108eb5760405162461bcd60e51b815260040161037b90611267565b83821461090a5760405162461bcd60e51b815260040161037b906110aa565b60035484111561092c5760405162461bcd60e51b815260040161037b906111e2565b60005b84811015610a9d576006600087878481811061095b57634e487b7160e01b600052603260045260246000fd5b90506020020160208101906109709190610dcf565b6001600160a01b031681526020810191909152604001600090812080549161099783611319565b91905055508383828181106109bc57634e487b7160e01b600052603260045260246000fd5b90506020020135600760008888858181106109e757634e487b7160e01b600052603260045260246000fd5b90506020020160208101906109fc9190610dcf565b6001600160a01b03166001600160a01b031681526020019081526020016000206000600660008a8a87818110610a4257634e487b7160e01b600052603260045260246000fd5b9050602002016020810190610a579190610dcf565b6001600160a01b03166001600160a01b03168152602001908152602001600020548152602001908152602001600020819055508080610a9590611319565b91505061092f565b50600195945050505050565b60035490565b3360009081526020819052604081205460ff16610ade5760405162461bcd60e51b815260040161037b90611267565b6001600160a01b038216610b045760405162461bcd60e51b815260040161037b90611124565b50600280546001600160a01b0383166001600160a01b03199091161790556001919050565b3360009081526020819052604081205460ff16610b585760405162461bcd60e51b815260040161037b90611267565b50600455600190565b6001546000906001600160a01b03163314610b8e5760405162461bcd60e51b815260040161037b906110ed565b506001600160a01b03166000908152602081905260409020805460ff1916600190811790915590565b3360009081526020819052604081205460ff16610be65760405162461bcd60e51b815260040161037b90611267565b6000848152600560205260409020610bff908484610cd6565b506001949350505050565b3360009081526020819052604081205460ff16610c395760405162461bcd60e51b815260040161037b90611267565b50600355600190565b6001546000906001600160a01b03163314610c6f5760405162461bcd60e51b815260040161037b906110ed565b6001600160a01b038216610c955760405162461bcd60e51b815260040161037b90611224565b50600180546001600160a01b0383166001600160a01b0319909116178155919050565b6001600160a01b031660009081526020819052604090205460ff1690565b828054610ce2906112de565b90600052602060002090601f016020900481019282610d045760008555610d4a565b82601f10610d1d5782800160ff19823516178555610d4a565b82800160010185558215610d4a579182015b82811115610d4a578235825591602001919060010190610d2f565b50610d56929150610d5a565b5090565b5b80821115610d565760008155600101610d5b565b80356001600160a01b038116811461033f57600080fd5b60008083601f840112610d97578182fd5b50813567ffffffffffffffff811115610dae578182fd5b6020830191508360208083028501011115610dc857600080fd5b9250929050565b600060208284031215610de0578081fd5b610de982610d6f565b9392505050565b60008060408385031215610e02578081fd5b610e0b83610d6f565b946020939093013593505050565b60008060008060408587031215610e2e578182fd5b843567ffffffffffffffff80821115610e45578384fd5b610e5188838901610d86565b90965094506020870135915080821115610e69578384fd5b50610e7687828801610d86565b95989497509550505050565b600060208284031215610e93578081fd5b81518015158114610de9578182fd5b600060208284031215610eb3578081fd5b5035919050565b600060208284031215610ecb578081fd5b5051919050565b600080600060408486031215610ee6578283fd5b83359250602084013567ffffffffffffffff80821115610f04578384fd5b818601915086601f830112610f17578384fd5b813581811115610f25578485fd5b876020828501011115610f36578485fd5b6020830194508093505050509250925092565b60008060408385031215610f5b578182fd5b50508035926020909101359150565b60008151808452815b81811015610f8f57602081850181015186830182015201610f73565b81811115610fa05782602083870101525b50601f01601f19169290920160200192915050565b6001600160a01b0391909116815260200190565b6001600160a01b038416815260208082018490526060604083015282546000919082906002810460018281168061100157607f831692505b85831081141561101f57634e487b7160e01b87526022600452602487fd5b61102c8360608a0161129e565b81801561104057600181146110515761107b565b60ff1986168252878201965061107b565b61105a8b6112d2565b895b868110156110755781548482015290850190890161105c565b83019750505b50949b9a5050505050505050505050565b901515815260200190565b600060208252610de96020830184610f6a565b60208082526023908201527f4172726179732073686f756c64206265206f66207468652073616d65206c656e6040820152620cee8d60eb1b606082015260800190565b60208082526017908201527f43616c6c6572206973206e6f7420746865206f776e6572000000000000000000604082015260600190565b60208082526025908201527f6e6674436f6e7472616374416464726573732073686f756c64206e6f74206265604082015264207a65726f60d81b606082015260800190565b602080825260129082015271125b99195e081a5cc81b9bdd081d985b1a5960721b604082015260600190565b6020808252602d908201527f546f6b656e2077697468207468697320696e6465782068617320616c7265616460408201526c1e481899595b881b5a5b9d1959609a1b606082015260800190565b60208082526022908201527f417272617973206c656e677468206578636565646564206261746368206c696d6040820152611a5d60f21b606082015260800190565b60208082526023908201527f6e65774f776e65722073686f756c64206e6f74206265207a65726f206164647260408201526265737360e81b606082015260800190565b60208082526019908201527f43616c6c6572206973206e6f7420746865206d616e6167657200000000000000604082015260600190565b90815260200190565b6000848252606060208301526112c06060830185610f6a565b90508215156040830152949350505050565b60009081526020902090565b6002810460018216806112f257607f821691505b6020821081141561131357634e487b7160e01b600052602260045260246000fd5b50919050565b600060001982141561133957634e487b7160e01b81526011600452602481fd5b506001019056fea26469706673582212200c8286542c5c69d13edd7ff5ad751127b284e7bd3e0d2f7724039bfaf4f87cff64736f6c63430008000033",
  "linkReferences": {},
  "deployedLinkReferences": {}
}