{
  "_format": "hh-sol-artifact-1",
  "contractName": "StakingNft",
  "sourceName": "contracts/staking-nft.sol",
  "abi": [
    {
      "inputs": [
        {
          "internalType": "address",
          "name": "etnaAddress",
          "type": "address"
        },
        {
          "internalType": "address",
          "name": "marketplaceAddress",
          "type": "address"
        },
        {
          "internalType": "address",
          "name": "nftAddress",
          "type": "address"
        },
        {
          "internalType": "address",
          "name": "newOwner",
          "type": "address"
        }
      ],
      "stateMutability": "nonpayable",
      "type": "constructor"
    },
    {
      "anonymous": false,
      "inputs": [
        {
          "indexed": true,
          "internalType": "address",
          "name": "previousOwner",
          "type": "address"
        },
        {
          "indexed": true,
          "internalType": "address",
          "name": "newOwner",
          "type": "address"
        }
      ],
      "name": "OwnershipTransferred",
      "type": "event"
    },
    {
      "inputs": [
        {
          "internalType": "uint16",
          "name": "apr",
          "type": "uint16"
        }
      ],
      "name": "adminSetApr",
      "outputs": [
        {
          "internalType": "bool",
          "name": "",
          "type": "bool"
        }
      ],
      "stateMutability": "nonpayable",
      "type": "function"
    },
    {
      "inputs": [
        {
          "internalType": "uint256",
          "name": "batchLimit",
          "type": "uint256"
        }
      ],
      "name": "adminSetBatchLimit",
      "outputs": [
        {
          "internalType": "bool",
          "name": "",
          "type": "bool"
        }
      ],
      "stateMutability": "nonpayable",
      "type": "function"
    },
    {
      "inputs": [
        {
          "internalType": "address",
          "name": "tokenAddress",
          "type": "address"
        }
      ],
      "name": "adminSetEtnaContract",
      "outputs": [
        {
          "internalType": "bool",
          "name": "",
          "type": "bool"
        }
      ],
      "stateMutability": "nonpayable",
      "type": "function"
    },
    {
      "inputs": [
        {
          "internalType": "uint256",
          "name": "lockTime",
          "type": "uint256"
        }
      ],
      "name": "adminSetLockTime",
      "outputs": [
        {
          "internalType": "bool",
          "name": "",
          "type": "bool"
        }
      ],
      "stateMutability": "nonpayable",
      "type": "function"
    },
    {
      "inputs": [
        {
          "internalType": "address",
          "name": "tokenAddress",
          "type": "address"
        }
      ],
      "name": "adminSetMarketplaceContract",
      "outputs": [
        {
          "internalType": "bool",
          "name": "",
          "type": "bool"
        }
      ],
      "stateMutability": "nonpayable",
      "type": "function"
    },
    {
      "inputs": [
        {
          "internalType": "address",
          "name": "tokenAddress",
          "type": "address"
        }
      ],
      "name": "adminSetNftContract",
      "outputs": [
        {
          "internalType": "bool",
          "name": "",
          "type": "bool"
        }
      ],
      "stateMutability": "nonpayable",
      "type": "function"
    },
    {
      "inputs": [
        {
          "internalType": "uint256",
          "name": "amount",
          "type": "uint256"
        }
      ],
      "name": "adminWithdrawEtna",
      "outputs": [
        {
          "internalType": "bool",
          "name": "",
          "type": "bool"
        }
      ],
      "stateMutability": "nonpayable",
      "type": "function"
    },
    {
      "inputs": [
        {
          "internalType": "uint256[]",
          "name": "tokenIds",
          "type": "uint256[]"
        }
      ],
      "name": "adminWithdrawNft",
      "outputs": [
        {
          "internalType": "bool",
          "name": "",
          "type": "bool"
        }
      ],
      "stateMutability": "nonpayable",
      "type": "function"
    },
    {
      "inputs": [
        {
          "internalType": "uint256",
          "name": "depositIndex",
          "type": "uint256"
        }
      ],
      "name": "calculateYield",
      "outputs": [
        {
          "internalType": "uint256",
          "name": "",
          "type": "uint256"
        }
      ],
      "stateMutability": "view",
      "type": "function"
    },
    {
      "inputs": [],
      "name": "getApr",
      "outputs": [
        {
          "internalType": "uint256",
          "name": "",
          "type": "uint256"
        }
      ],
      "stateMutability": "view",
      "type": "function"
    },
    {
      "inputs": [],
      "name": "getBatchLimit",
      "outputs": [
        {
          "internalType": "uint256",
          "name": "",
          "type": "uint256"
        }
      ],
      "stateMutability": "view",
      "type": "function"
    },
    {
      "inputs": [
        {
          "internalType": "uint256",
          "name": "depositIndex",
          "type": "uint256"
        }
      ],
      "name": "getDeposit",
      "outputs": [
        {
          "internalType": "address",
          "name": "",
          "type": "address"
        },
        {
          "internalType": "uint256",
          "name": "",
          "type": "uint256"
        },
        {
          "internalType": "uint256",
          "name": "",
          "type": "uint256"
        },
        {
          "internalType": "uint256",
          "name": "",
          "type": "uint256"
        },
        {
          "internalType": "uint256",
          "name": "",
          "type": "uint256"
        },
        {
          "internalType": "uint256",
          "name": "",
          "type": "uint256"
        }
      ],
      "stateMutability": "view",
      "type": "function"
    },
    {
      "inputs": [
        {
          "internalType": "uint256",
          "name": "depositIndex",
          "type": "uint256"
        }
      ],
      "name": "getDepositLastMarketIndex",
      "outputs": [
        {
          "internalType": "uint256",
          "name": "",
          "type": "uint256"
        }
      ],
      "stateMutability": "view",
      "type": "function"
    },
    {
      "inputs": [],
      "name": "getDepositsNumber",
      "outputs": [
        {
          "internalType": "uint256",
          "name": "",
          "type": "uint256"
        }
      ],
      "stateMutability": "view",
      "type": "function"
    },
    {
      "inputs": [],
      "name": "getEtnaBalance",
      "outputs": [
        {
          "internalType": "uint256",
          "name": "",
          "type": "uint256"
        }
      ],
      "stateMutability": "view",
      "type": "function"
    },
    {
      "inputs": [],
      "name": "getEtnaContract",
      "outputs": [
        {
          "internalType": "address",
          "name": "",
          "type": "address"
        }
      ],
      "stateMutability": "view",
      "type": "function"
    },
    {
      "inputs": [
        {
          "internalType": "uint256",
          "name": "tokenId",
          "type": "uint256"
        }
      ],
      "name": "getLastTokenPrice",
      "outputs": [
        {
          "internalType": "uint256",
          "name": "",
          "type": "uint256"
        }
      ],
      "stateMutability": "view",
      "type": "function"
    },
    {
      "inputs": [],
      "name": "getLockTime",
      "outputs": [
        {
          "internalType": "uint256",
          "name": "",
          "type": "uint256"
        }
      ],
      "stateMutability": "view",
      "type": "function"
    },
    {
      "inputs": [],
      "name": "getMarketIndex",
      "outputs": [
        {
          "internalType": "uint256",
          "name": "",
          "type": "uint256"
        }
      ],
      "stateMutability": "view",
      "type": "function"
    },
    {
      "inputs": [],
      "name": "getMarketIndexLastTime",
      "outputs": [
        {
          "internalType": "uint256",
          "name": "",
          "type": "uint256"
        }
      ],
      "stateMutability": "view",
      "type": "function"
    },
    {
      "inputs": [],
      "name": "getMarketplaceContract",
      "outputs": [
        {
          "internalType": "address",
          "name": "",
          "type": "address"
        }
      ],
      "stateMutability": "view",
      "type": "function"
    },
    {
      "inputs": [],
      "name": "getNftContract",
      "outputs": [
        {
          "internalType": "address",
          "name": "",
          "type": "address"
        }
      ],
      "stateMutability": "view",
      "type": "function"
    },
    {
      "inputs": [
        {
          "internalType": "uint256",
          "name": "tokenId",
          "type": "uint256"
        }
      ],
      "name": "getTokenStaker",
      "outputs": [
        {
          "internalType": "address",
          "name": "",
          "type": "address"
        }
      ],
      "stateMutability": "view",
      "type": "function"
    },
    {
      "inputs": [],
      "name": "getTokensNumber",
      "outputs": [
        {
          "internalType": "uint256",
          "name": "",
          "type": "uint256"
        }
      ],
      "stateMutability": "view",
      "type": "function"
    },
    {
      "inputs": [
        {
          "internalType": "address",
          "name": "userAddress",
          "type": "address"
        }
      ],
      "name": "getUserDeposit",
      "outputs": [
        {
          "internalType": "uint256",
          "name": "",
          "type": "uint256"
        },
        {
          "internalType": "address",
          "name": "",
          "type": "address"
        },
        {
          "internalType": "uint256",
          "name": "",
          "type": "uint256"
        },
        {
          "internalType": "uint256",
          "name": "",
          "type": "uint256"
        },
        {
          "internalType": "uint256",
          "name": "",
          "type": "uint256"
        },
        {
          "internalType": "uint256",
          "name": "",
          "type": "uint256"
        },
        {
          "internalType": "uint256",
          "name": "",
          "type": "uint256"
        }
      ],
      "stateMutability": "view",
      "type": "function"
    },
    {
      "inputs": [
        {
          "internalType": "address",
          "name": "userAddress",
          "type": "address"
        },
        {
          "internalType": "uint256",
          "name": "index",
          "type": "uint256"
        }
      ],
      "name": "getUserTokenByIndex",
      "outputs": [
        {
          "internalType": "uint256",
          "name": "",
          "type": "uint256"
        }
      ],
      "stateMutability": "view",
      "type": "function"
    },
    {
      "inputs": [
        {
          "internalType": "address",
          "name": "userAddress",
          "type": "address"
        }
      ],
      "name": "getUserTokensNumber",
      "outputs": [
        {
          "internalType": "uint256",
          "name": "",
          "type": "uint256"
        }
      ],
      "stateMutability": "view",
      "type": "function"
    },
    {
      "inputs": [
        {
          "internalType": "address",
          "name": "operator",
          "type": "address"
        },
        {
          "internalType": "address",
          "name": "from",
          "type": "address"
        },
        {
          "internalType": "uint256",
          "name": "tokenId",
          "type": "uint256"
        },
        {
          "internalType": "bytes",
          "name": "data",
          "type": "bytes"
        }
      ],
      "name": "onERC721Received",
      "outputs": [
        {
          "internalType": "bytes4",
          "name": "",
          "type": "bytes4"
        }
      ],
      "stateMutability": "pure",
      "type": "function"
    },
    {
      "inputs": [],
      "name": "owner",
      "outputs": [
        {
          "internalType": "address",
          "name": "",
          "type": "address"
        }
      ],
      "stateMutability": "view",
      "type": "function"
    },
    {
      "inputs": [],
      "name": "renounceOwnership",
      "outputs": [],
      "stateMutability": "nonpayable",
      "type": "function"
    },
    {
      "inputs": [
        {
          "internalType": "uint256[]",
          "name": "tokenIds",
          "type": "uint256[]"
        }
      ],
      "name": "stake",
      "outputs": [
        {
          "internalType": "bool",
          "name": "",
          "type": "bool"
        }
      ],
      "stateMutability": "nonpayable",
      "type": "function"
    },
    {
      "inputs": [
        {
          "internalType": "address",
          "name": "newOwner",
          "type": "address"
        }
      ],
      "name": "transferOwnership",
      "outputs": [],
      "stateMutability": "nonpayable",
      "type": "function"
    },
    {
      "inputs": [
        {
          "internalType": "uint256[]",
          "name": "tokenIds",
          "type": "uint256[]"
        }
      ],
      "name": "unStake",
      "outputs": [
        {
          "internalType": "bool",
          "name": "",
          "type": "bool"
        }
      ],
      "stateMutability": "nonpayable",
      "type": "function"
    },
    {
      "inputs": [
        {
          "internalType": "uint256",
          "name": "amount",
          "type": "uint256"
        }
      ],
      "name": "withdrawYield",
      "outputs": [
        {
          "internalType": "bool",
          "name": "",
          "type": "bool"
        }
      ],
      "stateMutability": "nonpayable",
      "type": "function"
    }
  ],
  "bytecode": "0x608060405260646009556301e13380600a55670de0b6b3a7640000600c55600c54600d5542600e553480156200003457600080fd5b506040516200254f3803806200254f833981016040819052620000579162000267565b6200006b620000656200016a565b6200016e565b6001600160a01b0384166200009d5760405162461bcd60e51b815260040162000094906200034a565b60405180910390fd5b6001600160a01b038316620000c65760405162461bcd60e51b81526004016200009490620003b6565b6001600160a01b038216620000ef5760405162461bcd60e51b81526004016200009490620002c3565b6001600160a01b038116620001185760405162461bcd60e51b8152600401620000949062000402565b601080546001600160a01b038087166001600160a01b0319928316179092556011805486841690831617905560128054928516929091169190911790556200016081620001be565b5050505062000439565b3390565b600080546001600160a01b038381166001600160a01b0319831681178455604051919092169283917f8be0079c531659141344cd1fd0a4f28419497f9722a3daafe3b4186f6b6457e09190a35050565b620001c86200016a565b6001600160a01b0316620001db6200023b565b6001600160a01b031614620002045760405162461bcd60e51b8152600401620000949062000381565b6001600160a01b0381166200022d5760405162461bcd60e51b8152600401620000949062000304565b62000238816200016e565b50565b6000546001600160a01b031690565b80516001600160a01b03811681146200026257600080fd5b919050565b600080600080608085870312156200027d578384fd5b62000288856200024a565b935062000298602086016200024a565b9250620002a8604086016200024a565b9150620002b8606086016200024a565b905092959194509250565b60208082526021908201527f4e465420746f6b656e20616464726573732063616e206e6f74206265207a65726040820152606f60f81b606082015260800190565b60208082526026908201527f4f776e61626c653a206e6577206f776e657220697320746865207a65726f206160408201526564647265737360d01b606082015260800190565b6020808252601d908201527f546f6b656e20616464726573732063616e206e6f74206265207a65726f000000604082015260600190565b6020808252818101527f4f776e61626c653a2063616c6c6572206973206e6f7420746865206f776e6572604082015260600190565b6020808252602c908201527f4d61726b6574706c61636520636f6e747261637420616464726573732063616e60408201526b206e6f74206265207a65726f60a01b606082015260800190565b6020808252601d908201527f4f776e657220616464726573732063616e206e6f74206265207a65726f000000604082015260600190565b61210680620004496000396000f3fe608060405234801561001057600080fd5b50600436106102065760003560e01c806395dc3b3c1161011a578063bb0ae6fa116100ad578063cb803ceb1161007c578063cb803ceb14610428578063cbafcf3614610430578063daf6e46814610438578063efc5c46914610440578063f2fde38b1461045357610206565b8063bb0ae6fa146103d4578063c084b10b146103e7578063c0a4d64d1461040d578063c8e3ed8d1461041557610206565b8063ab31978f116100e9578063ab31978f14610393578063ae67a462146103a6578063aff46572146103b9578063b10dcc93146103c157610206565b806395dc3b3c14610340578063980ee683146103485780639f2234a31461035b5780639f9fb9681461036e57610206565b806355f36d1e1161019d57806368e0a48b1161016c57806368e0a48b14610300578063715018a61461031357806380a3301b1461031d578063845bc804146103305780638da5cb5b1461033857610206565b806355f36d1e146102ca5780635e77473c146102d2578063659ebdf2146102e5578063667c99de146102f857610206565b8063295c7d71116101d9578063295c7d711461027a5780632a32f71b1461028f578063496d4933146102a2578063536b780d146102b557610206565b8063095bc4f41461020b5780630fbf0a9314610234578063150b7a021461024757806317b455fe14610267575b600080fd5b61021e610219366004611c6f565b610466565b60405161022b9190611d47565b60405180910390f35b61021e610242366004611b73565b6104d9565b61025a610255366004611aae565b61063c565b60405161022b9190611d52565b61021e610275366004611c6f565b61064d565b6102826107b5565b60405161022b9190611f9c565b61028261029d366004611c6f565b61083b565b61021e6102b0366004611b73565b61084d565b6102bd610942565b60405161022b9190611cc3565b610282610951565b61021e6102e0366004611c4d565b610957565b6102bd6102f3366004611c6f565b610a21565b6102bd610a3c565b61021e61030e366004611a6f565b610a4b565b61031b610ad7565b005b61028261032b366004611c6f565b610b22565b610282610b33565b6102bd610b39565b610282610b48565b610282610356366004611c6f565b610b4e565b61021e610369366004611a6f565b610b63565b61038161037c366004611c6f565b610bef565b60405161022b96959493929190611d14565b61021e6103a1366004611c6f565b610c32565b6102826103b4366004611a6f565b610e12565b6102bd610e3d565b61021e6103cf366004611b73565b610e4c565b6102826103e2366004611b48565b610f01565b6103fa6103f5366004611a6f565b610f29565b60405161022b9796959493929190611fa5565b610282610f79565b61021e610423366004611c6f565b610f7f565b610282610fc9565b610282610fcf565b610282610fd5565b61021e61044e366004611a6f565b610fdb565b61031b610461366004611a6f565b611067565b60006104706110d8565b6001600160a01b0316610481610b39565b6001600160a01b0316146104b05760405162461bcd60e51b81526004016104a790611f0a565b60405180910390fd5b600082116104d05760405162461bcd60e51b81526004016104a790611e4a565b50600955600190565b6000808251116104fb5760405162461bcd60e51b81526004016104a790611dad565b33600090815260026020526040902054806105fc576007805490600061052083612074565b919050555060075490506040518060e00160405280336001600160a01b031681526020016000815260200142600f546105599190611fef565b8152600d54602080830191909152426040808401919091526000606080850182905260809485018290528682526001808552838320875181546001600160a01b0319166001600160a01b0390911617815587860151918101919091558684015160028083019190915591870151600382015594860151600486015560a0860151600586015560c0909501516006909401939093553383529290522081905561061d565b42600f5461060a9190611fef565b6000828152600160205260409020600201555b610626816110dc565b5061063233828561113a565b5060019392505050565b630a85bd0160e11b95945050505050565b60006106576110d8565b6001600160a01b0316610668610b39565b6001600160a01b03161461068e5760405162461bcd60e51b81526004016104a790611f0a565b6010546040516370a0823160e01b81526000916001600160a01b0316906370a08231906106bf903090600401611cc3565b60206040518083038186803b1580156106d757600080fd5b505afa1580156106eb573d6000803e3d6000fd5b505050506040513d601f19601f8201168201806040525081019061070f9190611c87565b9050808311156107315760405162461bcd60e51b81526004016104a790611e13565b60105460405163a9059cbb60e01b81526001600160a01b039091169063a9059cbb906107639033908790600401611cfb565b602060405180830381600087803b15801561077d57600080fd5b505af1158015610791573d6000803e3d6000fd5b505050506040513d601f19601f820116820180604052508101906106329190611c2d565b6010546040516370a0823160e01b81526000916001600160a01b0316906370a08231906107e6903090600401611cc3565b60206040518083038186803b1580156107fe57600080fd5b505afa158015610812573d6000803e3d6000fd5b505050506040513d601f19601f820116820180604052508101906108369190611c87565b905090565b60009081526006602052604090205490565b60006108576110d8565b6001600160a01b0316610868610b39565b6001600160a01b03161461088e5760405162461bcd60e51b81526004016104a790611f0a565b60005b82518110156109395760125483516001600160a01b03909116906342842e0e90309033908790869081106108d557634e487b7160e01b600052603260045260246000fd5b60200260200101516040518463ffffffff1660e01b81526004016108fb93929190611cd7565b600060405180830381600087803b15801561091557600080fd5b505af1925050508015610926575060015b508061093181612074565b915050610891565b50600192915050565b6010546001600160a01b031690565b600e5490565b60006109616110d8565b6001600160a01b0316610972610b39565b6001600160a01b0316146109985760405162461bcd60e51b81526004016104a790611f0a565b6000600e54426109a89190612046565b90506000600a5461271083600b54600c546109c39190612027565b6109cd9190612027565b6109d79190612007565b6109e19190612007565b600c546109ee9190611fef565b9050600c5481600d54610a019190612027565b610a0b9190612007565b600d5550505061ffff16600b5542600e55600190565b6000908152600360205260409020546001600160a01b031690565b6012546001600160a01b031690565b6000610a556110d8565b6001600160a01b0316610a66610b39565b6001600160a01b031614610a8c5760405162461bcd60e51b81526004016104a790611f0a565b6001600160a01b038216610ab25760405162461bcd60e51b81526004016104a790611e91565b50601280546001600160a01b0383166001600160a01b03199091161790556001919050565b610adf6110d8565b6001600160a01b0316610af0610b39565b6001600160a01b031614610b165760405162461bcd60e51b81526004016104a790611f0a565b610b206000611623565b565b6000610b2d82611673565b92915050565b600b5490565b6000546001600160a01b031690565b60085490565b60009081526001602052604090206003015490565b6000610b6d6110d8565b6001600160a01b0316610b7e610b39565b6001600160a01b031614610ba45760405162461bcd60e51b81526004016104a790611f0a565b6001600160a01b038216610bca5760405162461bcd60e51b81526004016104a790611e91565b50601080546001600160a01b0383166001600160a01b03199091161790556001919050565b60009081526001602081905260409091208054918101546002820154600483015460058401546006909401546001600160a01b0390951695929491939092909190565b3360009081526002602052604081205480610c5f5760405162461bcd60e51b81526004016104a790611f3f565b60008311610c7f5760405162461bcd60e51b81526004016104a790611ec8565b610c88816110dc565b50600081815260016020526040902060050154831115610cba5760405162461bcd60e51b81526004016104a790611ddc565b60008181526001602052604081206005018054859290610cdb908490612046565b90915550506010546040516370a0823160e01b81526000916001600160a01b0316906370a0823190610d11903090600401611cc3565b60206040518083038186803b158015610d2957600080fd5b505afa158015610d3d573d6000803e3d6000fd5b505050506040513d601f19601f82011682018060405250810190610d619190611c87565b905080841115610d835760405162461bcd60e51b81526004016104a790611e13565b60105460405163a9059cbb60e01b81526001600160a01b039091169063a9059cbb90610db59033908890600401611cfb565b602060405180830381600087803b158015610dcf57600080fd5b505af1158015610de3573d6000803e3d6000fd5b505050506040513d601f19601f82011682018060405250810190610e079190611c2d565b506001949350505050565b6001600160a01b03166000908152600260209081526040808320548352600190915290206006015490565b6011546001600160a01b031690565b600080825111610e6e5760405162461bcd60e51b81526004016104a790611dad565b3360009081526002602052604090205480610e9b5760405162461bcd60e51b81526004016104a790611f3f565b600081815260016020526040902060020154421015610ecc5760405162461bcd60e51b81526004016104a790611f6d565b610ed5816110dc565b5042600f54610ee49190611fef565b600082815260016020526040902060020155610632338285611778565b6001600160a01b03919091166000908152600460209081526040808320938352929052205490565b6001600160a01b0390811660009081526002602081815260408084205480855260019283905293208054918101549281015460048201546005830154600690930154959793909616959394909392565b600f5490565b6000610f896110d8565b6001600160a01b0316610f9a610b39565b6001600160a01b031614610fc05760405162461bcd60e51b81526004016104a790611f0a565b50600f55600190565b600d5490565b60095490565b60075490565b6000610fe56110d8565b6001600160a01b0316610ff6610b39565b6001600160a01b03161461101c5760405162461bcd60e51b81526004016104a790611f0a565b6001600160a01b0382166110425760405162461bcd60e51b81526004016104a790611e91565b50601180546001600160a01b0383166001600160a01b03199091161790556001919050565b61106f6110d8565b6001600160a01b0316611080610b39565b6001600160a01b0316146110a65760405162461bcd60e51b81526004016104a790611f0a565b6001600160a01b0381166110cc5760405162461bcd60e51b81526004016104a790611d67565b6110d581611623565b50565b3390565b6000806110e883611673565b9050806001600085815260200190815260200160002060050160008282546111109190611fef565b909155505050600091825250600160208190526040909120426004820155600d5460039091015590565b6000805b8251811015610e0757600954811061115557610e07565b60006001600160a01b03166003600085848151811061118457634e487b7160e01b600052603260045260246000fd5b6020908102919091018101518252810191909152604001600020546001600160a01b0316146111b257611611565b60115483516000916001600160a01b03169063b6749d94908690859081106111ea57634e487b7160e01b600052603260045260246000fd5b60200260200101516040518263ffffffff1660e01b815260040161120e9190611f9c565b602060405180830381600087803b15801561122857600080fd5b505af115801561123c573d6000803e3d6000fd5b505050506040513d601f19601f820116820180604052508101906112609190611c9f565b6011546040516302d1003b60e01b81529192506000916001600160a01b03909116906302d1003b90611296908590600401611fde565b60206040518083038186803b1580156112ae57600080fd5b505afa1580156112c2573d6000803e3d6000fd5b505050506040513d601f19601f820116820180604052508101906112e69190611c87565b9050600081116112f7575050611611565b60125485516001600160a01b0390911690636352211e9087908690811061132e57634e487b7160e01b600052603260045260246000fd5b60200260200101516040518263ffffffff1660e01b81526004016113529190611f9c565b602060405180830381600087803b15801561136c57600080fd5b505af192505050801561139c575060408051601f3d908101601f1916820190925261139991810190611a92565b60015b6113a55761160e565b876001600160a01b0316816001600160a01b0316146113c657505050611611565b60125486516001600160a01b03909116906342842e0e908a9030908a908990811061140157634e487b7160e01b600052603260045260246000fd5b60200260200101516040518463ffffffff1660e01b815260040161142793929190611cd7565b600060405180830381600087803b15801561144157600080fd5b505af1158015611455573d6000803e3d6000fd5b50505050816006600088878151811061147e57634e487b7160e01b600052603260045260246000fd5b60200260200101518152602001908152602001600020819055506001600088815260200190815260200160002060060160008154809291906114bf90612074565b9091555050600880549060006114d483612074565b9091555050600087815260016020819052604082200180548492906114fa908490611fef565b9250508190555085848151811061152157634e487b7160e01b600052603260045260246000fd5b6020908102919091018101516001600160a01b038a1660008181526004845260408082208c83526001865281832060060180548452908652818320949094559254918152600590935290822088519192909189908890811061159357634e487b7160e01b600052603260045260246000fd5b602002602001015181526020019081526020016000208190555087600360008887815181106115d257634e487b7160e01b600052603260045260246000fd5b6020026020010151815260200190815260200160002060006101000a8154816001600160a01b0302191690836001600160a01b03160217905550505b50505b8061161b81612074565b91505061113e565b600080546001600160a01b038381166001600160a01b0319831681178455604051919092169283917f8be0079c531659141344cd1fd0a4f28419497f9722a3daafe3b4186f6b6457e09190a35050565b600d54600e54600083815260016020526040812060040154909291908110156116aa57506000838152600160205260409020600401545b60006116b68242612046565b90508015611720576000600a5461271083600b54600c546116d79190612027565b6116e19190612027565b6116eb9190612007565b6116f59190612007565b600c546117029190611fef565b600c549091506117128286612027565b61171c9190612007565b9350505b600085815260016020819052604082206003810154910154611743908690612027565b61174d9190612007565b6000878152600160208190526040822001549192509061176d9083612046565b979650505050505050565b6000805b8251811015610e0757600954811061179357610e07565b846001600160a01b0316600360008584815181106117c157634e487b7160e01b600052603260045260246000fd5b6020908102919091018101518252810191909152604001600020546001600160a01b0316146117ef57611a5d565b6006600084838151811061181357634e487b7160e01b600052603260045260246000fd5b602002602001015181526020019081526020016000205460016000868152602001908152602001600020600101600082825461184f9190612046565b90915550506001600160a01b03851660009081526005602052604081208451829086908590811061189057634e487b7160e01b600052603260045260246000fd5b602002602001015181526020019081526020016000205490506001600086815260200190815260200160002060060154811015611916576001600160a01b03861660008181526004602090815260408083208984526001835281842060060154845282528083205485845281842081905593835260058252808320938352929052208190555b6001600160a01b0386166000908152600460209081526040808320888452600180845282852060060180548652918452918420849055888452915280549161195d8361205d565b9091555050600880549060006119728361205d565b919050555060006003600086858151811061199d57634e487b7160e01b600052603260045260246000fd5b602090810291909101810151825281019190915260400160002080546001600160a01b0319166001600160a01b0392831617905560125485519116906342842e0e9030908990889087908110611a0357634e487b7160e01b600052603260045260246000fd5b60200260200101516040518463ffffffff1660e01b8152600401611a2993929190611cd7565b600060405180830381600087803b158015611a4357600080fd5b505af1158015611a57573d6000803e3d6000fd5b50505050505b80611a6781612074565b91505061177c565b600060208284031215611a80578081fd5b8135611a8b816120bb565b9392505050565b600060208284031215611aa3578081fd5b8151611a8b816120bb565b600080600080600060808688031215611ac5578081fd5b8535611ad0816120bb565b94506020860135611ae0816120bb565b935060408601359250606086013567ffffffffffffffff80821115611b03578283fd5b818801915088601f830112611b16578283fd5b813581811115611b24578384fd5b896020828501011115611b35578384fd5b9699959850939650602001949392505050565b60008060408385031215611b5a578182fd5b8235611b65816120bb565b946020939093013593505050565b60006020808385031215611b85578182fd5b823567ffffffffffffffff80821115611b9c578384fd5b818501915085601f830112611baf578384fd5b813581811115611bc157611bc16120a5565b83810260405185828201018181108582111715611be057611be06120a5565b604052828152858101935084860182860187018a1015611bfe578788fd5b8795505b83861015611c20578035855260019590950194938601938601611c02565b5098975050505050505050565b600060208284031215611c3e578081fd5b81518015158114611a8b578182fd5b600060208284031215611c5e578081fd5b813561ffff81168114611a8b578182fd5b600060208284031215611c80578081fd5b5035919050565b600060208284031215611c98578081fd5b5051919050565b600060208284031215611cb0578081fd5b815163ffffffff81168114611a8b578182fd5b6001600160a01b0391909116815260200190565b6001600160a01b039384168152919092166020820152604081019190915260600190565b6001600160a01b03929092168252602082015260400190565b6001600160a01b03969096168652602086019490945260408501929092526060840152608083015260a082015260c00190565b901515815260200190565b6001600160e01b031991909116815260200190565b60208082526026908201527f4f776e61626c653a206e6577206f776e657220697320746865207a65726f206160408201526564647265737360d01b606082015260800190565b602080825260159082015274139bc81d1bdad95b881a591cc81c1c9bdd9a591959605a1b604082015260600190565b6020808252601b908201527f4e6f7420656e6f756768207969656c64206174206465706f7369740000000000604082015260600190565b6020808252601b908201527f4e6f7420656e6f75676820636f6e74726163742062616c616e63650000000000604082015260600190565b60208082526027908201527f4261746368206c696d69742073686f756c642062652067726561746572207468604082015266616e207a65726f60c81b606082015260800190565b6020808252601d908201527f546f6b656e20616464726573732063616e206e6f74206265207a65726f000000604082015260600190565b60208082526022908201527f416d6f756e742073686f756c642062652067726561746572207468616e207a65604082015261726f60f01b606082015260800190565b6020808252818101527f4f776e61626c653a2063616c6c6572206973206e6f7420746865206f776e6572604082015260600190565b60208082526014908201527311195c1bdcda5d081a5cc81b9bdd08199bdd5b9960621b604082015260600190565b60208082526015908201527411195c1bdcda5d081a5cc81b1bd8dad959081e595d605a1b604082015260600190565b90815260200190565b9687526001600160a01b0395909516602087015260408601939093526060850191909152608084015260a083015260c082015260e00190565b63ffffffff91909116815260200190565b600082198211156120025761200261208f565b500190565b60008261202257634e487b7160e01b81526012600452602481fd5b500490565b60008160001904831182151516156120415761204161208f565b500290565b6000828210156120585761205861208f565b500390565b60008161206c5761206c61208f565b506000190190565b60006000198214156120885761208861208f565b5060010190565b634e487b7160e01b600052601160045260246000fd5b634e487b7160e01b600052604160045260246000fd5b6001600160a01b03811681146110d557600080fdfea2646970667358221220538f7ca9121c04841c6618cc9aa9c9e401a0e931608c6bf5f080a723427e965b64736f6c63430008000033",
  "linkReferences": {},
  "deployedLinkReferences": {}
}