{
  "_format": "hh-sol-artifact-1",
  "contractName": "CyclopsTokens",
  "sourceName": "contracts/nft_pub.sol",
  "abi": [
    {
      "inputs": [],
      "stateMutability": "nonpayable",
      "type": "constructor"
    },
    {
      "anonymous": false,
      "inputs": [
        {
          "indexed": true,
          "internalType": "address",
          "name": "_owner",
          "type": "address"
        },
        {
          "indexed": true,
          "internalType": "address",
          "name": "_approved",
          "type": "address"
        },
        {
          "indexed": true,
          "internalType": "uint256",
          "name": "_tokenId",
          "type": "uint256"
        }
      ],
      "name": "Approval",
      "type": "event"
    },
    {
      "anonymous": false,
      "inputs": [
        {
          "indexed": true,
          "internalType": "address",
          "name": "_owner",
          "type": "address"
        },
        {
          "indexed": true,
          "internalType": "address",
          "name": "_operator",
          "type": "address"
        },
        {
          "indexed": false,
          "internalType": "bool",
          "name": "_approved",
          "type": "bool"
        }
      ],
      "name": "ApprovalForAll",
      "type": "event"
    },
    {
      "anonymous": false,
      "inputs": [
        {
          "indexed": true,
          "internalType": "address",
          "name": "previousOwner",
          "type": "address"
        },
        {
          "indexed": true,
          "internalType": "address",
          "name": "newOwner",
          "type": "address"
        }
      ],
      "name": "OwnershipTransferred",
      "type": "event"
    },
    {
      "anonymous": false,
      "inputs": [
        {
          "indexed": true,
          "internalType": "address",
          "name": "_from",
          "type": "address"
        },
        {
          "indexed": true,
          "internalType": "address",
          "name": "_to",
          "type": "address"
        },
        {
          "indexed": true,
          "internalType": "uint256",
          "name": "_tokenId",
          "type": "uint256"
        }
      ],
      "name": "Transfer",
      "type": "event"
    },
    {
      "inputs": [],
      "name": "CANNOT_TRANSFER_TO_ZERO_ADDRESS",
      "outputs": [
        {
          "internalType": "string",
          "name": "",
          "type": "string"
        }
      ],
      "stateMutability": "view",
      "type": "function"
    },
    {
      "inputs": [],
      "name": "NOT_CURRENT_OWNER",
      "outputs": [
        {
          "internalType": "string",
          "name": "",
          "type": "string"
        }
      ],
      "stateMutability": "view",
      "type": "function"
    },
    {
      "inputs": [
        {
          "internalType": "address",
          "name": "_approved",
          "type": "address"
        },
        {
          "internalType": "uint256",
          "name": "_tokenId",
          "type": "uint256"
        }
      ],
      "name": "approve",
      "outputs": [],
      "stateMutability": "nonpayable",
      "type": "function"
    },
    {
      "inputs": [
        {
          "internalType": "address",
          "name": "_owner",
          "type": "address"
        }
      ],
      "name": "balanceOf",
      "outputs": [
        {
          "internalType": "uint256",
          "name": "",
          "type": "uint256"
        }
      ],
      "stateMutability": "view",
      "type": "function"
    },
    {
      "inputs": [
        {
          "internalType": "uint256",
          "name": "_tokenId",
          "type": "uint256"
        }
      ],
      "name": "burn",
      "outputs": [],
      "stateMutability": "nonpayable",
      "type": "function"
    },
    {
      "inputs": [
        {
          "internalType": "uint256",
          "name": "_tokenId",
          "type": "uint256"
        }
      ],
      "name": "getApproved",
      "outputs": [
        {
          "internalType": "address",
          "name": "",
          "type": "address"
        }
      ],
      "stateMutability": "view",
      "type": "function"
    },
    {
      "inputs": [],
      "name": "getBankContract",
      "outputs": [
        {
          "internalType": "address",
          "name": "",
          "type": "address"
        }
      ],
      "stateMutability": "view",
      "type": "function"
    },
    {
      "inputs": [],
      "name": "getContractBalance",
      "outputs": [
        {
          "internalType": "uint256",
          "name": "",
          "type": "uint256"
        }
      ],
      "stateMutability": "view",
      "type": "function"
    },
    {
      "inputs": [],
      "name": "getPublisher",
      "outputs": [
        {
          "internalType": "address",
          "name": "",
          "type": "address"
        }
      ],
      "stateMutability": "view",
      "type": "function"
    },
    {
      "inputs": [
        {
          "internalType": "address",
          "name": "_owner",
          "type": "address"
        },
        {
          "internalType": "address",
          "name": "_operator",
          "type": "address"
        }
      ],
      "name": "isApprovedForAll",
      "outputs": [
        {
          "internalType": "bool",
          "name": "",
          "type": "bool"
        }
      ],
      "stateMutability": "view",
      "type": "function"
    },
    {
      "inputs": [
        {
          "internalType": "address",
          "name": "_to",
          "type": "address"
        },
        {
          "internalType": "uint256",
          "name": "_tokenId",
          "type": "uint256"
        },
        {
          "internalType": "string",
          "name": "_uri",
          "type": "string"
        }
      ],
      "name": "mint",
      "outputs": [],
      "stateMutability": "nonpayable",
      "type": "function"
    },
    {
      "inputs": [],
      "name": "name",
      "outputs": [
        {
          "internalType": "string",
          "name": "_name",
          "type": "string"
        }
      ],
      "stateMutability": "view",
      "type": "function"
    },
    {
      "inputs": [],
      "name": "owner",
      "outputs": [
        {
          "internalType": "address",
          "name": "",
          "type": "address"
        }
      ],
      "stateMutability": "view",
      "type": "function"
    },
    {
      "inputs": [
        {
          "internalType": "uint256",
          "name": "_tokenId",
          "type": "uint256"
        }
      ],
      "name": "ownerOf",
      "outputs": [
        {
          "internalType": "address",
          "name": "_owner",
          "type": "address"
        }
      ],
      "stateMutability": "view",
      "type": "function"
    },
    {
      "inputs": [
        {
          "internalType": "address",
          "name": "_from",
          "type": "address"
        },
        {
          "internalType": "address",
          "name": "_to",
          "type": "address"
        },
        {
          "internalType": "uint256",
          "name": "_tokenId",
          "type": "uint256"
        }
      ],
      "name": "safeTransferFrom",
      "outputs": [],
      "stateMutability": "nonpayable",
      "type": "function"
    },
    {
      "inputs": [
        {
          "internalType": "address",
          "name": "_from",
          "type": "address"
        },
        {
          "internalType": "address",
          "name": "_to",
          "type": "address"
        },
        {
          "internalType": "uint256",
          "name": "_tokenId",
          "type": "uint256"
        },
        {
          "internalType": "bytes",
          "name": "_data",
          "type": "bytes"
        }
      ],
      "name": "safeTransferFrom",
      "outputs": [],
      "stateMutability": "nonpayable",
      "type": "function"
    },
    {
      "inputs": [
        {
          "internalType": "address",
          "name": "_operator",
          "type": "address"
        },
        {
          "internalType": "bool",
          "name": "_approved",
          "type": "bool"
        }
      ],
      "name": "setApprovalForAll",
      "outputs": [],
      "stateMutability": "nonpayable",
      "type": "function"
    },
    {
      "inputs": [
        {
          "internalType": "string",
          "name": "new_name",
          "type": "string"
        }
      ],
      "name": "setNFTName",
      "outputs": [],
      "stateMutability": "nonpayable",
      "type": "function"
    },
    {
      "inputs": [
        {
          "internalType": "string",
          "name": "new_symbol",
          "type": "string"
        }
      ],
      "name": "setNFTSymbol",
      "outputs": [],
      "stateMutability": "nonpayable",
      "type": "function"
    },
    {
      "inputs": [
        {
          "internalType": "bytes4",
          "name": "_interfaceID",
          "type": "bytes4"
        }
      ],
      "name": "supportsInterface",
      "outputs": [
        {
          "internalType": "bool",
          "name": "",
          "type": "bool"
        }
      ],
      "stateMutability": "view",
      "type": "function"
    },
    {
      "inputs": [],
      "name": "symbol",
      "outputs": [
        {
          "internalType": "string",
          "name": "_symbol",
          "type": "string"
        }
      ],
      "stateMutability": "view",
      "type": "function"
    },
    {
      "inputs": [
        {
          "internalType": "uint256",
          "name": "_index",
          "type": "uint256"
        }
      ],
      "name": "tokenByIndex",
      "outputs": [
        {
          "internalType": "uint256",
          "name": "",
          "type": "uint256"
        }
      ],
      "stateMutability": "view",
      "type": "function"
    },
    {
      "inputs": [
        {
          "internalType": "address",
          "name": "_owner",
          "type": "address"
        },
        {
          "internalType": "uint256",
          "name": "_index",
          "type": "uint256"
        }
      ],
      "name": "tokenOfOwnerByIndex",
      "outputs": [
        {
          "internalType": "uint256",
          "name": "",
          "type": "uint256"
        }
      ],
      "stateMutability": "view",
      "type": "function"
    },
    {
      "inputs": [
        {
          "internalType": "uint256",
          "name": "_tokenId",
          "type": "uint256"
        }
      ],
      "name": "tokenURI",
      "outputs": [
        {
          "internalType": "string",
          "name": "",
          "type": "string"
        }
      ],
      "stateMutability": "view",
      "type": "function"
    },
    {
      "inputs": [],
      "name": "totalSupply",
      "outputs": [
        {
          "internalType": "uint256",
          "name": "",
          "type": "uint256"
        }
      ],
      "stateMutability": "view",
      "type": "function"
    },
    {
      "inputs": [
        {
          "internalType": "address",
          "name": "newBankContract",
          "type": "address"
        }
      ],
      "name": "transferBankRight",
      "outputs": [],
      "stateMutability": "nonpayable",
      "type": "function"
    },
    {
      "inputs": [
        {
          "internalType": "address",
          "name": "_from",
          "type": "address"
        },
        {
          "internalType": "address",
          "name": "_to",
          "type": "address"
        },
        {
          "internalType": "uint256",
          "name": "_tokenId",
          "type": "uint256"
        }
      ],
      "name": "transferFrom",
      "outputs": [],
      "stateMutability": "nonpayable",
      "type": "function"
    },
    {
      "inputs": [
        {
          "internalType": "address",
          "name": "_newOwner",
          "type": "address"
        }
      ],
      "name": "transferOwnership",
      "outputs": [],
      "stateMutability": "nonpayable",
      "type": "function"
    },
    {
      "inputs": [
        {
          "internalType": "address",
          "name": "newPublisher",
          "type": "address"
        }
      ],
      "name": "transferPublishRight",
      "outputs": [],
      "stateMutability": "nonpayable",
      "type": "function"
    },
    {
      "inputs": [
        {
          "internalType": "address payable",
          "name": "sendTo",
          "type": "address"
        },
        {
          "internalType": "uint256",
          "name": "amount",
          "type": "uint256"
        }
      ],
      "name": "withdraw",
      "outputs": [],
      "stateMutability": "nonpayable",
      "type": "function"
    }
  ],
  "bytecode": "0x6080604052600d80546001600160a01b0319908116909155600e805490911690553480156200002d57600080fd5b50600060208181527f67be87c3ff9960ca1e9cfac5cab2ff4747269cf9ed20c9b7306235ac35a491c5805460ff1990811660019081179092557ff7815fccbf112960a73756e185887fedcb9fc64ca0a16cc5923b7960ed78080080548216831790557f77b7bbe0e49b76487c9476b5db3354cf5270619d0037ccb899c2a4c4a75b43188054821683179055635b5e139f60e01b9093527f9562381dfbc2d8b8b66e765249f330164b73e329e5f01670660643571d1974df805490931617909155600c80546001600160a01b03191633179055604080518082019091526007808252664379636c6f707360c81b919092019081526200012f916009919062000179565b50604080518082019091526007808252664379636c6f707360c81b60209092019182526200016091600a9162000179565b50600d80546001600160a01b0319163317905562000215565b828054600181600116156101000203166002900490600052602060002090601f016020900481019282601f10620001bc57805160ff1916838001178555620001ec565b82800160010185558215620001ec579182015b82811115620001ec578251825591602001919060010190620001cf565b50620001fa929150620001fe565b5090565b5b80821115620001fa5760008155600101620001ff565b61262980620002256000396000f3fe608060405234801561001057600080fd5b50600436106101da5760003560e01c80637bad2b1511610104578063b88d4fde116100a2578063e985e9c511610071578063e985e9c5146106e1578063f2fde38b1461070f578063f3fe3bc314610735578063f3fef3a31461073d576101da565b8063b88d4fde146105ab578063c87b56dd14610639578063d3fc986414610656578063dbf4ab4e146106d9576101da565b80638b0f90e7116100de5780638b0f90e7146105655780638da5cb5b1461056d57806395d89b4114610575578063a22cb4651461057d576101da565b80637bad2b15146105115780638124bdd214610537578063860d248a1461055d576101da565b80633caa10dc1161017c5780634f6ccce71161014b5780634f6ccce7146104a95780636352211e146104c65780636f9fb98a146104e357806370a08231146104eb576101da565b80633caa10dc1461037a5780633fb9337b146103e857806342842e0e1461045657806342966c681461048c576101da565b8063095ea7b3116101b8578063095ea7b3146102d057806318160ddd146102fe57806323b872dd146103185780632f745c591461034e576101da565b806301ffc9a7146101df57806306fdde031461021a578063081812fc14610297575b600080fd5b610206600480360360208110156101f557600080fd5b50356001600160e01b031916610769565b604080519115158252519081900360200190f35b610222610788565b6040805160208082528351818301528351919283929083019185019080838360005b8381101561025c578181015183820152602001610244565b50505050905090810190601f1680156102895780820380516001836020036101000a031916815260200191505b509250505060405180910390f35b6102b4600480360360208110156102ad57600080fd5b503561081e565b604080516001600160a01b039092168252519081900360200190f35b6102fc600480360360408110156102e657600080fd5b506001600160a01b038135169060200135610902565b005b610306610b2e565b60408051918252519081900360200190f35b6102fc6004803603606081101561032e57600080fd5b506001600160a01b03813581169160208101359091169060400135610b34565b6103066004803603604081101561036457600080fd5b506001600160a01b038135169060200135610da7565b6102fc6004803603602081101561039057600080fd5b810190602081018135600160201b8111156103aa57600080fd5b8201836020820111156103bc57600080fd5b803590602001918460018302840111600160201b831117156103dd57600080fd5b509092509050610e66565b6102fc600480360360208110156103fe57600080fd5b810190602081018135600160201b81111561041857600080fd5b82018360208201111561042a57600080fd5b803590602001918460018302840111600160201b8311171561044b57600080fd5b509092509050610eef565b6102fc6004803603606081101561046c57600080fd5b506001600160a01b03813581169160208101359091169060400135610f73565b6102fc600480360360208110156104a257600080fd5b5035610f8e565b610306600480360360208110156104bf57600080fd5b5035611007565b6102b4600480360360208110156104dc57600080fd5b5035611097565b61030661111d565b6103066004803603602081101561050157600080fd5b50356001600160a01b0316611121565b6102fc6004803603602081101561052757600080fd5b50356001600160a01b03166111a6565b6102fc6004803603602081101561054d57600080fd5b50356001600160a01b0316611240565b6102226112da565b6102b46112fc565b6102b461130b565b61022261131a565b6102fc6004803603604081101561059357600080fd5b506001600160a01b038135169060200135151561137b565b6102fc600480360360808110156105c157600080fd5b6001600160a01b03823581169260208101359091169160408201359190810190608081016060820135600160201b8111156105fb57600080fd5b82018360208201111561060d57600080fd5b803590602001918460018302840111600160201b8311171561062e57600080fd5b5090925090506113e9565b6102226004803603602081101561064f57600080fd5b5035611432565b6102fc6004803603606081101561066c57600080fd5b6001600160a01b0382351691602081013591810190606081016040820135600160201b81111561069b57600080fd5b8201836020820111156106ad57600080fd5b803590602001918460018302840111600160201b831117156106ce57600080fd5b50909250905061155c565b6102b4611619565b610206600480360360408110156106f757600080fd5b506001600160a01b0381358116916020013516611628565b6102fc6004803603602081101561072557600080fd5b50356001600160a01b0316611656565b61022261179d565b6102fc6004803603604081101561075357600080fd5b506001600160a01b0381351690602001356117bf565b6001600160e01b03191660009081526020819052604090205460ff1690565b60098054604080516020601f60026000196101006001881615020190951694909404938401819004810282018101909252828152606093909290918301828280156108145780601f106107e957610100808354040283529160200191610814565b820191906000526020600020905b8154815290600101906020018083116107f757829003601f168201915b5050505050905090565b6000818152600160209081526040808320548151808301909252600682526518181998181960d11b9282019290925283916001600160a01b03166108e05760405162461bcd60e51b81526004018080602001828103825283818151815260200191508051906020019080838360005b838110156108a557818101518382015260200161088d565b50505050905090810190601f1680156108d25780820380516001836020036101000a031916815260200191505b509250505060405180910390fd5b506000838152600260205260409020546001600160a01b031691505b50919050565b60008181526001602052604090205481906001600160a01b03163381148061094d57506001600160a01b038116600090815260046020908152604080832033845290915290205460ff165b6040518060400160405280600681526020016530303330303360d01b815250906109b85760405162461bcd60e51b81526020600482018181528351602484015283519092839260449091019190850190808383600083156108a557818101518382015260200161088d565b50600083815260016020908152604091829020548251808401909352600683526518181998181960d11b918301919091528491906001600160a01b0316610a405760405162461bcd60e51b81526020600482018181528351602484015283519092839260449091019190850190808383600083156108a557818101518382015260200161088d565b50600084815260016020908152604091829020548251808401909352600683526506060666060760d31b918301919091526001600160a01b0390811691908716821415610ace5760405162461bcd60e51b81526020600482018181528351602484015283519092839260449091019190850190808383600083156108a557818101518382015260200161088d565b5060008581526002602052604080822080546001600160a01b0319166001600160a01b038a811691821790925591518893918516917f8c5be1e5ebec7d5bd14f71427d1e84f3dd0314c0f7b2291e5b200ac8c7c3b92591a4505050505050565b60055490565b60008181526001602052604090205481906001600160a01b031633811480610b7257506000828152600260205260409020546001600160a01b031633145b80610ba057506001600160a01b038116600090815260046020908152604080832033845290915290205460ff165b604051806040016040528060068152602001650c0c0ccc0c0d60d21b81525090610c0b5760405162461bcd60e51b81526020600482018181528351602484015283519092839260449091019190850190808383600083156108a557818101518382015260200161088d565b50600083815260016020908152604091829020548251808401909352600683526518181998181960d11b918301919091528491906001600160a01b0316610c935760405162461bcd60e51b81526020600482018181528351602484015283519092839260449091019190850190808383600083156108a557818101518382015260200161088d565b50600084815260016020908152604091829020548251808401909352600683526530303330303760d01b918301919091526001600160a01b03908116919088168214610d205760405162461bcd60e51b81526020600482018181528351602484015283519092839260449091019190850190808383600083156108a557818101518382015260200161088d565b5060408051808201909152600681526530303330303160d01b60208201526001600160a01b038716610d935760405162461bcd60e51b81526020600482018181528351602484015283519092839260449091019190850190808383600083156108a557818101518382015260200161088d565b50610d9e86866118b7565b50505050505050565b6001600160a01b0382166000908152600760209081526040808320548151808301909252600682526530303530303760d01b92820192909252908310610e2e5760405162461bcd60e51b81526020600482018181528351602484015283519092839260449091019190850190808383600083156108a557818101518382015260200161088d565b506001600160a01b0383166000908152600760205260409020805483908110610e5357fe5b9060005260206000200154905092915050565b600c5460408051808201909152600681526530313830303160d01b6020820152906001600160a01b03163314610edd5760405162461bcd60e51b81526020600482018181528351602484015283519092839260449091019190850190808383600083156108a557818101518382015260200161088d565b50610eea60098383612481565b505050565b600c5460408051808201909152600681526530313830303160d01b6020820152906001600160a01b03163314610f665760405162461bcd60e51b81526020600482018181528351602484015283519092839260449091019190850190808383600083156108a557818101518382015260200161088d565b50610eea600a8383612481565b610eea83838360405180602001604052806000815250611932565b600d546001600160a01b0316331480610fc05750600e546001600160a01b031633148015610fc05750610fc033611d3f565b610ffb5760405162461bcd60e51b815260040180806020018281038252602d8152602001806125c7602d913960400191505060405180910390fd5b61100481611d4b565b50565b60055460408051808201909152600681526530303530303760d01b602082015260009183106110775760405162461bcd60e51b81526020600482018181528351602484015283519092839260449091019190850190808383600083156108a557818101518382015260200161088d565b506005828154811061108557fe5b90600052602060002001549050919050565b600081815260016020908152604091829020548251808401909352600683526518181998181960d11b918301919091526001600160a01b031690816108fc5760405162461bcd60e51b81526020600482018181528351602484015283519092839260449091019190850190808383600083156108a557818101518382015260200161088d565b4790565b60408051808201909152600681526530303330303160d01b60208201526000906001600160a01b0383166111965760405162461bcd60e51b81526020600482018181528351602484015283519092839260449091019190850190808383600083156108a557818101518382015260200161088d565b506111a082611d92565b92915050565b600c5460408051808201909152600681526530313830303160d01b6020820152906001600160a01b0316331461121d5760405162461bcd60e51b81526020600482018181528351602484015283519092839260449091019190850190808383600083156108a557818101518382015260200161088d565b50600d80546001600160a01b0319166001600160a01b0392909216919091179055565b600c5460408051808201909152600681526530313830303160d01b6020820152906001600160a01b031633146112b75760405162461bcd60e51b81526020600482018181528351602484015283519092839260449091019190850190808383600083156108a557818101518382015260200161088d565b50600e80546001600160a01b0319166001600160a01b0392909216919091179055565b6040518060400160405280600681526020016518189c18181960d11b81525081565b600e546001600160a01b031690565b600c546001600160a01b031681565b600a8054604080516020601f60026000196101006001881615020190951694909404938401819004810282018101909252828152606093909290918301828280156108145780601f106107e957610100808354040283529160200191610814565b3360008181526004602090815260408083206001600160a01b03871680855290835292819020805460ff1916861515908117909155815190815290519293927f17307eab39ab6107e8899845ad3d59bd9653f200f220920489ca2b5937696c31929181900390910190a35050565b61142b85858585858080601f01602080910402602001604051908101604052809392919081815260200183838082843760009201919091525061193292505050565b5050505050565b600081815260016020908152604091829020548251808401909352600683526518181998181960d11b9183019190915260609183916001600160a01b03166114bb5760405162461bcd60e51b81526020600482018181528351602484015283519092839260449091019190850190808383600083156108a557818101518382015260200161088d565b506000838152600b602090815260409182902080548351601f60026000196101006001861615020190931692909204918201849004840281018401909452808452909183018282801561154f5780601f106115245761010080835404028352916020019161154f565b820191906000526020600020905b81548152906001019060200180831161153257829003601f168201915b5050505050915050919050565b600d546001600160a01b031633148061158e5750600e546001600160a01b03163314801561158e575061158e33611d3f565b6115c95760405162461bcd60e51b815260040180806020018281038252602d8152602001806125c7602d913960400191505060405180910390fd5b6115d38484611d9d565b6116138383838080601f016020809104026020016040519081016040528093929190818152602001838380828437600092019190915250611df192505050565b50505050565b600d546001600160a01b031690565b6001600160a01b03918216600090815260046020908152604080832093909416825291909152205460ff1690565b600c5460408051808201909152600681526530313830303160d01b6020820152906001600160a01b031633146116cd5760405162461bcd60e51b81526020600482018181528351602484015283519092839260449091019190850190808383600083156108a557818101518382015260200161088d565b5060408051808201909152600681526518189c18181960d11b60208201526001600160a01b0382166117405760405162461bcd60e51b81526020600482018181528351602484015283519092839260449091019190850190808383600083156108a557818101518382015260200161088d565b50600c546040516001600160a01b038084169216907f8be0079c531659141344cd1fd0a4f28419497f9722a3daafe3b4186f6b6457e090600090a3600c80546001600160a01b0319166001600160a01b0392909216919091179055565b6040518060400160405280600681526020016530313830303160d01b81525081565b600c5460408051808201909152600681526530313830303160d01b6020820152906001600160a01b031633146118365760405162461bcd60e51b81526020600482018181528351602484015283519092839260449091019190850190808383600083156108a557818101518382015260200161088d565b5080471015611881576040805162461bcd60e51b8152602060048201526012602482015271756e73756666696369656e742066756e647360701b604482015290519081900360640190fd5b6040516001600160a01b0383169082156108fc029083906000818181858888f19350505050158015610eea573d6000803e3d6000fd5b6000818152600160205260409020546001600160a01b03166118d882611e98565b6118e28183611ed3565b6118ec8383611ee1565b81836001600160a01b0316826001600160a01b03167fddf252ad1be2c89b69c2b068fc378daa952ba7f163c4a11628f55a4df523b3ef60405160405180910390a4505050565b60008281526001602052604090205482906001600160a01b03163381148061197057506000828152600260205260409020546001600160a01b031633145b8061199e57506001600160a01b038116600090815260046020908152604080832033845290915290205460ff165b604051806040016040528060068152602001650c0c0ccc0c0d60d21b81525090611a095760405162461bcd60e51b81526020600482018181528351602484015283519092839260449091019190850190808383600083156108a557818101518382015260200161088d565b50600084815260016020908152604091829020548251808401909352600683526518181998181960d11b918301919091528591906001600160a01b0316611a915760405162461bcd60e51b81526020600482018181528351602484015283519092839260449091019190850190808383600083156108a557818101518382015260200161088d565b50600085815260016020908152604091829020548251808401909352600683526530303330303760d01b918301919091526001600160a01b03908116919089168214611b1e5760405162461bcd60e51b81526020600482018181528351602484015283519092839260449091019190850190808383600083156108a557818101518382015260200161088d565b5060408051808201909152600681526530303330303160d01b60208201526001600160a01b038816611b915760405162461bcd60e51b81526020600482018181528351602484015283519092839260449091019190850190808383600083156108a557818101518382015260200161088d565b50611b9c87876118b7565b611bae876001600160a01b0316611eeb565b15611d35576000876001600160a01b031663150b7a02338b8a8a6040518563ffffffff1660e01b815260040180856001600160a01b03168152602001846001600160a01b0316815260200183815260200180602001828103825283818151815260200191508051906020019080838360005b83811015611c38578181015183820152602001611c20565b50505050905090810190601f168015611c655780820380516001836020036101000a031916815260200191505b5095505050505050602060405180830381600087803b158015611c8757600080fd5b505af1158015611c9b573d6000803e3d6000fd5b505050506040513d6020811015611cb157600080fd5b505160408051808201909152600681526530303330303560d01b60208201529091506001600160e01b03198216630a85bd0160e11b14611d325760405162461bcd60e51b81526020600482018181528351602484015283519092839260449091019190850190808383600083156108a557818101518382015260200161088d565b50505b5050505050505050565b3b63ffffffff16151590565b611d5481611f27565b6000818152600b60205260409020546002600019610100600184161502019091160415611004576000818152600b60205260408120611004916124ff565b60006111a082611fbf565b611da78282611fda565b600580546001810182557f036b6384b5eca791c62761152d0c79bb0604c104a5fb6f4eb0703f3154bb3db00182905554600091825260066020526040909120600019909101905550565b600082815260016020908152604091829020548251808401909352600683526518181998181960d11b918301919091528391906001600160a01b0316611e785760405162461bcd60e51b81526020600482018181528351602484015283519092839260449091019190850190808383600083156108a557818101518382015260200161088d565b506000838152600b60209081526040909120835161161392850190612543565b6000818152600260205260409020546001600160a01b03161561100457600090815260026020526040902080546001600160a01b0319169055565b611edd8282612119565b5050565b611edd82826122a9565b6000813f7fc5d2460186f7233c927e7db2dcc703c0e500b653ca82273b7bfad8045d85a4708115801590611f1f5750808214155b949350505050565b611f3081612391565b60008181526006602052604081205460058054919260001983019290919083908110611f5857fe5b906000526020600020015490508060058481548110611f7357fe5b6000918252602090912001556005805480611f8a57fe5b600082815260208082208301600019908101839055909201909255918152600690915260408082209390935592835250812055565b6001600160a01b031660009081526007602052604090205490565b60408051808201909152600681526530303330303160d01b60208201526001600160a01b03831661204c5760405162461bcd60e51b81526020600482018181528351602484015283519092839260449091019190850190808383600083156108a557818101518382015260200161088d565b50600081815260016020908152604091829020548251808401909352600683526518181998181b60d11b918301919091526001600160a01b0316156120d25760405162461bcd60e51b81526020600482018181528351602484015283519092839260449091019190850190808383600083156108a557818101518382015260200161088d565b506120dd8282611ee1565b60405181906001600160a01b038416906000907fddf252ad1be2c89b69c2b068fc378daa952ba7f163c4a11628f55a4df523b3ef908290a45050565b600081815260016020908152604091829020548251808401909352600683526530303330303760d01b918301919091526001600160a01b038481169116146121a25760405162461bcd60e51b81526020600482018181528351602484015283519092839260449091019190850190808383600083156108a557818101518382015260200161088d565b50600081815260016020908152604080832080546001600160a01b031916905560088252808320546001600160a01b03861684526007909252909120546000190180821461226c576001600160a01b038416600090815260076020526040812080548390811061220e57fe5b906000526020600020015490508060076000876001600160a01b03166001600160a01b03168152602001908152602001600020848154811061224c57fe5b600091825260208083209091019290925591825260089052604090208290555b6001600160a01b038416600090815260076020526040902080548061228d57fe5b6001900381819060005260206000200160009055905550505050565b600081815260016020908152604091829020548251808401909352600683526518181998181b60d11b918301919091526001600160a01b03161561232e5760405162461bcd60e51b81526020600482018181528351602484015283519092839260449091019190850190808383600083156108a557818101518382015260200161088d565b50600081815260016020818152604080842080546001600160a01b0319166001600160a01b039790971696871790559483526007815284832080549283018155808452818420909201849055905492825260089052919091206000199091019055565b600081815260016020908152604091829020548251808401909352600683526518181998181960d11b918301919091528291906001600160a01b03166124185760405162461bcd60e51b81526020600482018181528351602484015283519092839260449091019190850190808383600083156108a557818101518382015260200161088d565b506000828152600160205260409020546001600160a01b031661243a83611e98565b6124448184611ed3565b60405183906000906001600160a01b038416907fddf252ad1be2c89b69c2b068fc378daa952ba7f163c4a11628f55a4df523b3ef908390a4505050565b828054600181600116156101000203166002900490600052602060002090601f016020900481019282601f106124c25782800160ff198235161785556124ef565b828001600101855582156124ef579182015b828111156124ef5782358255916020019190600101906124d4565b506124fb9291506125b1565b5090565b50805460018160011615610100020316600290046000825580601f106125255750611004565b601f01602090049060005260206000209081019061100491906125b1565b828054600181600116156101000203166002900490600052602060002090601f016020900481019282601f1061258457805160ff19168380011785556124ef565b828001600101855582156124ef579182015b828111156124ef578251825591602001919060010190612596565b5b808211156124fb57600081556001016125b256fe6f6e6c792062616e6b206f72207075626c69736865722063616e2063616c6c20746869732066756e6374696f6ea2646970667358221220ef47deb7d3ebfbf377c2c4247c5d105389547719072094c8b7afe1c1531c854864736f6c634300060c0033",
  "linkReferences": {},
  "deployedLinkReferences": {}
}