{
  "_format": "hh-sol-artifact-1",
  "contractName": "NFTokenEnumerable",
  "sourceName": "contracts/nft_pub.sol",
  "abi": [
    {
      "inputs": [],
      "stateMutability": "nonpayable",
      "type": "constructor"
    },
    {
      "anonymous": false,
      "inputs": [
        {
          "indexed": true,
          "internalType": "address",
          "name": "_owner",
          "type": "address"
        },
        {
          "indexed": true,
          "internalType": "address",
          "name": "_approved",
          "type": "address"
        },
        {
          "indexed": true,
          "internalType": "uint256",
          "name": "_tokenId",
          "type": "uint256"
        }
      ],
      "name": "Approval",
      "type": "event"
    },
    {
      "anonymous": false,
      "inputs": [
        {
          "indexed": true,
          "internalType": "address",
          "name": "_owner",
          "type": "address"
        },
        {
          "indexed": true,
          "internalType": "address",
          "name": "_operator",
          "type": "address"
        },
        {
          "indexed": false,
          "internalType": "bool",
          "name": "_approved",
          "type": "bool"
        }
      ],
      "name": "ApprovalForAll",
      "type": "event"
    },
    {
      "anonymous": false,
      "inputs": [
        {
          "indexed": true,
          "internalType": "address",
          "name": "_from",
          "type": "address"
        },
        {
          "indexed": true,
          "internalType": "address",
          "name": "_to",
          "type": "address"
        },
        {
          "indexed": true,
          "internalType": "uint256",
          "name": "_tokenId",
          "type": "uint256"
        }
      ],
      "name": "Transfer",
      "type": "event"
    },
    {
      "inputs": [
        {
          "internalType": "address",
          "name": "_approved",
          "type": "address"
        },
        {
          "internalType": "uint256",
          "name": "_tokenId",
          "type": "uint256"
        }
      ],
      "name": "approve",
      "outputs": [],
      "stateMutability": "nonpayable",
      "type": "function"
    },
    {
      "inputs": [
        {
          "internalType": "address",
          "name": "_owner",
          "type": "address"
        }
      ],
      "name": "balanceOf",
      "outputs": [
        {
          "internalType": "uint256",
          "name": "",
          "type": "uint256"
        }
      ],
      "stateMutability": "view",
      "type": "function"
    },
    {
      "inputs": [
        {
          "internalType": "uint256",
          "name": "_tokenId",
          "type": "uint256"
        }
      ],
      "name": "getApproved",
      "outputs": [
        {
          "internalType": "address",
          "name": "",
          "type": "address"
        }
      ],
      "stateMutability": "view",
      "type": "function"
    },
    {
      "inputs": [
        {
          "internalType": "address",
          "name": "_owner",
          "type": "address"
        },
        {
          "internalType": "address",
          "name": "_operator",
          "type": "address"
        }
      ],
      "name": "isApprovedForAll",
      "outputs": [
        {
          "internalType": "bool",
          "name": "",
          "type": "bool"
        }
      ],
      "stateMutability": "view",
      "type": "function"
    },
    {
      "inputs": [
        {
          "internalType": "uint256",
          "name": "_tokenId",
          "type": "uint256"
        }
      ],
      "name": "ownerOf",
      "outputs": [
        {
          "internalType": "address",
          "name": "_owner",
          "type": "address"
        }
      ],
      "stateMutability": "view",
      "type": "function"
    },
    {
      "inputs": [
        {
          "internalType": "address",
          "name": "_from",
          "type": "address"
        },
        {
          "internalType": "address",
          "name": "_to",
          "type": "address"
        },
        {
          "internalType": "uint256",
          "name": "_tokenId",
          "type": "uint256"
        }
      ],
      "name": "safeTransferFrom",
      "outputs": [],
      "stateMutability": "nonpayable",
      "type": "function"
    },
    {
      "inputs": [
        {
          "internalType": "address",
          "name": "_from",
          "type": "address"
        },
        {
          "internalType": "address",
          "name": "_to",
          "type": "address"
        },
        {
          "internalType": "uint256",
          "name": "_tokenId",
          "type": "uint256"
        },
        {
          "internalType": "bytes",
          "name": "_data",
          "type": "bytes"
        }
      ],
      "name": "safeTransferFrom",
      "outputs": [],
      "stateMutability": "nonpayable",
      "type": "function"
    },
    {
      "inputs": [
        {
          "internalType": "address",
          "name": "_operator",
          "type": "address"
        },
        {
          "internalType": "bool",
          "name": "_approved",
          "type": "bool"
        }
      ],
      "name": "setApprovalForAll",
      "outputs": [],
      "stateMutability": "nonpayable",
      "type": "function"
    },
    {
      "inputs": [
        {
          "internalType": "bytes4",
          "name": "_interfaceID",
          "type": "bytes4"
        }
      ],
      "name": "supportsInterface",
      "outputs": [
        {
          "internalType": "bool",
          "name": "",
          "type": "bool"
        }
      ],
      "stateMutability": "view",
      "type": "function"
    },
    {
      "inputs": [
        {
          "internalType": "uint256",
          "name": "_index",
          "type": "uint256"
        }
      ],
      "name": "tokenByIndex",
      "outputs": [
        {
          "internalType": "uint256",
          "name": "",
          "type": "uint256"
        }
      ],
      "stateMutability": "view",
      "type": "function"
    },
    {
      "inputs": [
        {
          "internalType": "address",
          "name": "_owner",
          "type": "address"
        },
        {
          "internalType": "uint256",
          "name": "_index",
          "type": "uint256"
        }
      ],
      "name": "tokenOfOwnerByIndex",
      "outputs": [
        {
          "internalType": "uint256",
          "name": "",
          "type": "uint256"
        }
      ],
      "stateMutability": "view",
      "type": "function"
    },
    {
      "inputs": [],
      "name": "totalSupply",
      "outputs": [
        {
          "internalType": "uint256",
          "name": "",
          "type": "uint256"
        }
      ],
      "stateMutability": "view",
      "type": "function"
    },
    {
      "inputs": [
        {
          "internalType": "address",
          "name": "_from",
          "type": "address"
        },
        {
          "internalType": "address",
          "name": "_to",
          "type": "address"
        },
        {
          "internalType": "uint256",
          "name": "_tokenId",
          "type": "uint256"
        }
      ],
      "name": "transferFrom",
      "outputs": [],
      "stateMutability": "nonpayable",
      "type": "function"
    }
  ],
  "bytecode": "0x608060405234801561001057600080fd5b50600060208190527f67be87c3ff9960ca1e9cfac5cab2ff4747269cf9ed20c9b7306235ac35a491c5805460ff1990811660019081179092557ff7815fccbf112960a73756e185887fedcb9fc64ca0a16cc5923b7960ed780800805482168317905563780e9d6360e01b9092527f77b7bbe0e49b76487c9476b5db3354cf5270619d0037ccb899c2a4c4a75b43188054909216179055611445806100b56000396000f3fe608060405234801561001057600080fd5b50600436106100cf5760003560e01c806342842e0e1161008c57806370a082311161006657806370a0823114610262578063a22cb46514610288578063b88d4fde146102b6578063e985e9c514610346576100cf565b806342842e0e146101f25780634f6ccce7146102285780636352211e14610245576100cf565b806301ffc9a7146100d4578063081812fc1461010f578063095ea7b31461014857806318160ddd1461017657806323b872dd146101905780632f745c59146101c6575b600080fd5b6100fb600480360360208110156100ea57600080fd5b50356001600160e01b031916610374565b604080519115158252519081900360200190f35b61012c6004803603602081101561012557600080fd5b5035610393565b604080516001600160a01b039092168252519081900360200190f35b6101746004803603604081101561015e57600080fd5b506001600160a01b038135169060200135610477565b005b61017e6106a3565b60408051918252519081900360200190f35b610174600480360360608110156101a657600080fd5b506001600160a01b038135811691602081013590911690604001356106a9565b61017e600480360360408110156101dc57600080fd5b506001600160a01b03813516906020013561091c565b6101746004803603606081101561020857600080fd5b506001600160a01b038135811691602081013590911690604001356109db565b61017e6004803603602081101561023e57600080fd5b50356109fb565b61012c6004803603602081101561025b57600080fd5b5035610a8b565b61017e6004803603602081101561027857600080fd5b50356001600160a01b0316610b11565b6101746004803603604081101561029e57600080fd5b506001600160a01b0381351690602001351515610b96565b610174600480360360808110156102cc57600080fd5b6001600160a01b0382358116926020810135909116916040820135919081019060808101606082013564010000000081111561030757600080fd5b82018360208201111561031957600080fd5b8035906020019184600183028401116401000000008311171561033b57600080fd5b509092509050610c04565b6100fb6004803603604081101561035c57600080fd5b506001600160a01b0381358116916020013516610c4d565b6001600160e01b03191660009081526020819052604090205460ff1690565b6000818152600160209081526040808320548151808301909252600682526518181998181960d11b9282019290925283916001600160a01b03166104555760405162461bcd60e51b81526004018080602001828103825283818151815260200191508051906020019080838360005b8381101561041a578181015183820152602001610402565b50505050905090810190601f1680156104475780820380516001836020036101000a031916815260200191505b509250505060405180910390fd5b506000838152600260205260409020546001600160a01b031691505b50919050565b60008181526001602052604090205481906001600160a01b0316338114806104c257506001600160a01b038116600090815260046020908152604080832033845290915290205460ff165b6040518060400160405280600681526020016530303330303360d01b8152509061052d5760405162461bcd60e51b815260206004820181815283516024840152835190928392604490910191908501908083836000831561041a578181015183820152602001610402565b50600083815260016020908152604091829020548251808401909352600683526518181998181960d11b918301919091528491906001600160a01b03166105b55760405162461bcd60e51b815260206004820181815283516024840152835190928392604490910191908501908083836000831561041a578181015183820152602001610402565b50600084815260016020908152604091829020548251808401909352600683526506060666060760d31b918301919091526001600160a01b03908116919087168214156106435760405162461bcd60e51b815260206004820181815283516024840152835190928392604490910191908501908083836000831561041a578181015183820152602001610402565b5060008581526002602052604080822080546001600160a01b0319166001600160a01b038a811691821790925591518893918516917f8c5be1e5ebec7d5bd14f71427d1e84f3dd0314c0f7b2291e5b200ac8c7c3b92591a4505050505050565b60055490565b60008181526001602052604090205481906001600160a01b0316338114806106e757506000828152600260205260409020546001600160a01b031633145b8061071557506001600160a01b038116600090815260046020908152604080832033845290915290205460ff165b604051806040016040528060068152602001650c0c0ccc0c0d60d21b815250906107805760405162461bcd60e51b815260206004820181815283516024840152835190928392604490910191908501908083836000831561041a578181015183820152602001610402565b50600083815260016020908152604091829020548251808401909352600683526518181998181960d11b918301919091528491906001600160a01b03166108085760405162461bcd60e51b815260206004820181815283516024840152835190928392604490910191908501908083836000831561041a578181015183820152602001610402565b50600084815260016020908152604091829020548251808401909352600683526530303330303760d01b918301919091526001600160a01b039081169190881682146108955760405162461bcd60e51b815260206004820181815283516024840152835190928392604490910191908501908083836000831561041a578181015183820152602001610402565b5060408051808201909152600681526530303330303160d01b60208201526001600160a01b0387166109085760405162461bcd60e51b815260206004820181815283516024840152835190928392604490910191908501908083836000831561041a578181015183820152602001610402565b506109138686610c7b565b50505050505050565b6001600160a01b0382166000908152600760209081526040808320548151808301909252600682526530303530303760d01b928201929092529083106109a35760405162461bcd60e51b815260206004820181815283516024840152835190928392604490910191908501908083836000831561041a578181015183820152602001610402565b506001600160a01b03831660009081526007602052604090208054839081106109c857fe5b9060005260206000200154905092915050565b6109f683838360405180602001604052806000815250610cf6565b505050565b60055460408051808201909152600681526530303530303760d01b60208201526000918310610a6b5760405162461bcd60e51b815260206004820181815283516024840152835190928392604490910191908501908083836000831561041a578181015183820152602001610402565b5060058281548110610a7957fe5b90600052602060002001549050919050565b600081815260016020908152604091829020548251808401909352600683526518181998181960d11b918301919091526001600160a01b031690816104715760405162461bcd60e51b815260206004820181815283516024840152835190928392604490910191908501908083836000831561041a578181015183820152602001610402565b60408051808201909152600681526530303330303160d01b60208201526000906001600160a01b038316610b865760405162461bcd60e51b815260206004820181815283516024840152835190928392604490910191908501908083836000831561041a578181015183820152602001610402565b50610b9082611103565b92915050565b3360008181526004602090815260408083206001600160a01b03871680855290835292819020805460ff1916861515908117909155815190815290519293927f17307eab39ab6107e8899845ad3d59bd9653f200f220920489ca2b5937696c31929181900390910190a35050565b610c4685858585858080601f016020809104026020016040519081016040528093929190818152602001838380828437600092019190915250610cf692505050565b5050505050565b6001600160a01b03918216600090815260046020908152604080832093909416825291909152205460ff1690565b6000818152600160205260409020546001600160a01b0316610c9c8261111e565b610ca6818361115b565b610cb083836112eb565b81836001600160a01b0316826001600160a01b03167fddf252ad1be2c89b69c2b068fc378daa952ba7f163c4a11628f55a4df523b3ef60405160405180910390a4505050565b60008281526001602052604090205482906001600160a01b031633811480610d3457506000828152600260205260409020546001600160a01b031633145b80610d6257506001600160a01b038116600090815260046020908152604080832033845290915290205460ff165b604051806040016040528060068152602001650c0c0ccc0c0d60d21b81525090610dcd5760405162461bcd60e51b815260206004820181815283516024840152835190928392604490910191908501908083836000831561041a578181015183820152602001610402565b50600084815260016020908152604091829020548251808401909352600683526518181998181960d11b918301919091528591906001600160a01b0316610e555760405162461bcd60e51b815260206004820181815283516024840152835190928392604490910191908501908083836000831561041a578181015183820152602001610402565b50600085815260016020908152604091829020548251808401909352600683526530303330303760d01b918301919091526001600160a01b03908116919089168214610ee25760405162461bcd60e51b815260206004820181815283516024840152835190928392604490910191908501908083836000831561041a578181015183820152602001610402565b5060408051808201909152600681526530303330303160d01b60208201526001600160a01b038816610f555760405162461bcd60e51b815260206004820181815283516024840152835190928392604490910191908501908083836000831561041a578181015183820152602001610402565b50610f608787610c7b565b610f72876001600160a01b03166113d3565b156110f9576000876001600160a01b031663150b7a02338b8a8a6040518563ffffffff1660e01b815260040180856001600160a01b03168152602001846001600160a01b0316815260200183815260200180602001828103825283818151815260200191508051906020019080838360005b83811015610ffc578181015183820152602001610fe4565b50505050905090810190601f1680156110295780820380516001836020036101000a031916815260200191505b5095505050505050602060405180830381600087803b15801561104b57600080fd5b505af115801561105f573d6000803e3d6000fd5b505050506040513d602081101561107557600080fd5b505160408051808201909152600681526530303330303560d01b60208201529091506001600160e01b03198216630a85bd0160e11b146110f65760405162461bcd60e51b815260206004820181815283516024840152835190928392604490910191908501908083836000831561041a578181015183820152602001610402565b50505b5050505050505050565b6001600160a01b031660009081526007602052604090205490565b6000818152600260205260409020546001600160a01b03161561115857600081815260026020526040902080546001600160a01b03191690555b50565b600081815260016020908152604091829020548251808401909352600683526530303330303760d01b918301919091526001600160a01b038481169116146111e45760405162461bcd60e51b815260206004820181815283516024840152835190928392604490910191908501908083836000831561041a578181015183820152602001610402565b50600081815260016020908152604080832080546001600160a01b031916905560088252808320546001600160a01b0386168452600790925290912054600019018082146112ae576001600160a01b038416600090815260076020526040812080548390811061125057fe5b906000526020600020015490508060076000876001600160a01b03166001600160a01b03168152602001908152602001600020848154811061128e57fe5b600091825260208083209091019290925591825260089052604090208290555b6001600160a01b03841660009081526007602052604090208054806112cf57fe5b6001900381819060005260206000200160009055905550505050565b600081815260016020908152604091829020548251808401909352600683526518181998181b60d11b918301919091526001600160a01b0316156113705760405162461bcd60e51b815260206004820181815283516024840152835190928392604490910191908501908083836000831561041a578181015183820152602001610402565b50600081815260016020818152604080842080546001600160a01b0319166001600160a01b039790971696871790559483526007815284832080549283018155808452818420909201849055905492825260089052919091206000199091019055565b6000813f7fc5d2460186f7233c927e7db2dcc703c0e500b653ca82273b7bfad8045d85a47081158015906114075750808214155b94935050505056fea26469706673582212206ad29e821eb7a22952150f106f3d00b38e25c64b639292f136e6cfbce148170f64736f6c634300060c0033",
  "linkReferences": {},
  "deployedLinkReferences": {}
}