{
  "_format": "hh-sol-artifact-1",
  "contractName": "SupportsInterface",
  "sourceName": "contracts/nft_pub.sol",
  "abi": [
    {
      "inputs": [],
      "stateMutability": "nonpayable",
      "type": "constructor"
    },
    {
      "inputs": [
        {
          "internalType": "bytes4",
          "name": "_interfaceID",
          "type": "bytes4"
        }
      ],
      "name": "supportsInterface",
      "outputs": [
        {
          "internalType": "bool",
          "name": "",
          "type": "bool"
        }
      ],
      "stateMutability": "view",
      "type": "function"
    }
  ],
  "bytecode": "0x608060405234801561001057600080fd5b506301ffc9a760e01b60009081526020527f67be87c3ff9960ca1e9cfac5cab2ff4747269cf9ed20c9b7306235ac35a491c5805460ff1916600117905560ba8061005b6000396000f3fe6080604052348015600f57600080fd5b506004361060285760003560e01c806301ffc9a714602d575b600080fd5b605160048036036020811015604157600080fd5b50356001600160e01b0319166065565b604080519115158252519081900360200190f35b6001600160e01b03191660009081526020819052604090205460ff169056fea264697066735822122068a8453298f275e4186c2ad7f112505d5d8d169f7ce0d6140dad0f59e2ab84b964736f6c634300060c0033",
  "linkReferences": {},
  "deployedLinkReferences": {}
}