{
  "_format": "hh-sol-artifact-1",
  "contractName": "Staking",
  "sourceName": "contracts/staking-per-block.sol",
  "abi": [
    {
      "inputs": [
        {
          "internalType": "address",
          "name": "newOwner",
          "type": "address"
        },
        {
          "internalType": "address",
          "name": "taxReceiverAddress",
          "type": "address"
        },
        {
          "internalType": "uint256",
          "name": "tax",
          "type": "uint256"
        },
        {
          "internalType": "uint256",
          "name": "blockTime",
          "type": "uint256"
        }
      ],
      "stateMutability": "nonpayable",
      "type": "constructor"
    },
    {
      "inputs": [
        {
          "internalType": "uint256",
          "name": "lockProfileId",
          "type": "uint256"
        },
        {
          "internalType": "address",
          "name": "depositContractAddress",
          "type": "address"
        },
        {
          "internalType": "address",
          "name": "yieldContractAddress",
          "type": "address"
        },
        {
          "internalType": "uint256",
          "name": "poolSize",
          "type": "uint256"
        },
        {
          "internalType": "uint256",
          "name": "period",
          "type": "uint256"
        },
        {
          "internalType": "uint256",
          "name": "apr",
          "type": "uint256"
        }
      ],
      "name": "addDepositProfile",
      "outputs": [
        {
          "internalType": "bool",
          "name": "",
          "type": "bool"
        }
      ],
      "stateMutability": "nonpayable",
      "type": "function"
    },
    {
      "inputs": [
        {
          "internalType": "address",
          "name": "contractAddress",
          "type": "address"
        },
        {
          "internalType": "uint256",
          "name": "amount",
          "type": "uint256"
        },
        {
          "internalType": "bool",
          "name": "active",
          "type": "bool"
        }
      ],
      "name": "addLockProfile",
      "outputs": [
        {
          "internalType": "bool",
          "name": "",
          "type": "bool"
        }
      ],
      "stateMutability": "nonpayable",
      "type": "function"
    },
    {
      "inputs": [
        {
          "internalType": "address",
          "name": "userAddress",
          "type": "address"
        }
      ],
      "name": "addToManagers",
      "outputs": [
        {
          "internalType": "bool",
          "name": "",
          "type": "bool"
        }
      ],
      "stateMutability": "nonpayable",
      "type": "function"
    },
    {
      "inputs": [
        {
          "internalType": "uint256",
          "name": "amount",
          "type": "uint256"
        },
        {
          "internalType": "address",
          "name": "tokenAddress",
          "type": "address"
        }
      ],
      "name": "adminWithdrawToken",
      "outputs": [
        {
          "internalType": "bool",
          "name": "",
          "type": "bool"
        }
      ],
      "stateMutability": "nonpayable",
      "type": "function"
    },
    {
      "inputs": [
        {
          "internalType": "uint256",
          "name": "depositId",
          "type": "uint256"
        }
      ],
      "name": "calculateYield",
      "outputs": [
        {
          "internalType": "uint256",
          "name": "",
          "type": "uint256"
        }
      ],
      "stateMutability": "view",
      "type": "function"
    },
    {
      "inputs": [],
      "name": "getBlockTime",
      "outputs": [
        {
          "internalType": "uint256",
          "name": "",
          "type": "uint256"
        }
      ],
      "stateMutability": "view",
      "type": "function"
    },
    {
      "inputs": [
        {
          "internalType": "uint256",
          "name": "depositId",
          "type": "uint256"
        }
      ],
      "name": "getDeposit",
      "outputs": [
        {
          "internalType": "address",
          "name": "userAddress",
          "type": "address"
        },
        {
          "internalType": "uint256",
          "name": "depositProfileId",
          "type": "uint256"
        },
        {
          "internalType": "uint256",
          "name": "amount",
          "type": "uint256"
        },
        {
          "internalType": "uint256",
          "name": "updatedAt",
          "type": "uint256"
        },
        {
          "internalType": "uint256",
          "name": "accumulatedYield",
          "type": "uint256"
        },
        {
          "internalType": "uint256",
          "name": "yieldPerTokenOffset",
          "type": "uint256"
        }
      ],
      "stateMutability": "view",
      "type": "function"
    },
    {
      "inputs": [
        {
          "internalType": "uint256",
          "name": "depositProfileId",
          "type": "uint256"
        }
      ],
      "name": "getDepositProfile",
      "outputs": [
        {
          "internalType": "address",
          "name": "depositContractAddress",
          "type": "address"
        },
        {
          "internalType": "address",
          "name": "yieldContractAddress",
          "type": "address"
        },
        {
          "internalType": "address",
          "name": "lockContractAddress",
          "type": "address"
        },
        {
          "internalType": "uint256",
          "name": "poolSize",
          "type": "uint256"
        },
        {
          "internalType": "uint256",
          "name": "period",
          "type": "uint256"
        },
        {
          "internalType": "uint256",
          "name": "tvl",
          "type": "uint256"
        },
        {
          "internalType": "bool",
          "name": "active",
          "type": "bool"
        }
      ],
      "stateMutability": "view",
      "type": "function"
    },
    {
      "inputs": [
        {
          "internalType": "uint256",
          "name": "depositProfileId",
          "type": "uint256"
        }
      ],
      "name": "getDepositProfileData",
      "outputs": [
        {
          "internalType": "uint256",
          "name": "apr",
          "type": "uint256"
        },
        {
          "internalType": "uint256",
          "name": "lockedAmount",
          "type": "uint256"
        },
        {
          "internalType": "uint256",
          "name": "tvl",
          "type": "uint256"
        },
        {
          "internalType": "uint256",
          "name": "stakers",
          "type": "uint256"
        },
        {
          "internalType": "uint256",
          "name": "yieldPaid",
          "type": "uint256"
        },
        {
          "internalType": "uint256",
          "name": "yieldPerToken",
          "type": "uint256"
        }
      ],
      "stateMutability": "view",
      "type": "function"
    },
    {
      "inputs": [
        {
          "internalType": "uint256",
          "name": "depositProfileId",
          "type": "uint256"
        }
      ],
      "name": "getDepositProfileExtra",
      "outputs": [
        {
          "internalType": "address",
          "name": "poolOwnerAddress",
          "type": "address"
        },
        {
          "internalType": "string",
          "name": "name",
          "type": "string"
        },
        {
          "internalType": "string",
          "name": "depositCurrency",
          "type": "string"
        },
        {
          "internalType": "string",
          "name": "yieldCurrency",
          "type": "string"
        },
        {
          "internalType": "string",
          "name": "link",
          "type": "string"
        },
        {
          "internalType": "uint256",
          "name": "lastTimestamp",
          "type": "uint256"
        },
        {
          "internalType": "uint256",
          "name": "endTime",
          "type": "uint256"
        }
      ],
      "stateMutability": "view",
      "type": "function"
    },
    {
      "inputs": [],
      "name": "getDepositProfilesNumber",
      "outputs": [
        {
          "internalType": "uint256",
          "name": "",
          "type": "uint256"
        }
      ],
      "stateMutability": "view",
      "type": "function"
    },
    {
      "inputs": [
        {
          "internalType": "uint256",
          "name": "depositId",
          "type": "uint256"
        }
      ],
      "name": "getDepositYield",
      "outputs": [
        {
          "internalType": "uint256",
          "name": "",
          "type": "uint256"
        }
      ],
      "stateMutability": "view",
      "type": "function"
    },
    {
      "inputs": [],
      "name": "getDepositsNumber",
      "outputs": [
        {
          "internalType": "uint256",
          "name": "",
          "type": "uint256"
        }
      ],
      "stateMutability": "view",
      "type": "function"
    },
    {
      "inputs": [
        {
          "internalType": "uint256",
          "name": "lockProfileId",
          "type": "uint256"
        }
      ],
      "name": "getLockProfile",
      "outputs": [
        {
          "internalType": "address",
          "name": "contractAddress",
          "type": "address"
        },
        {
          "internalType": "uint256",
          "name": "amount",
          "type": "uint256"
        },
        {
          "internalType": "bool",
          "name": "active",
          "type": "bool"
        }
      ],
      "stateMutability": "view",
      "type": "function"
    },
    {
      "inputs": [],
      "name": "getLockProfilesNumber",
      "outputs": [
        {
          "internalType": "uint256",
          "name": "",
          "type": "uint256"
        }
      ],
      "stateMutability": "view",
      "type": "function"
    },
    {
      "inputs": [],
      "name": "getTax",
      "outputs": [
        {
          "internalType": "uint256",
          "name": "",
          "type": "uint256"
        }
      ],
      "stateMutability": "view",
      "type": "function"
    },
    {
      "inputs": [],
      "name": "getTaxReceiverAddress",
      "outputs": [
        {
          "internalType": "address",
          "name": "",
          "type": "address"
        }
      ],
      "stateMutability": "view",
      "type": "function"
    },
    {
      "inputs": [],
      "name": "getTimestamp",
      "outputs": [
        {
          "internalType": "uint256",
          "name": "",
          "type": "uint256"
        }
      ],
      "stateMutability": "view",
      "type": "function"
    },
    {
      "inputs": [
        {
          "internalType": "address",
          "name": "tokenAddress",
          "type": "address"
        }
      ],
      "name": "getTokenBalance",
      "outputs": [
        {
          "internalType": "uint256",
          "name": "",
          "type": "uint256"
        }
      ],
      "stateMutability": "view",
      "type": "function"
    },
    {
      "inputs": [
        {
          "internalType": "address",
          "name": "tokenAddress",
          "type": "address"
        }
      ],
      "name": "getTokenInUse",
      "outputs": [
        {
          "internalType": "bool",
          "name": "",
          "type": "bool"
        }
      ],
      "stateMutability": "view",
      "type": "function"
    },
    {
      "inputs": [
        {
          "internalType": "address",
          "name": "userAddress",
          "type": "address"
        },
        {
          "internalType": "uint256",
          "name": "depositProfileId",
          "type": "uint256"
        }
      ],
      "name": "getUserDeposit",
      "outputs": [
        {
          "internalType": "uint256",
          "name": "depositIndex",
          "type": "uint256"
        },
        {
          "internalType": "uint256",
          "name": "amount",
          "type": "uint256"
        },
        {
          "internalType": "uint256",
          "name": "updatedAt",
          "type": "uint256"
        },
        {
          "internalType": "uint256",
          "name": "accumulatedYield",
          "type": "uint256"
        }
      ],
      "stateMutability": "view",
      "type": "function"
    },
    {
      "inputs": [
        {
          "internalType": "address",
          "name": "userAddress",
          "type": "address"
        },
        {
          "internalType": "uint256",
          "name": "serialNumber",
          "type": "uint256"
        }
      ],
      "name": "getUserDepositProfileId",
      "outputs": [
        {
          "internalType": "uint256",
          "name": "",
          "type": "uint256"
        }
      ],
      "stateMutability": "view",
      "type": "function"
    },
    {
      "inputs": [
        {
          "internalType": "address",
          "name": "userAddress",
          "type": "address"
        }
      ],
      "name": "getUserDepositProfilesNumber",
      "outputs": [
        {
          "internalType": "uint256",
          "name": "",
          "type": "uint256"
        }
      ],
      "stateMutability": "view",
      "type": "function"
    },
    {
      "inputs": [
        {
          "internalType": "address",
          "name": "userAddress",
          "type": "address"
        }
      ],
      "name": "isManager",
      "outputs": [
        {
          "internalType": "bool",
          "name": "",
          "type": "bool"
        }
      ],
      "stateMutability": "view",
      "type": "function"
    },
    {
      "inputs": [],
      "name": "owner",
      "outputs": [
        {
          "internalType": "address",
          "name": "",
          "type": "address"
        }
      ],
      "stateMutability": "view",
      "type": "function"
    },
    {
      "inputs": [
        {
          "internalType": "address",
          "name": "userAddress",
          "type": "address"
        }
      ],
      "name": "removeFromManagers",
      "outputs": [
        {
          "internalType": "bool",
          "name": "",
          "type": "bool"
        }
      ],
      "stateMutability": "nonpayable",
      "type": "function"
    },
    {
      "inputs": [
        {
          "internalType": "uint256",
          "name": "blockTime",
          "type": "uint256"
        }
      ],
      "name": "setBlockTime",
      "outputs": [
        {
          "internalType": "bool",
          "name": "",
          "type": "bool"
        }
      ],
      "stateMutability": "nonpayable",
      "type": "function"
    },
    {
      "inputs": [
        {
          "internalType": "uint256",
          "name": "depositProfileSerialNumber",
          "type": "uint256"
        },
        {
          "internalType": "string",
          "name": "name",
          "type": "string"
        },
        {
          "internalType": "string",
          "name": "depositCurrency",
          "type": "string"
        },
        {
          "internalType": "string",
          "name": "yieldCurrency",
          "type": "string"
        },
        {
          "internalType": "string",
          "name": "link",
          "type": "string"
        },
        {
          "internalType": "bool",
          "name": "active",
          "type": "bool"
        }
      ],
      "name": "setDepositProfileExtra",
      "outputs": [
        {
          "internalType": "bool",
          "name": "",
          "type": "bool"
        }
      ],
      "stateMutability": "nonpayable",
      "type": "function"
    },
    {
      "inputs": [
        {
          "internalType": "uint256",
          "name": "depositProfileSerialNumber",
          "type": "uint256"
        },
        {
          "internalType": "bool",
          "name": "active",
          "type": "bool"
        }
      ],
      "name": "setDepositProfileStatus",
      "outputs": [
        {
          "internalType": "bool",
          "name": "",
          "type": "bool"
        }
      ],
      "stateMutability": "nonpayable",
      "type": "function"
    },
    {
      "inputs": [
        {
          "internalType": "uint256",
          "name": "lockProfileId",
          "type": "uint256"
        },
        {
          "internalType": "uint256",
          "name": "amount",
          "type": "uint256"
        }
      ],
      "name": "setLockProfileAmount",
      "outputs": [
        {
          "internalType": "bool",
          "name": "",
          "type": "bool"
        }
      ],
      "stateMutability": "nonpayable",
      "type": "function"
    },
    {
      "inputs": [
        {
          "internalType": "uint256",
          "name": "lockProfileId",
          "type": "uint256"
        },
        {
          "internalType": "bool",
          "name": "active",
          "type": "bool"
        }
      ],
      "name": "setLockProfileStatus",
      "outputs": [
        {
          "internalType": "bool",
          "name": "",
          "type": "bool"
        }
      ],
      "stateMutability": "nonpayable",
      "type": "function"
    },
    {
      "inputs": [
        {
          "internalType": "uint256",
          "name": "tax",
          "type": "uint256"
        }
      ],
      "name": "setTax",
      "outputs": [
        {
          "internalType": "bool",
          "name": "",
          "type": "bool"
        }
      ],
      "stateMutability": "nonpayable",
      "type": "function"
    },
    {
      "inputs": [
        {
          "internalType": "address",
          "name": "taxReceiverAddress",
          "type": "address"
        }
      ],
      "name": "setTaxReceiverAddress",
      "outputs": [
        {
          "internalType": "bool",
          "name": "",
          "type": "bool"
        }
      ],
      "stateMutability": "nonpayable",
      "type": "function"
    },
    {
      "inputs": [
        {
          "internalType": "uint256",
          "name": "amount",
          "type": "uint256"
        },
        {
          "internalType": "uint256",
          "name": "depositProfileId",
          "type": "uint256"
        }
      ],
      "name": "stake",
      "outputs": [
        {
          "internalType": "bool",
          "name": "",
          "type": "bool"
        }
      ],
      "stateMutability": "nonpayable",
      "type": "function"
    },
    {
      "inputs": [
        {
          "internalType": "address",
          "name": "newOwner",
          "type": "address"
        }
      ],
      "name": "transferOwnership",
      "outputs": [
        {
          "internalType": "bool",
          "name": "",
          "type": "bool"
        }
      ],
      "stateMutability": "nonpayable",
      "type": "function"
    },
    {
      "inputs": [
        {
          "internalType": "uint256",
          "name": "amount",
          "type": "uint256"
        },
        {
          "internalType": "uint256",
          "name": "depositProfileId",
          "type": "uint256"
        }
      ],
      "name": "unStake",
      "outputs": [
        {
          "internalType": "bool",
          "name": "",
          "type": "bool"
        }
      ],
      "stateMutability": "nonpayable",
      "type": "function"
    },
    {
      "inputs": [
        {
          "internalType": "uint256",
          "name": "depositProfileSerialNumber",
          "type": "uint256"
        }
      ],
      "name": "withdrawLockedAssets",
      "outputs": [
        {
          "internalType": "bool",
          "name": "",
          "type": "bool"
        }
      ],
      "stateMutability": "nonpayable",
      "type": "function"
    },
    {
      "inputs": [
        {
          "internalType": "uint256",
          "name": "amount",
          "type": "uint256"
        },
        {
          "internalType": "uint256",
          "name": "depositProfileId",
          "type": "uint256"
        },
        {
          "internalType": "bool",
          "name": "updated",
          "type": "bool"
        }
      ],
      "name": "withdrawYield",
      "outputs": [
        {
          "internalType": "bool",
          "name": "",
          "type": "bool"
        }
      ],
      "stateMutability": "nonpayable",
      "type": "function"
    },
    {
      "inputs": [
        {
          "internalType": "uint256",
          "name": "depositProfileId",
          "type": "uint256"
        }
      ],
      "name": "withdrawYieldAll",
      "outputs": [
        {
          "internalType": "bool",
          "name": "",
          "type": "bool"
        }
      ],
      "stateMutability": "nonpayable",
      "type": "function"
    }
  ],
  "bytecode": "0x60806040523480156200001157600080fd5b5060405162003391380380620033918339810160408190526200003491620001e3565b60018054336001600160a01b0319918216178083556001600160a01b039081166000908152602081905260409020805460ff1916909317909255600980549091168583161790558416620000a55760405162461bcd60e51b81526004016200009c90620002ea565b60405180910390fd5b60008111620000c85760405162461bcd60e51b81526004016200009c9062000261565b620000d384620000f2565b50620000df846200014f565b50600a91909155600b5550620003219050565b6001546000906001600160a01b03163314620001225760405162461bcd60e51b81526004016200009c906200022a565b506001600160a01b0381166000908152602081905260409020805460ff191660019081179091555b919050565b6001546000906001600160a01b031633146200017f5760405162461bcd60e51b81526004016200009c906200022a565b6001600160a01b038216620001a85760405162461bcd60e51b81526004016200009c90620002a7565b50600180546001600160a01b0383166001600160a01b0319909116178155919050565b80516001600160a01b03811681146200014a57600080fd5b60008060008060808587031215620001f9578384fd5b6200020485620001cb565b93506200021460208601620001cb565b6040860151606090960151949790965092505050565b60208082526017908201527f43616c6c6572206973206e6f7420746865206f776e6572000000000000000000604082015260600190565b60208082526026908201527f426c6f636b2074696d652073686f756c642062652067726561746572207468616040820152656e207a65726f60d01b606082015260800190565b60208082526023908201527f6e65774f776e65722073686f756c64206e6f74206265207a65726f206164647260408201526265737360e81b606082015260800190565b6020808252601d908201527f4f776e657220616464726573732063616e206e6f74206265207a65726f000000604082015260600190565b61306080620003316000396000f3fe608060405234801561001057600080fd5b506004361061023d5760003560e01c80637b0472f01161013b578063bf2afe4a116100b8578063efaa72951161007c578063efaa7295146104fa578063f2fde38b1461050d578063f3ae241514610520578063f686757214610533578063f7350882146105555761023d565b8063bf2afe4a146104b1578063c24a0760146104b9578063c6ca750d146104cc578063daf6e468146104df578063ee06051f146104e75761023d565b80638da5cb5b116100ff5780638da5cb5b14610449578063924e46e91461045e5780639f9fb96814610466578063a3596b0c1461048b578063adb3842d1461049e5761023d565b80637b0472f0146104005780637f63db4f1461041357806380a3301b1461041b57806387ceff091461042e578063887b464d146104365761023d565b8063372caeb8116101c957806354b762a61161018d57806354b762a6146103895780635f8531de1461039157806360711058146103b7578063758b1ce3146103da578063783bdc75146103ed5761023d565b8063372caeb8146103055780633a2eaf10146103185780633aecd0e31461033e57806342d72247146103515780634a579a72146103645761023d565b806325b792d11161021057806325b792d1146102a657806327f4baf6146102b95780632ce83f0e146102cc5780632e5bb6ff146102df57806335dc0c8c146102f25761023d565b8063030f3b32146102425780630a962f891461026b5780630b7e01b01461027e578063188ec35614610291575b600080fd5b61025561025036600461262c565b610568565b6040516102629190612a58565b60405180910390f35b6102556102793660046125e9565b610705565b61025561028c3660046125e9565b61075b565b6102996107af565b6040516102629190612ef9565b6102556102b4366004612739565b6107b3565b6102556102c73660046126b7565b610838565b6102996102da366004612603565b6109ba565b6102556102ed366004612687565b6109e2565b610255610300366004612768565b610a1a565b610255610313366004612841565b610af6565b61032b610326366004612687565b610c8f565b6040516102629796959493929190612974565b61029961034c3660046125e9565b610f24565b61025561035f366004612739565b610fac565b610377610372366004612687565b61100c565b60405161026296959493929190612f1d565b610299611043565b6103a461039f366004612687565b611049565b604051610262979695949392919061290f565b6103ca6103c5366004612603565b61109c565b6040516102629493929190612f02565b6102556103e8366004612687565b6110e5565b6102556103fb366004612862565b61113d565b61025561040e366004612841565b6113c6565b61029961153a565b610299610429366004612687565b611540565b610299611599565b610255610444366004612841565b61159f565b610451611618565b60405161026291906128fb565b610299611627565b610479610474366004612687565b61162d565b60405161026296959493929190612a25565b6102556104993660046125e9565b61166b565b6102996104ac3660046125e9565b611689565b6104516116a4565b6102556104c7366004612687565b6116b3565b6102556104da3660046126e2565b611769565b610299611bef565b6102556104f53660046125e9565b611bf5565b610299610508366004612687565b611c4b565b61025561051b3660046125e9565b611c8e565b61025561052e3660046125e9565b611d04565b610546610541366004612687565b611d22565b60405161026293929190612a02565b610255610563366004612687565b611d53565b3360009081526020819052604081205460ff166105a05760405162461bcd60e51b815260040161059790612e7f565b60405180910390fd5b6001600160a01b03841660009081526008602052604090205460ff16156105d95760405162461bcd60e51b815260040161059790612a9a565b6001600160a01b0384166000908152600860205260408120805460ff19166001179055600c80549161060a83612fe8565b91905055506000849050806001600160a01b031663313ce5676040518163ffffffff1660e01b815260040160206040518083038186803b15801561064d57600080fd5b505afa158015610661573d6000803e3d6000fd5b505050506040513d601f19601f82011682018060405250810190610685919061288f565b60ff166012146106a75760405162461bcd60e51b815260040161059790612cd9565b5050600c8054600090815260026020819052604080832080546001600160a01b0389166001600160a01b03199091161790558354835280832060019081018790559354835290912001805483151560ff199091161790559392505050565b6001546000906001600160a01b031633146107325760405162461bcd60e51b815260040161059790612a63565b506001600160a01b0381166000908152602081905260409020805460ff1916905560015b919050565b3360009081526020819052604081205460ff1661078a5760405162461bcd60e51b815260040161059790612e7f565b50600980546001600160a01b0383166001600160a01b03199091161790556001919050565b4290565b3360009081526020819052604081205460ff166107e25760405162461bcd60e51b815260040161059790612e7f565b6000831180156107f45750600c548311155b6108105760405162461bcd60e51b815260040161059790612e48565b50600082815260026020819052604090912001805460ff191682151517905560015b92915050565b6001546000906001600160a01b031633146108655760405162461bcd60e51b815260040161059790612a63565b6001600160a01b03821661088b5760405162461bcd60e51b815260040161059790612c29565b6040516370a0823160e01b815282906000906001600160a01b038316906370a08231906108bc9030906004016128fb565b60206040518083038186803b1580156108d457600080fd5b505afa1580156108e8573d6000803e3d6000fd5b505050506040513d601f19601f8201168201806040525081019061090c919061269f565b90508085111561092e5760405162461bcd60e51b815260040161059790612bbd565b60405163a9059cbb60e01b81526001600160a01b0383169063a9059cbb9061095c90339089906004016129e9565b602060405180830381600087803b15801561097657600080fd5b505af115801561098a573d6000803e3d6000fd5b505050506040513d601f19601f820116820180604052508101906109ae919061266b565b50600195945050505050565b6001600160a01b03919091166000908152600560209081526040808320938352929052205490565b3360009081526020819052604081205460ff16610a115760405162461bcd60e51b815260040161059790612e7f565b50600a55600190565b3360009081526005602090815260408083208d845290915281205480610a525760405162461bcd60e51b815260040161059790612d93565b6000818152600360205260409020610a6e90600e018c8c6124e7565b506000818152600360205260409020610a8b90600f018a8a6124e7565b506000818152600360205260409020610aa89060100188886124e7565b506000818152600360205260409020610ac59060110186866124e7565b506000908152600360205260409020601201805483151560ff199091161790555060019a9950505050505050505050565b60008181526003602052604081206012015460ff16610b275760405162461bcd60e51b815260040161059790612bf4565b60008311610b475760405162461bcd60e51b815260040161059790612c97565b33600090815260076020908152604080832085845290915290205480610b7f5760405162461bcd60e51b815260040161059790612e1a565b610b8881611f62565b50610b9283612013565b50600081815260066020526040902060020154841115610bc45760405162461bcd60e51b815260040161059790612c60565b60008181526006602052604081206002018054869290610be5908490612f9c565b90915550506000838152600360205260408120600b018054869290610c0b908490612f9c565b9091555050600083815260036020526040902060050154610c4b576000838152600360209081526040808320600801548484526006909252909120600501555b6000838152600360205260409081902060010154905163a9059cbb60e01b81526001600160a01b0390911690819063a9059cbb9061095c90339089906004016129e9565b600081815260036020526040812080546009820154600a830154600e840180546060958695869586958a9586956001600160a01b03909416949093600f820193601083019360119093019290918690610ce790612fb3565b80601f0160208091040260200160405190810160405280929190818152602001828054610d1390612fb3565b8015610d605780601f10610d3557610100808354040283529160200191610d60565b820191906000526020600020905b815481529060010190602001808311610d4357829003601f168201915b50505050509550848054610d7390612fb3565b80601f0160208091040260200160405190810160405280929190818152602001828054610d9f90612fb3565b8015610dec5780601f10610dc157610100808354040283529160200191610dec565b820191906000526020600020905b815481529060010190602001808311610dcf57829003601f168201915b50505050509450838054610dff90612fb3565b80601f0160208091040260200160405190810160405280929190818152602001828054610e2b90612fb3565b8015610e785780601f10610e4d57610100808354040283529160200191610e78565b820191906000526020600020905b815481529060010190602001808311610e5b57829003601f168201915b50505050509350828054610e8b90612fb3565b80601f0160208091040260200160405190810160405280929190818152602001828054610eb790612fb3565b8015610f045780601f10610ed957610100808354040283529160200191610f04565b820191906000526020600020905b815481529060010190602001808311610ee757829003601f168201915b505050505092509650965096509650965096509650919395979092949650565b6040516370a0823160e01b815260009082906001600160a01b038216906370a0823190610f559030906004016128fb565b60206040518083038186803b158015610f6d57600080fd5b505afa158015610f81573d6000803e3d6000fd5b505050506040513d601f19601f82011682018060405250810190610fa5919061269f565b9392505050565b33600090815260056020908152604080832085845290915281205480610fe45760405162461bcd60e51b815260040161059790612d93565b6000908152600360205260409020601201805483151560ff1990911617905550600192915050565b600090815260036020526040902060058101546004820154600b830154600c840154600d8501546008909501549395929491939092565b600a5490565b6000908152600360208190526040909120600181015460028201549282015460068301546007840154600b8501546012909501546001600160a01b03948516979685169694909316949193909260ff1690565b6001600160a01b03919091166000908152600760209081526040808320938352928152828220548083526006909152919020600281015460038201546004909201549293909290565b3360009081526020819052604081205460ff166111145760405162461bcd60e51b815260040161059790612e7f565b600082116111345760405162461bcd60e51b815260040161059790612b40565b50600b55600190565b336000908152600760209081526040808320858452909152812054806111755760405162461bcd60e51b815260040161059790612e1a565b60008481526003602052604090206012015460ff166111a65760405162461bcd60e51b815260040161059790612bf4565b6000848152600360205260408082206002015490516370a0823160e01b81526001600160a01b03909116919082906370a08231906111e89030906004016128fb565b60206040518083038186803b15801561120057600080fd5b505afa158015611214573d6000803e3d6000fd5b505050506040513d601f19601f82011682018060405250810190611238919061269f565b905080871115611246578096505b600087116112665760405162461bcd60e51b815260040161059790612c97565b846112765761127483611f62565b505b61127f86612013565b506000838152600660205260409020600401548711156112b15760405162461bcd60e51b815260040161059790612b86565b600083815260066020526040812060040180548992906112d2908490612f9c565b90915550506000868152600360205260408120600d0180548992906112f8908490612f45565b9091555050600086815260036020526040902060050154611338576000868152600360209081526040808320600801548684526006909252909120600501555b60405163a9059cbb60e01b81526001600160a01b0383169063a9059cbb906113669033908b906004016129e9565b602060405180830381600087803b15801561138057600080fd5b505af1158015611394573d6000803e3d6000fd5b505050506040513d601f19601f820116820180604052508101906113b8919061266b565b506001979650505050505050565b60008181526003602052604081206012015460ff166113f75760405162461bcd60e51b815260040161059790612bf4565b600083116114175760405162461bcd60e51b815260040161059790612c97565b600082815260036020526040908190206001015490516323b872dd60e01b81526001600160a01b039091169081906323b872dd9061145d90339030908990600401612950565b602060405180830381600087803b15801561147757600080fd5b505af115801561148b573d6000803e3d6000fd5b505050506040513d601f19601f820116820180604052508101906114af919061266b565b506114bb338486612155565b506000838152600360205260408120600b0180548692906114dd908490612f45565b9091555050600d546000908152600360205260409020600a015461153057600d5460009081526003602052604090206007015461151a9042612f45565b600d546000908152600360205260409020600a01555b5060019392505050565b600d5490565b60008181526006602052604081206001015480611561576000915050610756565b60008181526003602052604090206005015461158957611581838261229a565b915050610756565b61158183826123fe565b50919050565b600b5490565b3360009081526020819052604081205460ff166115ce5760405162461bcd60e51b815260040161059790612e7f565b6000831180156115e05750600c548311155b6115fc5760405162461bcd60e51b815260040161059790612e48565b5060009182526002602052604090912060019081019190915590565b6001546001600160a01b031690565b600c5490565b6000908152600660205260409020805460018201546002830154600384015460048501546005909501546001600160a01b0390941695929491939092565b6001600160a01b031660009081526008602052604090205460ff1690565b6001600160a01b031660009081526004602052604090205490565b6009546001600160a01b031690565b336000908152600760209081526040808320848452909152812054806116eb5760405162461bcd60e51b815260040161059790612e1a565b60008381526003602052604090206012015460ff1661171c5760405162461bcd60e51b815260040161059790612bf4565b61172581611f62565b50600081815260066020526040902060040154806117555760405162461bcd60e51b815260040161059790612ade565b6117618185600161113d565b949350505050565b6000808711801561177c5750600c548711155b6117985760405162461bcd60e51b815260040161059790612e48565b6001600160a01b03861660009081526008602052604090205460ff16156117d15760405162461bcd60e51b815260040161059790612d51565b6001600160a01b03851660009081526008602052604090205460ff161561180a5760405162461bcd60e51b815260040161059790612b0b565b6001600160a01b038681166000908152600860205260408082208054600160ff199182168117909255938916835290822080549093161790915585908315611884576127106301e133808661185f878a612f7d565b6118699190612f7d565b6118739190612f5d565b61187d9190612f5d565b9050611887565b50845b6040516323b872dd60e01b81526001600160a01b038316906323b872dd906118b790339030908690600401612950565b602060405180830381600087803b1580156118d157600080fd5b505af11580156118e5573d6000803e3d6000fd5b505050506040513d601f19601f82011682018060405250810190611909919061266b565b5060008981526002602052604090819020805460019091015491516323b872dd60e01b81526001600160a01b03909116935083916323b872dd91611954913391309190600401612950565b602060405180830381600087803b15801561196e57600080fd5b505af1158015611982573d6000803e3d6000fd5b505050506040513d601f19601f820116820180604052508101906119a6919061266b565b50600d80549060006119b783612fe8565b9190505550600260008a815260200190815260200160002060000160009054906101000a90046001600160a01b031660036000600d54815260200190815260200160002060030160006101000a8154816001600160a01b0302191690836001600160a01b03160217905550600260008a81526020019081526020016000206001015460036000600d548152602001908152602001600020600401819055503360036000600d54815260200190815260200160002060000160006101000a8154816001600160a01b0302191690836001600160a01b031602179055508760036000600d54815260200190815260200160002060010160006101000a8154816001600160a01b0302191690836001600160a01b031602179055508660036000600d54815260200190815260200160002060020160006101000a8154816001600160a01b0302191690836001600160a01b031602179055508560036000600d548152602001908152602001600020600601819055508360036000600d548152602001908152602001600020600501819055508460036000600d548152602001908152602001600020600701819055504260036000600d5481526020019081526020016000206009018190555060046000336001600160a01b03166001600160a01b031681526020019081526020016000206000815480929190611bb690612fe8565b9091555050600d543360009081526005602090815260408083206004835281842054845290915290205550600198975050505050505050565b600e5490565b6001546000906001600160a01b03163314611c225760405162461bcd60e51b815260040161059790612a63565b506001600160a01b03166000908152602081905260409020805460ff1916600190811790915590565b600081815260066020526040812060010154611c6957506000610756565b600082815260066020526040902060040154611c8483611540565b6108329190612f45565b6001546000906001600160a01b03163314611cbb5760405162461bcd60e51b815260040161059790612a63565b6001600160a01b038216611ce15760405162461bcd60e51b815260040161059790612d0e565b50600180546001600160a01b0383166001600160a01b0319909116178155919050565b6001600160a01b031660009081526020819052604090205460ff1690565b60009081526002602081905260409091208054600182015491909201546001600160a01b0390921692909160ff1690565b33600090815260056020908152604080832084845290915281205480611d8b5760405162461bcd60e51b815260040161059790612d93565b6000818152600360205260409020600a0154421015611dbc5760405162461bcd60e51b815260040161059790612dca565b600081815260036020526040902060040154611dea5760405162461bcd60e51b815260040161059790612eb6565b6000818152600360208190526040822090810154600490910154600a546001600160a01b0390921692909161271090611e239084612f7d565b611e2d9190612f5d565b600085815260036020526040808220600490810192909255600954905163a9059cbb60e01b81529293506001600160a01b038087169363a9059cbb93611e7993909216918691016129e9565b602060405180830381600087803b158015611e9357600080fd5b505af1158015611ea7573d6000803e3d6000fd5b505050506040513d601f19601f82011682018060405250810190611ecb919061266b565b506001600160a01b03831663a9059cbb33611ee68486612f9c565b6040518363ffffffff1660e01b8152600401611f039291906129e9565b602060405180830381600087803b158015611f1d57600080fd5b505af1158015611f31573d6000803e3d6000fd5b505050506040513d601f19601f82011682018060405250810190611f55919061266b565b5060019695505050505050565b60008181526006602052604081206001015480611f83576000915050610756565b6000611f8e84611540565b905080600660008681526020019081526020016000206004016000828254611fb69190612f45565b9091555050600082815260036020526040902060050154611ff6576000828152600360209081526040808320600801548784526006909252909120600501555b505050600090815260066020526040902042600390910155600190565b6000818152600360205260408120600501541561203257506000610756565b6000828152600360205260409020600a015442901580159061206457506000838152600360205260409020600a015481115b1561207d57506000828152600360205260409020600a01545b6000838152600360205260408120600901546120999083612f9c565b9050806120ab57600092505050610756565b6000848152600360205260409020600b01541561213a576000848152600360205260409020600b81015460078201546006909201549091906120f584670de0b6b3a7640000612f7d565b6120ff9190612f7d565b6121099190612f5d565b6121139190612f5d565b60008581526003602052604081206008018054909190612134908490612f45565b90915550505b50600083815260036020526040902060090155506001919050565b6001600160a01b038316600090815260076020908152604080832085845290915281205480156121b55761218881611f62565b50600081815260066020526040812060020180548592906121aa908490612f45565b9091555061224a9050565b600e80549060006121c583612fe8565b90915550506000848152600360205260408120600c018054916121e783612fe8565b9091555050600e54600081815260066020908152604080832080546001600160a01b0319166001600160a01b038b169081178255600182018a90556002820189905542600390920191909155835260078252808320888452909152902081905590505b61225384612013565b5060008481526003602052604090206005015461228f576000848152600360209081526040808320600801548484526006909252909120600501555b506001949350505050565b60008181526003602081815260408084206009015486855260069092528320909101548110156122d857506000838152600660205260409020600301545b6000838152600360205260409020600a015442901580159061230a57506000848152600360205260409020600a015481115b1561232357506000838152600360205260409020600a01545b60008282111561233a576123378383612f9c565b90505b60008581526003602052604090206008015481156123b0576000868152600360205260409020600b810154600782015460069092015490919061238585670de0b6b3a7640000612f7d565b61238f9190612f7d565b6123999190612f5d565b6123a39190612f5d565b6123ad9082612f45565b90505b60008781526006602052604081206002810154600590910154670de0b6b3a764000091906123de9085612f9c565b6123e89190612f7d565b6123f29190612f5d565b98975050505050505050565b60008281526006602052604081206002015461241c57506000610832565b6000828152600360205260409020600a015442901580159061244e57506000838152600360205260409020600a015481115b1561246757506000828152600360205260409020600a01545b6000848152600660205260408120600301546124839083612f9c565b6000858152600360209081526040808320600501548984526006909252909120600201549192506301e133809161271091906124c0908590612f7d565b6124ca9190612f7d565b6124d49190612f5d565b6124de9190612f5d565b95945050505050565b8280546124f390612fb3565b90600052602060002090601f016020900481019282612515576000855561255b565b82601f1061252e5782800160ff1982351617855561255b565b8280016001018555821561255b579182015b8281111561255b578235825591602001919060010190612540565b5061256792915061256b565b5090565b5b80821115612567576000815560010161256c565b80356001600160a01b038116811461075657600080fd5b803561075681613019565b60008083601f8401126125b3578182fd5b50813567ffffffffffffffff8111156125ca578182fd5b6020830191508360208285010111156125e257600080fd5b9250929050565b6000602082840312156125fa578081fd5b610fa582612580565b60008060408385031215612615578081fd5b61261e83612580565b946020939093013593505050565b600080600060608486031215612640578081fd5b61264984612580565b925060208401359150604084013561266081613019565b809150509250925092565b60006020828403121561267c578081fd5b8151610fa581613019565b600060208284031215612698578081fd5b5035919050565b6000602082840312156126b0578081fd5b5051919050565b600080604083850312156126c9578182fd5b823591506126d960208401612580565b90509250929050565b60008060008060008060c087890312156126fa578182fd5b8635955061270a60208801612580565b945061271860408801612580565b9350606087013592506080870135915060a087013590509295509295509295565b6000806040838503121561274b578182fd5b82359150602083013561275d81613019565b809150509250929050565b60008060008060008060008060008060c08b8d031215612786578384fd5b8a35995060208b013567ffffffffffffffff808211156127a4578586fd5b6127b08e838f016125a2565b909b50995060408d01359150808211156127c8578586fd5b6127d48e838f016125a2565b909950975060608d01359150808211156127ec578586fd5b6127f88e838f016125a2565b909750955060808d0135915080821115612810578485fd5b5061281d8d828e016125a2565b9094509250612830905060a08c01612597565b90509295989b9194979a5092959850565b60008060408385031215612853578182fd5b50508035926020909101359150565b600080600060608486031215612876578283fd5b8335925060208401359150604084013561266081613019565b6000602082840312156128a0578081fd5b815160ff81168114610fa5578182fd5b60008151808452815b818110156128d5576020818501810151868301820152016128b9565b818111156128e65782602083870101525b50601f01601f19169290920160200192915050565b6001600160a01b0391909116815260200190565b6001600160a01b03978816815295871660208701529390951660408501526060840191909152608083015260a082019290925290151560c082015260e00190565b6001600160a01b039384168152919092166020820152604081019190915260600190565b6001600160a01b038816815260e060208201819052600090612998908301896128b0565b82810360408401526129aa81896128b0565b905082810360608401526129be81886128b0565b905082810360808401526129d281876128b0565b60a0840195909552505060c0015295945050505050565b6001600160a01b03929092168252602082015260400190565b6001600160a01b0393909316835260208301919091521515604082015260600190565b6001600160a01b03969096168652602086019490945260408501929092526060840152608083015260a082015260c00190565b901515815260200190565b60208082526017908201527f43616c6c6572206973206e6f7420746865206f776e6572000000000000000000604082015260600190565b60208082526024908201527f5468697320746f6b656e206164647265737320697320696e2075736520616c726040820152636561647960e01b606082015260800190565b6020808252601390820152724e6f7468696e6720746f20776974686472617760681b604082015260600190565b6020808252818101527f5969656c6420636f6e7472616374206164647265737320697320696e20757365604082015260600190565b60208082526026908201527f426c6f636b2074696d652073686f756c642062652067726561746572207468616040820152656e207a65726f60d01b606082015260800190565b6020808252601b908201527f4e6f7420656e6f756768207969656c64206174206465706f7369740000000000604082015260600190565b6020808252601b908201527f4e6f7420656e6f75676820636f6e74726163742062616c616e63650000000000604082015260600190565b6020808252818101527f54686973206465706f7369742070726f66696c652069732064697361626c6564604082015260600190565b6020808252601d908201527f546f6b656e20616464726573732063616e206e6f74206265207a65726f000000604082015260600190565b6020808252601c908201527f4e6f7420656e6f75676820616d6f756e74206174206465706f73697400000000604082015260600190565b60208082526022908201527f416d6f756e742073686f756c642062652067726561746572207468616e207a65604082015261726f60f01b606082015260800190565b6020808252818101527f4f6e6c7920666f7220746f6b656e73207769746820646563696d616c73203138604082015260600190565b60208082526023908201527f6e65774f776e65722073686f756c64206e6f74206265207a65726f206164647260408201526265737360e81b606082015260800190565b60208082526022908201527f4465706f73697420636f6e7472616374206164647265737320697320696e2075604082015261736560f01b606082015260800190565b6020808252601c908201527f4465706f7369742070726f66696c65206973206e6f7420666f756e6400000000604082015260600190565b60208082526030908201527f4c6f636b6564206173736574732063616e206e6f74206265207769746864726160408201526f1ddb88185d081d1a19481b5bdb595b9d60821b606082015260800190565b60208082526014908201527311195c1bdcda5d081a5cc81b9bdd08199bdd5b9960621b604082015260600190565b60208082526019908201527f4c6f636b2070726f66696c65206973206e6f7420666f756e6400000000000000604082015260600190565b60208082526019908201527f43616c6c6572206973206e6f7420746865206d616e6167657200000000000000604082015260600190565b60208082526023908201527f4c6f636b6564206173736574732061726520616c72656164792077697468647260408201526230bbb760e91b606082015260800190565b90815260200190565b93845260208401929092526040830152606082015260800190565b958652602086019490945260408501929092526060840152608083015260a082015260c00190565b60008219821115612f5857612f58613003565b500190565b600082612f7857634e487b7160e01b81526012600452602481fd5b500490565b6000816000190483118215151615612f9757612f97613003565b500290565b600082821015612fae57612fae613003565b500390565b600281046001821680612fc757607f821691505b6020821081141561159357634e487b7160e01b600052602260045260246000fd5b6000600019821415612ffc57612ffc613003565b5060010190565b634e487b7160e01b600052601160045260246000fd5b801515811461302757600080fd5b5056fea26469706673582212205adc94f366397ebdc2c3542e7d28733abf5e8eb48895b8301c85c702d2f7727464736f6c63430008000033",
  "linkReferences": {},
  "deployedLinkReferences": {}
}