{
  "_format": "hh-sol-artifact-1",
  "contractName": "ERC721Scholarship",
  "sourceName": "contracts/ERC721Scholarship.sol",
  "abi": [
    {
      "inputs": [
        {
          "internalType": "string",
          "name": "name",
          "type": "string"
        },
        {
          "internalType": "string",
          "name": "symbol",
          "type": "string"
        }
      ],
      "stateMutability": "nonpayable",
      "type": "constructor"
    },
    {
      "anonymous": false,
      "inputs": [
        {
          "indexed": true,
          "internalType": "address",
          "name": "owner",
          "type": "address"
        },
        {
          "indexed": true,
          "internalType": "address",
          "name": "approved",
          "type": "address"
        },
        {
          "indexed": true,
          "internalType": "uint256",
          "name": "tokenId",
          "type": "uint256"
        }
      ],
      "name": "Approval",
      "type": "event"
    },
    {
      "anonymous": false,
      "inputs": [
        {
          "indexed": true,
          "internalType": "address",
          "name": "owner",
          "type": "address"
        },
        {
          "indexed": true,
          "internalType": "address",
          "name": "operator",
          "type": "address"
        },
        {
          "indexed": false,
          "internalType": "bool",
          "name": "approved",
          "type": "bool"
        }
      ],
      "name": "ApprovalForAll",
      "type": "event"
    },
    {
      "anonymous": false,
      "inputs": [
        {
          "indexed": true,
          "internalType": "address",
          "name": "from",
          "type": "address"
        },
        {
          "indexed": true,
          "internalType": "address",
          "name": "to",
          "type": "address"
        },
        {
          "indexed": true,
          "internalType": "uint256",
          "name": "tokenId",
          "type": "uint256"
        }
      ],
      "name": "Transfer",
      "type": "event"
    },
    {
      "inputs": [
        {
          "internalType": "address",
          "name": "userAddress",
          "type": "address"
        },
        {
          "internalType": "uint8",
          "name": "role",
          "type": "uint8"
        }
      ],
      "name": "addRole",
      "outputs": [
        {
          "internalType": "bool",
          "name": "",
          "type": "bool"
        }
      ],
      "stateMutability": "nonpayable",
      "type": "function"
    },
    {
      "inputs": [
        {
          "internalType": "address",
          "name": "userAddress",
          "type": "address"
        }
      ],
      "name": "addToManagers",
      "outputs": [
        {
          "internalType": "bool",
          "name": "",
          "type": "bool"
        }
      ],
      "stateMutability": "nonpayable",
      "type": "function"
    },
    {
      "inputs": [
        {
          "internalType": "address",
          "name": "to",
          "type": "address"
        },
        {
          "internalType": "uint256",
          "name": "tokenId",
          "type": "uint256"
        }
      ],
      "name": "approve",
      "outputs": [],
      "stateMutability": "nonpayable",
      "type": "function"
    },
    {
      "inputs": [
        {
          "internalType": "address",
          "name": "owner",
          "type": "address"
        }
      ],
      "name": "balanceOf",
      "outputs": [
        {
          "internalType": "uint256",
          "name": "",
          "type": "uint256"
        }
      ],
      "stateMutability": "view",
      "type": "function"
    },
    {
      "inputs": [
        {
          "internalType": "address",
          "name": "userAddress",
          "type": "address"
        },
        {
          "internalType": "uint8",
          "name": "role",
          "type": "uint8"
        }
      ],
      "name": "checkRole",
      "outputs": [
        {
          "internalType": "bool",
          "name": "",
          "type": "bool"
        }
      ],
      "stateMutability": "view",
      "type": "function"
    },
    {
      "inputs": [
        {
          "internalType": "uint256",
          "name": "tokenId",
          "type": "uint256"
        }
      ],
      "name": "getApproved",
      "outputs": [
        {
          "internalType": "address",
          "name": "",
          "type": "address"
        }
      ],
      "stateMutability": "view",
      "type": "function"
    },
    {
      "inputs": [
        {
          "internalType": "uint256",
          "name": "tokenId",
          "type": "uint256"
        }
      ],
      "name": "getTokenCreationTimestamp",
      "outputs": [
        {
          "internalType": "uint256",
          "name": "",
          "type": "uint256"
        }
      ],
      "stateMutability": "view",
      "type": "function"
    },
    {
      "inputs": [
        {
          "internalType": "uint256",
          "name": "tokenId",
          "type": "uint256"
        }
      ],
      "name": "getTokenTypeId",
      "outputs": [
        {
          "internalType": "uint256",
          "name": "",
          "type": "uint256"
        }
      ],
      "stateMutability": "view",
      "type": "function"
    },
    {
      "inputs": [
        {
          "internalType": "address",
          "name": "owner",
          "type": "address"
        },
        {
          "internalType": "address",
          "name": "operator",
          "type": "address"
        }
      ],
      "name": "isApprovedForAll",
      "outputs": [
        {
          "internalType": "bool",
          "name": "",
          "type": "bool"
        }
      ],
      "stateMutability": "view",
      "type": "function"
    },
    {
      "inputs": [
        {
          "internalType": "address",
          "name": "userAddress",
          "type": "address"
        }
      ],
      "name": "isManager",
      "outputs": [
        {
          "internalType": "bool",
          "name": "",
          "type": "bool"
        }
      ],
      "stateMutability": "view",
      "type": "function"
    },
    {
      "inputs": [
        {
          "internalType": "address",
          "name": "to",
          "type": "address"
        },
        {
          "internalType": "uint256",
          "name": "tokenTypeId",
          "type": "uint256"
        },
        {
          "internalType": "string",
          "name": "tokenUri",
          "type": "string"
        }
      ],
      "name": "mint",
      "outputs": [
        {
          "internalType": "bool",
          "name": "",
          "type": "bool"
        }
      ],
      "stateMutability": "nonpayable",
      "type": "function"
    },
    {
      "inputs": [],
      "name": "name",
      "outputs": [
        {
          "internalType": "string",
          "name": "",
          "type": "string"
        }
      ],
      "stateMutability": "view",
      "type": "function"
    },
    {
      "inputs": [],
      "name": "owner",
      "outputs": [
        {
          "internalType": "address",
          "name": "",
          "type": "address"
        }
      ],
      "stateMutability": "view",
      "type": "function"
    },
    {
      "inputs": [
        {
          "internalType": "uint256",
          "name": "tokenId",
          "type": "uint256"
        }
      ],
      "name": "ownerOf",
      "outputs": [
        {
          "internalType": "address",
          "name": "",
          "type": "address"
        }
      ],
      "stateMutability": "view",
      "type": "function"
    },
    {
      "inputs": [
        {
          "internalType": "address",
          "name": "userAddress",
          "type": "address"
        }
      ],
      "name": "removeFromManagers",
      "outputs": [
        {
          "internalType": "bool",
          "name": "",
          "type": "bool"
        }
      ],
      "stateMutability": "nonpayable",
      "type": "function"
    },
    {
      "inputs": [
        {
          "internalType": "address",
          "name": "userAddress",
          "type": "address"
        },
        {
          "internalType": "uint8",
          "name": "role",
          "type": "uint8"
        }
      ],
      "name": "removeRole",
      "outputs": [
        {
          "internalType": "bool",
          "name": "",
          "type": "bool"
        }
      ],
      "stateMutability": "nonpayable",
      "type": "function"
    },
    {
      "inputs": [
        {
          "internalType": "address",
          "name": "from",
          "type": "address"
        },
        {
          "internalType": "address",
          "name": "to",
          "type": "address"
        },
        {
          "internalType": "uint256",
          "name": "tokenId",
          "type": "uint256"
        }
      ],
      "name": "safeTransferFrom",
      "outputs": [],
      "stateMutability": "nonpayable",
      "type": "function"
    },
    {
      "inputs": [
        {
          "internalType": "address",
          "name": "from",
          "type": "address"
        },
        {
          "internalType": "address",
          "name": "to",
          "type": "address"
        },
        {
          "internalType": "uint256",
          "name": "tokenId",
          "type": "uint256"
        },
        {
          "internalType": "bytes",
          "name": "_data",
          "type": "bytes"
        }
      ],
      "name": "safeTransferFrom",
      "outputs": [],
      "stateMutability": "nonpayable",
      "type": "function"
    },
    {
      "inputs": [
        {
          "internalType": "address",
          "name": "operator",
          "type": "address"
        },
        {
          "internalType": "bool",
          "name": "approved",
          "type": "bool"
        }
      ],
      "name": "setApprovalForAll",
      "outputs": [],
      "stateMutability": "nonpayable",
      "type": "function"
    },
    {
      "inputs": [
        {
          "internalType": "bytes4",
          "name": "interfaceId",
          "type": "bytes4"
        }
      ],
      "name": "supportsInterface",
      "outputs": [
        {
          "internalType": "bool",
          "name": "",
          "type": "bool"
        }
      ],
      "stateMutability": "view",
      "type": "function"
    },
    {
      "inputs": [],
      "name": "symbol",
      "outputs": [
        {
          "internalType": "string",
          "name": "",
          "type": "string"
        }
      ],
      "stateMutability": "view",
      "type": "function"
    },
    {
      "inputs": [
        {
          "internalType": "uint256",
          "name": "index",
          "type": "uint256"
        }
      ],
      "name": "tokenByIndex",
      "outputs": [
        {
          "internalType": "uint256",
          "name": "",
          "type": "uint256"
        }
      ],
      "stateMutability": "view",
      "type": "function"
    },
    {
      "inputs": [
        {
          "internalType": "address",
          "name": "owner",
          "type": "address"
        },
        {
          "internalType": "uint256",
          "name": "index",
          "type": "uint256"
        }
      ],
      "name": "tokenOfOwnerByIndex",
      "outputs": [
        {
          "internalType": "uint256",
          "name": "",
          "type": "uint256"
        }
      ],
      "stateMutability": "view",
      "type": "function"
    },
    {
      "inputs": [
        {
          "internalType": "uint256",
          "name": "tokenId",
          "type": "uint256"
        }
      ],
      "name": "tokenURI",
      "outputs": [
        {
          "internalType": "string",
          "name": "",
          "type": "string"
        }
      ],
      "stateMutability": "view",
      "type": "function"
    },
    {
      "inputs": [],
      "name": "totalSupply",
      "outputs": [
        {
          "internalType": "uint256",
          "name": "",
          "type": "uint256"
        }
      ],
      "stateMutability": "view",
      "type": "function"
    },
    {
      "inputs": [
        {
          "internalType": "address",
          "name": "from",
          "type": "address"
        },
        {
          "internalType": "address",
          "name": "to",
          "type": "address"
        },
        {
          "internalType": "uint256",
          "name": "tokenId",
          "type": "uint256"
        }
      ],
      "name": "transferFrom",
      "outputs": [],
      "stateMutability": "nonpayable",
      "type": "function"
    },
    {
      "inputs": [
        {
          "internalType": "address",
          "name": "newOwner",
          "type": "address"
        }
      ],
      "name": "transferOwnership",
      "outputs": [
        {
          "internalType": "bool",
          "name": "",
          "type": "bool"
        }
      ],
      "stateMutability": "nonpayable",
      "type": "function"
    }
  ],
  "bytecode": "0x60806040523480156200001157600080fd5b5060405162002412380380620024128339810160408190526200003491620001f6565b8151829082906200004d906000906020850190620000a5565b50805162000063906001906020840190620000a5565b5050600b80546001600160a01b0319163317908190556001600160a01b03166000908152600a60205260409020805460ff1916600117905550620002b0915050565b828054620000b3906200025d565b90600052602060002090601f016020900481019282620000d7576000855562000122565b82601f10620000f257805160ff191683800117855562000122565b8280016001018555821562000122579182015b828111156200012257825182559160200191906001019062000105565b506200013092915062000134565b5090565b5b8082111562000130576000815560010162000135565b600082601f8301126200015c578081fd5b81516001600160401b03808211156200017957620001796200029a565b6040516020601f8401601f1916820181018381118382101715620001a157620001a16200029a565b6040528382528584018101871015620001b8578485fd5b8492505b83831015620001db5785830181015182840182015291820191620001bc565b83831115620001ec57848185840101525b5095945050505050565b6000806040838503121562000209578182fd5b82516001600160401b038082111562000220578384fd5b6200022e868387016200014b565b9350602085015191508082111562000244578283fd5b5062000253858286016200014b565b9150509250929050565b6002810460018216806200027257607f821691505b602082108114156200029457634e487b7160e01b600052602260045260246000fd5b50919050565b634e487b7160e01b600052604160045260246000fd5b61215280620002c06000396000f3fe608060405234801561001057600080fd5b50600436106101a95760003560e01c80634f6ccce7116100f9578063b88d4fde11610097578063e985e9c511610071578063e985e9c514610376578063ee06051f14610389578063f2fde38b1461039c578063f3ae2415146103af576101a9565b8063b88d4fde1461033d578063c87b56dd14610350578063d3fc986414610363576101a9565b80638da5cb5b116100d35780638da5cb5b1461030757806395d89b411461030f578063a22cb46514610317578063b74866fb1461032a576101a9565b80634f6ccce7146102ce5780636352211e146102e157806370a08231146102f4576101a9565b806318160ddd116101665780632f745c59116101405780632f745c591461028257806342842e0e14610295578063431a3f9d146102a857806344deb6f3146102bb576101a9565b806318160ddd1461025457806323a3ad721461025c57806323b872dd1461026f576101a9565b806301ffc9a7146101ae57806306fdde03146101d7578063081812fc146101ec578063095ea7b31461020c5780630a962f8914610221578063127d5ad014610234575b600080fd5b6101c16101bc36600461190e565b6103c2565b6040516101ce9190611a0a565b60405180910390f35b6101df6103d5565b6040516101ce9190611a15565b6101ff6101fa366004611946565b610467565b6040516101ce91906119b9565b61021f61021a366004611833565b6104b3565b005b6101c161022f3660046116a6565b61054b565b610247610242366004611946565b61059d565b6040516101ce9190611fdf565b6102476105af565b6101c161026a3660046118de565b6105b5565b61021f61027d3660046116f2565b6105e4565b610247610290366004611833565b61061c565b61021f6102a33660046116f2565b61066e565b6102476102b6366004611946565b610689565b6101c16102c93660046118de565b61069b565b6102476102dc366004611946565b610702565b6101ff6102ef366004611946565b61075d565b6102476103023660046116a6565b610792565b6101ff6107d6565b6101df6107e5565b61021f6103253660046117f9565b6107f4565b6101c16103383660046118de565b61080a565b61021f61034b36600461172d565b61086d565b6101df61035e366004611946565b6108ac565b6101c161037136600461185c565b6109cd565b6101c16103843660046116c0565b610a83565b6101c16103973660046116a6565b610ab1565b6101c16103aa3660046116a6565b610b07565b6101c16103bd3660046116a6565b610b7f565b60006103cd82610b9d565b90505b919050565b6060600080546103e490612057565b80601f016020809104026020016040519081016040528092919081815260200182805461041090612057565b801561045d5780601f106104325761010080835404028352916020019161045d565b820191906000526020600020905b81548152906001019060200180831161044057829003601f168201915b5050505050905090565b600061047282610bc2565b6104975760405162461bcd60e51b815260040161048e90611df8565b60405180910390fd5b506000908152600460205260409020546001600160a01b031690565b60006104be8261075d565b9050806001600160a01b0316836001600160a01b031614156104f25760405162461bcd60e51b815260040161048e90611eca565b806001600160a01b0316610504610bdf565b6001600160a01b03161480610520575061052081610384610bdf565b61053c5760405162461bcd60e51b815260040161048e90611c3f565b6105468383610be3565b505050565b600b546000906001600160a01b031633146105785760405162461bcd60e51b815260040161048e90611a28565b506001600160a01b03166000908152600a60205260409020805460ff19169055600190565b6000908152600e602052604090205490565b60085490565b60ff8082166000908152600c602090815260408083206001600160a01b03871684529091529020541692915050565b6105f56105ef610bdf565b82610c51565b6106115760405162461bcd60e51b815260040161048e90611f0b565b610546838383610cce565b600061062783610792565b82106106455760405162461bcd60e51b815260040161048e90611a5f565b506001600160a01b03919091166000908152600660209081526040808320938352929052205490565b6105468383836040518060200160405280600081525061086d565b6000908152600d602052604090205490565b336000908152600a602052604081205460ff166106ca5760405162461bcd60e51b815260040161048e90611fa8565b5060ff166000908152600c602090815260408083206001600160a01b0394909416835292905220805460ff1916600190811790915590565b600061070c6105af565b821061072a5760405162461bcd60e51b815260040161048e90611f5c565b6008828154811061074b57634e487b7160e01b600052603260045260246000fd5b90600052602060002001549050919050565b6000818152600260205260408120546001600160a01b0316806103cd5760405162461bcd60e51b815260040161048e90611ce6565b60006001600160a01b0382166107ba5760405162461bcd60e51b815260040161048e90611c9c565b506001600160a01b031660009081526003602052604090205490565b600b546001600160a01b031690565b6060600180546103e490612057565b6108066107ff610bdf565b8383610e01565b5050565b336000908152600a602052604081205460ff166108395760405162461bcd60e51b815260040161048e90611fa8565b5060ff166000908152600c602090815260408083206001600160a01b0394909416835292905220805460ff19169055600190565b61087e610878610bdf565b83610c51565b61089a5760405162461bcd60e51b815260040161048e90611f0b565b6108a684848484610ea4565b50505050565b60606108b782610bc2565b6108d35760405162461bcd60e51b815260040161048e90611d64565b6000828152600f6020526040812080546108ec90612057565b80601f016020809104026020016040519081016040528092919081815260200182805461091890612057565b80156109655780601f1061093a57610100808354040283529160200191610965565b820191906000526020600020905b81548152906001019060200180831161094857829003601f168201915b505050505090506000610976610ed7565b905080516000141561098a575090506103d0565b8151156109bc5780826040516020016109a492919061198a565b604051602081830303815290604052925050506103d0565b6109c584610ee9565b949350505050565b3360009081527fd421a5181c571bba3f01190c922c3b2a896fc1d84e86c9f17ac10e67ebef8b5c602052604081205460019060ff16610a1e5760405162461bcd60e51b815260040161048e90611e44565b6000610a286105af565b610a33906001611fe8565b9050610a3f8782610f6c565b6000818152600e60209081526040808320899055600f9091529020610a659086866115f6565b506000908152600d6020526040902042905550600195945050505050565b6001600160a01b03918216600090815260056020908152604080832093909416825291909152205460ff1690565b600b546000906001600160a01b03163314610ade5760405162461bcd60e51b815260040161048e90611a28565b506001600160a01b03166000908152600a60205260409020805460ff1916600190811790915590565b600b546000906001600160a01b03163314610b345760405162461bcd60e51b815260040161048e90611a28565b6001600160a01b038216610b5a5760405162461bcd60e51b815260040161048e90611db5565b50600b80546001600160a01b0383166001600160a01b03199091161790556001919050565b6001600160a01b03166000908152600a602052604090205460ff1690565b60006001600160e01b0319821663780e9d6360e01b14806103cd57506103cd82611053565b6000908152600260205260409020546001600160a01b0316151590565b3390565b600081815260046020526040902080546001600160a01b0319166001600160a01b0384169081179091558190610c188261075d565b6001600160a01b03167f8c5be1e5ebec7d5bd14f71427d1e84f3dd0314c0f7b2291e5b200ac8c7c3b92560405160405180910390a45050565b6000610c5c82610bc2565b610c785760405162461bcd60e51b815260040161048e90611bf3565b6000610c838361075d565b9050806001600160a01b0316846001600160a01b03161480610cbe5750836001600160a01b0316610cb384610467565b6001600160a01b0316145b806109c557506109c58185610a83565b826001600160a01b0316610ce18261075d565b6001600160a01b031614610d075760405162461bcd60e51b815260040161048e90611afc565b6001600160a01b038216610d2d5760405162461bcd60e51b815260040161048e90611b78565b610d38838383611093565b610d43600082610be3565b6001600160a01b0383166000908152600360205260408120805460019290610d6c908490612014565b90915550506001600160a01b0382166000908152600360205260408120805460019290610d9a908490611fe8565b909155505060008181526002602052604080822080546001600160a01b0319166001600160a01b0386811691821790925591518493918716917fddf252ad1be2c89b69c2b068fc378daa952ba7f163c4a11628f55a4df523b3ef91a4610546838383610546565b816001600160a01b0316836001600160a01b03161415610e335760405162461bcd60e51b815260040161048e90611bbc565b6001600160a01b0383811660008181526005602090815260408083209487168084529490915290819020805460ff1916851515179055517f17307eab39ab6107e8899845ad3d59bd9653f200f220920489ca2b5937696c3190610e97908590611a0a565b60405180910390a3505050565b610eaf848484610cce565b610ebb848484846110ef565b6108a65760405162461bcd60e51b815260040161048e90611aaa565b60408051602081019091526000815290565b6060610ef482610bc2565b610f105760405162461bcd60e51b815260040161048e90611e7b565b6000610f1a610ed7565b90506000815111610f3a5760405180602001604052806000815250610f65565b80610f448461120a565b604051602001610f5592919061198a565b6040516020818303038152906040525b9392505050565b6001600160a01b038216610f925760405162461bcd60e51b815260040161048e90611d2f565b610f9b81610bc2565b15610fb85760405162461bcd60e51b815260040161048e90611b41565b610fc460008383611093565b6001600160a01b0382166000908152600360205260408120805460019290610fed908490611fe8565b909155505060008181526002602052604080822080546001600160a01b0319166001600160a01b03861690811790915590518392907fddf252ad1be2c89b69c2b068fc378daa952ba7f163c4a11628f55a4df523b3ef908290a461080660008383610546565b60006001600160e01b031982166380ac58cd60e01b148061108457506001600160e01b03198216635b5e139f60e01b145b806103cd57506103cd82611325565b3360009081527fd421a5181c571bba3f01190c922c3b2a896fc1d84e86c9f17ac10e67ebef8b5c602052604090205460019060ff166110e45760405162461bcd60e51b815260040161048e90611e44565b6108a684848461133e565b6000611103846001600160a01b03166113c7565b156111ff57836001600160a01b031663150b7a0261111f610bdf565b8786866040518563ffffffff1660e01b815260040161114194939291906119cd565b602060405180830381600087803b15801561115b57600080fd5b505af192505050801561118b575060408051601f3d908101601f191682019092526111889181019061192a565b60015b6111e5573d8080156111b9576040519150601f19603f3d011682016040523d82523d6000602084013e6111be565b606091505b5080516111dd5760405162461bcd60e51b815260040161048e90611aaa565b805181602001fd5b6001600160e01b031916630a85bd0160e11b1490506109c5565b506001949350505050565b60608161122f57506040805180820190915260018152600360fc1b60208201526103d0565b8160005b8115611259578061124381612092565b91506112529050600a83612000565b9150611233565b60008167ffffffffffffffff81111561128257634e487b7160e01b600052604160045260246000fd5b6040519080825280601f01601f1916602001820160405280156112ac576020820181803683370190505b5090505b84156109c5576112c1600183612014565b91506112ce600a866120ad565b6112d9906030611fe8565b60f81b8183815181106112fc57634e487b7160e01b600052603260045260246000fd5b60200101906001600160f81b031916908160001a90535061131e600a86612000565b94506112b0565b6001600160e01b031981166301ffc9a760e01b14919050565b611349838383610546565b6001600160a01b03831661136557611360816113f8565b611388565b816001600160a01b0316836001600160a01b03161461138857611388838261143c565b6001600160a01b0382166113a45761139f816114d9565b610546565b826001600160a01b0316826001600160a01b0316146105465761054682826115b2565b600080826001600160a01b0316803b806020016040519081016040528181526000908060200190933c511192915050565b600880546000838152600960205260408120829055600182018355919091527ff3f7a9fe364faab93b216da50a3214154f22a0a2b415b23a84c8169e8b636ee30155565b6000600161144984610792565b6114539190612014565b6000838152600760205260409020549091508082146114a6576001600160a01b03841660009081526006602090815260408083208584528252808320548484528184208190558352600790915290208190555b5060009182526007602090815260408084208490556001600160a01b039094168352600681528383209183525290812055565b6008546000906114eb90600190612014565b6000838152600960205260408120546008805493945090928490811061152157634e487b7160e01b600052603260045260246000fd5b90600052602060002001549050806008838154811061155057634e487b7160e01b600052603260045260246000fd5b600091825260208083209091019290925582815260099091526040808220849055858252812055600880548061159657634e487b7160e01b600052603160045260246000fd5b6001900381819060005260206000200160009055905550505050565b60006115bd83610792565b6001600160a01b039093166000908152600660209081526040808320868452825280832085905593825260079052919091209190915550565b82805461160290612057565b90600052602060002090601f016020900481019282611624576000855561166a565b82601f1061163d5782800160ff1982351617855561166a565b8280016001018555821561166a579182015b8281111561166a57823582559160200191906001019061164f565b5061167692915061167a565b5090565b5b80821115611676576000815560010161167b565b80356001600160a01b03811681146103d057600080fd5b6000602082840312156116b7578081fd5b610f658261168f565b600080604083850312156116d2578081fd5b6116db8361168f565b91506116e96020840161168f565b90509250929050565b600080600060608486031215611706578081fd5b61170f8461168f565b925061171d6020850161168f565b9150604084013590509250925092565b60008060008060808587031215611742578081fd5b61174b8561168f565b9350602061175a81870161168f565b935060408601359250606086013567ffffffffffffffff8082111561177d578384fd5b818801915088601f830112611790578384fd5b8135818111156117a2576117a26120ed565b604051601f8201601f19168101850183811182821017156117c5576117c56120ed565b60405281815283820185018b10156117db578586fd5b81858501868301379081019093019390935250939692955090935050565b6000806040838503121561180b578182fd5b6118148361168f565b915060208301358015158114611828578182fd5b809150509250929050565b60008060408385031215611845578182fd5b61184e8361168f565b946020939093013593505050565b60008060008060608587031215611871578384fd5b61187a8561168f565b935060208501359250604085013567ffffffffffffffff8082111561189d578384fd5b818701915087601f8301126118b0578384fd5b8135818111156118be578485fd5b8860208285010111156118cf578485fd5b95989497505060200194505050565b600080604083850312156118f0578182fd5b6118f98361168f565b9150602083013560ff81168114611828578182fd5b60006020828403121561191f578081fd5b8135610f6581612103565b60006020828403121561193b578081fd5b8151610f6581612103565b600060208284031215611957578081fd5b5035919050565b6000815180845261197681602086016020860161202b565b601f01601f19169290920160200192915050565b6000835161199c81846020880161202b565b8351908301906119b081836020880161202b565b01949350505050565b6001600160a01b0391909116815260200190565b6001600160a01b0385811682528416602082015260408101839052608060608201819052600090611a009083018461195e565b9695505050505050565b901515815260200190565b600060208252610f65602083018461195e565b60208082526017908201527f43616c6c6572206973206e6f7420746865206f776e6572000000000000000000604082015260600190565b6020808252602b908201527f455243373231456e756d657261626c653a206f776e657220696e646578206f7560408201526a74206f6620626f756e647360a81b606082015260800190565b60208082526032908201527f4552433732313a207472616e7366657220746f206e6f6e20455243373231526560408201527131b2b4bb32b91034b6b83632b6b2b73a32b960711b606082015260800190565b60208082526025908201527f4552433732313a207472616e736665722066726f6d20696e636f72726563742060408201526437bbb732b960d91b606082015260800190565b6020808252601c908201527f4552433732313a20746f6b656e20616c7265616479206d696e74656400000000604082015260600190565b60208082526024908201527f4552433732313a207472616e7366657220746f20746865207a65726f206164646040820152637265737360e01b606082015260800190565b60208082526019908201527f4552433732313a20617070726f766520746f2063616c6c657200000000000000604082015260600190565b6020808252602c908201527f4552433732313a206f70657261746f7220717565727920666f72206e6f6e657860408201526b34b9ba32b73a103a37b5b2b760a11b606082015260800190565b60208082526038908201527f4552433732313a20617070726f76652063616c6c6572206973206e6f74206f7760408201527f6e6572206e6f7220617070726f76656420666f7220616c6c0000000000000000606082015260800190565b6020808252602a908201527f4552433732313a2062616c616e636520717565727920666f7220746865207a65604082015269726f206164647265737360b01b606082015260800190565b60208082526029908201527f4552433732313a206f776e657220717565727920666f72206e6f6e657869737460408201526832b73a103a37b5b2b760b91b606082015260800190565b6020808252818101527f4552433732313a206d696e7420746f20746865207a65726f2061646472657373604082015260600190565b60208082526031908201527f45524337323155524953746f726167653a2055524920717565727920666f72206040820152703737b732bc34b9ba32b73a103a37b5b2b760791b606082015260800190565b60208082526023908201527f6e65774f776e65722073686f756c64206e6f74206265207a65726f206164647260408201526265737360e81b606082015260800190565b6020808252602c908201527f4552433732313a20617070726f76656420717565727920666f72206e6f6e657860408201526b34b9ba32b73a103a37b5b2b760a11b606082015260800190565b60208082526018908201527f43616c6c6572206973206e6f7420617574686f72697a65640000000000000000604082015260600190565b6020808252602f908201527f4552433732314d657461646174613a2055524920717565727920666f72206e6f60408201526e3732bc34b9ba32b73a103a37b5b2b760891b606082015260800190565b60208082526021908201527f4552433732313a20617070726f76616c20746f2063757272656e74206f776e656040820152603960f91b606082015260800190565b60208082526031908201527f4552433732313a207472616e736665722063616c6c6572206973206e6f74206f6040820152701ddb995c881b9bdc88185c1c1c9bdd9959607a1b606082015260800190565b6020808252602c908201527f455243373231456e756d657261626c653a20676c6f62616c20696e646578206f60408201526b7574206f6620626f756e647360a01b606082015260800190565b60208082526019908201527f43616c6c6572206973206e6f7420746865206d616e6167657200000000000000604082015260600190565b90815260200190565b60008219821115611ffb57611ffb6120c1565b500190565b60008261200f5761200f6120d7565b500490565b600082821015612026576120266120c1565b500390565b60005b8381101561204657818101518382015260200161202e565b838111156108a65750506000910152565b60028104600182168061206b57607f821691505b6020821081141561208c57634e487b7160e01b600052602260045260246000fd5b50919050565b60006000198214156120a6576120a66120c1565b5060010190565b6000826120bc576120bc6120d7565b500690565b634e487b7160e01b600052601160045260246000fd5b634e487b7160e01b600052601260045260246000fd5b634e487b7160e01b600052604160045260246000fd5b6001600160e01b03198116811461211957600080fd5b5056fea2646970667358221220001095abc6b73118b761f316e6889e1cc8c0d2fd1d53600395e7bda70a6597ea64736f6c63430008000033",
  "linkReferences": {},
  "deployedLinkReferences": {}
}