{
  "_format": "hh-sol-artifact-1",
  "contractName": "ERC721Scholarship",
  "sourceName": "contracts/ERC721Scholarship.sol",
  "abi": [
    {
      "inputs": [
        {
          "internalType": "string",
          "name": "name",
          "type": "string"
        },
        {
          "internalType": "string",
          "name": "symbol",
          "type": "string"
        },
        {
          "internalType": "uint256",
          "name": "initialIdShift",
          "type": "uint256"
        }
      ],
      "stateMutability": "nonpayable",
      "type": "constructor"
    },
    {
      "anonymous": false,
      "inputs": [
        {
          "indexed": true,
          "internalType": "address",
          "name": "owner",
          "type": "address"
        },
        {
          "indexed": true,
          "internalType": "address",
          "name": "approved",
          "type": "address"
        },
        {
          "indexed": true,
          "internalType": "uint256",
          "name": "tokenId",
          "type": "uint256"
        }
      ],
      "name": "Approval",
      "type": "event"
    },
    {
      "anonymous": false,
      "inputs": [
        {
          "indexed": true,
          "internalType": "address",
          "name": "owner",
          "type": "address"
        },
        {
          "indexed": true,
          "internalType": "address",
          "name": "operator",
          "type": "address"
        },
        {
          "indexed": false,
          "internalType": "bool",
          "name": "approved",
          "type": "bool"
        }
      ],
      "name": "ApprovalForAll",
      "type": "event"
    },
    {
      "anonymous": false,
      "inputs": [
        {
          "indexed": true,
          "internalType": "address",
          "name": "from",
          "type": "address"
        },
        {
          "indexed": true,
          "internalType": "address",
          "name": "to",
          "type": "address"
        },
        {
          "indexed": true,
          "internalType": "uint256",
          "name": "tokenId",
          "type": "uint256"
        }
      ],
      "name": "Transfer",
      "type": "event"
    },
    {
      "inputs": [
        {
          "internalType": "address",
          "name": "userAddress",
          "type": "address"
        },
        {
          "internalType": "uint8",
          "name": "role",
          "type": "uint8"
        }
      ],
      "name": "addRole",
      "outputs": [
        {
          "internalType": "bool",
          "name": "",
          "type": "bool"
        }
      ],
      "stateMutability": "nonpayable",
      "type": "function"
    },
    {
      "inputs": [
        {
          "internalType": "address",
          "name": "userAddress",
          "type": "address"
        }
      ],
      "name": "addToManagers",
      "outputs": [
        {
          "internalType": "bool",
          "name": "",
          "type": "bool"
        }
      ],
      "stateMutability": "nonpayable",
      "type": "function"
    },
    {
      "inputs": [
        {
          "internalType": "address",
          "name": "to",
          "type": "address"
        },
        {
          "internalType": "uint256",
          "name": "tokenId",
          "type": "uint256"
        }
      ],
      "name": "approve",
      "outputs": [],
      "stateMutability": "nonpayable",
      "type": "function"
    },
    {
      "inputs": [
        {
          "internalType": "address",
          "name": "owner",
          "type": "address"
        }
      ],
      "name": "balanceOf",
      "outputs": [
        {
          "internalType": "uint256",
          "name": "",
          "type": "uint256"
        }
      ],
      "stateMutability": "view",
      "type": "function"
    },
    {
      "inputs": [
        {
          "internalType": "address",
          "name": "userAddress",
          "type": "address"
        },
        {
          "internalType": "uint8",
          "name": "role",
          "type": "uint8"
        }
      ],
      "name": "checkRole",
      "outputs": [
        {
          "internalType": "bool",
          "name": "",
          "type": "bool"
        }
      ],
      "stateMutability": "view",
      "type": "function"
    },
    {
      "inputs": [
        {
          "internalType": "uint256",
          "name": "tokenId",
          "type": "uint256"
        }
      ],
      "name": "getApproved",
      "outputs": [
        {
          "internalType": "address",
          "name": "",
          "type": "address"
        }
      ],
      "stateMutability": "view",
      "type": "function"
    },
    {
      "inputs": [
        {
          "internalType": "uint256",
          "name": "tokenId",
          "type": "uint256"
        }
      ],
      "name": "getTokenCreationTimestamp",
      "outputs": [
        {
          "internalType": "uint256",
          "name": "",
          "type": "uint256"
        }
      ],
      "stateMutability": "view",
      "type": "function"
    },
    {
      "inputs": [
        {
          "internalType": "uint256",
          "name": "tokenId",
          "type": "uint256"
        }
      ],
      "name": "getTokenTypeId",
      "outputs": [
        {
          "internalType": "uint256",
          "name": "",
          "type": "uint256"
        }
      ],
      "stateMutability": "view",
      "type": "function"
    },
    {
      "inputs": [
        {
          "internalType": "address",
          "name": "owner",
          "type": "address"
        },
        {
          "internalType": "address",
          "name": "operator",
          "type": "address"
        }
      ],
      "name": "isApprovedForAll",
      "outputs": [
        {
          "internalType": "bool",
          "name": "",
          "type": "bool"
        }
      ],
      "stateMutability": "view",
      "type": "function"
    },
    {
      "inputs": [
        {
          "internalType": "address",
          "name": "userAddress",
          "type": "address"
        }
      ],
      "name": "isManager",
      "outputs": [
        {
          "internalType": "bool",
          "name": "",
          "type": "bool"
        }
      ],
      "stateMutability": "view",
      "type": "function"
    },
    {
      "inputs": [
        {
          "internalType": "address",
          "name": "to",
          "type": "address"
        },
        {
          "internalType": "uint256",
          "name": "tokenTypeId",
          "type": "uint256"
        },
        {
          "internalType": "string",
          "name": "tokenUri",
          "type": "string"
        }
      ],
      "name": "mint",
      "outputs": [
        {
          "internalType": "bool",
          "name": "",
          "type": "bool"
        }
      ],
      "stateMutability": "nonpayable",
      "type": "function"
    },
    {
      "inputs": [],
      "name": "name",
      "outputs": [
        {
          "internalType": "string",
          "name": "",
          "type": "string"
        }
      ],
      "stateMutability": "view",
      "type": "function"
    },
    {
      "inputs": [],
      "name": "owner",
      "outputs": [
        {
          "internalType": "address",
          "name": "",
          "type": "address"
        }
      ],
      "stateMutability": "view",
      "type": "function"
    },
    {
      "inputs": [
        {
          "internalType": "uint256",
          "name": "tokenId",
          "type": "uint256"
        }
      ],
      "name": "ownerOf",
      "outputs": [
        {
          "internalType": "address",
          "name": "",
          "type": "address"
        }
      ],
      "stateMutability": "view",
      "type": "function"
    },
    {
      "inputs": [
        {
          "internalType": "address",
          "name": "userAddress",
          "type": "address"
        }
      ],
      "name": "removeFromManagers",
      "outputs": [
        {
          "internalType": "bool",
          "name": "",
          "type": "bool"
        }
      ],
      "stateMutability": "nonpayable",
      "type": "function"
    },
    {
      "inputs": [
        {
          "internalType": "address",
          "name": "userAddress",
          "type": "address"
        },
        {
          "internalType": "uint8",
          "name": "role",
          "type": "uint8"
        }
      ],
      "name": "removeRole",
      "outputs": [
        {
          "internalType": "bool",
          "name": "",
          "type": "bool"
        }
      ],
      "stateMutability": "nonpayable",
      "type": "function"
    },
    {
      "inputs": [
        {
          "internalType": "address",
          "name": "from",
          "type": "address"
        },
        {
          "internalType": "address",
          "name": "to",
          "type": "address"
        },
        {
          "internalType": "uint256",
          "name": "tokenId",
          "type": "uint256"
        }
      ],
      "name": "safeTransferFrom",
      "outputs": [],
      "stateMutability": "nonpayable",
      "type": "function"
    },
    {
      "inputs": [
        {
          "internalType": "address",
          "name": "from",
          "type": "address"
        },
        {
          "internalType": "address",
          "name": "to",
          "type": "address"
        },
        {
          "internalType": "uint256",
          "name": "tokenId",
          "type": "uint256"
        },
        {
          "internalType": "bytes",
          "name": "_data",
          "type": "bytes"
        }
      ],
      "name": "safeTransferFrom",
      "outputs": [],
      "stateMutability": "nonpayable",
      "type": "function"
    },
    {
      "inputs": [
        {
          "internalType": "address",
          "name": "operator",
          "type": "address"
        },
        {
          "internalType": "bool",
          "name": "approved",
          "type": "bool"
        }
      ],
      "name": "setApprovalForAll",
      "outputs": [],
      "stateMutability": "nonpayable",
      "type": "function"
    },
    {
      "inputs": [
        {
          "internalType": "bytes4",
          "name": "interfaceId",
          "type": "bytes4"
        }
      ],
      "name": "supportsInterface",
      "outputs": [
        {
          "internalType": "bool",
          "name": "",
          "type": "bool"
        }
      ],
      "stateMutability": "view",
      "type": "function"
    },
    {
      "inputs": [],
      "name": "symbol",
      "outputs": [
        {
          "internalType": "string",
          "name": "",
          "type": "string"
        }
      ],
      "stateMutability": "view",
      "type": "function"
    },
    {
      "inputs": [
        {
          "internalType": "uint256",
          "name": "index",
          "type": "uint256"
        }
      ],
      "name": "tokenByIndex",
      "outputs": [
        {
          "internalType": "uint256",
          "name": "",
          "type": "uint256"
        }
      ],
      "stateMutability": "view",
      "type": "function"
    },
    {
      "inputs": [
        {
          "internalType": "address",
          "name": "owner",
          "type": "address"
        },
        {
          "internalType": "uint256",
          "name": "index",
          "type": "uint256"
        }
      ],
      "name": "tokenOfOwnerByIndex",
      "outputs": [
        {
          "internalType": "uint256",
          "name": "",
          "type": "uint256"
        }
      ],
      "stateMutability": "view",
      "type": "function"
    },
    {
      "inputs": [
        {
          "internalType": "uint256",
          "name": "tokenId",
          "type": "uint256"
        }
      ],
      "name": "tokenURI",
      "outputs": [
        {
          "internalType": "string",
          "name": "",
          "type": "string"
        }
      ],
      "stateMutability": "view",
      "type": "function"
    },
    {
      "inputs": [],
      "name": "totalSupply",
      "outputs": [
        {
          "internalType": "uint256",
          "name": "",
          "type": "uint256"
        }
      ],
      "stateMutability": "view",
      "type": "function"
    },
    {
      "inputs": [
        {
          "internalType": "address",
          "name": "from",
          "type": "address"
        },
        {
          "internalType": "address",
          "name": "to",
          "type": "address"
        },
        {
          "internalType": "uint256",
          "name": "tokenId",
          "type": "uint256"
        }
      ],
      "name": "transferFrom",
      "outputs": [],
      "stateMutability": "nonpayable",
      "type": "function"
    },
    {
      "inputs": [
        {
          "internalType": "address",
          "name": "newOwner",
          "type": "address"
        }
      ],
      "name": "transferOwnership",
      "outputs": [
        {
          "internalType": "bool",
          "name": "",
          "type": "bool"
        }
      ],
      "stateMutability": "nonpayable",
      "type": "function"
    }
  ],
  "bytecode": "0x60806040523480156200001157600080fd5b506040516200242b3803806200242b8339810160408190526200003491620001f9565b8251839083906200004d906000906020850190620000a8565b50805162000063906001906020840190620000a8565b5050600b80546001600160a01b0319163317908190556001600160a01b03166000908152600a60205260409020805460ff1916600117905550600d5550620002bc9050565b828054620000b69062000269565b90600052602060002090601f016020900481019282620000da576000855562000125565b82601f10620000f557805160ff191683800117855562000125565b8280016001018555821562000125579182015b828111156200012557825182559160200191906001019062000108565b506200013392915062000137565b5090565b5b8082111562000133576000815560010162000138565b600082601f8301126200015f578081fd5b81516001600160401b03808211156200017c576200017c620002a6565b6040516020601f8401601f1916820181018381118382101715620001a457620001a4620002a6565b6040528382528584018101871015620001bb578485fd5b8492505b83831015620001de5785830181015182840182015291820191620001bf565b83831115620001ef57848185840101525b5095945050505050565b6000806000606084860312156200020e578283fd5b83516001600160401b038082111562000225578485fd5b62000233878388016200014e565b9450602086015191508082111562000249578384fd5b5062000258868287016200014e565b925050604084015190509250925092565b6002810460018216806200027e57607f821691505b60208210811415620002a057634e487b7160e01b600052602260045260246000fd5b50919050565b634e487b7160e01b600052604160045260246000fd5b61215f80620002cc6000396000f3fe608060405234801561001057600080fd5b50600436106101a95760003560e01c80634f6ccce7116100f9578063b88d4fde11610097578063e985e9c511610071578063e985e9c514610376578063ee06051f14610389578063f2fde38b1461039c578063f3ae2415146103af576101a9565b8063b88d4fde1461033d578063c87b56dd14610350578063d3fc986414610363576101a9565b80638da5cb5b116100d35780638da5cb5b1461030757806395d89b411461030f578063a22cb46514610317578063b74866fb1461032a576101a9565b80634f6ccce7146102ce5780636352211e146102e157806370a08231146102f4576101a9565b806318160ddd116101665780632f745c59116101405780632f745c591461028257806342842e0e14610295578063431a3f9d146102a857806344deb6f3146102bb576101a9565b806318160ddd1461025457806323a3ad721461025c57806323b872dd1461026f576101a9565b806301ffc9a7146101ae57806306fdde03146101d7578063081812fc146101ec578063095ea7b31461020c5780630a962f8914610221578063127d5ad014610234575b600080fd5b6101c16101bc36600461191b565b6103c2565b6040516101ce9190611a17565b60405180910390f35b6101df6103d5565b6040516101ce9190611a22565b6101ff6101fa366004611953565b610467565b6040516101ce91906119c6565b61021f61021a366004611840565b6104b3565b005b6101c161022f3660046116b3565b61054b565b610247610242366004611953565b61059d565b6040516101ce9190611fec565b6102476105af565b6101c161026a3660046118eb565b6105b5565b61021f61027d3660046116ff565b6105e4565b610247610290366004611840565b61061c565b61021f6102a33660046116ff565b61066e565b6102476102b6366004611953565b610689565b6101c16102c93660046118eb565b61069b565b6102476102dc366004611953565b610702565b6101ff6102ef366004611953565b61075d565b6102476103023660046116b3565b610792565b6101ff6107d6565b6101df6107e5565b61021f610325366004611806565b6107f4565b6101c16103383660046118eb565b61080a565b61021f61034b36600461173a565b61086d565b6101df61035e366004611953565b6108ac565b6101c1610371366004611869565b6109cd565b6101c16103843660046116cd565b610a90565b6101c16103973660046116b3565b610abe565b6101c16103aa3660046116b3565b610b14565b6101c16103bd3660046116b3565b610b8c565b60006103cd82610baa565b90505b919050565b6060600080546103e490612064565b80601f016020809104026020016040519081016040528092919081815260200182805461041090612064565b801561045d5780601f106104325761010080835404028352916020019161045d565b820191906000526020600020905b81548152906001019060200180831161044057829003601f168201915b5050505050905090565b600061047282610bcf565b6104975760405162461bcd60e51b815260040161048e90611e05565b60405180910390fd5b506000908152600460205260409020546001600160a01b031690565b60006104be8261075d565b9050806001600160a01b0316836001600160a01b031614156104f25760405162461bcd60e51b815260040161048e90611ed7565b806001600160a01b0316610504610bec565b6001600160a01b03161480610520575061052081610384610bec565b61053c5760405162461bcd60e51b815260040161048e90611c4c565b6105468383610bf0565b505050565b600b546000906001600160a01b031633146105785760405162461bcd60e51b815260040161048e90611a35565b506001600160a01b03166000908152600a60205260409020805460ff19169055600190565b6000908152600f602052604090205490565b60085490565b60ff8082166000908152600c602090815260408083206001600160a01b03871684529091529020541692915050565b6105f56105ef610bec565b82610c5e565b6106115760405162461bcd60e51b815260040161048e90611f18565b610546838383610cdb565b600061062783610792565b82106106455760405162461bcd60e51b815260040161048e90611a6c565b506001600160a01b03919091166000908152600660209081526040808320938352929052205490565b6105468383836040518060200160405280600081525061086d565b6000908152600e602052604090205490565b336000908152600a602052604081205460ff166106ca5760405162461bcd60e51b815260040161048e90611fb5565b5060ff166000908152600c602090815260408083206001600160a01b0394909416835292905220805460ff1916600190811790915590565b600061070c6105af565b821061072a5760405162461bcd60e51b815260040161048e90611f69565b6008828154811061074b57634e487b7160e01b600052603260045260246000fd5b90600052602060002001549050919050565b6000818152600260205260408120546001600160a01b0316806103cd5760405162461bcd60e51b815260040161048e90611cf3565b60006001600160a01b0382166107ba5760405162461bcd60e51b815260040161048e90611ca9565b506001600160a01b031660009081526003602052604090205490565b600b546001600160a01b031690565b6060600180546103e490612064565b6108066107ff610bec565b8383610e0e565b5050565b336000908152600a602052604081205460ff166108395760405162461bcd60e51b815260040161048e90611fb5565b5060ff166000908152600c602090815260408083206001600160a01b0394909416835292905220805460ff19169055600190565b61087e610878610bec565b83610c5e565b61089a5760405162461bcd60e51b815260040161048e90611f18565b6108a684848484610eb1565b50505050565b60606108b782610bcf565b6108d35760405162461bcd60e51b815260040161048e90611d71565b600082815260106020526040812080546108ec90612064565b80601f016020809104026020016040519081016040528092919081815260200182805461091890612064565b80156109655780601f1061093a57610100808354040283529160200191610965565b820191906000526020600020905b81548152906001019060200180831161094857829003601f168201915b505050505090506000610976610ee4565b905080516000141561098a575090506103d0565b8151156109bc5780826040516020016109a4929190611997565b604051602081830303815290604052925050506103d0565b6109c584610ef6565b949350505050565b3360009081527fd421a5181c571bba3f01190c922c3b2a896fc1d84e86c9f17ac10e67ebef8b5c602052604081205460019060ff16610a1e5760405162461bcd60e51b815260040161048e90611e51565b6000600d54610a2b6105af565b610a359190611ff5565b610a40906001611ff5565b9050610a4c8782610f79565b6000818152600f6020908152604080832089905560109091529020610a72908686611603565b506000908152600e6020526040902042905550600195945050505050565b6001600160a01b03918216600090815260056020908152604080832093909416825291909152205460ff1690565b600b546000906001600160a01b03163314610aeb5760405162461bcd60e51b815260040161048e90611a35565b506001600160a01b03166000908152600a60205260409020805460ff1916600190811790915590565b600b546000906001600160a01b03163314610b415760405162461bcd60e51b815260040161048e90611a35565b6001600160a01b038216610b675760405162461bcd60e51b815260040161048e90611dc2565b50600b80546001600160a01b0383166001600160a01b03199091161790556001919050565b6001600160a01b03166000908152600a602052604090205460ff1690565b60006001600160e01b0319821663780e9d6360e01b14806103cd57506103cd82611060565b6000908152600260205260409020546001600160a01b0316151590565b3390565b600081815260046020526040902080546001600160a01b0319166001600160a01b0384169081179091558190610c258261075d565b6001600160a01b03167f8c5be1e5ebec7d5bd14f71427d1e84f3dd0314c0f7b2291e5b200ac8c7c3b92560405160405180910390a45050565b6000610c6982610bcf565b610c855760405162461bcd60e51b815260040161048e90611c00565b6000610c908361075d565b9050806001600160a01b0316846001600160a01b03161480610ccb5750836001600160a01b0316610cc084610467565b6001600160a01b0316145b806109c557506109c58185610a90565b826001600160a01b0316610cee8261075d565b6001600160a01b031614610d145760405162461bcd60e51b815260040161048e90611b09565b6001600160a01b038216610d3a5760405162461bcd60e51b815260040161048e90611b85565b610d458383836110a0565b610d50600082610bf0565b6001600160a01b0383166000908152600360205260408120805460019290610d79908490612021565b90915550506001600160a01b0382166000908152600360205260408120805460019290610da7908490611ff5565b909155505060008181526002602052604080822080546001600160a01b0319166001600160a01b0386811691821790925591518493918716917fddf252ad1be2c89b69c2b068fc378daa952ba7f163c4a11628f55a4df523b3ef91a4610546838383610546565b816001600160a01b0316836001600160a01b03161415610e405760405162461bcd60e51b815260040161048e90611bc9565b6001600160a01b0383811660008181526005602090815260408083209487168084529490915290819020805460ff1916851515179055517f17307eab39ab6107e8899845ad3d59bd9653f200f220920489ca2b5937696c3190610ea4908590611a17565b60405180910390a3505050565b610ebc848484610cdb565b610ec8848484846110fc565b6108a65760405162461bcd60e51b815260040161048e90611ab7565b60408051602081019091526000815290565b6060610f0182610bcf565b610f1d5760405162461bcd60e51b815260040161048e90611e88565b6000610f27610ee4565b90506000815111610f475760405180602001604052806000815250610f72565b80610f5184611217565b604051602001610f62929190611997565b6040516020818303038152906040525b9392505050565b6001600160a01b038216610f9f5760405162461bcd60e51b815260040161048e90611d3c565b610fa881610bcf565b15610fc55760405162461bcd60e51b815260040161048e90611b4e565b610fd1600083836110a0565b6001600160a01b0382166000908152600360205260408120805460019290610ffa908490611ff5565b909155505060008181526002602052604080822080546001600160a01b0319166001600160a01b03861690811790915590518392907fddf252ad1be2c89b69c2b068fc378daa952ba7f163c4a11628f55a4df523b3ef908290a461080660008383610546565b60006001600160e01b031982166380ac58cd60e01b148061109157506001600160e01b03198216635b5e139f60e01b145b806103cd57506103cd82611332565b3360009081527fd421a5181c571bba3f01190c922c3b2a896fc1d84e86c9f17ac10e67ebef8b5c602052604090205460019060ff166110f15760405162461bcd60e51b815260040161048e90611e51565b6108a684848461134b565b6000611110846001600160a01b03166113d4565b1561120c57836001600160a01b031663150b7a0261112c610bec565b8786866040518563ffffffff1660e01b815260040161114e94939291906119da565b602060405180830381600087803b15801561116857600080fd5b505af1925050508015611198575060408051601f3d908101601f1916820190925261119591810190611937565b60015b6111f2573d8080156111c6576040519150601f19603f3d011682016040523d82523d6000602084013e6111cb565b606091505b5080516111ea5760405162461bcd60e51b815260040161048e90611ab7565b805181602001fd5b6001600160e01b031916630a85bd0160e11b1490506109c5565b506001949350505050565b60608161123c57506040805180820190915260018152600360fc1b60208201526103d0565b8160005b811561126657806112508161209f565b915061125f9050600a8361200d565b9150611240565b60008167ffffffffffffffff81111561128f57634e487b7160e01b600052604160045260246000fd5b6040519080825280601f01601f1916602001820160405280156112b9576020820181803683370190505b5090505b84156109c5576112ce600183612021565b91506112db600a866120ba565b6112e6906030611ff5565b60f81b81838151811061130957634e487b7160e01b600052603260045260246000fd5b60200101906001600160f81b031916908160001a90535061132b600a8661200d565b94506112bd565b6001600160e01b031981166301ffc9a760e01b14919050565b611356838383610546565b6001600160a01b0383166113725761136d81611405565b611395565b816001600160a01b0316836001600160a01b031614611395576113958382611449565b6001600160a01b0382166113b1576113ac816114e6565b610546565b826001600160a01b0316826001600160a01b0316146105465761054682826115bf565b600080826001600160a01b0316803b806020016040519081016040528181526000908060200190933c511192915050565b600880546000838152600960205260408120829055600182018355919091527ff3f7a9fe364faab93b216da50a3214154f22a0a2b415b23a84c8169e8b636ee30155565b6000600161145684610792565b6114609190612021565b6000838152600760205260409020549091508082146114b3576001600160a01b03841660009081526006602090815260408083208584528252808320548484528184208190558352600790915290208190555b5060009182526007602090815260408084208490556001600160a01b039094168352600681528383209183525290812055565b6008546000906114f890600190612021565b6000838152600960205260408120546008805493945090928490811061152e57634e487b7160e01b600052603260045260246000fd5b90600052602060002001549050806008838154811061155d57634e487b7160e01b600052603260045260246000fd5b60009182526020808320909101929092558281526009909152604080822084905585825281205560088054806115a357634e487b7160e01b600052603160045260246000fd5b6001900381819060005260206000200160009055905550505050565b60006115ca83610792565b6001600160a01b039093166000908152600660209081526040808320868452825280832085905593825260079052919091209190915550565b82805461160f90612064565b90600052602060002090601f0160209004810192826116315760008555611677565b82601f1061164a5782800160ff19823516178555611677565b82800160010185558215611677579182015b8281111561167757823582559160200191906001019061165c565b50611683929150611687565b5090565b5b808211156116835760008155600101611688565b80356001600160a01b03811681146103d057600080fd5b6000602082840312156116c4578081fd5b610f728261169c565b600080604083850312156116df578081fd5b6116e88361169c565b91506116f66020840161169c565b90509250929050565b600080600060608486031215611713578081fd5b61171c8461169c565b925061172a6020850161169c565b9150604084013590509250925092565b6000806000806080858703121561174f578081fd5b6117588561169c565b9350602061176781870161169c565b935060408601359250606086013567ffffffffffffffff8082111561178a578384fd5b818801915088601f83011261179d578384fd5b8135818111156117af576117af6120fa565b604051601f8201601f19168101850183811182821017156117d2576117d26120fa565b60405281815283820185018b10156117e8578586fd5b81858501868301379081019093019390935250939692955090935050565b60008060408385031215611818578182fd5b6118218361169c565b915060208301358015158114611835578182fd5b809150509250929050565b60008060408385031215611852578182fd5b61185b8361169c565b946020939093013593505050565b6000806000806060858703121561187e578384fd5b6118878561169c565b935060208501359250604085013567ffffffffffffffff808211156118aa578384fd5b818701915087601f8301126118bd578384fd5b8135818111156118cb578485fd5b8860208285010111156118dc578485fd5b95989497505060200194505050565b600080604083850312156118fd578182fd5b6119068361169c565b9150602083013560ff81168114611835578182fd5b60006020828403121561192c578081fd5b8135610f7281612110565b600060208284031215611948578081fd5b8151610f7281612110565b600060208284031215611964578081fd5b5035919050565b60008151808452611983816020860160208601612038565b601f01601f19169290920160200192915050565b600083516119a9818460208801612038565b8351908301906119bd818360208801612038565b01949350505050565b6001600160a01b0391909116815260200190565b6001600160a01b0385811682528416602082015260408101839052608060608201819052600090611a0d9083018461196b565b9695505050505050565b901515815260200190565b600060208252610f72602083018461196b565b60208082526017908201527f43616c6c6572206973206e6f7420746865206f776e6572000000000000000000604082015260600190565b6020808252602b908201527f455243373231456e756d657261626c653a206f776e657220696e646578206f7560408201526a74206f6620626f756e647360a81b606082015260800190565b60208082526032908201527f4552433732313a207472616e7366657220746f206e6f6e20455243373231526560408201527131b2b4bb32b91034b6b83632b6b2b73a32b960711b606082015260800190565b60208082526025908201527f4552433732313a207472616e736665722066726f6d20696e636f72726563742060408201526437bbb732b960d91b606082015260800190565b6020808252601c908201527f4552433732313a20746f6b656e20616c7265616479206d696e74656400000000604082015260600190565b60208082526024908201527f4552433732313a207472616e7366657220746f20746865207a65726f206164646040820152637265737360e01b606082015260800190565b60208082526019908201527f4552433732313a20617070726f766520746f2063616c6c657200000000000000604082015260600190565b6020808252602c908201527f4552433732313a206f70657261746f7220717565727920666f72206e6f6e657860408201526b34b9ba32b73a103a37b5b2b760a11b606082015260800190565b60208082526038908201527f4552433732313a20617070726f76652063616c6c6572206973206e6f74206f7760408201527f6e6572206e6f7220617070726f76656420666f7220616c6c0000000000000000606082015260800190565b6020808252602a908201527f4552433732313a2062616c616e636520717565727920666f7220746865207a65604082015269726f206164647265737360b01b606082015260800190565b60208082526029908201527f4552433732313a206f776e657220717565727920666f72206e6f6e657869737460408201526832b73a103a37b5b2b760b91b606082015260800190565b6020808252818101527f4552433732313a206d696e7420746f20746865207a65726f2061646472657373604082015260600190565b60208082526031908201527f45524337323155524953746f726167653a2055524920717565727920666f72206040820152703737b732bc34b9ba32b73a103a37b5b2b760791b606082015260800190565b60208082526023908201527f6e65774f776e65722073686f756c64206e6f74206265207a65726f206164647260408201526265737360e81b606082015260800190565b6020808252602c908201527f4552433732313a20617070726f76656420717565727920666f72206e6f6e657860408201526b34b9ba32b73a103a37b5b2b760a11b606082015260800190565b60208082526018908201527f43616c6c6572206973206e6f7420617574686f72697a65640000000000000000604082015260600190565b6020808252602f908201527f4552433732314d657461646174613a2055524920717565727920666f72206e6f60408201526e3732bc34b9ba32b73a103a37b5b2b760891b606082015260800190565b60208082526021908201527f4552433732313a20617070726f76616c20746f2063757272656e74206f776e656040820152603960f91b606082015260800190565b60208082526031908201527f4552433732313a207472616e736665722063616c6c6572206973206e6f74206f6040820152701ddb995c881b9bdc88185c1c1c9bdd9959607a1b606082015260800190565b6020808252602c908201527f455243373231456e756d657261626c653a20676c6f62616c20696e646578206f60408201526b7574206f6620626f756e647360a01b606082015260800190565b60208082526019908201527f43616c6c6572206973206e6f7420746865206d616e6167657200000000000000604082015260600190565b90815260200190565b60008219821115612008576120086120ce565b500190565b60008261201c5761201c6120e4565b500490565b600082821015612033576120336120ce565b500390565b60005b8381101561205357818101518382015260200161203b565b838111156108a65750506000910152565b60028104600182168061207857607f821691505b6020821081141561209957634e487b7160e01b600052602260045260246000fd5b50919050565b60006000198214156120b3576120b36120ce565b5060010190565b6000826120c9576120c96120e4565b500690565b634e487b7160e01b600052601160045260246000fd5b634e487b7160e01b600052601260045260246000fd5b634e487b7160e01b600052604160045260246000fd5b6001600160e01b03198116811461212657600080fd5b5056fea26469706673582212206b9c9d2dc2754e043fedd379c32e68ecc5d85aba4d9c1eaef48c698ef68827f364736f6c63430008000033",
  "linkReferences": {},
  "deployedLinkReferences": {}
}