{
  "_format": "hh-sol-artifact-1",
  "contractName": "Nft",
  "sourceName": "contracts/nft.sol",
  "abi": [
    {
      "inputs": [
        {
          "internalType": "string",
          "name": "name",
          "type": "string"
        },
        {
          "internalType": "string",
          "name": "symbol",
          "type": "string"
        },
        {
          "internalType": "uint256",
          "name": "initialIdShift",
          "type": "uint256"
        }
      ],
      "stateMutability": "nonpayable",
      "type": "constructor"
    },
    {
      "anonymous": false,
      "inputs": [
        {
          "indexed": true,
          "internalType": "address",
          "name": "owner",
          "type": "address"
        },
        {
          "indexed": true,
          "internalType": "address",
          "name": "approved",
          "type": "address"
        },
        {
          "indexed": true,
          "internalType": "uint256",
          "name": "tokenId",
          "type": "uint256"
        }
      ],
      "name": "Approval",
      "type": "event"
    },
    {
      "anonymous": false,
      "inputs": [
        {
          "indexed": true,
          "internalType": "address",
          "name": "owner",
          "type": "address"
        },
        {
          "indexed": true,
          "internalType": "address",
          "name": "operator",
          "type": "address"
        },
        {
          "indexed": false,
          "internalType": "bool",
          "name": "approved",
          "type": "bool"
        }
      ],
      "name": "ApprovalForAll",
      "type": "event"
    },
    {
      "anonymous": false,
      "inputs": [
        {
          "indexed": true,
          "internalType": "address",
          "name": "from",
          "type": "address"
        },
        {
          "indexed": true,
          "internalType": "address",
          "name": "to",
          "type": "address"
        },
        {
          "indexed": true,
          "internalType": "uint256",
          "name": "tokenId",
          "type": "uint256"
        }
      ],
      "name": "Transfer",
      "type": "event"
    },
    {
      "inputs": [
        {
          "internalType": "address",
          "name": "userAddress",
          "type": "address"
        },
        {
          "internalType": "uint8",
          "name": "role",
          "type": "uint8"
        }
      ],
      "name": "addRole",
      "outputs": [
        {
          "internalType": "bool",
          "name": "",
          "type": "bool"
        }
      ],
      "stateMutability": "nonpayable",
      "type": "function"
    },
    {
      "inputs": [
        {
          "internalType": "address",
          "name": "userAddress",
          "type": "address"
        }
      ],
      "name": "addToManagers",
      "outputs": [
        {
          "internalType": "bool",
          "name": "",
          "type": "bool"
        }
      ],
      "stateMutability": "nonpayable",
      "type": "function"
    },
    {
      "inputs": [
        {
          "internalType": "address",
          "name": "to",
          "type": "address"
        },
        {
          "internalType": "uint256",
          "name": "tokenId",
          "type": "uint256"
        }
      ],
      "name": "approve",
      "outputs": [],
      "stateMutability": "nonpayable",
      "type": "function"
    },
    {
      "inputs": [
        {
          "internalType": "address",
          "name": "owner",
          "type": "address"
        }
      ],
      "name": "balanceOf",
      "outputs": [
        {
          "internalType": "uint256",
          "name": "",
          "type": "uint256"
        }
      ],
      "stateMutability": "view",
      "type": "function"
    },
    {
      "inputs": [
        {
          "internalType": "address",
          "name": "userAddress",
          "type": "address"
        },
        {
          "internalType": "uint8",
          "name": "role",
          "type": "uint8"
        }
      ],
      "name": "checkRole",
      "outputs": [
        {
          "internalType": "bool",
          "name": "",
          "type": "bool"
        }
      ],
      "stateMutability": "view",
      "type": "function"
    },
    {
      "inputs": [
        {
          "internalType": "uint256",
          "name": "tokenId",
          "type": "uint256"
        }
      ],
      "name": "getApproved",
      "outputs": [
        {
          "internalType": "address",
          "name": "",
          "type": "address"
        }
      ],
      "stateMutability": "view",
      "type": "function"
    },
    {
      "inputs": [
        {
          "internalType": "uint256",
          "name": "tokenId",
          "type": "uint256"
        }
      ],
      "name": "getNftProfileId",
      "outputs": [
        {
          "internalType": "uint256",
          "name": "",
          "type": "uint256"
        }
      ],
      "stateMutability": "view",
      "type": "function"
    },
    {
      "inputs": [
        {
          "internalType": "address",
          "name": "owner",
          "type": "address"
        },
        {
          "internalType": "address",
          "name": "operator",
          "type": "address"
        }
      ],
      "name": "isApprovedForAll",
      "outputs": [
        {
          "internalType": "bool",
          "name": "",
          "type": "bool"
        }
      ],
      "stateMutability": "view",
      "type": "function"
    },
    {
      "inputs": [
        {
          "internalType": "address",
          "name": "userAddress",
          "type": "address"
        }
      ],
      "name": "isManager",
      "outputs": [
        {
          "internalType": "bool",
          "name": "",
          "type": "bool"
        }
      ],
      "stateMutability": "view",
      "type": "function"
    },
    {
      "inputs": [
        {
          "internalType": "address",
          "name": "to",
          "type": "address"
        },
        {
          "internalType": "uint256",
          "name": "nftProfileId",
          "type": "uint256"
        },
        {
          "internalType": "string",
          "name": "tokenUri",
          "type": "string"
        }
      ],
      "name": "mint",
      "outputs": [
        {
          "internalType": "bool",
          "name": "",
          "type": "bool"
        }
      ],
      "stateMutability": "nonpayable",
      "type": "function"
    },
    {
      "inputs": [],
      "name": "name",
      "outputs": [
        {
          "internalType": "string",
          "name": "",
          "type": "string"
        }
      ],
      "stateMutability": "view",
      "type": "function"
    },
    {
      "inputs": [],
      "name": "owner",
      "outputs": [
        {
          "internalType": "address",
          "name": "",
          "type": "address"
        }
      ],
      "stateMutability": "view",
      "type": "function"
    },
    {
      "inputs": [
        {
          "internalType": "uint256",
          "name": "tokenId",
          "type": "uint256"
        }
      ],
      "name": "ownerOf",
      "outputs": [
        {
          "internalType": "address",
          "name": "",
          "type": "address"
        }
      ],
      "stateMutability": "view",
      "type": "function"
    },
    {
      "inputs": [
        {
          "internalType": "address",
          "name": "userAddress",
          "type": "address"
        }
      ],
      "name": "removeFromManagers",
      "outputs": [
        {
          "internalType": "bool",
          "name": "",
          "type": "bool"
        }
      ],
      "stateMutability": "nonpayable",
      "type": "function"
    },
    {
      "inputs": [
        {
          "internalType": "address",
          "name": "userAddress",
          "type": "address"
        },
        {
          "internalType": "uint8",
          "name": "role",
          "type": "uint8"
        }
      ],
      "name": "removeRole",
      "outputs": [
        {
          "internalType": "bool",
          "name": "",
          "type": "bool"
        }
      ],
      "stateMutability": "nonpayable",
      "type": "function"
    },
    {
      "inputs": [
        {
          "internalType": "address",
          "name": "from",
          "type": "address"
        },
        {
          "internalType": "address",
          "name": "to",
          "type": "address"
        },
        {
          "internalType": "uint256",
          "name": "tokenId",
          "type": "uint256"
        }
      ],
      "name": "safeTransferFrom",
      "outputs": [],
      "stateMutability": "nonpayable",
      "type": "function"
    },
    {
      "inputs": [
        {
          "internalType": "address",
          "name": "from",
          "type": "address"
        },
        {
          "internalType": "address",
          "name": "to",
          "type": "address"
        },
        {
          "internalType": "uint256",
          "name": "tokenId",
          "type": "uint256"
        },
        {
          "internalType": "bytes",
          "name": "_data",
          "type": "bytes"
        }
      ],
      "name": "safeTransferFrom",
      "outputs": [],
      "stateMutability": "nonpayable",
      "type": "function"
    },
    {
      "inputs": [
        {
          "internalType": "address",
          "name": "operator",
          "type": "address"
        },
        {
          "internalType": "bool",
          "name": "approved",
          "type": "bool"
        }
      ],
      "name": "setApprovalForAll",
      "outputs": [],
      "stateMutability": "nonpayable",
      "type": "function"
    },
    {
      "inputs": [
        {
          "internalType": "bytes4",
          "name": "interfaceId",
          "type": "bytes4"
        }
      ],
      "name": "supportsInterface",
      "outputs": [
        {
          "internalType": "bool",
          "name": "",
          "type": "bool"
        }
      ],
      "stateMutability": "view",
      "type": "function"
    },
    {
      "inputs": [],
      "name": "symbol",
      "outputs": [
        {
          "internalType": "string",
          "name": "",
          "type": "string"
        }
      ],
      "stateMutability": "view",
      "type": "function"
    },
    {
      "inputs": [
        {
          "internalType": "uint256",
          "name": "index",
          "type": "uint256"
        }
      ],
      "name": "tokenByIndex",
      "outputs": [
        {
          "internalType": "uint256",
          "name": "",
          "type": "uint256"
        }
      ],
      "stateMutability": "view",
      "type": "function"
    },
    {
      "inputs": [
        {
          "internalType": "address",
          "name": "owner",
          "type": "address"
        },
        {
          "internalType": "uint256",
          "name": "index",
          "type": "uint256"
        }
      ],
      "name": "tokenOfOwnerByIndex",
      "outputs": [
        {
          "internalType": "uint256",
          "name": "",
          "type": "uint256"
        }
      ],
      "stateMutability": "view",
      "type": "function"
    },
    {
      "inputs": [
        {
          "internalType": "uint256",
          "name": "tokenId",
          "type": "uint256"
        }
      ],
      "name": "tokenURI",
      "outputs": [
        {
          "internalType": "string",
          "name": "",
          "type": "string"
        }
      ],
      "stateMutability": "view",
      "type": "function"
    },
    {
      "inputs": [],
      "name": "totalSupply",
      "outputs": [
        {
          "internalType": "uint256",
          "name": "",
          "type": "uint256"
        }
      ],
      "stateMutability": "view",
      "type": "function"
    },
    {
      "inputs": [
        {
          "internalType": "address",
          "name": "from",
          "type": "address"
        },
        {
          "internalType": "address",
          "name": "to",
          "type": "address"
        },
        {
          "internalType": "uint256",
          "name": "tokenId",
          "type": "uint256"
        }
      ],
      "name": "transferFrom",
      "outputs": [],
      "stateMutability": "nonpayable",
      "type": "function"
    },
    {
      "inputs": [
        {
          "internalType": "address",
          "name": "newOwner",
          "type": "address"
        }
      ],
      "name": "transferOwnership",
      "outputs": [
        {
          "internalType": "bool",
          "name": "",
          "type": "bool"
        }
      ],
      "stateMutability": "nonpayable",
      "type": "function"
    }
  ],
  "bytecode": "0x60806040523480156200001157600080fd5b506040516200249a3803806200249a833981016040819052620000349162000281565b8251839083906200004d90600090602085019062000130565b5080516200006390600190602084019062000130565b5050600b80546001600160a01b0319163317908190556001600160a01b03166000908152600a60205260409020805460ff1916600117905550600d819055620000b5620000af620000bf565b620000ce565b505050506200037b565b600b546001600160a01b031690565b600b546000906001600160a01b03163314620001075760405162461bcd60e51b8152600401620000fe90620002f1565b60405180910390fd5b506001600160a01b03166000908152600a60205260409020805460ff1916600190811790915590565b8280546200013e9062000328565b90600052602060002090601f016020900481019282620001625760008555620001ad565b82601f106200017d57805160ff1916838001178555620001ad565b82800160010185558215620001ad579182015b82811115620001ad57825182559160200191906001019062000190565b50620001bb929150620001bf565b5090565b5b80821115620001bb5760008155600101620001c0565b600082601f830112620001e7578081fd5b81516001600160401b038082111562000204576200020462000365565b6040516020601f8401601f19168201810183811183821017156200022c576200022c62000365565b604052838252858401810187101562000243578485fd5b8492505b8383101562000266578583018101518284018201529182019162000247565b838311156200027757848185840101525b5095945050505050565b60008060006060848603121562000296578283fd5b83516001600160401b0380821115620002ad578485fd5b620002bb87838801620001d6565b94506020860151915080821115620002d1578384fd5b50620002e086828701620001d6565b925050604084015190509250925092565b60208082526017908201527f43616c6c6572206973206e6f7420746865206f776e6572000000000000000000604082015260600190565b6002810460018216806200033d57607f821691505b602082108114156200035f57634e487b7160e01b600052602260045260246000fd5b50919050565b634e487b7160e01b600052604160045260246000fd5b61210f806200038b6000396000f3fe608060405234801561001057600080fd5b506004361061018e5760003560e01c80636352211e116100de578063b88d4fde11610097578063e985e9c511610071578063e985e9c514610348578063ee06051f1461035b578063f2fde38b1461036e578063f3ae2415146103815761018e565b8063b88d4fde1461030f578063c87b56dd14610322578063d3fc9864146103355761018e565b80636352211e146102b357806370a08231146102c65780638da5cb5b146102d957806395d89b41146102e1578063a22cb465146102e9578063b74866fb146102fc5761018e565b806318160ddd1161014b5780632f745c59116101255780632f745c591461026757806342842e0e1461027a57806344deb6f31461028d5780634f6ccce7146102a05761018e565b806318160ddd1461023957806323a3ad721461024157806323b872dd146102545761018e565b806301ffc9a71461019357806306fdde03146101bc578063081812fc146101d1578063095ea7b3146101f15780630a962f891461020657806310a1d49614610219575b600080fd5b6101a66101a13660046118cb565b610394565b6040516101b391906119c7565b60405180910390f35b6101c46103a7565b6040516101b391906119d2565b6101e46101df366004611903565b610439565b6040516101b39190611976565b6102046101ff3660046117f0565b610485565b005b6101a6610214366004611663565b61051d565b61022c610227366004611903565b61056f565b6040516101b39190611f9c565b61022c610581565b6101a661024f36600461189b565b610587565b6102046102623660046116af565b6105b6565b61022c6102753660046117f0565b6105ee565b6102046102883660046116af565b610640565b6101a661029b36600461189b565b61065b565b61022c6102ae366004611903565b6106c2565b6101e46102c1366004611903565b61071d565b61022c6102d4366004611663565b610752565b6101e4610796565b6101c46107a5565b6102046102f73660046117b6565b6107b4565b6101a661030a36600461189b565b6107ca565b61020461031d3660046116ea565b61082d565b6101c4610330366004611903565b61086c565b6101a6610343366004611819565b61098d565b6101a661035636600461167d565b610a40565b6101a6610369366004611663565b610a6e565b6101a661037c366004611663565b610ac4565b6101a661038f366004611663565b610b3c565b600061039f82610b5a565b90505b919050565b6060600080546103b690612014565b80601f01602080910402602001604051908101604052809291908181526020018280546103e290612014565b801561042f5780601f106104045761010080835404028352916020019161042f565b820191906000526020600020905b81548152906001019060200180831161041257829003601f168201915b5050505050905090565b600061044482610b7f565b6104695760405162461bcd60e51b815260040161046090611db5565b60405180910390fd5b506000908152600460205260409020546001600160a01b031690565b60006104908261071d565b9050806001600160a01b0316836001600160a01b031614156104c45760405162461bcd60e51b815260040161046090611e87565b806001600160a01b03166104d6610b9c565b6001600160a01b031614806104f257506104f281610356610b9c565b61050e5760405162461bcd60e51b815260040161046090611bfc565b6105188383610ba0565b505050565b600b546000906001600160a01b0316331461054a5760405162461bcd60e51b8152600401610460906119e5565b506001600160a01b03166000908152600a60205260409020805460ff19169055600190565b6000908152600e602052604090205490565b60085490565b60ff8082166000908152600c602090815260408083206001600160a01b03871684529091529020541692915050565b6105c76105c1610b9c565b82610c0e565b6105e35760405162461bcd60e51b815260040161046090611ec8565b610518838383610c8b565b60006105f983610752565b82106106175760405162461bcd60e51b815260040161046090611a1c565b506001600160a01b03919091166000908152600660209081526040808320938352929052205490565b6105188383836040518060200160405280600081525061082d565b336000908152600a602052604081205460ff1661068a5760405162461bcd60e51b815260040161046090611f65565b5060ff166000908152600c602090815260408083206001600160a01b0394909416835292905220805460ff1916600190811790915590565b60006106cc610581565b82106106ea5760405162461bcd60e51b815260040161046090611f19565b6008828154811061070b57634e487b7160e01b600052603260045260246000fd5b90600052602060002001549050919050565b6000818152600260205260408120546001600160a01b03168061039f5760405162461bcd60e51b815260040161046090611ca3565b60006001600160a01b03821661077a5760405162461bcd60e51b815260040161046090611c59565b506001600160a01b031660009081526003602052604090205490565b600b546001600160a01b031690565b6060600180546103b690612014565b6107c66107bf610b9c565b8383610dbe565b5050565b336000908152600a602052604081205460ff166107f95760405162461bcd60e51b815260040161046090611f65565b5060ff166000908152600c602090815260408083206001600160a01b0394909416835292905220805460ff19169055600190565b61083e610838610b9c565b83610c0e565b61085a5760405162461bcd60e51b815260040161046090611ec8565b61086684848484610e61565b50505050565b606061087782610b7f565b6108935760405162461bcd60e51b815260040161046090611d21565b6000828152600f6020526040812080546108ac90612014565b80601f01602080910402602001604051908101604052809291908181526020018280546108d890612014565b80156109255780601f106108fa57610100808354040283529160200191610925565b820191906000526020600020905b81548152906001019060200180831161090857829003601f168201915b505050505090506000610936610e94565b905080516000141561094a575090506103a2565b81511561097c578082604051602001610964929190611947565b604051602081830303815290604052925050506103a2565b61098584610ea6565b949350505050565b3360009081527fd421a5181c571bba3f01190c922c3b2a896fc1d84e86c9f17ac10e67ebef8b5c602052604081205460019060ff166109de5760405162461bcd60e51b815260040161046090611e01565b6000600d546109eb610581565b6109f59190611fa5565b610a00906001611fa5565b9050610a0c8782610f29565b6000818152600e60209081526040808320899055600f9091529020610a329086866115b3565b506001979650505050505050565b6001600160a01b03918216600090815260056020908152604080832093909416825291909152205460ff1690565b600b546000906001600160a01b03163314610a9b5760405162461bcd60e51b8152600401610460906119e5565b506001600160a01b03166000908152600a60205260409020805460ff1916600190811790915590565b600b546000906001600160a01b03163314610af15760405162461bcd60e51b8152600401610460906119e5565b6001600160a01b038216610b175760405162461bcd60e51b815260040161046090611d72565b50600b80546001600160a01b0383166001600160a01b03199091161790556001919050565b6001600160a01b03166000908152600a602052604090205460ff1690565b60006001600160e01b0319821663780e9d6360e01b148061039f575061039f82611010565b6000908152600260205260409020546001600160a01b0316151590565b3390565b600081815260046020526040902080546001600160a01b0319166001600160a01b0384169081179091558190610bd58261071d565b6001600160a01b03167f8c5be1e5ebec7d5bd14f71427d1e84f3dd0314c0f7b2291e5b200ac8c7c3b92560405160405180910390a45050565b6000610c1982610b7f565b610c355760405162461bcd60e51b815260040161046090611bb0565b6000610c408361071d565b9050806001600160a01b0316846001600160a01b03161480610c7b5750836001600160a01b0316610c7084610439565b6001600160a01b0316145b8061098557506109858185610a40565b826001600160a01b0316610c9e8261071d565b6001600160a01b031614610cc45760405162461bcd60e51b815260040161046090611ab9565b6001600160a01b038216610cea5760405162461bcd60e51b815260040161046090611b35565b610cf5838383611050565b610d00600082610ba0565b6001600160a01b0383166000908152600360205260408120805460019290610d29908490611fd1565b90915550506001600160a01b0382166000908152600360205260408120805460019290610d57908490611fa5565b909155505060008181526002602052604080822080546001600160a01b0319166001600160a01b0386811691821790925591518493918716917fddf252ad1be2c89b69c2b068fc378daa952ba7f163c4a11628f55a4df523b3ef91a4610518838383610518565b816001600160a01b0316836001600160a01b03161415610df05760405162461bcd60e51b815260040161046090611b79565b6001600160a01b0383811660008181526005602090815260408083209487168084529490915290819020805460ff1916851515179055517f17307eab39ab6107e8899845ad3d59bd9653f200f220920489ca2b5937696c3190610e549085906119c7565b60405180910390a3505050565b610e6c848484610c8b565b610e78848484846110ac565b6108665760405162461bcd60e51b815260040161046090611a67565b60408051602081019091526000815290565b6060610eb182610b7f565b610ecd5760405162461bcd60e51b815260040161046090611e38565b6000610ed7610e94565b90506000815111610ef75760405180602001604052806000815250610f22565b80610f01846111c7565b604051602001610f12929190611947565b6040516020818303038152906040525b9392505050565b6001600160a01b038216610f4f5760405162461bcd60e51b815260040161046090611cec565b610f5881610b7f565b15610f755760405162461bcd60e51b815260040161046090611afe565b610f8160008383611050565b6001600160a01b0382166000908152600360205260408120805460019290610faa908490611fa5565b909155505060008181526002602052604080822080546001600160a01b0319166001600160a01b03861690811790915590518392907fddf252ad1be2c89b69c2b068fc378daa952ba7f163c4a11628f55a4df523b3ef908290a46107c660008383610518565b60006001600160e01b031982166380ac58cd60e01b148061104157506001600160e01b03198216635b5e139f60e01b145b8061039f575061039f826112e2565b3360009081527fd421a5181c571bba3f01190c922c3b2a896fc1d84e86c9f17ac10e67ebef8b5c602052604090205460019060ff166110a15760405162461bcd60e51b815260040161046090611e01565b6108668484846112fb565b60006110c0846001600160a01b0316611384565b156111bc57836001600160a01b031663150b7a026110dc610b9c565b8786866040518563ffffffff1660e01b81526004016110fe949392919061198a565b602060405180830381600087803b15801561111857600080fd5b505af1925050508015611148575060408051601f3d908101601f19168201909252611145918101906118e7565b60015b6111a2573d808015611176576040519150601f19603f3d011682016040523d82523d6000602084013e61117b565b606091505b50805161119a5760405162461bcd60e51b815260040161046090611a67565b805181602001fd5b6001600160e01b031916630a85bd0160e11b149050610985565b506001949350505050565b6060816111ec57506040805180820190915260018152600360fc1b60208201526103a2565b8160005b811561121657806112008161204f565b915061120f9050600a83611fbd565b91506111f0565b60008167ffffffffffffffff81111561123f57634e487b7160e01b600052604160045260246000fd5b6040519080825280601f01601f191660200182016040528015611269576020820181803683370190505b5090505b84156109855761127e600183611fd1565b915061128b600a8661206a565b611296906030611fa5565b60f81b8183815181106112b957634e487b7160e01b600052603260045260246000fd5b60200101906001600160f81b031916908160001a9053506112db600a86611fbd565b945061126d565b6001600160e01b031981166301ffc9a760e01b14919050565b611306838383610518565b6001600160a01b0383166113225761131d816113b5565b611345565b816001600160a01b0316836001600160a01b0316146113455761134583826113f9565b6001600160a01b0382166113615761135c81611496565b610518565b826001600160a01b0316826001600160a01b03161461051857610518828261156f565b600080826001600160a01b0316803b806020016040519081016040528181526000908060200190933c511192915050565b600880546000838152600960205260408120829055600182018355919091527ff3f7a9fe364faab93b216da50a3214154f22a0a2b415b23a84c8169e8b636ee30155565b6000600161140684610752565b6114109190611fd1565b600083815260076020526040902054909150808214611463576001600160a01b03841660009081526006602090815260408083208584528252808320548484528184208190558352600790915290208190555b5060009182526007602090815260408084208490556001600160a01b039094168352600681528383209183525290812055565b6008546000906114a890600190611fd1565b600083815260096020526040812054600880549394509092849081106114de57634e487b7160e01b600052603260045260246000fd5b90600052602060002001549050806008838154811061150d57634e487b7160e01b600052603260045260246000fd5b600091825260208083209091019290925582815260099091526040808220849055858252812055600880548061155357634e487b7160e01b600052603160045260246000fd5b6001900381819060005260206000200160009055905550505050565b600061157a83610752565b6001600160a01b039093166000908152600660209081526040808320868452825280832085905593825260079052919091209190915550565b8280546115bf90612014565b90600052602060002090601f0160209004810192826115e15760008555611627565b82601f106115fa5782800160ff19823516178555611627565b82800160010185558215611627579182015b8281111561162757823582559160200191906001019061160c565b50611633929150611637565b5090565b5b808211156116335760008155600101611638565b80356001600160a01b03811681146103a257600080fd5b600060208284031215611674578081fd5b610f228261164c565b6000806040838503121561168f578081fd5b6116988361164c565b91506116a66020840161164c565b90509250929050565b6000806000606084860312156116c3578081fd5b6116cc8461164c565b92506116da6020850161164c565b9150604084013590509250925092565b600080600080608085870312156116ff578081fd5b6117088561164c565b9350602061171781870161164c565b935060408601359250606086013567ffffffffffffffff8082111561173a578384fd5b818801915088601f83011261174d578384fd5b81358181111561175f5761175f6120aa565b604051601f8201601f1916810185018381118282101715611782576117826120aa565b60405281815283820185018b1015611798578586fd5b81858501868301379081019093019390935250939692955090935050565b600080604083850312156117c8578182fd5b6117d18361164c565b9150602083013580151581146117e5578182fd5b809150509250929050565b60008060408385031215611802578182fd5b61180b8361164c565b946020939093013593505050565b6000806000806060858703121561182e578384fd5b6118378561164c565b935060208501359250604085013567ffffffffffffffff8082111561185a578384fd5b818701915087601f83011261186d578384fd5b81358181111561187b578485fd5b88602082850101111561188c578485fd5b95989497505060200194505050565b600080604083850312156118ad578182fd5b6118b68361164c565b9150602083013560ff811681146117e5578182fd5b6000602082840312156118dc578081fd5b8135610f22816120c0565b6000602082840312156118f8578081fd5b8151610f22816120c0565b600060208284031215611914578081fd5b5035919050565b60008151808452611933816020860160208601611fe8565b601f01601f19169290920160200192915050565b60008351611959818460208801611fe8565b83519083019061196d818360208801611fe8565b01949350505050565b6001600160a01b0391909116815260200190565b6001600160a01b03858116825284166020820152604081018390526080606082018190526000906119bd9083018461191b565b9695505050505050565b901515815260200190565b600060208252610f22602083018461191b565b60208082526017908201527f43616c6c6572206973206e6f7420746865206f776e6572000000000000000000604082015260600190565b6020808252602b908201527f455243373231456e756d657261626c653a206f776e657220696e646578206f7560408201526a74206f6620626f756e647360a81b606082015260800190565b60208082526032908201527f4552433732313a207472616e7366657220746f206e6f6e20455243373231526560408201527131b2b4bb32b91034b6b83632b6b2b73a32b960711b606082015260800190565b60208082526025908201527f4552433732313a207472616e736665722066726f6d20696e636f72726563742060408201526437bbb732b960d91b606082015260800190565b6020808252601c908201527f4552433732313a20746f6b656e20616c7265616479206d696e74656400000000604082015260600190565b60208082526024908201527f4552433732313a207472616e7366657220746f20746865207a65726f206164646040820152637265737360e01b606082015260800190565b60208082526019908201527f4552433732313a20617070726f766520746f2063616c6c657200000000000000604082015260600190565b6020808252602c908201527f4552433732313a206f70657261746f7220717565727920666f72206e6f6e657860408201526b34b9ba32b73a103a37b5b2b760a11b606082015260800190565b60208082526038908201527f4552433732313a20617070726f76652063616c6c6572206973206e6f74206f7760408201527f6e6572206e6f7220617070726f76656420666f7220616c6c0000000000000000606082015260800190565b6020808252602a908201527f4552433732313a2062616c616e636520717565727920666f7220746865207a65604082015269726f206164647265737360b01b606082015260800190565b60208082526029908201527f4552433732313a206f776e657220717565727920666f72206e6f6e657869737460408201526832b73a103a37b5b2b760b91b606082015260800190565b6020808252818101527f4552433732313a206d696e7420746f20746865207a65726f2061646472657373604082015260600190565b60208082526031908201527f45524337323155524953746f726167653a2055524920717565727920666f72206040820152703737b732bc34b9ba32b73a103a37b5b2b760791b606082015260800190565b60208082526023908201527f6e65774f776e65722073686f756c64206e6f74206265207a65726f206164647260408201526265737360e81b606082015260800190565b6020808252602c908201527f4552433732313a20617070726f76656420717565727920666f72206e6f6e657860408201526b34b9ba32b73a103a37b5b2b760a11b606082015260800190565b60208082526018908201527f43616c6c6572206973206e6f7420617574686f72697a65640000000000000000604082015260600190565b6020808252602f908201527f4552433732314d657461646174613a2055524920717565727920666f72206e6f60408201526e3732bc34b9ba32b73a103a37b5b2b760891b606082015260800190565b60208082526021908201527f4552433732313a20617070726f76616c20746f2063757272656e74206f776e656040820152603960f91b606082015260800190565b60208082526031908201527f4552433732313a207472616e736665722063616c6c6572206973206e6f74206f6040820152701ddb995c881b9bdc88185c1c1c9bdd9959607a1b606082015260800190565b6020808252602c908201527f455243373231456e756d657261626c653a20676c6f62616c20696e646578206f60408201526b7574206f6620626f756e647360a01b606082015260800190565b60208082526019908201527f43616c6c6572206973206e6f7420746865206d616e6167657200000000000000604082015260600190565b90815260200190565b60008219821115611fb857611fb861207e565b500190565b600082611fcc57611fcc612094565b500490565b600082821015611fe357611fe361207e565b500390565b60005b83811015612003578181015183820152602001611feb565b838111156108665750506000910152565b60028104600182168061202857607f821691505b6020821081141561204957634e487b7160e01b600052602260045260246000fd5b50919050565b60006000198214156120635761206361207e565b5060010190565b60008261207957612079612094565b500690565b634e487b7160e01b600052601160045260246000fd5b634e487b7160e01b600052601260045260246000fd5b634e487b7160e01b600052604160045260246000fd5b6001600160e01b0319811681146120d657600080fd5b5056fea2646970667358221220f40da9fbf80734b4c283f2c3bdc863fa3a1c35be209bae405cc2cb60b986cd7c64736f6c63430008000033",
  "linkReferences": {},
  "deployedLinkReferences": {}
}