{
  "_format": "hh-sol-artifact-1",
  "contractName": "NFTMarketplace",
  "sourceName": "contracts/nft_marketplace.sol",
  "abi": [
    {
      "inputs": [
        {
          "internalType": "address",
          "name": "newNftContractAddress",
          "type": "address"
        },
        {
          "internalType": "address",
          "name": "newERC20Address",
          "type": "address"
        },
        {
          "internalType": "uint256",
          "name": "oldContractMaxId",
          "type": "uint256"
        }
      ],
      "stateMutability": "nonpayable",
      "type": "constructor"
    },
    {
      "anonymous": false,
      "inputs": [
        {
          "indexed": false,
          "internalType": "uint32",
          "name": "profileID",
          "type": "uint32"
        },
        {
          "indexed": false,
          "internalType": "uint256",
          "name": "tokenId",
          "type": "uint256"
        },
        {
          "indexed": false,
          "internalType": "uint256",
          "name": "curSellPrice",
          "type": "uint256"
        }
      ],
      "name": "AdminBurned",
      "type": "event"
    },
    {
      "anonymous": false,
      "inputs": [
        {
          "indexed": false,
          "internalType": "uint32",
          "name": "profileID",
          "type": "uint32"
        },
        {
          "indexed": false,
          "internalType": "uint256",
          "name": "tokenId",
          "type": "uint256"
        },
        {
          "indexed": false,
          "internalType": "address",
          "name": "wallet",
          "type": "address"
        },
        {
          "indexed": false,
          "internalType": "uint256",
          "name": "curPrice",
          "type": "uint256"
        }
      ],
      "name": "AdminMinted",
      "type": "event"
    },
    {
      "anonymous": false,
      "inputs": [
        {
          "indexed": false,
          "internalType": "uint32",
          "name": "profileID",
          "type": "uint32"
        },
        {
          "indexed": false,
          "internalType": "uint256",
          "name": "tokenId",
          "type": "uint256"
        },
        {
          "indexed": false,
          "internalType": "address",
          "name": "wallet",
          "type": "address"
        },
        {
          "indexed": false,
          "internalType": "uint256",
          "name": "curPrice",
          "type": "uint256"
        }
      ],
      "name": "AirdropMinted",
      "type": "event"
    },
    {
      "anonymous": false,
      "inputs": [
        {
          "indexed": false,
          "internalType": "uint32",
          "name": "profileID",
          "type": "uint32"
        },
        {
          "indexed": false,
          "internalType": "uint256",
          "name": "tokenId",
          "type": "uint256"
        },
        {
          "indexed": false,
          "internalType": "address",
          "name": "wallet",
          "type": "address"
        },
        {
          "indexed": false,
          "internalType": "uint256",
          "name": "curSellPrice",
          "type": "uint256"
        }
      ],
      "name": "Burned",
      "type": "event"
    },
    {
      "anonymous": false,
      "inputs": [
        {
          "indexed": false,
          "internalType": "uint32",
          "name": "profileID",
          "type": "uint32"
        },
        {
          "indexed": false,
          "internalType": "uint256",
          "name": "tokenId",
          "type": "uint256"
        },
        {
          "indexed": false,
          "internalType": "address",
          "name": "wallet",
          "type": "address"
        },
        {
          "indexed": false,
          "internalType": "uint256",
          "name": "curPrice",
          "type": "uint256"
        }
      ],
      "name": "Minted",
      "type": "event"
    },
    {
      "anonymous": false,
      "inputs": [
        {
          "indexed": true,
          "internalType": "address",
          "name": "previousOwner",
          "type": "address"
        },
        {
          "indexed": true,
          "internalType": "address",
          "name": "newOwner",
          "type": "address"
        }
      ],
      "name": "OwnershipTransferred",
      "type": "event"
    },
    {
      "anonymous": false,
      "inputs": [
        {
          "indexed": false,
          "internalType": "uint256",
          "name": "amount",
          "type": "uint256"
        },
        {
          "indexed": false,
          "internalType": "address",
          "name": "wallet",
          "type": "address"
        }
      ],
      "name": "TokensDeposited",
      "type": "event"
    },
    {
      "anonymous": false,
      "inputs": [
        {
          "indexed": false,
          "internalType": "uint256",
          "name": "amount",
          "type": "uint256"
        },
        {
          "indexed": false,
          "internalType": "address",
          "name": "wallet",
          "type": "address"
        }
      ],
      "name": "TokensWithdrawn",
      "type": "event"
    },
    {
      "inputs": [
        {
          "internalType": "uint32",
          "name": "profileID",
          "type": "uint32"
        },
        {
          "internalType": "uint256",
          "name": "price",
          "type": "uint256"
        },
        {
          "internalType": "uint256",
          "name": "sell_price",
          "type": "uint256"
        },
        {
          "internalType": "string",
          "name": "url",
          "type": "string"
        },
        {
          "internalType": "uint32",
          "name": "limit",
          "type": "uint32"
        }
      ],
      "name": "addNFTProfile",
      "outputs": [
        {
          "internalType": "bool",
          "name": "",
          "type": "bool"
        }
      ],
      "stateMutability": "nonpayable",
      "type": "function"
    },
    {
      "inputs": [
        {
          "internalType": "uint256",
          "name": "tokenId",
          "type": "uint256"
        }
      ],
      "name": "adminBurn",
      "outputs": [
        {
          "internalType": "bool",
          "name": "",
          "type": "bool"
        }
      ],
      "stateMutability": "nonpayable",
      "type": "function"
    },
    {
      "inputs": [
        {
          "internalType": "uint32",
          "name": "profileID",
          "type": "uint32"
        },
        {
          "internalType": "address",
          "name": "to",
          "type": "address"
        },
        {
          "internalType": "uint256",
          "name": "tokenId",
          "type": "uint256"
        }
      ],
      "name": "adminMint",
      "outputs": [
        {
          "internalType": "uint256",
          "name": "",
          "type": "uint256"
        }
      ],
      "stateMutability": "nonpayable",
      "type": "function"
    },
    {
      "inputs": [
        {
          "internalType": "uint32[]",
          "name": "profileIDs",
          "type": "uint32[]"
        },
        {
          "internalType": "address[]",
          "name": "recipients",
          "type": "address[]"
        }
      ],
      "name": "allowMinting",
      "outputs": [
        {
          "internalType": "bool",
          "name": "",
          "type": "bool"
        }
      ],
      "stateMutability": "nonpayable",
      "type": "function"
    },
    {
      "inputs": [
        {
          "internalType": "uint32",
          "name": "profileID",
          "type": "uint32"
        }
      ],
      "name": "buyNFT",
      "outputs": [
        {
          "internalType": "uint256",
          "name": "",
          "type": "uint256"
        }
      ],
      "stateMutability": "nonpayable",
      "type": "function"
    },
    {
      "inputs": [
        {
          "internalType": "uint32",
          "name": "profileID",
          "type": "uint32"
        },
        {
          "internalType": "address",
          "name": "recipient",
          "type": "address"
        }
      ],
      "name": "checkMintingAvailability",
      "outputs": [
        {
          "internalType": "bool",
          "name": "",
          "type": "bool"
        }
      ],
      "stateMutability": "view",
      "type": "function"
    },
    {
      "inputs": [
        {
          "internalType": "uint256",
          "name": "amount",
          "type": "uint256"
        }
      ],
      "name": "depositTokens",
      "outputs": [
        {
          "internalType": "bool",
          "name": "",
          "type": "bool"
        }
      ],
      "stateMutability": "nonpayable",
      "type": "function"
    },
    {
      "inputs": [],
      "name": "getAirdropManager",
      "outputs": [
        {
          "internalType": "address",
          "name": "",
          "type": "address"
        }
      ],
      "stateMutability": "view",
      "type": "function"
    },
    {
      "inputs": [],
      "name": "getContractTokensBalance",
      "outputs": [
        {
          "internalType": "uint256",
          "name": "",
          "type": "uint256"
        }
      ],
      "stateMutability": "view",
      "type": "function"
    },
    {
      "inputs": [
        {
          "internalType": "uint32",
          "name": "profileID",
          "type": "uint32"
        }
      ],
      "name": "getLimitById",
      "outputs": [
        {
          "internalType": "uint32",
          "name": "",
          "type": "uint32"
        }
      ],
      "stateMutability": "view",
      "type": "function"
    },
    {
      "inputs": [],
      "name": "getNFTContract",
      "outputs": [
        {
          "internalType": "address",
          "name": "",
          "type": "address"
        }
      ],
      "stateMutability": "view",
      "type": "function"
    },
    {
      "inputs": [],
      "name": "getNextTokenId",
      "outputs": [
        {
          "internalType": "uint256",
          "name": "",
          "type": "uint256"
        }
      ],
      "stateMutability": "view",
      "type": "function"
    },
    {
      "inputs": [],
      "name": "getOldContractMaxId",
      "outputs": [
        {
          "internalType": "uint256",
          "name": "",
          "type": "uint256"
        }
      ],
      "stateMutability": "view",
      "type": "function"
    },
    {
      "inputs": [],
      "name": "getPaymentToken",
      "outputs": [
        {
          "internalType": "address",
          "name": "",
          "type": "address"
        }
      ],
      "stateMutability": "view",
      "type": "function"
    },
    {
      "inputs": [
        {
          "internalType": "uint32",
          "name": "profileID",
          "type": "uint32"
        }
      ],
      "name": "getPriceById",
      "outputs": [
        {
          "internalType": "uint256",
          "name": "",
          "type": "uint256"
        }
      ],
      "stateMutability": "view",
      "type": "function"
    },
    {
      "inputs": [],
      "name": "getPriceCurve",
      "outputs": [
        {
          "internalType": "uint256",
          "name": "",
          "type": "uint256"
        }
      ],
      "stateMutability": "view",
      "type": "function"
    },
    {
      "inputs": [],
      "name": "getPriceManager",
      "outputs": [
        {
          "internalType": "address",
          "name": "",
          "type": "address"
        }
      ],
      "stateMutability": "view",
      "type": "function"
    },
    {
      "inputs": [
        {
          "internalType": "uint256",
          "name": "tokenId",
          "type": "uint256"
        }
      ],
      "name": "getProfileIdByTokenId",
      "outputs": [
        {
          "internalType": "uint32",
          "name": "",
          "type": "uint32"
        }
      ],
      "stateMutability": "view",
      "type": "function"
    },
    {
      "inputs": [
        {
          "internalType": "string",
          "name": "url",
          "type": "string"
        }
      ],
      "name": "getProfileIdbyUrl",
      "outputs": [
        {
          "internalType": "uint32",
          "name": "",
          "type": "uint32"
        }
      ],
      "stateMutability": "view",
      "type": "function"
    },
    {
      "inputs": [],
      "name": "getProfilesNumber",
      "outputs": [
        {
          "internalType": "uint256",
          "name": "",
          "type": "uint256"
        }
      ],
      "stateMutability": "view",
      "type": "function"
    },
    {
      "inputs": [
        {
          "internalType": "uint32",
          "name": "profileID",
          "type": "uint32"
        }
      ],
      "name": "getSellPriceById",
      "outputs": [
        {
          "internalType": "uint256",
          "name": "",
          "type": "uint256"
        }
      ],
      "stateMutability": "view",
      "type": "function"
    },
    {
      "inputs": [
        {
          "internalType": "uint256",
          "name": "tokenId",
          "type": "uint256"
        }
      ],
      "name": "getTokenPriceByTokenId",
      "outputs": [
        {
          "internalType": "uint256",
          "name": "",
          "type": "uint256"
        }
      ],
      "stateMutability": "view",
      "type": "function"
    },
    {
      "inputs": [
        {
          "internalType": "uint32",
          "name": "profileID",
          "type": "uint32"
        }
      ],
      "name": "getUrlById",
      "outputs": [
        {
          "internalType": "string",
          "name": "",
          "type": "string"
        }
      ],
      "stateMutability": "view",
      "type": "function"
    },
    {
      "inputs": [],
      "name": "isPriceCurveInternal",
      "outputs": [
        {
          "internalType": "bool",
          "name": "",
          "type": "bool"
        }
      ],
      "stateMutability": "view",
      "type": "function"
    },
    {
      "inputs": [
        {
          "internalType": "uint32",
          "name": "profileID",
          "type": "uint32"
        }
      ],
      "name": "mintAvailableNFT",
      "outputs": [
        {
          "internalType": "uint256",
          "name": "",
          "type": "uint256"
        }
      ],
      "stateMutability": "nonpayable",
      "type": "function"
    },
    {
      "inputs": [
        {
          "internalType": "uint256",
          "name": "",
          "type": "uint256"
        }
      ],
      "name": "nftProfiles",
      "outputs": [
        {
          "internalType": "uint32",
          "name": "id",
          "type": "uint32"
        },
        {
          "internalType": "uint256",
          "name": "price",
          "type": "uint256"
        },
        {
          "internalType": "uint256",
          "name": "sell_price",
          "type": "uint256"
        },
        {
          "internalType": "string",
          "name": "url",
          "type": "string"
        },
        {
          "internalType": "uint32",
          "name": "limit",
          "type": "uint32"
        }
      ],
      "stateMutability": "view",
      "type": "function"
    },
    {
      "inputs": [],
      "name": "owner",
      "outputs": [
        {
          "internalType": "address",
          "name": "",
          "type": "address"
        }
      ],
      "stateMutability": "view",
      "type": "function"
    },
    {
      "inputs": [
        {
          "internalType": "uint32",
          "name": "profileID",
          "type": "uint32"
        }
      ],
      "name": "removeNFTProfileAtId",
      "outputs": [
        {
          "internalType": "bool",
          "name": "",
          "type": "bool"
        }
      ],
      "stateMutability": "nonpayable",
      "type": "function"
    },
    {
      "inputs": [],
      "name": "renounceOwnership",
      "outputs": [],
      "stateMutability": "nonpayable",
      "type": "function"
    },
    {
      "inputs": [
        {
          "internalType": "uint32",
          "name": "profileID",
          "type": "uint32"
        },
        {
          "internalType": "uint256",
          "name": "price",
          "type": "uint256"
        },
        {
          "internalType": "uint256",
          "name": "sell_price",
          "type": "uint256"
        },
        {
          "internalType": "string",
          "name": "url",
          "type": "string"
        },
        {
          "internalType": "uint32",
          "name": "limit",
          "type": "uint32"
        }
      ],
      "name": "replaceNFTProfileAtId",
      "outputs": [
        {
          "internalType": "bool",
          "name": "",
          "type": "bool"
        }
      ],
      "stateMutability": "nonpayable",
      "type": "function"
    },
    {
      "inputs": [
        {
          "internalType": "uint256",
          "name": "tokenId",
          "type": "uint256"
        }
      ],
      "name": "sellNFTBack",
      "outputs": [
        {
          "internalType": "bool",
          "name": "",
          "type": "bool"
        }
      ],
      "stateMutability": "nonpayable",
      "type": "function"
    },
    {
      "inputs": [
        {
          "internalType": "address",
          "name": "newAirdropManager",
          "type": "address"
        }
      ],
      "name": "setAirdropManager",
      "outputs": [
        {
          "internalType": "bool",
          "name": "",
          "type": "bool"
        }
      ],
      "stateMutability": "nonpayable",
      "type": "function"
    },
    {
      "inputs": [],
      "name": "setExternalPriceCurve",
      "outputs": [
        {
          "internalType": "bool",
          "name": "",
          "type": "bool"
        }
      ],
      "stateMutability": "nonpayable",
      "type": "function"
    },
    {
      "inputs": [],
      "name": "setInternalPriceCurve",
      "outputs": [
        {
          "internalType": "bool",
          "name": "",
          "type": "bool"
        }
      ],
      "stateMutability": "nonpayable",
      "type": "function"
    },
    {
      "inputs": [
        {
          "internalType": "address",
          "name": "newNFTContract",
          "type": "address"
        }
      ],
      "name": "setNFTContract",
      "outputs": [
        {
          "internalType": "bool",
          "name": "",
          "type": "bool"
        }
      ],
      "stateMutability": "nonpayable",
      "type": "function"
    },
    {
      "inputs": [
        {
          "internalType": "uint256",
          "name": "setId",
          "type": "uint256"
        }
      ],
      "name": "setNextTokenId",
      "outputs": [
        {
          "internalType": "bool",
          "name": "",
          "type": "bool"
        }
      ],
      "stateMutability": "nonpayable",
      "type": "function"
    },
    {
      "inputs": [
        {
          "internalType": "uint256",
          "name": "oldContractMaxId",
          "type": "uint256"
        }
      ],
      "name": "setOldContractMaxId",
      "outputs": [
        {
          "internalType": "bool",
          "name": "",
          "type": "bool"
        }
      ],
      "stateMutability": "nonpayable",
      "type": "function"
    },
    {
      "inputs": [
        {
          "internalType": "address",
          "name": "newERC20Contract",
          "type": "address"
        }
      ],
      "name": "setPaymentToken",
      "outputs": [
        {
          "internalType": "bool",
          "name": "",
          "type": "bool"
        }
      ],
      "stateMutability": "nonpayable",
      "type": "function"
    },
    {
      "inputs": [
        {
          "internalType": "uint32",
          "name": "profileID",
          "type": "uint32"
        },
        {
          "internalType": "uint256",
          "name": "new_price",
          "type": "uint256"
        }
      ],
      "name": "setPriceById",
      "outputs": [
        {
          "internalType": "bool",
          "name": "",
          "type": "bool"
        }
      ],
      "stateMutability": "nonpayable",
      "type": "function"
    },
    {
      "inputs": [
        {
          "internalType": "uint256",
          "name": "new_curve",
          "type": "uint256"
        }
      ],
      "name": "setPriceCurve",
      "outputs": [
        {
          "internalType": "bool",
          "name": "",
          "type": "bool"
        }
      ],
      "stateMutability": "nonpayable",
      "type": "function"
    },
    {
      "inputs": [
        {
          "internalType": "address",
          "name": "newPriceManager",
          "type": "address"
        }
      ],
      "name": "setPriceManagerRight",
      "outputs": [
        {
          "internalType": "bool",
          "name": "",
          "type": "bool"
        }
      ],
      "stateMutability": "nonpayable",
      "type": "function"
    },
    {
      "inputs": [
        {
          "internalType": "uint32",
          "name": "profileID",
          "type": "uint32"
        },
        {
          "internalType": "uint256",
          "name": "new_price",
          "type": "uint256"
        }
      ],
      "name": "setSellPriceById",
      "outputs": [
        {
          "internalType": "bool",
          "name": "",
          "type": "bool"
        }
      ],
      "stateMutability": "nonpayable",
      "type": "function"
    },
    {
      "inputs": [
        {
          "internalType": "address",
          "name": "newOwner",
          "type": "address"
        }
      ],
      "name": "transferOwnership",
      "outputs": [],
      "stateMutability": "nonpayable",
      "type": "function"
    },
    {
      "inputs": [
        {
          "internalType": "uint32",
          "name": "profileID",
          "type": "uint32"
        },
        {
          "internalType": "uint256",
          "name": "new_price",
          "type": "uint256"
        },
        {
          "internalType": "uint256",
          "name": "new_sell_price",
          "type": "uint256"
        }
      ],
      "name": "updatePricesById",
      "outputs": [
        {
          "internalType": "bool",
          "name": "",
          "type": "bool"
        }
      ],
      "stateMutability": "nonpayable",
      "type": "function"
    },
    {
      "inputs": [
        {
          "internalType": "uint32",
          "name": "profileID",
          "type": "uint32"
        }
      ],
      "name": "viewNFTProfileDetails",
      "outputs": [
        {
          "internalType": "uint256",
          "name": "",
          "type": "uint256"
        },
        {
          "internalType": "uint256",
          "name": "",
          "type": "uint256"
        },
        {
          "internalType": "string",
          "name": "",
          "type": "string"
        },
        {
          "internalType": "uint32",
          "name": "",
          "type": "uint32"
        }
      ],
      "stateMutability": "view",
      "type": "function"
    },
    {
      "inputs": [],
      "name": "viewNFTProfilesPrices",
      "outputs": [
        {
          "internalType": "uint32[]",
          "name": "",
          "type": "uint32[]"
        },
        {
          "internalType": "uint256[]",
          "name": "",
          "type": "uint256[]"
        },
        {
          "internalType": "uint256[]",
          "name": "",
          "type": "uint256[]"
        }
      ],
      "stateMutability": "view",
      "type": "function"
    },
    {
      "inputs": [
        {
          "internalType": "address",
          "name": "to",
          "type": "address"
        },
        {
          "internalType": "uint256",
          "name": "amount",
          "type": "uint256"
        }
      ],
      "name": "withdrawTokens",
      "outputs": [
        {
          "internalType": "bool",
          "name": "",
          "type": "bool"
        }
      ],
      "stateMutability": "nonpayable",
      "type": "function"
    }
  ],
  "bytecode": "0x60806040526004805460ff60a01b1916600160a01b179055600580553480156200002857600080fd5b5060405162004ac238038062004ac28339810160408190526200004b916200018c565b6200005f620000596200010c565b62000110565b6001600160a01b038316620000915760405162461bcd60e51b81526004016200008890620001cc565b60405180910390fd5b6001600160a01b038216620000ba5760405162461bcd60e51b8152600401620000889062000213565b620000c462000160565b600380546001600160a01b03199081166001600160a01b039384161790915560018054821695831695909517909455600280549094169216919091179091556008556200025c565b3390565b600080546001600160a01b038381166001600160a01b0319831681178455604051919092169283917f8be0079c531659141344cd1fd0a4f28419497f9722a3daafe3b4186f6b6457e09190a35050565b6000546001600160a01b031690565b80516001600160a01b03811681146200018757600080fd5b919050565b600080600060608486031215620001a1578283fd5b620001ac846200016f565b9250620001bc602085016200016f565b9150604084015190509250925092565b60208082526027908201527f4e465420636f6e747261637420616464726573732073686f756c64206e6f74206040820152666265207a65726f60c81b606082015260800190565b60208082526029908201527f455243323020636f6e747261637420616464726573732073686f756c64206e6f60408201526874206265207a65726f60b81b606082015260800190565b614856806200026c6000396000f3fe608060405234801561001057600080fd5b50600436106102955760003560e01c80638da7df2211610167578063bec1de48116100ce578063d41c3a6511610087578063d41c3a6514610592578063dd49756e1461059a578063dec0fc5c146105ad578063f197c7c2146105c0578063f2fde38b146105d3578063f8a623d3146105e657610295565b8063bec1de4814610536578063c9ab22a714610549578063caa0f92a1461055c578063cbfcaed514610564578063cf5b281614610577578063d3c5f1371461057f57610295565b8063a2a424d111610120578063a2a424d1146104b7578063a77cefc4146104ca578063a7ccabdf146104ea578063a8f621ea146104fd578063b6749d9414610510578063badb97ff1461052357610295565b80638da7df221461045957806390b7ac1a1461046157806393fcffe614610474578063940a14551461048757806394d212e6146104a75780639609f6c7146104af57610295565b806334a2a4e11161020b5780636a326ab1116101c45780636a326ab1146103ea578063715018a6146103fd57806377476c7b1461040757806383e3500f1461041a5780638cec79461461042d5780638da5cb5b1461045157610295565b806334a2a4e11461037f57806345f40362146103875780635230bcdf1461039a578063571766b2146103b15780635d7dc9da146103c45780635d82c462146103d757610295565b8063156b1d371161025d578063156b1d371461032357806318fdec7e1461033657806319e1f486146103495780631ba9bdac1461035c57806329598630146103645780632b1f4ad61461037757610295565b806302d1003b1461029a578063061584eb146102c357806306b091f9146102cb5780630ea638a3146102eb57806312c178a61461030e575b600080fd5b6102ad6102a8366004613b18565b6105ee565b6040516102ba9190614527565b60405180910390f35b6102ad61066d565b6102de6102d9366004613948565b610673565b6040516102ba9190613ed4565b6102fe6102f9366004613b18565b610883565b6040516102ba9493929190614547565b610316610a60565b6040516102ba9190613d79565b6102de610331366004613bf3565b610a6f565b6102de610344366004613909565b610d23565b6102de610357366004613ae8565b610daf565b6102de61131e565b6102de610372366004613ba6565b611381565b610316611465565b6102ad611474565b6102ad610395366004613b68565b61147a565b6103a261176e565b6040516102ba93929190613e62565b6102de6103bf366004613b32565b6119df565b6102de6103d2366004613bf3565b611a12565b6102ad6103e5366004613b18565b611c8d565b6102de6103f8366004613909565b611d0b565b610405611d97565b005b6102de610415366004613ba6565b611de2565b6102de610428366004613ae8565b611ec8565b61044061043b366004613ae8565b611f21565b6040516102ba9594939291906145d8565b610316611ffc565b6102de61200b565b6102de61046f366004613973565b61201b565b6102ad610482366004613b18565b6121c1565b61049a610495366004613b18565b6123ef565b6040516102ba919061457d565b6102ad612476565b6102ad6124fc565b6102ad6104c5366004613b18565b612502565b6104dd6104d8366004613b18565b6129a1565b6040516102ba9190613edf565b6102de6104f8366004613909565b612ab7565b6102ad61050b366004613ae8565b612b41565b61049a61051e366004613ae8565b612bca565b6102de610531366004613ae8565b612bdb565b6102de610544366004613909565b612de4565b6102de610557366004613bc1565b612e70565b6102ad612f8e565b6102de610572366004613b18565b612f94565b6102de61308f565b61049a61058d3660046139fc565b6130f8565b610316613143565b6102de6105a8366004613ae8565b613152565b6102de6105bb366004613ae8565b61329d565b6102de6105ce366004613ae8565b6132f6565b6104056105e1366004613909565b613340565b6103166133b1565b63ffffffff811660009081526009602052604081205461061057506000610668565b63ffffffff8216600090815260096020526040902054600690610635906001906146c2565b8154811061065357634e487b7160e01b600052603260045260246000fd5b90600052602060002090600502016002015490505b919050565b60065490565b600061067d6133c0565b6001600160a01b031661068e611ffc565b6001600160a01b0316146106bd5760405162461bcd60e51b81526004016106b490614270565b60405180910390fd5b600082116106dd5760405162461bcd60e51b81526004016106b4906141dc565b6001600160a01b0383166107035760405162461bcd60e51b81526004016106b490614152565b6002546040516370a0823160e01b815283916001600160a01b0316906370a0823190610733903090600401613d79565b60206040518083038186803b15801561074b57600080fd5b505afa15801561075f573d6000803e3d6000fd5b505050506040513d601f19601f820116820180604052508101906107839190613b00565b10156107a15760405162461bcd60e51b81526004016106b490614059565b60025460405163a9059cbb60e01b81526001600160a01b039091169063a9059cbb906107d39086908690600401613db1565b602060405180830381600087803b1580156107ed57600080fd5b505af1158015610801573d6000803e3d6000fd5b505050506040513d601f19601f8201168201806040525081019061082591906139dc565b6108415760405162461bcd60e51b81526004016106b49061402c565b7f0ddddc48b57dd67f8fa2ff05c78034b578c31ef5caa05b03d2ca16feadbbb98f8284604051610872929190614530565b60405180910390a150600192915050565b63ffffffff8116600090815260096020526040812054819060609082906108c45750506040805160208101909152600080825292508291506298967f610a59565b63ffffffff85166000908152600960205260408120546108e6906001906146c2565b90506006818154811061090957634e487b7160e01b600052603260045260246000fd5b9060005260206000209060050201600101546006828154811061093c57634e487b7160e01b600052603260045260246000fd5b9060005260206000209060050201600201546006838154811061096f57634e487b7160e01b600052603260045260246000fd5b9060005260206000209060050201600301600684815481106109a157634e487b7160e01b600052603260045260246000fd5b906000526020600020906005020160040160009054906101000a900463ffffffff168180546109cf90614765565b80601f01602080910402602001604051908101604052809291908181526020018280546109fb90614765565b8015610a485780601f10610a1d57610100808354040283529160200191610a48565b820191906000526020600020905b815481529060010190602001808311610a2b57829003601f168201915b505050505091509450945094509450505b9193509193565b6004546001600160a01b031690565b6003546000906001600160a01b0316331480610aa35750610a8e611ffc565b6001600160a01b0316336001600160a01b0316145b610abf5760405162461bcd60e51b81526004016106b49061421e565b63ffffffff8716600090815260096020526040902054610af15760405162461bcd60e51b81526004016106b490613fe9565b60008484604051610b03929190613cfa565b60408051918290039091206000818152600c602052919091205490915063ffffffff161580610b4857506000818152600c602052604090205463ffffffff8981169116145b610b645760405162461bcd60e51b81526004016106b490614409565b63ffffffff8816600090815260096020526040812054610b86906001906146c2565b90506000600c600060068481548110610baf57634e487b7160e01b600052603260045260246000fd5b9060005260206000209060050201600301604051610bcd9190613d0a565b604080519182900390912082526020808301939093529081016000908120805463ffffffff95861663ffffffff1991821617909155868252600c8452908290208054948e169490911684179055805160a0810182529283528282018b90528281018a90528051601f89018390048302810183019091528781526060830191899089908190840183828082843760009201919091525050509082525063ffffffff86166020909101526006805483908110610c9757634e487b7160e01b600052603260045260246000fd5b6000918252602091829020835160059290920201805463ffffffff191663ffffffff90921691909117815582820151600182015560408301516002820155606083015180519192610cf092600385019290910190613760565b50608091909101516004909101805463ffffffff191663ffffffff90921691909117905550600198975050505050505050565b6000610d2d6133c0565b6001600160a01b0316610d3e611ffc565b6001600160a01b031614610d645760405162461bcd60e51b81526004016106b490614270565b6001600160a01b038216610d8a5760405162461bcd60e51b81526004016106b4906140d3565b50600380546001600160a01b0383166001600160a01b03199091161790556001919050565b6000610dba336133c4565b15610dd75760405162461bcd60e51b81526004016106b490614309565b6001546040516331a9108f60e11b815233916001600160a01b031690636352211e90610e07908690600401614527565b60206040518083038186803b158015610e1f57600080fd5b505afa158015610e33573d6000803e3d6000fd5b505050506040513d601f19601f82011682018060405250810190610e57919061392c565b6001600160a01b031614610e7d5760405162461bcd60e51b81526004016106b490614391565b6000610e88836133d0565b905060008163ffffffff1611610eb05760405162461bcd60e51b81526004016106b49061411b565b63ffffffff8116600090815260096020526040812054610ed2906001906146c2565b9050600060068281548110610ef757634e487b7160e01b600052603260045260246000fd5b60009182526020909120600260059092020181015490546040516370a0823160e01b815291925082916001600160a01b03909116906370a0823190610f40903090600401613d79565b60206040518083038186803b158015610f5857600080fd5b505afa158015610f6c573d6000803e3d6000fd5b505050506040513d601f19601f82011682018060405250810190610f909190613b00565b1015610fae5760405162461bcd60e51b81526004016106b490613ef2565b6000858152600b602052604090205463ffffffff1615610fe2576000858152600b60205260409020805463ffffffff191690555b6006828154811061100357634e487b7160e01b600052603260045260246000fd5b600091825260208220600460059092020101805463ffffffff1691611027836147bb565b82546101009290920a63ffffffff81810219909316918316021790915584166000908152600a60205260409020541590506110835763ffffffff83166000908152600a6020526040812080549161107d8361472e565b91905055505b600154604051630852cd8d60e31b81526001600160a01b03909116906342966c68906110b3908890600401614527565b600060405180830381600087803b1580156110cd57600080fd5b505af11580156110e1573d6000803e3d6000fd5b5050600454600160a01b900460ff161591506112369050576005546111079060646146c2565b6006838154811061112857634e487b7160e01b600052603260045260246000fd5b9060005260206000209060050201600101600082825461114891906146a3565b9250508190555060646006838154811061117257634e487b7160e01b600052603260045260246000fd5b906000526020600020906005020160010160008282546111929190614683565b90915550506005546111a59060646146c2565b600683815481106111c657634e487b7160e01b600052603260045260246000fd5b906000526020600020906005020160020160008282546111e691906146a3565b9250508190555060646006838154811061121057634e487b7160e01b600052603260045260246000fd5b906000526020600020906005020160020160008282546112309190614683565b90915550505b7f474d6188a0935b1c81c51a2b50feaa24683eddf88908af6fb56e657989179a4f8386338460405161126b949392919061458e565b60405180910390a160025460405163a9059cbb60e01b81526001600160a01b039091169063a9059cbb906112a59033908590600401613db1565b602060405180830381600087803b1580156112bf57600080fd5b505af11580156112d3573d6000803e3d6000fd5b505050506040513d601f19601f820116820180604052508101906112f791906139dc565b6113135760405162461bcd60e51b81526004016106b49061402c565b506001949350505050565b6003546000906001600160a01b0316331480611352575061133d611ffc565b6001600160a01b0316336001600160a01b0316145b61136e5760405162461bcd60e51b81526004016106b49061421e565b506004805460ff60a01b19169055600190565b6003546000906001600160a01b03163314806113b557506113a0611ffc565b6001600160a01b0316336001600160a01b0316145b6113d15760405162461bcd60e51b81526004016106b49061421e565b63ffffffff83166000908152600960205260409020546114035760405162461bcd60e51b81526004016106b490613fe9565b63ffffffff8316600090815260096020526040902054829060069061142a906001906146c2565b8154811061144857634e487b7160e01b600052603260045260246000fd5b600091825260209091206002600590920201015550600192915050565b6001546001600160a01b031690565b60085490565b6003546000906001600160a01b03163314806114ae5750611499611ffc565b6001600160a01b0316336001600160a01b0316145b6114ca5760405162461bcd60e51b81526004016106b49061421e565b63ffffffff84166000908152600960205260409020546114fc5760405162461bcd60e51b81526004016106b490613fe9565b6000828152600b602052604090205463ffffffff161561152e5760405162461bcd60e51b81526004016106b490613f6c565b6001546040516331a9108f60e11b81526001600160a01b0390911690636352211e9061155e908590600401614527565b60206040518083038186803b15801561157657600080fd5b505afa9250505080156115a6575060408051601f3d908101601f191682019092526115a39181019061392c565b60015b6115af576115c7565b60405162461bcd60e51b81526004016106b490613f6c565b6001600160a01b0383166115ed5760405162461bcd60e51b81526004016106b490614152565b63ffffffff841660009081526009602052604081205461160f906001906146c2565b63ffffffff86166000908152600a60205260408120805492935090611633836147a0565b90915550506000838152600b60205260409020805463ffffffff191663ffffffff8716179055600154600680546001600160a01b039092169163d3fc98649187918791908690811061169557634e487b7160e01b600052603260045260246000fd5b90600052602060002090600502016003016040518463ffffffff1660e01b81526004016116c493929190613dca565b600060405180830381600087803b1580156116de57600080fd5b505af11580156116f2573d6000803e3d6000fd5b505050507f07758c1736fe471cbbfb2decfd56015182a376e8753b390846fa0c3a23036b348584866006858154811061173b57634e487b7160e01b600052603260045260246000fd5b90600052602060002090600502016001015460405161175d949392919061458e565b60405180910390a150909392505050565b6060806060600060068054905067ffffffffffffffff8111156117a157634e487b7160e01b600052604160045260246000fd5b6040519080825280602002602001820160405280156117ca578160200160208202803683370190505b5060065490915060009067ffffffffffffffff8111156117fa57634e487b7160e01b600052604160045260246000fd5b604051908082528060200260200182016040528015611823578160200160208202803683370190505b5060065490915060009067ffffffffffffffff81111561185357634e487b7160e01b600052604160045260246000fd5b60405190808252806020026020018201604052801561187c578160200160208202803683370190505b50905060005b6006548110156119d257600681815481106118ad57634e487b7160e01b600052603260045260246000fd5b6000918252602090912060059091020154845163ffffffff909116908590839081106118e957634e487b7160e01b600052603260045260246000fd5b602002602001019063ffffffff16908163ffffffff16815250506006818154811061192457634e487b7160e01b600052603260045260246000fd5b90600052602060002090600502016001015483828151811061195657634e487b7160e01b600052603260045260246000fd5b6020026020010181815250506006818154811061198357634e487b7160e01b600052603260045260246000fd5b9060005260206000209060050201600201548282815181106119b557634e487b7160e01b600052603260045260246000fd5b6020908102919091010152806119ca816147a0565b915050611882565b5091945092509050909192565b63ffffffff82166000908152600d602090815260408083206001600160a01b038516845290915290205460ff1692915050565b6003546000906001600160a01b0316331480611a465750611a31611ffc565b6001600160a01b0316336001600160a01b0316145b611a625760405162461bcd60e51b81526004016106b49061421e565b60006040518060a001604052808963ffffffff16815260200188815260200187815260200186868080601f016020809104026020016040519081016040528093929190818152602001838380828437600092018290525093855250505063ffffffff8087166020938401528b1681526009909152604090205490915015611afb5760405162461bcd60e51b81526004016106b4906143c8565b60008585604051611b0d929190613cfa565b60408051918290039091206000818152600c602052919091205490915063ffffffff1615611b4d5760405162461bcd60e51b81526004016106b490614409565b6006805460018101825560009190915282517ff652222313e28459528d920b65115c16c04f3efc82aaedc97be59f3f377c0d3f6005909202918201805463ffffffff191663ffffffff9092169190911781556020808501517ff652222313e28459528d920b65115c16c04f3efc82aaedc97be59f3f377c0d4084015560408501517ff652222313e28459528d920b65115c16c04f3efc82aaedc97be59f3f377c0d41840155606085015180518694611c2b937ff652222313e28459528d920b65115c16c04f3efc82aaedc97be59f3f377c0d42909101920190613760565b50608091909101516004909101805463ffffffff92831663ffffffff1991821617909155600654918b16600081815260096020908152604080832095909555948152600c90945291909220805490921617905550600190509695505050505050565b63ffffffff8116600090815260096020526040812054611caf57506000610668565b63ffffffff8216600090815260096020526040902054600690611cd4906001906146c2565b81548110611cf257634e487b7160e01b600052603260045260246000fd5b9060005260206000209060050201600101549050919050565b6000611d156133c0565b6001600160a01b0316611d26611ffc565b6001600160a01b031614611d4c5760405162461bcd60e51b81526004016106b490614270565b6001600160a01b038216611d725760405162461bcd60e51b81526004016106b490614494565b50600280546001600160a01b0383166001600160a01b03199091161790556001919050565b611d9f6133c0565b6001600160a01b0316611db0611ffc565b6001600160a01b031614611dd65760405162461bcd60e51b81526004016106b490614270565b611de06000613434565b565b6003546000906001600160a01b0316331480611e165750611e01611ffc565b6001600160a01b0316336001600160a01b0316145b611e325760405162461bcd60e51b81526004016106b49061421e565b63ffffffff8316600090815260096020526040902054611e645760405162461bcd60e51b81526004016106b490613fe9565b63ffffffff83166000908152600960205260409020548290600690611e8b906001906146c2565b81548110611ea957634e487b7160e01b600052603260045260246000fd5b9060005260206000209060050201600101819055506001905092915050565b6003546000906001600160a01b0316331480611efc5750611ee7611ffc565b6001600160a01b0316336001600160a01b0316145b611f185760405162461bcd60e51b81526004016106b49061421e565b50600755600190565b60068181548110611f3157600080fd5b6000918252602090912060059091020180546001820154600283015460038401805463ffffffff909416955091939092909190611f6d90614765565b80601f0160208091040260200160405190810160405280929190818152602001828054611f9990614765565b8015611fe65780601f10611fbb57610100808354040283529160200191611fe6565b820191906000526020600020905b815481529060010190602001808311611fc957829003601f168201915b5050506004909301549192505063ffffffff1685565b6000546001600160a01b031690565b600454600160a01b900460ff1690565b6004546000906001600160a01b031633148061204f575061203a611ffc565b6001600160a01b0316336001600160a01b0316145b61206b5760405162461bcd60e51b81526004016106b490614440565b83821461208a5760405162461bcd60e51b81526004016106b490613f29565b60005b848110156121b557600960008787848181106120b957634e487b7160e01b600052603260045260246000fd5b90506020020160208101906120ce9190613b18565b63ffffffff1681526020810191909152604001600020546120ee576121a3565b6001600d600088888581811061211457634e487b7160e01b600052603260045260246000fd5b90506020020160208101906121299190613b18565b63ffffffff1663ffffffff168152602001908152602001600020600086868581811061216557634e487b7160e01b600052603260045260246000fd5b905060200201602081019061217a9190613909565b6001600160a01b031681526020810191909152604001600020805460ff19169115159190911790555b806121ad816147a0565b91505061208d565b50600195945050505050565b63ffffffff81166000908152600d6020908152604080832033845290915281205460ff166122015760405162461bcd60e51b81526004016106b49061434b565b63ffffffff82166000908152600960205260409020546122335760405162461bcd60e51b81526004016106b490613fe9565b63ffffffff8216600090815260096020526040812054612255906001906146c2565b600780549192506000612267836147a0565b909155505063ffffffff83166000908152600a6020526040812080549161228d836147a0565b9091555050600780546000908152600b60209081526040808320805463ffffffff191663ffffffff89169081179091558352600d8252808320338085529252909120805460ff191690556001549154600680546001600160a01b039094169363d3fc9864939291908690811061231357634e487b7160e01b600052603260045260246000fd5b90600052602060002090600502016003016040518463ffffffff1660e01b815260040161234293929190613dca565b600060405180830381600087803b15801561235c57600080fd5b505af1158015612370573d6000803e3d6000fd5b505050507f1b355ac6fc881bc27762124d8df069fbe016a461aa27040c8b97fb00a481be448360075433600685815481106123bb57634e487b7160e01b600052603260045260246000fd5b9060005260206000209060050201600101546040516123dd949392919061458e565b60405180910390a15050600754919050565b63ffffffff811660009081526009602052604081205461241357506298967f610668565b63ffffffff8216600090815260096020526040902054600690612438906001906146c2565b8154811061245657634e487b7160e01b600052603260045260246000fd5b600091825260209091206005909102016004015463ffffffff1692915050565b6002546040516370a0823160e01b81526000916001600160a01b0316906370a08231906124a7903090600401613d79565b60206040518083038186803b1580156124bf57600080fd5b505afa1580156124d3573d6000803e3d6000fd5b505050506040513d601f19601f820116820180604052508101906124f79190613b00565b905090565b60055490565b600061250d336133c4565b1561252a5760405162461bcd60e51b81526004016106b490614309565b63ffffffff821660009081526009602052604090205461255c5760405162461bcd60e51b81526004016106b490613fe9565b63ffffffff821660009081526009602052604081205461257e906001906146c2565b90506000600682815481106125a357634e487b7160e01b600052603260045260246000fd5b600091825260209091206004600590920201015463ffffffff16116125da5760405162461bcd60e51b81526004016106b4906140a8565b600681815481106125fb57634e487b7160e01b600052603260045260246000fd5b600091825260208220600460059092020101805463ffffffff169161261f83614745565b91906101000a81548163ffffffff021916908363ffffffff1602179055505060006006828154811061266157634e487b7160e01b600052603260045260246000fd5b906000526020600020906005020160010154905060076000815480929190612688906147a0565b909155505063ffffffff84166000908152600a602052604081208054916126ae836147a0565b90915550506007546000908152600b602052604090819020805463ffffffff191663ffffffff871617905560025490516323b872dd60e01b81526001600160a01b03909116906323b872dd9061270c90339030908690600401613d8d565b602060405180830381600087803b15801561272657600080fd5b505af115801561273a573d6000803e3d6000fd5b505050506040513d601f19601f8201168201806040525081019061275e91906139dc565b61276757600080fd5b600154600754600680546001600160a01b039093169263d3fc98649233929091879081106127a557634e487b7160e01b600052603260045260246000fd5b90600052602060002090600502016003016040518463ffffffff1660e01b81526004016127d493929190613dca565b600060405180830381600087803b1580156127ee57600080fd5b505af1158015612802573d6000803e3d6000fd5b5050600454600160a01b900460ff1615915061295790505760055461282890606461466b565b6006838154811061284957634e487b7160e01b600052603260045260246000fd5b9060005260206000209060050201600101600082825461286991906146a3565b9250508190555060646006838154811061289357634e487b7160e01b600052603260045260246000fd5b906000526020600020906005020160010160008282546128b39190614683565b90915550506005546128c690606461466b565b600683815481106128e757634e487b7160e01b600052603260045260246000fd5b9060005260206000209060050201600201600082825461290791906146a3565b9250508190555060646006838154811061293157634e487b7160e01b600052603260045260246000fd5b906000526020600020906005020160020160008282546129519190614683565b90915550505b7fcae7f75822ae2f0fab2b77a5faf0b51c6a3b09b495783bd615a5b18472c6cc6184600754338460405161298e949392919061458e565b60405180910390a1505060075492915050565b63ffffffff81166000908152600960205260409020546060906129d35750604080516020810190915260008152610668565b63ffffffff82166000908152600960205260409020546006906129f8906001906146c2565b81548110612a1657634e487b7160e01b600052603260045260246000fd5b90600052602060002090600502016003018054612a3290614765565b80601f0160208091040260200160405190810160405280929190818152602001828054612a5e90614765565b8015612aab5780601f10612a8057610100808354040283529160200191612aab565b820191906000526020600020905b815481529060010190602001808311612a8e57829003601f168201915b50505050509050919050565b6000612ac16133c0565b6001600160a01b0316612ad2611ffc565b6001600160a01b031614612af85760405162461bcd60e51b81526004016106b490614270565b6001600160a01b038216612b1e5760405162461bcd60e51b81526004016106b490614195565b50600180546001600160a01b0383166001600160a01b0319909116178155919050565b600080612b4d836133d0565b905063ffffffff8116612b64576000915050610668565b63ffffffff81166298967f1415612b7f576000915050610668565b6006612b8c6001836146d9565b63ffffffff1681548110612bb057634e487b7160e01b600052603260045260246000fd5b906000526020600020906005020160020154915050919050565b6000612bd5826133d0565b92915050565b6003546000906001600160a01b0316331480612c0f5750612bfa611ffc565b6001600160a01b0316336001600160a01b0316145b612c2b5760405162461bcd60e51b81526004016106b49061421e565b6000612c36836133d0565b905060008163ffffffff1611612c5e5760405162461bcd60e51b81526004016106b49061411b565b63ffffffff8116600090815260096020526040812054612c80906001906146c2565b9050600060068281548110612ca557634e487b7160e01b600052603260045260246000fd5b90600052602060002090600502016002015490506000600a60008563ffffffff1663ffffffff168152602001908152602001600020541115612d085763ffffffff83166000908152600a60205260408120805491612d028361472e565b91905055505b6000858152600b602052604090205463ffffffff1615612d3c576000858152600b60205260409020805463ffffffff191690555b600154604051630852cd8d60e31b81526001600160a01b03909116906342966c6890612d6c908890600401614527565b600060405180830381600087803b158015612d8657600080fd5b505af1158015612d9a573d6000803e3d6000fd5b505050507febef1f55d2fb294cd47be007b2c6b482c84f4262793f7a9457c3b7141d26f13c838683604051612dd1939291906145ba565b60405180910390a1506001949350505050565b6000612dee6133c0565b6001600160a01b0316612dff611ffc565b6001600160a01b031614612e255760405162461bcd60e51b81526004016106b490614270565b6001600160a01b038216612e4b5760405162461bcd60e51b81526004016106b4906144dd565b50600480546001600160a01b0383166001600160a01b03199091161790556001919050565b6003546000906001600160a01b0316331480612ea45750612e8f611ffc565b6001600160a01b0316336001600160a01b0316145b612ec05760405162461bcd60e51b81526004016106b49061421e565b63ffffffff8416600090815260096020526040902054612ef25760405162461bcd60e51b81526004016106b490613fe9565b63ffffffff8416600090815260096020526040812054612f14906001906146c2565b90508360068281548110612f3857634e487b7160e01b600052603260045260246000fd5b9060005260206000209060050201600101819055508260068281548110612f6f57634e487b7160e01b600052603260045260246000fd5b6000918252602090912060026005909202010155506001949350505050565b60075490565b6003546000906001600160a01b0316331480612fc85750612fb3611ffc565b6001600160a01b0316336001600160a01b0316145b612fe45760405162461bcd60e51b81526004016106b49061421e565b63ffffffff82166000908152600960205260409020546130165760405162461bcd60e51b81526004016106b490613fe9565b63ffffffff82166000908152600a6020526040902054156130495760405162461bcd60e51b81526004016106b4906142a5565b63ffffffff82166000908152600960205260409020546130749061306f906001906146c2565b613484565b5063ffffffff16600090815260096020526040812055600190565b6003546000906001600160a01b03163314806130c357506130ae611ffc565b6001600160a01b0316336001600160a01b0316145b6130df5760405162461bcd60e51b81526004016106b49061421e565b506004805460ff60a01b1916600160a01b179055600190565b80516020808301919091206000818152600c909252604082205463ffffffff16613128576298967f915050610668565b6000908152600c602052604090205463ffffffff1692915050565b6002546001600160a01b031690565b600061315c6133c0565b6001600160a01b031661316d611ffc565b6001600160a01b0316146131935760405162461bcd60e51b81526004016106b490614270565b600082116131b35760405162461bcd60e51b81526004016106b4906141dc565b6002546040516323b872dd60e01b81526001600160a01b03909116906323b872dd906131e790339030908790600401613d8d565b602060405180830381600087803b15801561320157600080fd5b505af1158015613215573d6000803e3d6000fd5b505050506040513d601f19601f8201168201806040525081019061323991906139dc565b6132555760405162461bcd60e51b81526004016106b4906142dc565b7fbb18388c519fe4b4b577b17f416832c870492be5510cdb062b086c0a0025d7888261327f611ffc565b60405161328d929190614530565b60405180910390a1506001919050565b6003546000906001600160a01b03163314806132d157506132bc611ffc565b6001600160a01b0316336001600160a01b0316145b6132ed5760405162461bcd60e51b81526004016106b49061421e565b50600555600190565b60006133006133c0565b6001600160a01b0316613311611ffc565b6001600160a01b0316146133375760405162461bcd60e51b81526004016106b490614270565b50600855600190565b6133486133c0565b6001600160a01b0316613359611ffc565b6001600160a01b03161461337f5760405162461bcd60e51b81526004016106b490614270565b6001600160a01b0381166133a55760405162461bcd60e51b81526004016106b490613fa3565b6133ae81613434565b50565b6003546001600160a01b031690565b3390565b3b63ffffffff16151590565b6000818152600b602052604081205463ffffffff1661341b576008548211156133fd57506298967f610668565b6000613408836136be565b9050613413816130f8565b915050610668565b506000908152600b602052604090205463ffffffff1690565b600080546001600160a01b038381166001600160a01b0319831681178455604051919092169283917f8be0079c531659141344cd1fd0a4f28419497f9722a3daafe3b4186f6b6457e09190a35050565b6006548110613492576133ae565b6000600c6000600684815481106134b957634e487b7160e01b600052603260045260246000fd5b90600052602060002090600502016003016040516134d79190613d0a565b60408051918290039091208252602082019290925201600020805463ffffffff191663ffffffff92909216919091179055600654613517906001906146c2565b81101561364f576006805461352e906001906146c2565b8154811061354c57634e487b7160e01b600052603260045260246000fd5b90600052602060002090600502016006828154811061357b57634e487b7160e01b600052603260045260246000fd5b600091825260209091208254600590920201805463ffffffff191663ffffffff909216919091178155600180830154908201556002808301549082015560038083018054918301916135cc90614765565b6135d79291906137e4565b506004918201549101805463ffffffff191663ffffffff90921691909117905561360281600161466b565b600960006006848154811061362757634e487b7160e01b600052603260045260246000fd5b6000918252602080832060059092029091015463ffffffff1683528201929092526040019020555b600680548061366e57634e487b7160e01b600052603160045260246000fd5b600082815260208120600560001990930192830201805463ffffffff191681556001810182905560028101829055906136aa600383018261385f565b50600401805463ffffffff19169055905550565b60015460405163c87b56dd60e01b81526060916001600160a01b03169063c87b56dd906136ef908590600401614527565b60006040518083038186803b15801561370757600080fd5b505afa92505050801561373c57506040513d6000823e601f3d908101601f191682016040526137399190810190613a75565b60015b6137455761374c565b9050610668565b505060408051602081019091526000815290565b82805461376c90614765565b90600052602060002090601f01602090048101928261378e57600085556137d4565b82601f106137a757805160ff19168380011785556137d4565b828001600101855582156137d4579182015b828111156137d45782518255916020019190600101906137b9565b506137e0929150613897565b5090565b8280546137f090614765565b90600052602060002090601f01602090048101928261381257600085556137d4565b82601f1061382357805485556137d4565b828001600101855582156137d457600052602060002091601f016020900482015b828111156137d4578254825591600101919060010190613844565b50805461386b90614765565b6000825580601f1061387d57506133ae565b601f0160209004906000526020600020908101906133ae91905b5b808211156137e05760008155600101613898565b60008083601f8401126138bd578182fd5b50813567ffffffffffffffff8111156138d4578182fd5b60208301915083602080830285010111156138ee57600080fd5b9250929050565b803563ffffffff8116811461066857600080fd5b60006020828403121561391a578081fd5b81356139258161480b565b9392505050565b60006020828403121561393d578081fd5b81516139258161480b565b6000806040838503121561395a578081fd5b82356139658161480b565b946020939093013593505050565b60008060008060408587031215613988578182fd5b843567ffffffffffffffff8082111561399f578384fd5b6139ab888389016138ac565b909650945060208701359150808211156139c3578384fd5b506139d0878288016138ac565b95989497509550505050565b6000602082840312156139ed578081fd5b81518015158114613925578182fd5b600060208284031215613a0d578081fd5b813567ffffffffffffffff811115613a23578182fd5b8201601f81018413613a33578182fd5b8035613a46613a4182614643565b614619565b818152856020838501011115613a5a578384fd5b81602084016020830137908101602001929092525092915050565b600060208284031215613a86578081fd5b815167ffffffffffffffff811115613a9c578182fd5b8201601f81018413613aac578182fd5b8051613aba613a4182614643565b818152856020838501011115613ace578384fd5b613adf8260208301602086016146fe565b95945050505050565b600060208284031215613af9578081fd5b5035919050565b600060208284031215613b11578081fd5b5051919050565b600060208284031215613b29578081fd5b613925826138f5565b60008060408385031215613b44578182fd5b613b4d836138f5565b91506020830135613b5d8161480b565b809150509250929050565b600080600060608486031215613b7c578283fd5b613b85846138f5565b92506020840135613b958161480b565b929592945050506040919091013590565b60008060408385031215613bb8578182fd5b613965836138f5565b600080600060608486031215613bd5578081fd5b613bde846138f5565b95602085013595506040909401359392505050565b60008060008060008060a08789031215613c0b578384fd5b613c14876138f5565b95506020870135945060408701359350606087013567ffffffffffffffff80821115613c3e578384fd5b818901915089601f830112613c51578384fd5b813581811115613c5f578485fd5b8a6020828501011115613c70578485fd5b602083019550809450505050613c88608088016138f5565b90509295509295509295565b6000815180845260208085019450808401835b83811015613cc357815187529582019590820190600101613ca7565b509495945050505050565b60008151808452613ce68160208601602086016146fe565b601f01601f19169290920160200192915050565b6000828483379101908152919050565b6000808354613d1881614765565b60018281168015613d305760018114613d4157613d6d565b60ff19841687528287019450613d6d565b8786526020808720875b85811015613d645781548a820152908401908201613d4b565b50505082870194505b50929695505050505050565b6001600160a01b0391909116815260200190565b6001600160a01b039384168152919092166020820152604081019190915260600190565b6001600160a01b03929092168252602082015260400190565b600060018060a01b03851682526020848184015260606040840152818454613df181614765565b8060608701526080600180841660008114613e135760018114613e2757613e52565b60ff1985168984015260a089019550613e52565b898852868820885b85811015613e4a5781548b8201860152908301908801613e2f565b8a0184019650505b50939a9950505050505050505050565b606080825284519082018190526000906020906080840190828801845b82811015613ea157815163ffffffff1684529284019290840190600101613e7f565b50505083810382850152613eb58187613c94565b9150508281036040840152613eca8185613c94565b9695505050505050565b901515815260200190565b6000602082526139256020830184613cce565b6020808252601d908201527f496e73756666696369656e742045544e41206f6e20636f6e7472616374000000604082015260600190565b60208082526023908201527f4172726179732073686f756c64206265206f66207468652073616d65206c656e6040820152620cee8d60eb1b606082015260800190565b6020808252601f908201527f4e46542077697468207468697320494420616c72656164792065786973747300604082015260600190565b60208082526026908201527f4f776e61626c653a206e6577206f776e657220697320746865207a65726f206160408201526564647265737360d01b606082015260800190565b60208082526023908201527f50726f66696c652077697468207468697320494420646f6573206e6f742065786040820152621a5cdd60ea1b606082015260800190565b60208082526013908201527211551390481c185e5b595b9d0819985a5b1959606a1b604082015260600190565b6020808252602f908201527f416d6f756e742063616e206e6f742062652067726561746572207468616e206360408201526e6f6e74726163742062616c616e636560881b606082015260800190565b6020808252601190820152702a3432903634b6b4ba1034b99037bb32b960791b604082015260600190565b60208082526028908201527f5072696365206d616e6167657220616464726573732073686f756c64206e6f74604082015267206265207a65726f60c01b606082015260800190565b60208082526018908201527f4e46542070726f66696c65204944206e6f7420666f756e640000000000000000604082015260600190565b60208082526023908201527f526563656976657220616464726573732073686f756c64206e6f74206265207a60408201526265726f60e81b606082015260800190565b60208082526027908201527f4e465420636f6e747261637420616464726573732073686f756c64206e6f74206040820152666265207a65726f60c81b606082015260800190565b60208082526022908201527f416d6f756e742073686f756c642062652067726561746572207468616e207a65604082015261726f60f01b606082015260800190565b60208082526032908201527f4f6e6c79207072696365206d616e61676572206f72206f776e65722063616e2060408201527131b0b636103a3434b990333ab731ba34b7b760711b606082015260800190565b6020808252818101527f4f776e61626c653a2063616c6c6572206973206e6f7420746865206f776e6572604082015260600190565b6020808252601f908201527f546869732070726f66696c652063616e206e6f742062652072656d6f76656400604082015260600190565b602080825260139082015272115d1b98481c185e5b595b9d0819985a5b1959606a1b604082015260600190565b60208082526022908201527f65787465726e616c20636f6e74726163747320617265206e6f7420616c6c6f77604082015261195960f21b606082015260800190565b60208082526026908201527f54686973204e4654206973206e6f7420617661696c61626c6520666f7220776960408201526574686472617760d01b606082015260800190565b6020808252601b908201527f4f776e6572736869702076616c69646174696f6e206661696c65640000000000604082015260600190565b60208082526021908201527f546869732070726f66696c6520494420697320616c726561647920696e2075736040820152606560f81b606082015260800190565b6020808252601a908201527f546869732075726c20697320616c726561647920696e20757365000000000000604082015260600190565b60208082526034908201527f4f6e6c792061697264726f70206d616e61676572206f72206f776e6572206361604082015273371031b0b636103a3434b990333ab731ba34b7b760611b606082015260800190565b60208082526029908201527f455243323020636f6e747261637420616464726573732073686f756c64206e6f60408201526874206265207a65726f60b81b606082015260800190565b6020808252602a908201527f41697264726f70206d616e6167657220616464726573732073686f756c64206e6040820152696f74206265207a65726f60b01b606082015260800190565b90815260200190565b9182526001600160a01b0316602082015260400190565b6000858252846020830152608060408301526145666080830185613cce565b905063ffffffff8316606083015295945050505050565b63ffffffff91909116815260200190565b63ffffffff94909416845260208401929092526001600160a01b03166040830152606082015260800190565b63ffffffff9390931683526020830191909152604082015260600190565b600063ffffffff808816835286602084015285604084015260a0606084015261460460a0840186613cce565b91508084166080840152509695505050505050565b60405181810167ffffffffffffffff8111828210171561463b5761463b6147f5565b604052919050565b600067ffffffffffffffff82111561465d5761465d6147f5565b50601f01601f191660200190565b6000821982111561467e5761467e6147df565b500190565b60008261469e57634e487b7160e01b81526012600452602481fd5b500490565b60008160001904831182151516156146bd576146bd6147df565b500290565b6000828210156146d4576146d46147df565b500390565b600063ffffffff838116908316818110156146f6576146f66147df565b039392505050565b60005b83811015614719578181015183820152602001614701565b83811115614728576000848401525b50505050565b60008161473d5761473d6147df565b506000190190565b600063ffffffff82168061475b5761475b6147df565b6000190192915050565b60028104600182168061477957607f821691505b6020821081141561479a57634e487b7160e01b600052602260045260246000fd5b50919050565b60006000198214156147b4576147b46147df565b5060010190565b600063ffffffff808316818114156147d5576147d56147df565b6001019392505050565b634e487b7160e01b600052601160045260246000fd5b634e487b7160e01b600052604160045260246000fd5b6001600160a01b03811681146133ae57600080fdfea2646970667358221220b861539ef866bb59bfe1e38b541896a70c1d796400c5d4a5765ee4aeb30ad30f64736f6c63430008000033",
  "linkReferences": {},
  "deployedLinkReferences": {}
}