{
  "_format": "hh-sol-artifact-1",
  "contractName": "Marketplace",
  "sourceName": "contracts/marketplace.sol",
  "abi": [
    {
      "inputs": [
        {
          "internalType": "address",
          "name": "newOwner",
          "type": "address"
        },
        {
          "internalType": "address",
          "name": "nftAddress",
          "type": "address"
        },
        {
          "internalType": "address",
          "name": "paymentAddress",
          "type": "address"
        },
        {
          "internalType": "address",
          "name": "buybackAddress",
          "type": "address"
        },
        {
          "internalType": "address",
          "name": "royaltyAddress",
          "type": "address"
        },
        {
          "internalType": "uint16",
          "name": "paymentAddressRatio",
          "type": "uint16"
        },
        {
          "internalType": "uint16",
          "name": "buybackAddressRatio",
          "type": "uint16"
        },
        {
          "internalType": "uint256",
          "name": "inflation",
          "type": "uint256"
        }
      ],
      "stateMutability": "nonpayable",
      "type": "constructor"
    },
    {
      "inputs": [
        {
          "internalType": "uint256",
          "name": "price",
          "type": "uint256"
        },
        {
          "internalType": "uint256",
          "name": "inflation",
          "type": "uint256"
        },
        {
          "internalType": "uint256",
          "name": "limit",
          "type": "uint256"
        },
        {
          "internalType": "string",
          "name": "tokenURI",
          "type": "string"
        },
        {
          "internalType": "bool",
          "name": "ownInflation",
          "type": "bool"
        },
        {
          "internalType": "bool",
          "name": "active",
          "type": "bool"
        }
      ],
      "name": "addNftProfile",
      "outputs": [
        {
          "internalType": "bool",
          "name": "",
          "type": "bool"
        }
      ],
      "stateMutability": "nonpayable",
      "type": "function"
    },
    {
      "inputs": [
        {
          "internalType": "address",
          "name": "userAddress",
          "type": "address"
        },
        {
          "internalType": "uint8",
          "name": "role",
          "type": "uint8"
        }
      ],
      "name": "addRole",
      "outputs": [
        {
          "internalType": "bool",
          "name": "",
          "type": "bool"
        }
      ],
      "stateMutability": "nonpayable",
      "type": "function"
    },
    {
      "inputs": [
        {
          "internalType": "address",
          "name": "userAddress",
          "type": "address"
        }
      ],
      "name": "addToManagers",
      "outputs": [
        {
          "internalType": "bool",
          "name": "",
          "type": "bool"
        }
      ],
      "stateMutability": "nonpayable",
      "type": "function"
    },
    {
      "inputs": [
        {
          "internalType": "address",
          "name": "userAddress",
          "type": "address"
        },
        {
          "internalType": "uint8",
          "name": "role",
          "type": "uint8"
        }
      ],
      "name": "checkRole",
      "outputs": [
        {
          "internalType": "bool",
          "name": "",
          "type": "bool"
        }
      ],
      "stateMutability": "view",
      "type": "function"
    },
    {
      "inputs": [],
      "name": "getDistributionAddresses",
      "outputs": [
        {
          "internalType": "address",
          "name": "paymentAddress",
          "type": "address"
        },
        {
          "internalType": "address",
          "name": "buybackAddress",
          "type": "address"
        },
        {
          "internalType": "address",
          "name": "royaltyAddress",
          "type": "address"
        }
      ],
      "stateMutability": "view",
      "type": "function"
    },
    {
      "inputs": [],
      "name": "getDistributionRatio",
      "outputs": [
        {
          "internalType": "uint16",
          "name": "paymentAddressRatio",
          "type": "uint16"
        },
        {
          "internalType": "uint16",
          "name": "buybackAddressRatio",
          "type": "uint16"
        },
        {
          "internalType": "uint16",
          "name": "royaltyAddressRatio",
          "type": "uint16"
        }
      ],
      "stateMutability": "view",
      "type": "function"
    },
    {
      "inputs": [],
      "name": "getInflation",
      "outputs": [
        {
          "internalType": "uint256",
          "name": "",
          "type": "uint256"
        }
      ],
      "stateMutability": "view",
      "type": "function"
    },
    {
      "inputs": [],
      "name": "getNftAddress",
      "outputs": [
        {
          "internalType": "address",
          "name": "",
          "type": "address"
        }
      ],
      "stateMutability": "view",
      "type": "function"
    },
    {
      "inputs": [
        {
          "internalType": "uint256",
          "name": "nftProfileId",
          "type": "uint256"
        }
      ],
      "name": "getNftProfile",
      "outputs": [
        {
          "internalType": "uint256",
          "name": "price",
          "type": "uint256"
        },
        {
          "internalType": "uint256",
          "name": "tokenSold",
          "type": "uint256"
        },
        {
          "internalType": "uint256",
          "name": "inflation",
          "type": "uint256"
        },
        {
          "internalType": "uint256",
          "name": "limit",
          "type": "uint256"
        },
        {
          "internalType": "string",
          "name": "tokenURI",
          "type": "string"
        },
        {
          "internalType": "bool",
          "name": "ownInflation",
          "type": "bool"
        },
        {
          "internalType": "bool",
          "name": "active",
          "type": "bool"
        }
      ],
      "stateMutability": "view",
      "type": "function"
    },
    {
      "inputs": [],
      "name": "getNftProfilesNumber",
      "outputs": [
        {
          "internalType": "uint256",
          "name": "",
          "type": "uint256"
        }
      ],
      "stateMutability": "view",
      "type": "function"
    },
    {
      "inputs": [
        {
          "internalType": "address",
          "name": "userAddress",
          "type": "address"
        }
      ],
      "name": "isManager",
      "outputs": [
        {
          "internalType": "bool",
          "name": "",
          "type": "bool"
        }
      ],
      "stateMutability": "view",
      "type": "function"
    },
    {
      "inputs": [],
      "name": "owner",
      "outputs": [
        {
          "internalType": "address",
          "name": "",
          "type": "address"
        }
      ],
      "stateMutability": "view",
      "type": "function"
    },
    {
      "inputs": [
        {
          "internalType": "uint256",
          "name": "nftProfileId",
          "type": "uint256"
        }
      ],
      "name": "purchase",
      "outputs": [
        {
          "internalType": "bool",
          "name": "",
          "type": "bool"
        }
      ],
      "stateMutability": "payable",
      "type": "function"
    },
    {
      "inputs": [
        {
          "internalType": "address",
          "name": "userAddress",
          "type": "address"
        }
      ],
      "name": "removeFromManagers",
      "outputs": [
        {
          "internalType": "bool",
          "name": "",
          "type": "bool"
        }
      ],
      "stateMutability": "nonpayable",
      "type": "function"
    },
    {
      "inputs": [
        {
          "internalType": "address",
          "name": "userAddress",
          "type": "address"
        },
        {
          "internalType": "uint8",
          "name": "role",
          "type": "uint8"
        }
      ],
      "name": "removeRole",
      "outputs": [
        {
          "internalType": "bool",
          "name": "",
          "type": "bool"
        }
      ],
      "stateMutability": "nonpayable",
      "type": "function"
    },
    {
      "inputs": [
        {
          "internalType": "uint256",
          "name": "nftProfileId",
          "type": "uint256"
        },
        {
          "internalType": "uint256",
          "name": "inflation",
          "type": "uint256"
        }
      ],
      "name": "seNftProfileInflation",
      "outputs": [
        {
          "internalType": "bool",
          "name": "",
          "type": "bool"
        }
      ],
      "stateMutability": "nonpayable",
      "type": "function"
    },
    {
      "inputs": [
        {
          "internalType": "uint256",
          "name": "nftProfileId",
          "type": "uint256"
        },
        {
          "internalType": "bool",
          "name": "isTrue",
          "type": "bool"
        }
      ],
      "name": "seNftProfileOwnInflation",
      "outputs": [
        {
          "internalType": "bool",
          "name": "",
          "type": "bool"
        }
      ],
      "stateMutability": "nonpayable",
      "type": "function"
    },
    {
      "inputs": [
        {
          "internalType": "uint256",
          "name": "nftProfileId",
          "type": "uint256"
        },
        {
          "internalType": "uint256",
          "name": "price",
          "type": "uint256"
        }
      ],
      "name": "seNftProfilePrice",
      "outputs": [
        {
          "internalType": "bool",
          "name": "",
          "type": "bool"
        }
      ],
      "stateMutability": "nonpayable",
      "type": "function"
    },
    {
      "inputs": [
        {
          "internalType": "uint256",
          "name": "nftProfileId",
          "type": "uint256"
        },
        {
          "internalType": "bool",
          "name": "active",
          "type": "bool"
        }
      ],
      "name": "seNftProfileStatus",
      "outputs": [
        {
          "internalType": "bool",
          "name": "",
          "type": "bool"
        }
      ],
      "stateMutability": "nonpayable",
      "type": "function"
    },
    {
      "inputs": [
        {
          "internalType": "uint256",
          "name": "nftProfileId",
          "type": "uint256"
        },
        {
          "internalType": "string",
          "name": "tokenURI",
          "type": "string"
        }
      ],
      "name": "seNftProfileTokenURI",
      "outputs": [
        {
          "internalType": "bool",
          "name": "",
          "type": "bool"
        }
      ],
      "stateMutability": "nonpayable",
      "type": "function"
    },
    {
      "inputs": [
        {
          "internalType": "address",
          "name": "paymentAddress",
          "type": "address"
        },
        {
          "internalType": "address",
          "name": "buybackAddress",
          "type": "address"
        },
        {
          "internalType": "address",
          "name": "royaltyAddress",
          "type": "address"
        }
      ],
      "name": "setDistributionAddresses",
      "outputs": [
        {
          "internalType": "bool",
          "name": "",
          "type": "bool"
        }
      ],
      "stateMutability": "nonpayable",
      "type": "function"
    },
    {
      "inputs": [
        {
          "internalType": "uint16",
          "name": "paymentAddressRatio",
          "type": "uint16"
        },
        {
          "internalType": "uint16",
          "name": "buybackAddressRatio",
          "type": "uint16"
        },
        {
          "internalType": "uint16",
          "name": "royaltyAddressRatio",
          "type": "uint16"
        }
      ],
      "name": "setDistributionRatio",
      "outputs": [
        {
          "internalType": "bool",
          "name": "",
          "type": "bool"
        }
      ],
      "stateMutability": "nonpayable",
      "type": "function"
    },
    {
      "inputs": [
        {
          "internalType": "uint256",
          "name": "inflation",
          "type": "uint256"
        }
      ],
      "name": "setInflation",
      "outputs": [
        {
          "internalType": "bool",
          "name": "",
          "type": "bool"
        }
      ],
      "stateMutability": "nonpayable",
      "type": "function"
    },
    {
      "inputs": [
        {
          "internalType": "address",
          "name": "nftAddress",
          "type": "address"
        }
      ],
      "name": "setNftContractAddress",
      "outputs": [
        {
          "internalType": "bool",
          "name": "",
          "type": "bool"
        }
      ],
      "stateMutability": "nonpayable",
      "type": "function"
    },
    {
      "inputs": [
        {
          "internalType": "address",
          "name": "newOwner",
          "type": "address"
        }
      ],
      "name": "transferOwnership",
      "outputs": [
        {
          "internalType": "bool",
          "name": "",
          "type": "bool"
        }
      ],
      "stateMutability": "nonpayable",
      "type": "function"
    }
  ],
  "bytecode": "0x60806040523480156200001157600080fd5b50604051620020fd380380620020fd833981016040819052620000349162000360565b600180546001600160a01b03191633178082556001600160a01b039081166000908152602081905260409020805460ff19168317905560039190915588166200009a5760405162461bcd60e51b815260040162000091906200056b565b60405180910390fd5b6001600160a01b038716620000c35760405162461bcd60e51b8152600401620000919062000534565b6001600160a01b038616620000ec5760405162461bcd60e51b8152600401620000919062000483565b6001600160a01b038516620001155760405162461bcd60e51b81526004016200009190620004ba565b6001600160a01b0386166200013e5760405162461bcd60e51b815260040162000091906200056b565b6127106200014d8385620005a2565b61ffff161115620001725760405162461bcd60e51b81526004016200009190620003fe565b600680546001600160a01b03199081166001600160a01b038a811691909117909255600780548216898416179055600880548216888416179055600980549091169186169190911761ffff60a01b1916600160a01b61ffff86811682029290921761ffff60b01b1916600160b01b868416810291909117938490558304821692620002049291900416612710620005cb565b620002109190620005cb565b6009805461ffff92909216600160c01b0261ffff60c01b19909216919091179055600b81905562000241886200025c565b506200024d88620002b9565b50505050505050505062000607565b6001546000906001600160a01b031633146200028c5760405162461bcd60e51b815260040162000091906200044c565b506001600160a01b0381166000908152602081905260409020805460ff191660019081179091555b919050565b6001546000906001600160a01b03163314620002e95760405162461bcd60e51b815260040162000091906200044c565b6001600160a01b038216620003125760405162461bcd60e51b81526004016200009190620004f1565b50600180546001600160a01b0383166001600160a01b0319909116178155919050565b80516001600160a01b0381168114620002b457600080fd5b805161ffff81168114620002b457600080fd5b600080600080600080600080610100898b0312156200037d578384fd5b620003888962000335565b97506200039860208a0162000335565b9650620003a860408a0162000335565b9550620003b860608a0162000335565b9450620003c860808a0162000335565b9350620003d860a08a016200034d565b9250620003e860c08a016200034d565b915060e089015190509295985092959890939650565b6020808252602e908201527f526174696f2073756d2063616e206e6f7420626520677265617465722074686160408201526d6e2031202a20444543494d414c5360901b606082015260800190565b60208082526017908201527f43616c6c6572206973206e6f7420746865206f776e6572000000000000000000604082015260600190565b6020808252601f908201527f5061796d656e7420616464726573732063616e206e6f74206265207a65726f00604082015260600190565b6020808252601f908201527f4275796261636b20616464726573732063616e206e6f74206265207a65726f00604082015260600190565b60208082526023908201527f6e65774f776e65722073686f756c64206e6f74206265207a65726f206164647260408201526265737360e81b606082015260800190565b6020808252601b908201527f4e667420616464726573732063616e206e6f74206265207a65726f0000000000604082015260600190565b6020808252601d908201527f4f776e657220616464726573732063616e206e6f74206265207a65726f000000604082015260600190565b600061ffff808316818516808303821115620005c257620005c2620005f1565b01949350505050565b600061ffff83811690831681811015620005e957620005e9620005f1565b039392505050565b634e487b7160e01b600052601160045260246000fd5b611ae680620006176000396000f3fe6080604052600436106101665760003560e01c80638da5cb5b116100d1578063d9f640c71161008a578063ee06051f11610064578063ee06051f1461042a578063efef39a11461044a578063f2fde38b1461045d578063f3ae24151461047d57610166565b8063d9f640c7146103ca578063da31d640146103ea578063e0a8ed521461040a57610166565b80638da5cb5b1461031c578063953861f01461033e578063a2befec61461035e578063b74866fb14610380578063be9a71bd146103a0578063d5a95771146103b557610166565b806344deb6f31161012357806344deb6f31461024557806346c85631146102655780634af5da32146102855780634fce980b146102a957806372a8f1f7146102c95780638d6e97b9146102fc57610166565b80630a962f891461016b57806323a3ad72146101a1578063254be5e3146101c157806329c2d1d5146101e15780632bf9db79146102015780633d9efb4214610225575b600080fd5b34801561017757600080fd5b5061018b610186366004611372565b61049d565b604051610198919061169f565b60405180910390f35b3480156101ad57600080fd5b5061018b6101bc3660046113d5565b6104fc565b3480156101cd57600080fd5b5061018b6101dc3660046114a1565b61052b565b3480156101ed57600080fd5b5061018b6101fc366004611393565b61069e565b34801561020d57600080fd5b50610216610710565b6040516101989392919061164c565b34801561023157600080fd5b5061018b61024036600461147d565b61072d565b34801561025157600080fd5b5061018b6102603660046113d5565b6107b7565b34801561027157600080fd5b5061018b61028036600461142c565b61081e565b34801561029157600080fd5b5061029a61089c565b60405161019893929190611902565b3480156102b557600080fd5b5061018b6102c436600461150c565b6108c4565b3480156102d557600080fd5b506102e96102e4366004611465565b610a3b565b6040516101989796959493929190611929565b34801561030857600080fd5b5061018b61031736600461147d565b610b30565b34801561032857600080fd5b50610331610bb4565b6040516101989190611638565b34801561034a57600080fd5b5061018b6103593660046114eb565b610bc3565b34801561036a57600080fd5b50610373610c3c565b6040516101989190611920565b34801561038c57600080fd5b5061018b61039b3660046113d5565b610c42565b3480156103ac57600080fd5b50610331610ca5565b3480156103c157600080fd5b50610373610cb4565b3480156103d657600080fd5b5061018b6103e53660046114eb565b610cba565b3480156103f657600080fd5b5061018b610405366004611372565b610d30565b34801561041657600080fd5b5061018b610425366004611465565b610daa565b34801561043657600080fd5b5061018b610445366004611372565b610de2565b61018b610458366004611465565b610e38565b34801561046957600080fd5b5061018b610478366004611372565b6111d5565b34801561048957600080fd5b5061018b610498366004611372565b61124b565b6001546000906001600160a01b031633146104d35760405162461bcd60e51b81526004016104ca90611735565b60405180910390fd5b506001600160a01b0381166000908152602081905260409020805460ff1916905560015b919050565b60ff80821660009081526002602090815260408083206001600160a01b03871684529091529020541692915050565b3360009081526020819052604081205460ff1661055a5760405162461bcd60e51b81526004016104ca90611894565b60008411801561056c5750600a548411155b6105885760405162461bcd60e51b81526004016104ca906117ba565b60056000848460405160200161059f9291906116aa565b604051602081830303815290604052805190602001208152602001908152602001600020546000146105e35760405162461bcd60e51b81526004016104ca906116ec565b6000600560006004600088815260200190815260200160002060050160405160200161060f91906116d9565b604051602081830303815290604052805190602001208152602001908152602001600020819055508360056000858560405160200161064f9291906116aa565b60408051601f198184030181529181528151602092830120835282820193909352908201600090812093909355868352600490529020610693906005018484611269565b506001949350505050565b3360009081526020819052604081205460ff166106cd5760405162461bcd60e51b81526004016104ca90611894565b50600780546001600160a01b039485166001600160a01b031991821617909155600880549385169382169390931790925560098054919093169116179055600190565b6007546008546009546001600160a01b0392831693918316921690565b3360009081526020819052604081205460ff1661075c5760405162461bcd60e51b81526004016104ca90611894565b60008311801561076e5750600a548311155b61078a5760405162461bcd60e51b81526004016104ca906117ba565b50600082815260046020526040902060060180548215156101000261ff0019909116179055600192915050565b3360009081526020819052604081205460ff166107e65760405162461bcd60e51b81526004016104ca90611894565b5060ff1660009081526002602090815260408083206001600160a01b0394909416835292905220805460ff1916600190811790915590565b3360009081526020819052604081205460ff1661084d5760405162461bcd60e51b81526004016104ca90611894565b506009805461ffff60a01b1916600160a01b61ffff958616021761ffff60b01b1916600160b01b938516939093029290921761ffff60c01b1916600160c01b9190931602919091179055600190565b60095461ffff600160a01b8204811691600160b01b8104821691600160c01b90910416909192565b3360009081526020819052604081205460ff166108f35760405162461bcd60e51b81526004016104ca90611894565b60056000868660405160200161090a9291906116aa565b6040516020818303038152906040528051906020012081526020019081526020016000205460001461094e5760405162461bcd60e51b81526004016104ca906116ec565b600a805490600061095e83611a6e565b9190505550600a5460056000878760405160200161097d9291906116aa565b60408051601f198184030181529181528151602092830120835282820193909352908201600090812093909355600a805484526004918290528284206001018c9055805484528284206003018b90558054845282842090910189905554825290206109ec906005018686611269565b5050600a80546000908152600460205260408082206006908101805487151560ff199091161790559254825290200180548215156101000261ff00199091161790556001979650505050505050565b600081815260046020819052604082206001810154600282015460038301549383015460068401546005909401805487968796879660609688968796929591949390929160ff80831692610100900416908390610a9790611a33565b80601f0160208091040260200160405190810160405280929190818152602001828054610ac390611a33565b8015610b105780601f10610ae557610100808354040283529160200191610b10565b820191906000526020600020905b815481529060010190602001808311610af357829003601f168201915b505050505092509650965096509650965096509650919395979092949650565b3360009081526020819052604081205460ff16610b5f5760405162461bcd60e51b81526004016104ca90611894565b600083118015610b715750600a548311155b610b8d5760405162461bcd60e51b81526004016104ca906117ba565b50600091825260046020526040909120600601805460ff1916911515919091179055600190565b6001546001600160a01b031690565b3360009081526020819052604081205460ff16610bf25760405162461bcd60e51b81526004016104ca90611894565b600083118015610c045750600a548311155b610c205760405162461bcd60e51b81526004016104ca906117ba565b5060009182526004602052604090912060019081019190915590565b600a5490565b3360009081526020819052604081205460ff16610c715760405162461bcd60e51b81526004016104ca90611894565b5060ff1660009081526002602090815260408083206001600160a01b0394909416835292905220805460ff19169055600190565b6006546001600160a01b031690565b600b5490565b3360009081526020819052604081205460ff16610ce95760405162461bcd60e51b81526004016104ca90611894565b600083118015610cfb5750600a548311155b610d175760405162461bcd60e51b81526004016104ca906117ba565b5060009182526004602052604090912060030155600190565b3360009081526020819052604081205460ff16610d5f5760405162461bcd60e51b81526004016104ca90611894565b6001600160a01b038216610d855760405162461bcd60e51b81526004016104ca906118cb565b50600680546001600160a01b0383166001600160a01b03199091161790556001919050565b3360009081526020819052604081205460ff16610dd95760405162461bcd60e51b81526004016104ca90611894565b50600b55600190565b6001546000906001600160a01b03163314610e0f5760405162461bcd60e51b81526004016104ca90611735565b506001600160a01b03166000908152602081905260409020805460ff1916600190811790915590565b600060026003541415610e5d5760405162461bcd60e51b81526004016104ca906117f1565b6002600355600082815260046020526040902060060154610100900460ff16610e985760405162461bcd60e51b81526004016104ca9061176c565b600082815260046020819052604090912001541580610edb5750600082815260046020819052604090912090810154600290910154610ed89060016119c5565b11155b610ee457600080fd5b60008281526004602052604090206001015480348114610f165760405162461bcd60e51b81526004016104ca9061180d565b60065460008581526004602081905260409182902091516334ff261960e21b81526001600160a01b039093169263d3fc986492610f5b9233928a92600501910161166f565b602060405180830381600087803b158015610f7557600080fd5b505af1158015610f89573d6000803e3d6000fd5b505050506040513d601f19601f82011682018060405250810190610fad9190611410565b50600b5460008581526004602052604090206006015460ff1615610fdf57506000848152600460205260409020600301545b600085815260046020526040812060010180548392906110009084906119c5565b9091555050600085815260046020526040812060020180549161102283611a6e565b9091555050600954600160a01b900461ffff16156110e157600954600090600160b01b900461ffff161580156110635750600954600160c01b900461ffff16155b1561106f575081611098565b6009546127109061108b90600160a01b900461ffff16866119fd565b61109591906119dd565b90505b6007546040516001600160a01b039091169082156108fc029083906000818181858888f193505050501580156110d2573d6000803e3d6000fd5b506110dd8184611a1c565b9250505b600954600160b01b900461ffff161561118257600954600090600160c01b900461ffff16611110575081611139565b6009546127109061112c90600160b01b900461ffff16866119fd565b61113691906119dd565b90505b6008546040516001600160a01b039091169082156108fc029083906000818181858888f19350505050158015611173573d6000803e3d6000fd5b5061117e8184611a1c565b9250505b81156111c4576009546040516001600160a01b039091169083156108fc029084906000818181858888f193505050501580156111c2573d6000803e3d6000fd5b505b600193505050506001600355919050565b6001546000906001600160a01b031633146112025760405162461bcd60e51b81526004016104ca90611735565b6001600160a01b0382166112285760405162461bcd60e51b81526004016104ca90611851565b50600180546001600160a01b0383166001600160a01b0319909116178155919050565b6001600160a01b031660009081526020819052604090205460ff1690565b82805461127590611a33565b90600052602060002090601f01602090048101928261129757600085556112dd565b82601f106112b05782800160ff198235161785556112dd565b828001600101855582156112dd579182015b828111156112dd5782358255916020019190600101906112c2565b506112e99291506112ed565b5090565b5b808211156112e957600081556001016112ee565b80356001600160a01b03811681146104f757600080fd5b60008083601f84011261132a578182fd5b50813567ffffffffffffffff811115611341578182fd5b60208301915083602082850101111561135957600080fd5b9250929050565b803561ffff811681146104f757600080fd5b600060208284031215611383578081fd5b61138c82611302565b9392505050565b6000806000606084860312156113a7578182fd5b6113b084611302565b92506113be60208501611302565b91506113cc60408501611302565b90509250925092565b600080604083850312156113e7578182fd5b6113f083611302565b9150602083013560ff81168114611405578182fd5b809150509250929050565b600060208284031215611421578081fd5b815161138c81611a9f565b600080600060608486031215611440578283fd5b61144984611360565b925061145760208501611360565b91506113cc60408501611360565b600060208284031215611476578081fd5b5035919050565b6000806040838503121561148f578182fd5b82359150602083013561140581611a9f565b6000806000604084860312156114b5578283fd5b83359250602084013567ffffffffffffffff8111156114d2578283fd5b6114de86828701611319565b9497909650939450505050565b600080604083850312156114fd578182fd5b50508035926020909101359150565b600080600080600080600060c0888a031215611526578283fd5b873596506020880135955060408801359450606088013567ffffffffffffffff811115611551578384fd5b61155d8a828b01611319565b909550935050608088013561157181611a9f565b915060a088013561158181611a9f565b8091505092959891949750929550565b15159052565b8054600090600281046001808316806115b157607f831692505b60208084108214156115d157634e487b7160e01b86526022600452602486fd5b6115db8489611920565b8280156115ef57600181146116005761162b565b60ff1987168252828201975061162b565b611609896119b9565b60005b878110156116255781548482015290860190840161160c565b83019850505b5050505050505092915050565b6001600160a01b0391909116815260200190565b6001600160a01b0393841681529183166020830152909116604082015260600190565b600060018060a01b0385168252836020830152606060408301526116966060830184611597565b95945050505050565b901515815260200190565b60006020825282602083015282846040840137818301604090810191909152601f909201601f19160101919050565b60006020825261138c6020830184611597565b60208082526029908201527f50726f66696c652077697468207468697320746f6b656e55524920616c72656160408201526864792065786973747360b81b606082015260800190565b60208082526017908201527f43616c6c6572206973206e6f7420746865206f776e6572000000000000000000604082015260600190565b6020808252602e908201527f54686973204e66742070726f66696c652069732064697361626c6564206f722060408201526d191bd95cc81b9bdd08195e1a5cdd60921b606082015260800190565b60208082526018908201527f4e66742070726f66696c65206973206e6f7420666f756e640000000000000000604082015260600190565b602080825260029082015261038360f41b604082015260600190565b60208082526024908201527f416d6f756e74207061696420646f6573206e6f74206d61746368206e667420706040820152637269636560e01b606082015260800190565b60208082526023908201527f6e65774f776e65722073686f756c64206e6f74206265207a65726f206164647260408201526265737360e81b606082015260800190565b60208082526019908201527f43616c6c6572206973206e6f7420746865206d616e6167657200000000000000604082015260600190565b6020808252601b908201527f4e667420616464726573732063616e206e6f74206265207a65726f0000000000604082015260600190565b61ffff93841681529183166020830152909116604082015260600190565b90815260200190565b60008882526020888184015287604084015286606084015260e0608084015285518060e0850152825b8181101561196f5787810183015185820161010001528201611952565b81811115611981578361010083870101525b50601f01601f191683016101000191506119a0905060a0830185611591565b6119ad60c0830184611591565b98975050505050505050565b60009081526020902090565b600082198211156119d8576119d8611a89565b500190565b6000826119f857634e487b7160e01b81526012600452602481fd5b500490565b6000816000190483118215151615611a1757611a17611a89565b500290565b600082821015611a2e57611a2e611a89565b500390565b600281046001821680611a4757607f821691505b60208210811415611a6857634e487b7160e01b600052602260045260246000fd5b50919050565b6000600019821415611a8257611a82611a89565b5060010190565b634e487b7160e01b600052601160045260246000fd5b8015158114611aad57600080fd5b5056fea264697066735822122033b1373858c070a56631af03382f3915f2ad7443ee327cc2df7d59b63d1a052164736f6c63430008000033",
  "linkReferences": {},
  "deployedLinkReferences": {}
}