{
  "contracts/nft_marketplace.sol": {
    "NFTMarketplace": {
      "abi": [
        {
          "inputs": [
            {
              "internalType": "address",
              "name": "newNftContractAddress",
              "type": "address"
            },
            {
              "internalType": "address",
              "name": "newERC20Address",
              "type": "address"
            },
            {
              "internalType": "uint256",
              "name": "oldContractMaxId",
              "type": "uint256"
            }
          ],
          "stateMutability": "nonpayable",
          "type": "constructor"
        },
        {
          "anonymous": false,
          "inputs": [
            {
              "indexed": false,
              "internalType": "uint32",
              "name": "profileID",
              "type": "uint32"
            },
            {
              "indexed": false,
              "internalType": "uint256",
              "name": "tokenId",
              "type": "uint256"
            },
            {
              "indexed": false,
              "internalType": "uint256",
              "name": "curSellPrice",
              "type": "uint256"
            }
          ],
          "name": "AdminBurned",
          "type": "event"
        },
        {
          "anonymous": false,
          "inputs": [
            {
              "indexed": false,
              "internalType": "uint32",
              "name": "profileID",
              "type": "uint32"
            },
            {
              "indexed": false,
              "internalType": "uint256",
              "name": "tokenId",
              "type": "uint256"
            },
            {
              "indexed": false,
              "internalType": "address",
              "name": "wallet",
              "type": "address"
            },
            {
              "indexed": false,
              "internalType": "uint256",
              "name": "curPrice",
              "type": "uint256"
            }
          ],
          "name": "AdminMinted",
          "type": "event"
        },
        {
          "anonymous": false,
          "inputs": [
            {
              "indexed": false,
              "internalType": "uint32",
              "name": "profileID",
              "type": "uint32"
            },
            {
              "indexed": false,
              "internalType": "uint256",
              "name": "tokenId",
              "type": "uint256"
            },
            {
              "indexed": false,
              "internalType": "address",
              "name": "wallet",
              "type": "address"
            },
            {
              "indexed": false,
              "internalType": "uint256",
              "name": "curPrice",
              "type": "uint256"
            }
          ],
          "name": "AirdropMinted",
          "type": "event"
        },
        {
          "anonymous": false,
          "inputs": [
            {
              "indexed": false,
              "internalType": "uint32",
              "name": "profileID",
              "type": "uint32"
            },
            {
              "indexed": false,
              "internalType": "uint256",
              "name": "tokenId",
              "type": "uint256"
            },
            {
              "indexed": false,
              "internalType": "address",
              "name": "wallet",
              "type": "address"
            },
            {
              "indexed": false,
              "internalType": "uint256",
              "name": "curSellPrice",
              "type": "uint256"
            }
          ],
          "name": "Burned",
          "type": "event"
        },
        {
          "anonymous": false,
          "inputs": [
            {
              "indexed": false,
              "internalType": "uint32",
              "name": "profileID",
              "type": "uint32"
            },
            {
              "indexed": false,
              "internalType": "uint256",
              "name": "tokenId",
              "type": "uint256"
            },
            {
              "indexed": false,
              "internalType": "address",
              "name": "wallet",
              "type": "address"
            },
            {
              "indexed": false,
              "internalType": "uint256",
              "name": "curPrice",
              "type": "uint256"
            }
          ],
          "name": "Minted",
          "type": "event"
        },
        {
          "anonymous": false,
          "inputs": [
            {
              "indexed": true,
              "internalType": "address",
              "name": "previousOwner",
              "type": "address"
            },
            {
              "indexed": true,
              "internalType": "address",
              "name": "newOwner",
              "type": "address"
            }
          ],
          "name": "OwnershipTransferred",
          "type": "event"
        },
        {
          "anonymous": false,
          "inputs": [
            {
              "indexed": false,
              "internalType": "uint256",
              "name": "amount",
              "type": "uint256"
            },
            {
              "indexed": false,
              "internalType": "address",
              "name": "wallet",
              "type": "address"
            }
          ],
          "name": "TokensDeposited",
          "type": "event"
        },
        {
          "anonymous": false,
          "inputs": [
            {
              "indexed": false,
              "internalType": "uint256",
              "name": "amount",
              "type": "uint256"
            },
            {
              "indexed": false,
              "internalType": "address",
              "name": "wallet",
              "type": "address"
            }
          ],
          "name": "TokensWithdrawn",
          "type": "event"
        },
        {
          "inputs": [
            {
              "internalType": "uint32",
              "name": "profileID",
              "type": "uint32"
            },
            {
              "internalType": "uint256",
              "name": "price",
              "type": "uint256"
            },
            {
              "internalType": "uint256",
              "name": "sell_price",
              "type": "uint256"
            },
            {
              "internalType": "string",
              "name": "url",
              "type": "string"
            },
            {
              "internalType": "uint32",
              "name": "limit",
              "type": "uint32"
            }
          ],
          "name": "addNFTProfile",
          "outputs": [
            {
              "internalType": "bool",
              "name": "",
              "type": "bool"
            }
          ],
          "stateMutability": "nonpayable",
          "type": "function"
        },
        {
          "inputs": [
            {
              "internalType": "uint256",
              "name": "tokenId",
              "type": "uint256"
            }
          ],
          "name": "adminBurn",
          "outputs": [
            {
              "internalType": "bool",
              "name": "",
              "type": "bool"
            }
          ],
          "stateMutability": "nonpayable",
          "type": "function"
        },
        {
          "inputs": [
            {
              "internalType": "uint32",
              "name": "profileID",
              "type": "uint32"
            },
            {
              "internalType": "address",
              "name": "to",
              "type": "address"
            },
            {
              "internalType": "uint256",
              "name": "tokenId",
              "type": "uint256"
            }
          ],
          "name": "adminMint",
          "outputs": [
            {
              "internalType": "uint256",
              "name": "",
              "type": "uint256"
            }
          ],
          "stateMutability": "nonpayable",
          "type": "function"
        },
        {
          "inputs": [
            {
              "internalType": "uint32[]",
              "name": "profileIDs",
              "type": "uint32[]"
            },
            {
              "internalType": "address[]",
              "name": "recipients",
              "type": "address[]"
            }
          ],
          "name": "allowMinting",
          "outputs": [
            {
              "internalType": "bool",
              "name": "",
              "type": "bool"
            }
          ],
          "stateMutability": "nonpayable",
          "type": "function"
        },
        {
          "inputs": [
            {
              "internalType": "uint32",
              "name": "profileID",
              "type": "uint32"
            }
          ],
          "name": "buyNFT",
          "outputs": [
            {
              "internalType": "uint256",
              "name": "",
              "type": "uint256"
            }
          ],
          "stateMutability": "nonpayable",
          "type": "function"
        },
        {
          "inputs": [
            {
              "internalType": "uint32",
              "name": "profileID",
              "type": "uint32"
            },
            {
              "internalType": "address",
              "name": "recipient",
              "type": "address"
            }
          ],
          "name": "checkMintingAvailability",
          "outputs": [
            {
              "internalType": "bool",
              "name": "",
              "type": "bool"
            }
          ],
          "stateMutability": "view",
          "type": "function"
        },
        {
          "inputs": [
            {
              "internalType": "uint256",
              "name": "amount",
              "type": "uint256"
            }
          ],
          "name": "depositTokens",
          "outputs": [
            {
              "internalType": "bool",
              "name": "",
              "type": "bool"
            }
          ],
          "stateMutability": "nonpayable",
          "type": "function"
        },
        {
          "inputs": [],
          "name": "getAirdropManager",
          "outputs": [
            {
              "internalType": "address",
              "name": "",
              "type": "address"
            }
          ],
          "stateMutability": "view",
          "type": "function"
        },
        {
          "inputs": [],
          "name": "getContractTokensBalance",
          "outputs": [
            {
              "internalType": "uint256",
              "name": "",
              "type": "uint256"
            }
          ],
          "stateMutability": "view",
          "type": "function"
        },
        {
          "inputs": [
            {
              "internalType": "uint32",
              "name": "profileID",
              "type": "uint32"
            }
          ],
          "name": "getLimitById",
          "outputs": [
            {
              "internalType": "uint32",
              "name": "",
              "type": "uint32"
            }
          ],
          "stateMutability": "view",
          "type": "function"
        },
        {
          "inputs": [],
          "name": "getNFTContract",
          "outputs": [
            {
              "internalType": "address",
              "name": "",
              "type": "address"
            }
          ],
          "stateMutability": "view",
          "type": "function"
        },
        {
          "inputs": [],
          "name": "getNextTokenId",
          "outputs": [
            {
              "internalType": "uint256",
              "name": "",
              "type": "uint256"
            }
          ],
          "stateMutability": "view",
          "type": "function"
        },
        {
          "inputs": [],
          "name": "getOldContractMaxId",
          "outputs": [
            {
              "internalType": "uint256",
              "name": "",
              "type": "uint256"
            }
          ],
          "stateMutability": "view",
          "type": "function"
        },
        {
          "inputs": [],
          "name": "getPaymentToken",
          "outputs": [
            {
              "internalType": "address",
              "name": "",
              "type": "address"
            }
          ],
          "stateMutability": "view",
          "type": "function"
        },
        {
          "inputs": [
            {
              "internalType": "uint32",
              "name": "profileID",
              "type": "uint32"
            }
          ],
          "name": "getPriceById",
          "outputs": [
            {
              "internalType": "uint256",
              "name": "",
              "type": "uint256"
            }
          ],
          "stateMutability": "view",
          "type": "function"
        },
        {
          "inputs": [],
          "name": "getPriceCurve",
          "outputs": [
            {
              "internalType": "uint256",
              "name": "",
              "type": "uint256"
            }
          ],
          "stateMutability": "view",
          "type": "function"
        },
        {
          "inputs": [],
          "name": "getPriceManager",
          "outputs": [
            {
              "internalType": "address",
              "name": "",
              "type": "address"
            }
          ],
          "stateMutability": "view",
          "type": "function"
        },
        {
          "inputs": [
            {
              "internalType": "uint256",
              "name": "tokenId",
              "type": "uint256"
            }
          ],
          "name": "getProfileIdByTokenId",
          "outputs": [
            {
              "internalType": "uint32",
              "name": "",
              "type": "uint32"
            }
          ],
          "stateMutability": "view",
          "type": "function"
        },
        {
          "inputs": [
            {
              "internalType": "string",
              "name": "url",
              "type": "string"
            }
          ],
          "name": "getProfileIdbyUrl",
          "outputs": [
            {
              "internalType": "uint32",
              "name": "",
              "type": "uint32"
            }
          ],
          "stateMutability": "view",
          "type": "function"
        },
        {
          "inputs": [],
          "name": "getProfilesNumber",
          "outputs": [
            {
              "internalType": "uint256",
              "name": "",
              "type": "uint256"
            }
          ],
          "stateMutability": "view",
          "type": "function"
        },
        {
          "inputs": [
            {
              "internalType": "uint32",
              "name": "profileID",
              "type": "uint32"
            }
          ],
          "name": "getSellPriceById",
          "outputs": [
            {
              "internalType": "uint256",
              "name": "",
              "type": "uint256"
            }
          ],
          "stateMutability": "view",
          "type": "function"
        },
        {
          "inputs": [
            {
              "internalType": "uint256",
              "name": "tokenId",
              "type": "uint256"
            }
          ],
          "name": "getTokenPriceByTokenId",
          "outputs": [
            {
              "internalType": "uint256",
              "name": "",
              "type": "uint256"
            }
          ],
          "stateMutability": "view",
          "type": "function"
        },
        {
          "inputs": [
            {
              "internalType": "uint32",
              "name": "profileID",
              "type": "uint32"
            }
          ],
          "name": "getUrlById",
          "outputs": [
            {
              "internalType": "string",
              "name": "",
              "type": "string"
            }
          ],
          "stateMutability": "view",
          "type": "function"
        },
        {
          "inputs": [],
          "name": "isPriceCurveInternal",
          "outputs": [
            {
              "internalType": "bool",
              "name": "",
              "type": "bool"
            }
          ],
          "stateMutability": "view",
          "type": "function"
        },
        {
          "inputs": [
            {
              "internalType": "uint32",
              "name": "profileID",
              "type": "uint32"
            }
          ],
          "name": "mintAvailableNFT",
          "outputs": [
            {
              "internalType": "uint256",
              "name": "",
              "type": "uint256"
            }
          ],
          "stateMutability": "nonpayable",
          "type": "function"
        },
        {
          "inputs": [
            {
              "internalType": "uint256",
              "name": "",
              "type": "uint256"
            }
          ],
          "name": "nftProfiles",
          "outputs": [
            {
              "internalType": "uint32",
              "name": "id",
              "type": "uint32"
            },
            {
              "internalType": "uint256",
              "name": "price",
              "type": "uint256"
            },
            {
              "internalType": "uint256",
              "name": "sell_price",
              "type": "uint256"
            },
            {
              "internalType": "string",
              "name": "url",
              "type": "string"
            },
            {
              "internalType": "uint32",
              "name": "limit",
              "type": "uint32"
            }
          ],
          "stateMutability": "view",
          "type": "function"
        },
        {
          "inputs": [],
          "name": "owner",
          "outputs": [
            {
              "internalType": "address",
              "name": "",
              "type": "address"
            }
          ],
          "stateMutability": "view",
          "type": "function"
        },
        {
          "inputs": [
            {
              "internalType": "uint32",
              "name": "profileID",
              "type": "uint32"
            }
          ],
          "name": "removeNFTProfileAtId",
          "outputs": [
            {
              "internalType": "bool",
              "name": "",
              "type": "bool"
            }
          ],
          "stateMutability": "nonpayable",
          "type": "function"
        },
        {
          "inputs": [],
          "name": "renounceOwnership",
          "outputs": [],
          "stateMutability": "nonpayable",
          "type": "function"
        },
        {
          "inputs": [
            {
              "internalType": "uint32",
              "name": "profileID",
              "type": "uint32"
            },
            {
              "internalType": "uint256",
              "name": "price",
              "type": "uint256"
            },
            {
              "internalType": "uint256",
              "name": "sell_price",
              "type": "uint256"
            },
            {
              "internalType": "string",
              "name": "url",
              "type": "string"
            },
            {
              "internalType": "uint32",
              "name": "limit",
              "type": "uint32"
            }
          ],
          "name": "replaceNFTProfileAtId",
          "outputs": [
            {
              "internalType": "bool",
              "name": "",
              "type": "bool"
            }
          ],
          "stateMutability": "nonpayable",
          "type": "function"
        },
        {
          "inputs": [
            {
              "internalType": "uint256",
              "name": "tokenId",
              "type": "uint256"
            }
          ],
          "name": "sellNFTBack",
          "outputs": [
            {
              "internalType": "bool",
              "name": "",
              "type": "bool"
            }
          ],
          "stateMutability": "nonpayable",
          "type": "function"
        },
        {
          "inputs": [
            {
              "internalType": "address",
              "name": "newAirdropManager",
              "type": "address"
            }
          ],
          "name": "setAirdropManager",
          "outputs": [
            {
              "internalType": "bool",
              "name": "",
              "type": "bool"
            }
          ],
          "stateMutability": "nonpayable",
          "type": "function"
        },
        {
          "inputs": [],
          "name": "setExternalPriceCurve",
          "outputs": [
            {
              "internalType": "bool",
              "name": "",
              "type": "bool"
            }
          ],
          "stateMutability": "nonpayable",
          "type": "function"
        },
        {
          "inputs": [],
          "name": "setInternalPriceCurve",
          "outputs": [
            {
              "internalType": "bool",
              "name": "",
              "type": "bool"
            }
          ],
          "stateMutability": "nonpayable",
          "type": "function"
        },
        {
          "inputs": [
            {
              "internalType": "address",
              "name": "newNFTContract",
              "type": "address"
            }
          ],
          "name": "setNFTContract",
          "outputs": [
            {
              "internalType": "bool",
              "name": "",
              "type": "bool"
            }
          ],
          "stateMutability": "nonpayable",
          "type": "function"
        },
        {
          "inputs": [
            {
              "internalType": "uint256",
              "name": "setId",
              "type": "uint256"
            }
          ],
          "name": "setNextTokenId",
          "outputs": [
            {
              "internalType": "bool",
              "name": "",
              "type": "bool"
            }
          ],
          "stateMutability": "nonpayable",
          "type": "function"
        },
        {
          "inputs": [
            {
              "internalType": "uint256",
              "name": "oldContractMaxId",
              "type": "uint256"
            }
          ],
          "name": "setOldContractMaxId",
          "outputs": [
            {
              "internalType": "bool",
              "name": "",
              "type": "bool"
            }
          ],
          "stateMutability": "nonpayable",
          "type": "function"
        },
        {
          "inputs": [
            {
              "internalType": "address",
              "name": "newERC20Contract",
              "type": "address"
            }
          ],
          "name": "setPaymentToken",
          "outputs": [
            {
              "internalType": "bool",
              "name": "",
              "type": "bool"
            }
          ],
          "stateMutability": "nonpayable",
          "type": "function"
        },
        {
          "inputs": [
            {
              "internalType": "uint32",
              "name": "profileID",
              "type": "uint32"
            },
            {
              "internalType": "uint256",
              "name": "new_price",
              "type": "uint256"
            }
          ],
          "name": "setPriceById",
          "outputs": [
            {
              "internalType": "bool",
              "name": "",
              "type": "bool"
            }
          ],
          "stateMutability": "nonpayable",
          "type": "function"
        },
        {
          "inputs": [
            {
              "internalType": "uint256",
              "name": "new_curve",
              "type": "uint256"
            }
          ],
          "name": "setPriceCurve",
          "outputs": [
            {
              "internalType": "bool",
              "name": "",
              "type": "bool"
            }
          ],
          "stateMutability": "nonpayable",
          "type": "function"
        },
        {
          "inputs": [
            {
              "internalType": "address",
              "name": "newPriceManager",
              "type": "address"
            }
          ],
          "name": "setPriceManagerRight",
          "outputs": [
            {
              "internalType": "bool",
              "name": "",
              "type": "bool"
            }
          ],
          "stateMutability": "nonpayable",
          "type": "function"
        },
        {
          "inputs": [
            {
              "internalType": "uint32",
              "name": "profileID",
              "type": "uint32"
            },
            {
              "internalType": "uint256",
              "name": "new_price",
              "type": "uint256"
            }
          ],
          "name": "setSellPriceById",
          "outputs": [
            {
              "internalType": "bool",
              "name": "",
              "type": "bool"
            }
          ],
          "stateMutability": "nonpayable",
          "type": "function"
        },
        {
          "inputs": [
            {
              "internalType": "address",
              "name": "newOwner",
              "type": "address"
            }
          ],
          "name": "transferOwnership",
          "outputs": [],
          "stateMutability": "nonpayable",
          "type": "function"
        },
        {
          "inputs": [
            {
              "internalType": "uint32",
              "name": "profileID",
              "type": "uint32"
            },
            {
              "internalType": "uint256",
              "name": "new_price",
              "type": "uint256"
            },
            {
              "internalType": "uint256",
              "name": "new_sell_price",
              "type": "uint256"
            }
          ],
          "name": "updatePricesById",
          "outputs": [
            {
              "internalType": "bool",
              "name": "",
              "type": "bool"
            }
          ],
          "stateMutability": "nonpayable",
          "type": "function"
        },
        {
          "inputs": [
            {
              "internalType": "uint32",
              "name": "profileID",
              "type": "uint32"
            }
          ],
          "name": "viewNFTProfileDetails",
          "outputs": [
            {
              "internalType": "uint256",
              "name": "",
              "type": "uint256"
            },
            {
              "internalType": "uint256",
              "name": "",
              "type": "uint256"
            },
            {
              "internalType": "string",
              "name": "",
              "type": "string"
            },
            {
              "internalType": "uint32",
              "name": "",
              "type": "uint32"
            }
          ],
          "stateMutability": "view",
          "type": "function"
        },
        {
          "inputs": [],
          "name": "viewNFTProfilesPrices",
          "outputs": [
            {
              "internalType": "uint32[]",
              "name": "",
              "type": "uint32[]"
            },
            {
              "internalType": "uint256[]",
              "name": "",
              "type": "uint256[]"
            },
            {
              "internalType": "uint256[]",
              "name": "",
              "type": "uint256[]"
            }
          ],
          "stateMutability": "view",
          "type": "function"
        },
        {
          "inputs": [
            {
              "internalType": "address",
              "name": "to",
              "type": "address"
            },
            {
              "internalType": "uint256",
              "name": "amount",
              "type": "uint256"
            }
          ],
          "name": "withdrawTokens",
          "outputs": [
            {
              "internalType": "bool",
              "name": "",
              "type": "bool"
            }
          ],
          "stateMutability": "nonpayable",
          "type": "function"
        }
      ],
      "evm": {
        "bytecode": {
          "linkReferences": {},
          "object": "60806040526004805460ff60a01b1916600160a01b179055600580553480156200002857600080fd5b5060405162004ac238038062004ac28339810160408190526200004b916200018c565b6200005f620000596200010c565b62000110565b6001600160a01b038316620000915760405162461bcd60e51b81526004016200008890620001cc565b60405180910390fd5b6001600160a01b038216620000ba5760405162461bcd60e51b8152600401620000889062000213565b620000c462000160565b600380546001600160a01b03199081166001600160a01b039384161790915560018054821695831695909517909455600280549094169216919091179091556008556200025c565b3390565b600080546001600160a01b038381166001600160a01b0319831681178455604051919092169283917f8be0079c531659141344cd1fd0a4f28419497f9722a3daafe3b4186f6b6457e09190a35050565b6000546001600160a01b031690565b80516001600160a01b03811681146200018757600080fd5b919050565b600080600060608486031215620001a1578283fd5b620001ac846200016f565b9250620001bc602085016200016f565b9150604084015190509250925092565b60208082526027908201527f4e465420636f6e747261637420616464726573732073686f756c64206e6f74206040820152666265207a65726f60c81b606082015260800190565b60208082526029908201527f455243323020636f6e747261637420616464726573732073686f756c64206e6f60408201526874206265207a65726f60b81b606082015260800190565b614856806200026c6000396000f3fe608060405234801561001057600080fd5b50600436106102955760003560e01c80638da7df2211610167578063bec1de48116100ce578063d41c3a6511610087578063d41c3a6514610592578063dd49756e1461059a578063dec0fc5c146105ad578063f197c7c2146105c0578063f2fde38b146105d3578063f8a623d3146105e657610295565b8063bec1de4814610536578063c9ab22a714610549578063caa0f92a1461055c578063cbfcaed514610564578063cf5b281614610577578063d3c5f1371461057f57610295565b8063a2a424d111610120578063a2a424d1146104b7578063a77cefc4146104ca578063a7ccabdf146104ea578063a8f621ea146104fd578063b6749d9414610510578063badb97ff1461052357610295565b80638da7df221461045957806390b7ac1a1461046157806393fcffe614610474578063940a14551461048757806394d212e6146104a75780639609f6c7146104af57610295565b806334a2a4e11161020b5780636a326ab1116101c45780636a326ab1146103ea578063715018a6146103fd57806377476c7b1461040757806383e3500f1461041a5780638cec79461461042d5780638da5cb5b1461045157610295565b806334a2a4e11461037f57806345f40362146103875780635230bcdf1461039a578063571766b2146103b15780635d7dc9da146103c45780635d82c462146103d757610295565b8063156b1d371161025d578063156b1d371461032357806318fdec7e1461033657806319e1f486146103495780631ba9bdac1461035c57806329598630146103645780632b1f4ad61461037757610295565b806302d1003b1461029a578063061584eb146102c357806306b091f9146102cb5780630ea638a3146102eb57806312c178a61461030e575b600080fd5b6102ad6102a8366004613b18565b6105ee565b6040516102ba9190614527565b60405180910390f35b6102ad61066d565b6102de6102d9366004613948565b610673565b6040516102ba9190613ed4565b6102fe6102f9366004613b18565b610883565b6040516102ba9493929190614547565b610316610a60565b6040516102ba9190613d79565b6102de610331366004613bf3565b610a6f565b6102de610344366004613909565b610d23565b6102de610357366004613ae8565b610daf565b6102de61131e565b6102de610372366004613ba6565b611381565b610316611465565b6102ad611474565b6102ad610395366004613b68565b61147a565b6103a261176e565b6040516102ba93929190613e62565b6102de6103bf366004613b32565b6119df565b6102de6103d2366004613bf3565b611a12565b6102ad6103e5366004613b18565b611c8d565b6102de6103f8366004613909565b611d0b565b610405611d97565b005b6102de610415366004613ba6565b611de2565b6102de610428366004613ae8565b611ec8565b61044061043b366004613ae8565b611f21565b6040516102ba9594939291906145d8565b610316611ffc565b6102de61200b565b6102de61046f366004613973565b61201b565b6102ad610482366004613b18565b6121c1565b61049a610495366004613b18565b6123ef565b6040516102ba919061457d565b6102ad612476565b6102ad6124fc565b6102ad6104c5366004613b18565b612502565b6104dd6104d8366004613b18565b6129a1565b6040516102ba9190613edf565b6102de6104f8366004613909565b612ab7565b6102ad61050b366004613ae8565b612b41565b61049a61051e366004613ae8565b612bca565b6102de610531366004613ae8565b612bdb565b6102de610544366004613909565b612de4565b6102de610557366004613bc1565b612e70565b6102ad612f8e565b6102de610572366004613b18565b612f94565b6102de61308f565b61049a61058d3660046139fc565b6130f8565b610316613143565b6102de6105a8366004613ae8565b613152565b6102de6105bb366004613ae8565b61329d565b6102de6105ce366004613ae8565b6132f6565b6104056105e1366004613909565b613340565b6103166133b1565b63ffffffff811660009081526009602052604081205461061057506000610668565b63ffffffff8216600090815260096020526040902054600690610635906001906146c2565b8154811061065357634e487b7160e01b600052603260045260246000fd5b90600052602060002090600502016002015490505b919050565b60065490565b600061067d6133c0565b6001600160a01b031661068e611ffc565b6001600160a01b0316146106bd5760405162461bcd60e51b81526004016106b490614270565b60405180910390fd5b600082116106dd5760405162461bcd60e51b81526004016106b4906141dc565b6001600160a01b0383166107035760405162461bcd60e51b81526004016106b490614152565b6002546040516370a0823160e01b815283916001600160a01b0316906370a0823190610733903090600401613d79565b60206040518083038186803b15801561074b57600080fd5b505afa15801561075f573d6000803e3d6000fd5b505050506040513d601f19601f820116820180604052508101906107839190613b00565b10156107a15760405162461bcd60e51b81526004016106b490614059565b60025460405163a9059cbb60e01b81526001600160a01b039091169063a9059cbb906107d39086908690600401613db1565b602060405180830381600087803b1580156107ed57600080fd5b505af1158015610801573d6000803e3d6000fd5b505050506040513d601f19601f8201168201806040525081019061082591906139dc565b6108415760405162461bcd60e51b81526004016106b49061402c565b7f0ddddc48b57dd67f8fa2ff05c78034b578c31ef5caa05b03d2ca16feadbbb98f8284604051610872929190614530565b60405180910390a150600192915050565b63ffffffff8116600090815260096020526040812054819060609082906108c45750506040805160208101909152600080825292508291506298967f610a59565b63ffffffff85166000908152600960205260408120546108e6906001906146c2565b90506006818154811061090957634e487b7160e01b600052603260045260246000fd5b9060005260206000209060050201600101546006828154811061093c57634e487b7160e01b600052603260045260246000fd5b9060005260206000209060050201600201546006838154811061096f57634e487b7160e01b600052603260045260246000fd5b9060005260206000209060050201600301600684815481106109a157634e487b7160e01b600052603260045260246000fd5b906000526020600020906005020160040160009054906101000a900463ffffffff168180546109cf90614765565b80601f01602080910402602001604051908101604052809291908181526020018280546109fb90614765565b8015610a485780601f10610a1d57610100808354040283529160200191610a48565b820191906000526020600020905b815481529060010190602001808311610a2b57829003601f168201915b505050505091509450945094509450505b9193509193565b6004546001600160a01b031690565b6003546000906001600160a01b0316331480610aa35750610a8e611ffc565b6001600160a01b0316336001600160a01b0316145b610abf5760405162461bcd60e51b81526004016106b49061421e565b63ffffffff8716600090815260096020526040902054610af15760405162461bcd60e51b81526004016106b490613fe9565b60008484604051610b03929190613cfa565b60408051918290039091206000818152600c602052919091205490915063ffffffff161580610b4857506000818152600c602052604090205463ffffffff8981169116145b610b645760405162461bcd60e51b81526004016106b490614409565b63ffffffff8816600090815260096020526040812054610b86906001906146c2565b90506000600c600060068481548110610baf57634e487b7160e01b600052603260045260246000fd5b9060005260206000209060050201600301604051610bcd9190613d0a565b604080519182900390912082526020808301939093529081016000908120805463ffffffff95861663ffffffff1991821617909155868252600c8452908290208054948e169490911684179055805160a0810182529283528282018b90528281018a90528051601f89018390048302810183019091528781526060830191899089908190840183828082843760009201919091525050509082525063ffffffff86166020909101526006805483908110610c9757634e487b7160e01b600052603260045260246000fd5b6000918252602091829020835160059290920201805463ffffffff191663ffffffff90921691909117815582820151600182015560408301516002820155606083015180519192610cf092600385019290910190613760565b50608091909101516004909101805463ffffffff191663ffffffff90921691909117905550600198975050505050505050565b6000610d2d6133c0565b6001600160a01b0316610d3e611ffc565b6001600160a01b031614610d645760405162461bcd60e51b81526004016106b490614270565b6001600160a01b038216610d8a5760405162461bcd60e51b81526004016106b4906140d3565b50600380546001600160a01b0383166001600160a01b03199091161790556001919050565b6000610dba336133c4565b15610dd75760405162461bcd60e51b81526004016106b490614309565b6001546040516331a9108f60e11b815233916001600160a01b031690636352211e90610e07908690600401614527565b60206040518083038186803b158015610e1f57600080fd5b505afa158015610e33573d6000803e3d6000fd5b505050506040513d601f19601f82011682018060405250810190610e57919061392c565b6001600160a01b031614610e7d5760405162461bcd60e51b81526004016106b490614391565b6000610e88836133d0565b905060008163ffffffff1611610eb05760405162461bcd60e51b81526004016106b49061411b565b63ffffffff8116600090815260096020526040812054610ed2906001906146c2565b9050600060068281548110610ef757634e487b7160e01b600052603260045260246000fd5b60009182526020909120600260059092020181015490546040516370a0823160e01b815291925082916001600160a01b03909116906370a0823190610f40903090600401613d79565b60206040518083038186803b158015610f5857600080fd5b505afa158015610f6c573d6000803e3d6000fd5b505050506040513d601f19601f82011682018060405250810190610f909190613b00565b1015610fae5760405162461bcd60e51b81526004016106b490613ef2565b6000858152600b602052604090205463ffffffff1615610fe2576000858152600b60205260409020805463ffffffff191690555b6006828154811061100357634e487b7160e01b600052603260045260246000fd5b600091825260208220600460059092020101805463ffffffff1691611027836147bb565b82546101009290920a63ffffffff81810219909316918316021790915584166000908152600a60205260409020541590506110835763ffffffff83166000908152600a6020526040812080549161107d8361472e565b91905055505b600154604051630852cd8d60e31b81526001600160a01b03909116906342966c68906110b3908890600401614527565b600060405180830381600087803b1580156110cd57600080fd5b505af11580156110e1573d6000803e3d6000fd5b5050600454600160a01b900460ff161591506112369050576005546111079060646146c2565b6006838154811061112857634e487b7160e01b600052603260045260246000fd5b9060005260206000209060050201600101600082825461114891906146a3565b9250508190555060646006838154811061117257634e487b7160e01b600052603260045260246000fd5b906000526020600020906005020160010160008282546111929190614683565b90915550506005546111a59060646146c2565b600683815481106111c657634e487b7160e01b600052603260045260246000fd5b906000526020600020906005020160020160008282546111e691906146a3565b9250508190555060646006838154811061121057634e487b7160e01b600052603260045260246000fd5b906000526020600020906005020160020160008282546112309190614683565b90915550505b7f474d6188a0935b1c81c51a2b50feaa24683eddf88908af6fb56e657989179a4f8386338460405161126b949392919061458e565b60405180910390a160025460405163a9059cbb60e01b81526001600160a01b039091169063a9059cbb906112a59033908590600401613db1565b602060405180830381600087803b1580156112bf57600080fd5b505af11580156112d3573d6000803e3d6000fd5b505050506040513d601f19601f820116820180604052508101906112f791906139dc565b6113135760405162461bcd60e51b81526004016106b49061402c565b506001949350505050565b6003546000906001600160a01b0316331480611352575061133d611ffc565b6001600160a01b0316336001600160a01b0316145b61136e5760405162461bcd60e51b81526004016106b49061421e565b506004805460ff60a01b19169055600190565b6003546000906001600160a01b03163314806113b557506113a0611ffc565b6001600160a01b0316336001600160a01b0316145b6113d15760405162461bcd60e51b81526004016106b49061421e565b63ffffffff83166000908152600960205260409020546114035760405162461bcd60e51b81526004016106b490613fe9565b63ffffffff8316600090815260096020526040902054829060069061142a906001906146c2565b8154811061144857634e487b7160e01b600052603260045260246000fd5b600091825260209091206002600590920201015550600192915050565b6001546001600160a01b031690565b60085490565b6003546000906001600160a01b03163314806114ae5750611499611ffc565b6001600160a01b0316336001600160a01b0316145b6114ca5760405162461bcd60e51b81526004016106b49061421e565b63ffffffff84166000908152600960205260409020546114fc5760405162461bcd60e51b81526004016106b490613fe9565b6000828152600b602052604090205463ffffffff161561152e5760405162461bcd60e51b81526004016106b490613f6c565b6001546040516331a9108f60e11b81526001600160a01b0390911690636352211e9061155e908590600401614527565b60206040518083038186803b15801561157657600080fd5b505afa9250505080156115a6575060408051601f3d908101601f191682019092526115a39181019061392c565b60015b6115af576115c7565b60405162461bcd60e51b81526004016106b490613f6c565b6001600160a01b0383166115ed5760405162461bcd60e51b81526004016106b490614152565b63ffffffff841660009081526009602052604081205461160f906001906146c2565b63ffffffff86166000908152600a60205260408120805492935090611633836147a0565b90915550506000838152600b60205260409020805463ffffffff191663ffffffff8716179055600154600680546001600160a01b039092169163d3fc98649187918791908690811061169557634e487b7160e01b600052603260045260246000fd5b90600052602060002090600502016003016040518463ffffffff1660e01b81526004016116c493929190613dca565b600060405180830381600087803b1580156116de57600080fd5b505af11580156116f2573d6000803e3d6000fd5b505050507f07758c1736fe471cbbfb2decfd56015182a376e8753b390846fa0c3a23036b348584866006858154811061173b57634e487b7160e01b600052603260045260246000fd5b90600052602060002090600502016001015460405161175d949392919061458e565b60405180910390a150909392505050565b6060806060600060068054905067ffffffffffffffff8111156117a157634e487b7160e01b600052604160045260246000fd5b6040519080825280602002602001820160405280156117ca578160200160208202803683370190505b5060065490915060009067ffffffffffffffff8111156117fa57634e487b7160e01b600052604160045260246000fd5b604051908082528060200260200182016040528015611823578160200160208202803683370190505b5060065490915060009067ffffffffffffffff81111561185357634e487b7160e01b600052604160045260246000fd5b60405190808252806020026020018201604052801561187c578160200160208202803683370190505b50905060005b6006548110156119d257600681815481106118ad57634e487b7160e01b600052603260045260246000fd5b6000918252602090912060059091020154845163ffffffff909116908590839081106118e957634e487b7160e01b600052603260045260246000fd5b602002602001019063ffffffff16908163ffffffff16815250506006818154811061192457634e487b7160e01b600052603260045260246000fd5b90600052602060002090600502016001015483828151811061195657634e487b7160e01b600052603260045260246000fd5b6020026020010181815250506006818154811061198357634e487b7160e01b600052603260045260246000fd5b9060005260206000209060050201600201548282815181106119b557634e487b7160e01b600052603260045260246000fd5b6020908102919091010152806119ca816147a0565b915050611882565b5091945092509050909192565b63ffffffff82166000908152600d602090815260408083206001600160a01b038516845290915290205460ff1692915050565b6003546000906001600160a01b0316331480611a465750611a31611ffc565b6001600160a01b0316336001600160a01b0316145b611a625760405162461bcd60e51b81526004016106b49061421e565b60006040518060a001604052808963ffffffff16815260200188815260200187815260200186868080601f016020809104026020016040519081016040528093929190818152602001838380828437600092018290525093855250505063ffffffff8087166020938401528b1681526009909152604090205490915015611afb5760405162461bcd60e51b81526004016106b4906143c8565b60008585604051611b0d929190613cfa565b60408051918290039091206000818152600c602052919091205490915063ffffffff1615611b4d5760405162461bcd60e51b81526004016106b490614409565b6006805460018101825560009190915282517ff652222313e28459528d920b65115c16c04f3efc82aaedc97be59f3f377c0d3f6005909202918201805463ffffffff191663ffffffff9092169190911781556020808501517ff652222313e28459528d920b65115c16c04f3efc82aaedc97be59f3f377c0d4084015560408501517ff652222313e28459528d920b65115c16c04f3efc82aaedc97be59f3f377c0d41840155606085015180518694611c2b937ff652222313e28459528d920b65115c16c04f3efc82aaedc97be59f3f377c0d42909101920190613760565b50608091909101516004909101805463ffffffff92831663ffffffff1991821617909155600654918b16600081815260096020908152604080832095909555948152600c90945291909220805490921617905550600190509695505050505050565b63ffffffff8116600090815260096020526040812054611caf57506000610668565b63ffffffff8216600090815260096020526040902054600690611cd4906001906146c2565b81548110611cf257634e487b7160e01b600052603260045260246000fd5b9060005260206000209060050201600101549050919050565b6000611d156133c0565b6001600160a01b0316611d26611ffc565b6001600160a01b031614611d4c5760405162461bcd60e51b81526004016106b490614270565b6001600160a01b038216611d725760405162461bcd60e51b81526004016106b490614494565b50600280546001600160a01b0383166001600160a01b03199091161790556001919050565b611d9f6133c0565b6001600160a01b0316611db0611ffc565b6001600160a01b031614611dd65760405162461bcd60e51b81526004016106b490614270565b611de06000613434565b565b6003546000906001600160a01b0316331480611e165750611e01611ffc565b6001600160a01b0316336001600160a01b0316145b611e325760405162461bcd60e51b81526004016106b49061421e565b63ffffffff8316600090815260096020526040902054611e645760405162461bcd60e51b81526004016106b490613fe9565b63ffffffff83166000908152600960205260409020548290600690611e8b906001906146c2565b81548110611ea957634e487b7160e01b600052603260045260246000fd5b9060005260206000209060050201600101819055506001905092915050565b6003546000906001600160a01b0316331480611efc5750611ee7611ffc565b6001600160a01b0316336001600160a01b0316145b611f185760405162461bcd60e51b81526004016106b49061421e565b50600755600190565b60068181548110611f3157600080fd5b6000918252602090912060059091020180546001820154600283015460038401805463ffffffff909416955091939092909190611f6d90614765565b80601f0160208091040260200160405190810160405280929190818152602001828054611f9990614765565b8015611fe65780601f10611fbb57610100808354040283529160200191611fe6565b820191906000526020600020905b815481529060010190602001808311611fc957829003601f168201915b5050506004909301549192505063ffffffff1685565b6000546001600160a01b031690565b600454600160a01b900460ff1690565b6004546000906001600160a01b031633148061204f575061203a611ffc565b6001600160a01b0316336001600160a01b0316145b61206b5760405162461bcd60e51b81526004016106b490614440565b83821461208a5760405162461bcd60e51b81526004016106b490613f29565b60005b848110156121b557600960008787848181106120b957634e487b7160e01b600052603260045260246000fd5b90506020020160208101906120ce9190613b18565b63ffffffff1681526020810191909152604001600020546120ee576121a3565b6001600d600088888581811061211457634e487b7160e01b600052603260045260246000fd5b90506020020160208101906121299190613b18565b63ffffffff1663ffffffff168152602001908152602001600020600086868581811061216557634e487b7160e01b600052603260045260246000fd5b905060200201602081019061217a9190613909565b6001600160a01b031681526020810191909152604001600020805460ff19169115159190911790555b806121ad816147a0565b91505061208d565b50600195945050505050565b63ffffffff81166000908152600d6020908152604080832033845290915281205460ff166122015760405162461bcd60e51b81526004016106b49061434b565b63ffffffff82166000908152600960205260409020546122335760405162461bcd60e51b81526004016106b490613fe9565b63ffffffff8216600090815260096020526040812054612255906001906146c2565b600780549192506000612267836147a0565b909155505063ffffffff83166000908152600a6020526040812080549161228d836147a0565b9091555050600780546000908152600b60209081526040808320805463ffffffff191663ffffffff89169081179091558352600d8252808320338085529252909120805460ff191690556001549154600680546001600160a01b039094169363d3fc9864939291908690811061231357634e487b7160e01b600052603260045260246000fd5b90600052602060002090600502016003016040518463ffffffff1660e01b815260040161234293929190613dca565b600060405180830381600087803b15801561235c57600080fd5b505af1158015612370573d6000803e3d6000fd5b505050507f1b355ac6fc881bc27762124d8df069fbe016a461aa27040c8b97fb00a481be448360075433600685815481106123bb57634e487b7160e01b600052603260045260246000fd5b9060005260206000209060050201600101546040516123dd949392919061458e565b60405180910390a15050600754919050565b63ffffffff811660009081526009602052604081205461241357506298967f610668565b63ffffffff8216600090815260096020526040902054600690612438906001906146c2565b8154811061245657634e487b7160e01b600052603260045260246000fd5b600091825260209091206005909102016004015463ffffffff1692915050565b6002546040516370a0823160e01b81526000916001600160a01b0316906370a08231906124a7903090600401613d79565b60206040518083038186803b1580156124bf57600080fd5b505afa1580156124d3573d6000803e3d6000fd5b505050506040513d601f19601f820116820180604052508101906124f79190613b00565b905090565b60055490565b600061250d336133c4565b1561252a5760405162461bcd60e51b81526004016106b490614309565b63ffffffff821660009081526009602052604090205461255c5760405162461bcd60e51b81526004016106b490613fe9565b63ffffffff821660009081526009602052604081205461257e906001906146c2565b90506000600682815481106125a357634e487b7160e01b600052603260045260246000fd5b600091825260209091206004600590920201015463ffffffff16116125da5760405162461bcd60e51b81526004016106b4906140a8565b600681815481106125fb57634e487b7160e01b600052603260045260246000fd5b600091825260208220600460059092020101805463ffffffff169161261f83614745565b91906101000a81548163ffffffff021916908363ffffffff1602179055505060006006828154811061266157634e487b7160e01b600052603260045260246000fd5b906000526020600020906005020160010154905060076000815480929190612688906147a0565b909155505063ffffffff84166000908152600a602052604081208054916126ae836147a0565b90915550506007546000908152600b602052604090819020805463ffffffff191663ffffffff871617905560025490516323b872dd60e01b81526001600160a01b03909116906323b872dd9061270c90339030908690600401613d8d565b602060405180830381600087803b15801561272657600080fd5b505af115801561273a573d6000803e3d6000fd5b505050506040513d601f19601f8201168201806040525081019061275e91906139dc565b61276757600080fd5b600154600754600680546001600160a01b039093169263d3fc98649233929091879081106127a557634e487b7160e01b600052603260045260246000fd5b90600052602060002090600502016003016040518463ffffffff1660e01b81526004016127d493929190613dca565b600060405180830381600087803b1580156127ee57600080fd5b505af1158015612802573d6000803e3d6000fd5b5050600454600160a01b900460ff1615915061295790505760055461282890606461466b565b6006838154811061284957634e487b7160e01b600052603260045260246000fd5b9060005260206000209060050201600101600082825461286991906146a3565b9250508190555060646006838154811061289357634e487b7160e01b600052603260045260246000fd5b906000526020600020906005020160010160008282546128b39190614683565b90915550506005546128c690606461466b565b600683815481106128e757634e487b7160e01b600052603260045260246000fd5b9060005260206000209060050201600201600082825461290791906146a3565b9250508190555060646006838154811061293157634e487b7160e01b600052603260045260246000fd5b906000526020600020906005020160020160008282546129519190614683565b90915550505b7fcae7f75822ae2f0fab2b77a5faf0b51c6a3b09b495783bd615a5b18472c6cc6184600754338460405161298e949392919061458e565b60405180910390a1505060075492915050565b63ffffffff81166000908152600960205260409020546060906129d35750604080516020810190915260008152610668565b63ffffffff82166000908152600960205260409020546006906129f8906001906146c2565b81548110612a1657634e487b7160e01b600052603260045260246000fd5b90600052602060002090600502016003018054612a3290614765565b80601f0160208091040260200160405190810160405280929190818152602001828054612a5e90614765565b8015612aab5780601f10612a8057610100808354040283529160200191612aab565b820191906000526020600020905b815481529060010190602001808311612a8e57829003601f168201915b50505050509050919050565b6000612ac16133c0565b6001600160a01b0316612ad2611ffc565b6001600160a01b031614612af85760405162461bcd60e51b81526004016106b490614270565b6001600160a01b038216612b1e5760405162461bcd60e51b81526004016106b490614195565b50600180546001600160a01b0383166001600160a01b0319909116178155919050565b600080612b4d836133d0565b905063ffffffff8116612b64576000915050610668565b63ffffffff81166298967f1415612b7f576000915050610668565b6006612b8c6001836146d9565b63ffffffff1681548110612bb057634e487b7160e01b600052603260045260246000fd5b906000526020600020906005020160020154915050919050565b6000612bd5826133d0565b92915050565b6003546000906001600160a01b0316331480612c0f5750612bfa611ffc565b6001600160a01b0316336001600160a01b0316145b612c2b5760405162461bcd60e51b81526004016106b49061421e565b6000612c36836133d0565b905060008163ffffffff1611612c5e5760405162461bcd60e51b81526004016106b49061411b565b63ffffffff8116600090815260096020526040812054612c80906001906146c2565b9050600060068281548110612ca557634e487b7160e01b600052603260045260246000fd5b90600052602060002090600502016002015490506000600a60008563ffffffff1663ffffffff168152602001908152602001600020541115612d085763ffffffff83166000908152600a60205260408120805491612d028361472e565b91905055505b6000858152600b602052604090205463ffffffff1615612d3c576000858152600b60205260409020805463ffffffff191690555b600154604051630852cd8d60e31b81526001600160a01b03909116906342966c6890612d6c908890600401614527565b600060405180830381600087803b158015612d8657600080fd5b505af1158015612d9a573d6000803e3d6000fd5b505050507febef1f55d2fb294cd47be007b2c6b482c84f4262793f7a9457c3b7141d26f13c838683604051612dd1939291906145ba565b60405180910390a1506001949350505050565b6000612dee6133c0565b6001600160a01b0316612dff611ffc565b6001600160a01b031614612e255760405162461bcd60e51b81526004016106b490614270565b6001600160a01b038216612e4b5760405162461bcd60e51b81526004016106b4906144dd565b50600480546001600160a01b0383166001600160a01b03199091161790556001919050565b6003546000906001600160a01b0316331480612ea45750612e8f611ffc565b6001600160a01b0316336001600160a01b0316145b612ec05760405162461bcd60e51b81526004016106b49061421e565b63ffffffff8416600090815260096020526040902054612ef25760405162461bcd60e51b81526004016106b490613fe9565b63ffffffff8416600090815260096020526040812054612f14906001906146c2565b90508360068281548110612f3857634e487b7160e01b600052603260045260246000fd5b9060005260206000209060050201600101819055508260068281548110612f6f57634e487b7160e01b600052603260045260246000fd5b6000918252602090912060026005909202010155506001949350505050565b60075490565b6003546000906001600160a01b0316331480612fc85750612fb3611ffc565b6001600160a01b0316336001600160a01b0316145b612fe45760405162461bcd60e51b81526004016106b49061421e565b63ffffffff82166000908152600960205260409020546130165760405162461bcd60e51b81526004016106b490613fe9565b63ffffffff82166000908152600a6020526040902054156130495760405162461bcd60e51b81526004016106b4906142a5565b63ffffffff82166000908152600960205260409020546130749061306f906001906146c2565b613484565b5063ffffffff16600090815260096020526040812055600190565b6003546000906001600160a01b03163314806130c357506130ae611ffc565b6001600160a01b0316336001600160a01b0316145b6130df5760405162461bcd60e51b81526004016106b49061421e565b506004805460ff60a01b1916600160a01b179055600190565b80516020808301919091206000818152600c909252604082205463ffffffff16613128576298967f915050610668565b6000908152600c602052604090205463ffffffff1692915050565b6002546001600160a01b031690565b600061315c6133c0565b6001600160a01b031661316d611ffc565b6001600160a01b0316146131935760405162461bcd60e51b81526004016106b490614270565b600082116131b35760405162461bcd60e51b81526004016106b4906141dc565b6002546040516323b872dd60e01b81526001600160a01b03909116906323b872dd906131e790339030908790600401613d8d565b602060405180830381600087803b15801561320157600080fd5b505af1158015613215573d6000803e3d6000fd5b505050506040513d601f19601f8201168201806040525081019061323991906139dc565b6132555760405162461bcd60e51b81526004016106b4906142dc565b7fbb18388c519fe4b4b577b17f416832c870492be5510cdb062b086c0a0025d7888261327f611ffc565b60405161328d929190614530565b60405180910390a1506001919050565b6003546000906001600160a01b03163314806132d157506132bc611ffc565b6001600160a01b0316336001600160a01b0316145b6132ed5760405162461bcd60e51b81526004016106b49061421e565b50600555600190565b60006133006133c0565b6001600160a01b0316613311611ffc565b6001600160a01b0316146133375760405162461bcd60e51b81526004016106b490614270565b50600855600190565b6133486133c0565b6001600160a01b0316613359611ffc565b6001600160a01b03161461337f5760405162461bcd60e51b81526004016106b490614270565b6001600160a01b0381166133a55760405162461bcd60e51b81526004016106b490613fa3565b6133ae81613434565b50565b6003546001600160a01b031690565b3390565b3b63ffffffff16151590565b6000818152600b602052604081205463ffffffff1661341b576008548211156133fd57506298967f610668565b6000613408836136be565b9050613413816130f8565b915050610668565b506000908152600b602052604090205463ffffffff1690565b600080546001600160a01b038381166001600160a01b0319831681178455604051919092169283917f8be0079c531659141344cd1fd0a4f28419497f9722a3daafe3b4186f6b6457e09190a35050565b6006548110613492576133ae565b6000600c6000600684815481106134b957634e487b7160e01b600052603260045260246000fd5b90600052602060002090600502016003016040516134d79190613d0a565b60408051918290039091208252602082019290925201600020805463ffffffff191663ffffffff92909216919091179055600654613517906001906146c2565b81101561364f576006805461352e906001906146c2565b8154811061354c57634e487b7160e01b600052603260045260246000fd5b90600052602060002090600502016006828154811061357b57634e487b7160e01b600052603260045260246000fd5b600091825260209091208254600590920201805463ffffffff191663ffffffff909216919091178155600180830154908201556002808301549082015560038083018054918301916135cc90614765565b6135d79291906137e4565b506004918201549101805463ffffffff191663ffffffff90921691909117905561360281600161466b565b600960006006848154811061362757634e487b7160e01b600052603260045260246000fd5b6000918252602080832060059092029091015463ffffffff1683528201929092526040019020555b600680548061366e57634e487b7160e01b600052603160045260246000fd5b600082815260208120600560001990930192830201805463ffffffff191681556001810182905560028101829055906136aa600383018261385f565b50600401805463ffffffff19169055905550565b60015460405163c87b56dd60e01b81526060916001600160a01b03169063c87b56dd906136ef908590600401614527565b60006040518083038186803b15801561370757600080fd5b505afa92505050801561373c57506040513d6000823e601f3d908101601f191682016040526137399190810190613a75565b60015b6137455761374c565b9050610668565b505060408051602081019091526000815290565b82805461376c90614765565b90600052602060002090601f01602090048101928261378e57600085556137d4565b82601f106137a757805160ff19168380011785556137d4565b828001600101855582156137d4579182015b828111156137d45782518255916020019190600101906137b9565b506137e0929150613897565b5090565b8280546137f090614765565b90600052602060002090601f01602090048101928261381257600085556137d4565b82601f1061382357805485556137d4565b828001600101855582156137d457600052602060002091601f016020900482015b828111156137d4578254825591600101919060010190613844565b50805461386b90614765565b6000825580601f1061387d57506133ae565b601f0160209004906000526020600020908101906133ae91905b5b808211156137e05760008155600101613898565b60008083601f8401126138bd578182fd5b50813567ffffffffffffffff8111156138d4578182fd5b60208301915083602080830285010111156138ee57600080fd5b9250929050565b803563ffffffff8116811461066857600080fd5b60006020828403121561391a578081fd5b81356139258161480b565b9392505050565b60006020828403121561393d578081fd5b81516139258161480b565b6000806040838503121561395a578081fd5b82356139658161480b565b946020939093013593505050565b60008060008060408587031215613988578182fd5b843567ffffffffffffffff8082111561399f578384fd5b6139ab888389016138ac565b909650945060208701359150808211156139c3578384fd5b506139d0878288016138ac565b95989497509550505050565b6000602082840312156139ed578081fd5b81518015158114613925578182fd5b600060208284031215613a0d578081fd5b813567ffffffffffffffff811115613a23578182fd5b8201601f81018413613a33578182fd5b8035613a46613a4182614643565b614619565b818152856020838501011115613a5a578384fd5b81602084016020830137908101602001929092525092915050565b600060208284031215613a86578081fd5b815167ffffffffffffffff811115613a9c578182fd5b8201601f81018413613aac578182fd5b8051613aba613a4182614643565b818152856020838501011115613ace578384fd5b613adf8260208301602086016146fe565b95945050505050565b600060208284031215613af9578081fd5b5035919050565b600060208284031215613b11578081fd5b5051919050565b600060208284031215613b29578081fd5b613925826138f5565b60008060408385031215613b44578182fd5b613b4d836138f5565b91506020830135613b5d8161480b565b809150509250929050565b600080600060608486031215613b7c578283fd5b613b85846138f5565b92506020840135613b958161480b565b929592945050506040919091013590565b60008060408385031215613bb8578182fd5b613965836138f5565b600080600060608486031215613bd5578081fd5b613bde846138f5565b95602085013595506040909401359392505050565b60008060008060008060a08789031215613c0b578384fd5b613c14876138f5565b95506020870135945060408701359350606087013567ffffffffffffffff80821115613c3e578384fd5b818901915089601f830112613c51578384fd5b813581811115613c5f578485fd5b8a6020828501011115613c70578485fd5b602083019550809450505050613c88608088016138f5565b90509295509295509295565b6000815180845260208085019450808401835b83811015613cc357815187529582019590820190600101613ca7565b509495945050505050565b60008151808452613ce68160208601602086016146fe565b601f01601f19169290920160200192915050565b6000828483379101908152919050565b6000808354613d1881614765565b60018281168015613d305760018114613d4157613d6d565b60ff19841687528287019450613d6d565b8786526020808720875b85811015613d645781548a820152908401908201613d4b565b50505082870194505b50929695505050505050565b6001600160a01b0391909116815260200190565b6001600160a01b039384168152919092166020820152604081019190915260600190565b6001600160a01b03929092168252602082015260400190565b600060018060a01b03851682526020848184015260606040840152818454613df181614765565b8060608701526080600180841660008114613e135760018114613e2757613e52565b60ff1985168984015260a089019550613e52565b898852868820885b85811015613e4a5781548b8201860152908301908801613e2f565b8a0184019650505b50939a9950505050505050505050565b606080825284519082018190526000906020906080840190828801845b82811015613ea157815163ffffffff1684529284019290840190600101613e7f565b50505083810382850152613eb58187613c94565b9150508281036040840152613eca8185613c94565b9695505050505050565b901515815260200190565b6000602082526139256020830184613cce565b6020808252601d908201527f496e73756666696369656e742045544e41206f6e20636f6e7472616374000000604082015260600190565b60208082526023908201527f4172726179732073686f756c64206265206f66207468652073616d65206c656e6040820152620cee8d60eb1b606082015260800190565b6020808252601f908201527f4e46542077697468207468697320494420616c72656164792065786973747300604082015260600190565b60208082526026908201527f4f776e61626c653a206e6577206f776e657220697320746865207a65726f206160408201526564647265737360d01b606082015260800190565b60208082526023908201527f50726f66696c652077697468207468697320494420646f6573206e6f742065786040820152621a5cdd60ea1b606082015260800190565b60208082526013908201527211551390481c185e5b595b9d0819985a5b1959606a1b604082015260600190565b6020808252602f908201527f416d6f756e742063616e206e6f742062652067726561746572207468616e206360408201526e6f6e74726163742062616c616e636560881b606082015260800190565b6020808252601190820152702a3432903634b6b4ba1034b99037bb32b960791b604082015260600190565b60208082526028908201527f5072696365206d616e6167657220616464726573732073686f756c64206e6f74604082015267206265207a65726f60c01b606082015260800190565b60208082526018908201527f4e46542070726f66696c65204944206e6f7420666f756e640000000000000000604082015260600190565b60208082526023908201527f526563656976657220616464726573732073686f756c64206e6f74206265207a60408201526265726f60e81b606082015260800190565b60208082526027908201527f4e465420636f6e747261637420616464726573732073686f756c64206e6f74206040820152666265207a65726f60c81b606082015260800190565b60208082526022908201527f416d6f756e742073686f756c642062652067726561746572207468616e207a65604082015261726f60f01b606082015260800190565b60208082526032908201527f4f6e6c79207072696365206d616e61676572206f72206f776e65722063616e2060408201527131b0b636103a3434b990333ab731ba34b7b760711b606082015260800190565b6020808252818101527f4f776e61626c653a2063616c6c6572206973206e6f7420746865206f776e6572604082015260600190565b6020808252601f908201527f546869732070726f66696c652063616e206e6f742062652072656d6f76656400604082015260600190565b602080825260139082015272115d1b98481c185e5b595b9d0819985a5b1959606a1b604082015260600190565b60208082526022908201527f65787465726e616c20636f6e74726163747320617265206e6f7420616c6c6f77604082015261195960f21b606082015260800190565b60208082526026908201527f54686973204e4654206973206e6f7420617661696c61626c6520666f7220776960408201526574686472617760d01b606082015260800190565b6020808252601b908201527f4f776e6572736869702076616c69646174696f6e206661696c65640000000000604082015260600190565b60208082526021908201527f546869732070726f66696c6520494420697320616c726561647920696e2075736040820152606560f81b606082015260800190565b6020808252601a908201527f546869732075726c20697320616c726561647920696e20757365000000000000604082015260600190565b60208082526034908201527f4f6e6c792061697264726f70206d616e61676572206f72206f776e6572206361604082015273371031b0b636103a3434b990333ab731ba34b7b760611b606082015260800190565b60208082526029908201527f455243323020636f6e747261637420616464726573732073686f756c64206e6f60408201526874206265207a65726f60b81b606082015260800190565b6020808252602a908201527f41697264726f70206d616e6167657220616464726573732073686f756c64206e6040820152696f74206265207a65726f60b01b606082015260800190565b90815260200190565b9182526001600160a01b0316602082015260400190565b6000858252846020830152608060408301526145666080830185613cce565b905063ffffffff8316606083015295945050505050565b63ffffffff91909116815260200190565b63ffffffff94909416845260208401929092526001600160a01b03166040830152606082015260800190565b63ffffffff9390931683526020830191909152604082015260600190565b600063ffffffff808816835286602084015285604084015260a0606084015261460460a0840186613cce565b91508084166080840152509695505050505050565b60405181810167ffffffffffffffff8111828210171561463b5761463b6147f5565b604052919050565b600067ffffffffffffffff82111561465d5761465d6147f5565b50601f01601f191660200190565b6000821982111561467e5761467e6147df565b500190565b60008261469e57634e487b7160e01b81526012600452602481fd5b500490565b60008160001904831182151516156146bd576146bd6147df565b500290565b6000828210156146d4576146d46147df565b500390565b600063ffffffff838116908316818110156146f6576146f66147df565b039392505050565b60005b83811015614719578181015183820152602001614701565b83811115614728576000848401525b50505050565b60008161473d5761473d6147df565b506000190190565b600063ffffffff82168061475b5761475b6147df565b6000190192915050565b60028104600182168061477957607f821691505b6020821081141561479a57634e487b7160e01b600052602260045260246000fd5b50919050565b60006000198214156147b4576147b46147df565b5060010190565b600063ffffffff808316818114156147d5576147d56147df565b6001019392505050565b634e487b7160e01b600052601160045260246000fd5b634e487b7160e01b600052604160045260246000fd5b6001600160a01b03811681146133ae57600080fdfea2646970667358221220b861539ef866bb59bfe1e38b541896a70c1d796400c5d4a5765ee4aeb30ad30f64736f6c63430008000033",
          "opcodes": "PUSH1 0x80 PUSH1 0x40 MSTORE PUSH1 0x4 DUP1 SLOAD PUSH1 0xFF PUSH1 0xA0 SHL NOT AND PUSH1 0x1 PUSH1 0xA0 SHL OR SWAP1 SSTORE PUSH1 0x5 DUP1 SSTORE CALLVALUE DUP1 ISZERO PUSH3 0x28 JUMPI PUSH1 0x0 DUP1 REVERT JUMPDEST POP PUSH1 0x40 MLOAD PUSH3 0x4AC2 CODESIZE SUB DUP1 PUSH3 0x4AC2 DUP4 CODECOPY DUP2 ADD PUSH1 0x40 DUP2 SWAP1 MSTORE PUSH3 0x4B SWAP2 PUSH3 0x18C JUMP JUMPDEST PUSH3 0x5F PUSH3 0x59 PUSH3 0x10C JUMP JUMPDEST PUSH3 0x110 JUMP JUMPDEST PUSH1 0x1 PUSH1 0x1 PUSH1 0xA0 SHL SUB DUP4 AND PUSH3 0x91 JUMPI PUSH1 0x40 MLOAD PUSH3 0x461BCD PUSH1 0xE5 SHL DUP2 MSTORE PUSH1 0x4 ADD PUSH3 0x88 SWAP1 PUSH3 0x1CC JUMP JUMPDEST PUSH1 0x40 MLOAD DUP1 SWAP2 SUB SWAP1 REVERT JUMPDEST PUSH1 0x1 PUSH1 0x1 PUSH1 0xA0 SHL SUB DUP3 AND PUSH3 0xBA JUMPI PUSH1 0x40 MLOAD PUSH3 0x461BCD PUSH1 0xE5 SHL DUP2 MSTORE PUSH1 0x4 ADD PUSH3 0x88 SWAP1 PUSH3 0x213 JUMP JUMPDEST PUSH3 0xC4 PUSH3 0x160 JUMP JUMPDEST PUSH1 0x3 DUP1 SLOAD PUSH1 0x1 PUSH1 0x1 PUSH1 0xA0 SHL SUB NOT SWAP1 DUP2 AND PUSH1 0x1 PUSH1 0x1 PUSH1 0xA0 SHL SUB SWAP4 DUP5 AND OR SWAP1 SWAP2 SSTORE PUSH1 0x1 DUP1 SLOAD DUP3 AND SWAP6 DUP4 AND SWAP6 SWAP1 SWAP6 OR SWAP1 SWAP5 SSTORE PUSH1 0x2 DUP1 SLOAD SWAP1 SWAP5 AND SWAP3 AND SWAP2 SWAP1 SWAP2 OR SWAP1 SWAP2 SSTORE PUSH1 0x8 SSTORE PUSH3 0x25C JUMP JUMPDEST CALLER SWAP1 JUMP JUMPDEST PUSH1 0x0 DUP1 SLOAD PUSH1 0x1 PUSH1 0x1 PUSH1 0xA0 SHL SUB DUP4 DUP2 AND PUSH1 0x1 PUSH1 0x1 PUSH1 0xA0 SHL SUB NOT DUP4 AND DUP2 OR DUP5 SSTORE PUSH1 0x40 MLOAD SWAP2 SWAP1 SWAP3 AND SWAP3 DUP4 SWAP2 PUSH32 0x8BE0079C531659141344CD1FD0A4F28419497F9722A3DAAFE3B4186F6B6457E0 SWAP2 SWAP1 LOG3 POP POP JUMP JUMPDEST PUSH1 0x0 SLOAD PUSH1 0x1 PUSH1 0x1 PUSH1 0xA0 SHL SUB AND SWAP1 JUMP JUMPDEST DUP1 MLOAD PUSH1 0x1 PUSH1 0x1 PUSH1 0xA0 SHL SUB DUP2 AND DUP2 EQ PUSH3 0x187 JUMPI PUSH1 0x0 DUP1 REVERT JUMPDEST SWAP2 SWAP1 POP JUMP JUMPDEST PUSH1 0x0 DUP1 PUSH1 0x0 PUSH1 0x60 DUP5 DUP7 SUB SLT ISZERO PUSH3 0x1A1 JUMPI DUP3 DUP4 REVERT JUMPDEST PUSH3 0x1AC DUP5 PUSH3 0x16F JUMP JUMPDEST SWAP3 POP PUSH3 0x1BC PUSH1 0x20 DUP6 ADD PUSH3 0x16F JUMP JUMPDEST SWAP2 POP PUSH1 0x40 DUP5 ADD MLOAD SWAP1 POP SWAP3 POP SWAP3 POP SWAP3 JUMP JUMPDEST PUSH1 0x20 DUP1 DUP3 MSTORE PUSH1 0x27 SWAP1 DUP3 ADD MSTORE PUSH32 0x4E465420636F6E747261637420616464726573732073686F756C64206E6F7420 PUSH1 0x40 DUP3 ADD MSTORE PUSH7 0x6265207A65726F PUSH1 0xC8 SHL PUSH1 0x60 DUP3 ADD MSTORE PUSH1 0x80 ADD SWAP1 JUMP JUMPDEST PUSH1 0x20 DUP1 DUP3 MSTORE PUSH1 0x29 SWAP1 DUP3 ADD MSTORE PUSH32 0x455243323020636F6E747261637420616464726573732073686F756C64206E6F PUSH1 0x40 DUP3 ADD MSTORE PUSH9 0x74206265207A65726F PUSH1 0xB8 SHL PUSH1 0x60 DUP3 ADD MSTORE PUSH1 0x80 ADD SWAP1 JUMP JUMPDEST PUSH2 0x4856 DUP1 PUSH3 0x26C PUSH1 0x0 CODECOPY PUSH1 0x0 RETURN INVALID PUSH1 0x80 PUSH1 0x40 MSTORE CALLVALUE DUP1 ISZERO PUSH2 0x10 JUMPI PUSH1 0x0 DUP1 REVERT JUMPDEST POP PUSH1 0x4 CALLDATASIZE LT PUSH2 0x295 JUMPI PUSH1 0x0 CALLDATALOAD PUSH1 0xE0 SHR DUP1 PUSH4 0x8DA7DF22 GT PUSH2 0x167 JUMPI DUP1 PUSH4 0xBEC1DE48 GT PUSH2 0xCE JUMPI DUP1 PUSH4 0xD41C3A65 GT PUSH2 0x87 JUMPI DUP1 PUSH4 0xD41C3A65 EQ PUSH2 0x592 JUMPI DUP1 PUSH4 0xDD49756E EQ PUSH2 0x59A JUMPI DUP1 PUSH4 0xDEC0FC5C EQ PUSH2 0x5AD JUMPI DUP1 PUSH4 0xF197C7C2 EQ PUSH2 0x5C0 JUMPI DUP1 PUSH4 0xF2FDE38B EQ PUSH2 0x5D3 JUMPI DUP1 PUSH4 0xF8A623D3 EQ PUSH2 0x5E6 JUMPI PUSH2 0x295 JUMP JUMPDEST DUP1 PUSH4 0xBEC1DE48 EQ PUSH2 0x536 JUMPI DUP1 PUSH4 0xC9AB22A7 EQ PUSH2 0x549 JUMPI DUP1 PUSH4 0xCAA0F92A EQ PUSH2 0x55C JUMPI DUP1 PUSH4 0xCBFCAED5 EQ PUSH2 0x564 JUMPI DUP1 PUSH4 0xCF5B2816 EQ PUSH2 0x577 JUMPI DUP1 PUSH4 0xD3C5F137 EQ PUSH2 0x57F JUMPI PUSH2 0x295 JUMP JUMPDEST DUP1 PUSH4 0xA2A424D1 GT PUSH2 0x120 JUMPI DUP1 PUSH4 0xA2A424D1 EQ PUSH2 0x4B7 JUMPI DUP1 PUSH4 0xA77CEFC4 EQ PUSH2 0x4CA JUMPI DUP1 PUSH4 0xA7CCABDF EQ PUSH2 0x4EA JUMPI DUP1 PUSH4 0xA8F621EA EQ PUSH2 0x4FD JUMPI DUP1 PUSH4 0xB6749D94 EQ PUSH2 0x510 JUMPI DUP1 PUSH4 0xBADB97FF EQ PUSH2 0x523 JUMPI PUSH2 0x295 JUMP JUMPDEST DUP1 PUSH4 0x8DA7DF22 EQ PUSH2 0x459 JUMPI DUP1 PUSH4 0x90B7AC1A EQ PUSH2 0x461 JUMPI DUP1 PUSH4 0x93FCFFE6 EQ PUSH2 0x474 JUMPI DUP1 PUSH4 0x940A1455 EQ PUSH2 0x487 JUMPI DUP1 PUSH4 0x94D212E6 EQ PUSH2 0x4A7 JUMPI DUP1 PUSH4 0x9609F6C7 EQ PUSH2 0x4AF JUMPI PUSH2 0x295 JUMP JUMPDEST DUP1 PUSH4 0x34A2A4E1 GT PUSH2 0x20B JUMPI DUP1 PUSH4 0x6A326AB1 GT PUSH2 0x1C4 JUMPI DUP1 PUSH4 0x6A326AB1 EQ PUSH2 0x3EA JUMPI DUP1 PUSH4 0x715018A6 EQ PUSH2 0x3FD JUMPI DUP1 PUSH4 0x77476C7B EQ PUSH2 0x407 JUMPI DUP1 PUSH4 0x83E3500F EQ PUSH2 0x41A JUMPI DUP1 PUSH4 0x8CEC7946 EQ PUSH2 0x42D JUMPI DUP1 PUSH4 0x8DA5CB5B EQ PUSH2 0x451 JUMPI PUSH2 0x295 JUMP JUMPDEST DUP1 PUSH4 0x34A2A4E1 EQ PUSH2 0x37F JUMPI DUP1 PUSH4 0x45F40362 EQ PUSH2 0x387 JUMPI DUP1 PUSH4 0x5230BCDF EQ PUSH2 0x39A JUMPI DUP1 PUSH4 0x571766B2 EQ PUSH2 0x3B1 JUMPI DUP1 PUSH4 0x5D7DC9DA EQ PUSH2 0x3C4 JUMPI DUP1 PUSH4 0x5D82C462 EQ PUSH2 0x3D7 JUMPI PUSH2 0x295 JUMP JUMPDEST DUP1 PUSH4 0x156B1D37 GT PUSH2 0x25D JUMPI DUP1 PUSH4 0x156B1D37 EQ PUSH2 0x323 JUMPI DUP1 PUSH4 0x18FDEC7E EQ PUSH2 0x336 JUMPI DUP1 PUSH4 0x19E1F486 EQ PUSH2 0x349 JUMPI DUP1 PUSH4 0x1BA9BDAC EQ PUSH2 0x35C JUMPI DUP1 PUSH4 0x29598630 EQ PUSH2 0x364 JUMPI DUP1 PUSH4 0x2B1F4AD6 EQ PUSH2 0x377 JUMPI PUSH2 0x295 JUMP JUMPDEST DUP1 PUSH4 0x2D1003B EQ PUSH2 0x29A JUMPI DUP1 PUSH4 0x61584EB EQ PUSH2 0x2C3 JUMPI DUP1 PUSH4 0x6B091F9 EQ PUSH2 0x2CB JUMPI DUP1 PUSH4 0xEA638A3 EQ PUSH2 0x2EB JUMPI DUP1 PUSH4 0x12C178A6 EQ PUSH2 0x30E JUMPI JUMPDEST PUSH1 0x0 DUP1 REVERT JUMPDEST PUSH2 0x2AD PUSH2 0x2A8 CALLDATASIZE PUSH1 0x4 PUSH2 0x3B18 JUMP JUMPDEST PUSH2 0x5EE JUMP JUMPDEST PUSH1 0x40 MLOAD PUSH2 0x2BA SWAP2 SWAP1 PUSH2 0x4527 JUMP JUMPDEST PUSH1 0x40 MLOAD DUP1 SWAP2 SUB SWAP1 RETURN JUMPDEST PUSH2 0x2AD PUSH2 0x66D JUMP JUMPDEST PUSH2 0x2DE PUSH2 0x2D9 CALLDATASIZE PUSH1 0x4 PUSH2 0x3948 JUMP JUMPDEST PUSH2 0x673 JUMP JUMPDEST PUSH1 0x40 MLOAD PUSH2 0x2BA SWAP2 SWAP1 PUSH2 0x3ED4 JUMP JUMPDEST PUSH2 0x2FE PUSH2 0x2F9 CALLDATASIZE PUSH1 0x4 PUSH2 0x3B18 JUMP JUMPDEST PUSH2 0x883 JUMP JUMPDEST PUSH1 0x40 MLOAD PUSH2 0x2BA SWAP5 SWAP4 SWAP3 SWAP2 SWAP1 PUSH2 0x4547 JUMP JUMPDEST PUSH2 0x316 PUSH2 0xA60 JUMP JUMPDEST PUSH1 0x40 MLOAD PUSH2 0x2BA SWAP2 SWAP1 PUSH2 0x3D79 JUMP JUMPDEST PUSH2 0x2DE PUSH2 0x331 CALLDATASIZE PUSH1 0x4 PUSH2 0x3BF3 JUMP JUMPDEST PUSH2 0xA6F JUMP JUMPDEST PUSH2 0x2DE PUSH2 0x344 CALLDATASIZE PUSH1 0x4 PUSH2 0x3909 JUMP JUMPDEST PUSH2 0xD23 JUMP JUMPDEST PUSH2 0x2DE PUSH2 0x357 CALLDATASIZE PUSH1 0x4 PUSH2 0x3AE8 JUMP JUMPDEST PUSH2 0xDAF JUMP JUMPDEST PUSH2 0x2DE PUSH2 0x131E JUMP JUMPDEST PUSH2 0x2DE PUSH2 0x372 CALLDATASIZE PUSH1 0x4 PUSH2 0x3BA6 JUMP JUMPDEST PUSH2 0x1381 JUMP JUMPDEST PUSH2 0x316 PUSH2 0x1465 JUMP JUMPDEST PUSH2 0x2AD PUSH2 0x1474 JUMP JUMPDEST PUSH2 0x2AD PUSH2 0x395 CALLDATASIZE PUSH1 0x4 PUSH2 0x3B68 JUMP JUMPDEST PUSH2 0x147A JUMP JUMPDEST PUSH2 0x3A2 PUSH2 0x176E JUMP JUMPDEST PUSH1 0x40 MLOAD PUSH2 0x2BA SWAP4 SWAP3 SWAP2 SWAP1 PUSH2 0x3E62 JUMP JUMPDEST PUSH2 0x2DE PUSH2 0x3BF CALLDATASIZE PUSH1 0x4 PUSH2 0x3B32 JUMP JUMPDEST PUSH2 0x19DF JUMP JUMPDEST PUSH2 0x2DE PUSH2 0x3D2 CALLDATASIZE PUSH1 0x4 PUSH2 0x3BF3 JUMP JUMPDEST PUSH2 0x1A12 JUMP JUMPDEST PUSH2 0x2AD PUSH2 0x3E5 CALLDATASIZE PUSH1 0x4 PUSH2 0x3B18 JUMP JUMPDEST PUSH2 0x1C8D JUMP JUMPDEST PUSH2 0x2DE PUSH2 0x3F8 CALLDATASIZE PUSH1 0x4 PUSH2 0x3909 JUMP JUMPDEST PUSH2 0x1D0B JUMP JUMPDEST PUSH2 0x405 PUSH2 0x1D97 JUMP JUMPDEST STOP JUMPDEST PUSH2 0x2DE PUSH2 0x415 CALLDATASIZE PUSH1 0x4 PUSH2 0x3BA6 JUMP JUMPDEST PUSH2 0x1DE2 JUMP JUMPDEST PUSH2 0x2DE PUSH2 0x428 CALLDATASIZE PUSH1 0x4 PUSH2 0x3AE8 JUMP JUMPDEST PUSH2 0x1EC8 JUMP JUMPDEST PUSH2 0x440 PUSH2 0x43B CALLDATASIZE PUSH1 0x4 PUSH2 0x3AE8 JUMP JUMPDEST PUSH2 0x1F21 JUMP JUMPDEST PUSH1 0x40 MLOAD PUSH2 0x2BA SWAP6 SWAP5 SWAP4 SWAP3 SWAP2 SWAP1 PUSH2 0x45D8 JUMP JUMPDEST PUSH2 0x316 PUSH2 0x1FFC JUMP JUMPDEST PUSH2 0x2DE PUSH2 0x200B JUMP JUMPDEST PUSH2 0x2DE PUSH2 0x46F CALLDATASIZE PUSH1 0x4 PUSH2 0x3973 JUMP JUMPDEST PUSH2 0x201B JUMP JUMPDEST PUSH2 0x2AD PUSH2 0x482 CALLDATASIZE PUSH1 0x4 PUSH2 0x3B18 JUMP JUMPDEST PUSH2 0x21C1 JUMP JUMPDEST PUSH2 0x49A PUSH2 0x495 CALLDATASIZE PUSH1 0x4 PUSH2 0x3B18 JUMP JUMPDEST PUSH2 0x23EF JUMP JUMPDEST PUSH1 0x40 MLOAD PUSH2 0x2BA SWAP2 SWAP1 PUSH2 0x457D JUMP JUMPDEST PUSH2 0x2AD PUSH2 0x2476 JUMP JUMPDEST PUSH2 0x2AD PUSH2 0x24FC JUMP JUMPDEST PUSH2 0x2AD PUSH2 0x4C5 CALLDATASIZE PUSH1 0x4 PUSH2 0x3B18 JUMP JUMPDEST PUSH2 0x2502 JUMP JUMPDEST PUSH2 0x4DD PUSH2 0x4D8 CALLDATASIZE PUSH1 0x4 PUSH2 0x3B18 JUMP JUMPDEST PUSH2 0x29A1 JUMP JUMPDEST PUSH1 0x40 MLOAD PUSH2 0x2BA SWAP2 SWAP1 PUSH2 0x3EDF JUMP JUMPDEST PUSH2 0x2DE PUSH2 0x4F8 CALLDATASIZE PUSH1 0x4 PUSH2 0x3909 JUMP JUMPDEST PUSH2 0x2AB7 JUMP JUMPDEST PUSH2 0x2AD PUSH2 0x50B CALLDATASIZE PUSH1 0x4 PUSH2 0x3AE8 JUMP JUMPDEST PUSH2 0x2B41 JUMP JUMPDEST PUSH2 0x49A PUSH2 0x51E CALLDATASIZE PUSH1 0x4 PUSH2 0x3AE8 JUMP JUMPDEST PUSH2 0x2BCA JUMP JUMPDEST PUSH2 0x2DE PUSH2 0x531 CALLDATASIZE PUSH1 0x4 PUSH2 0x3AE8 JUMP JUMPDEST PUSH2 0x2BDB JUMP JUMPDEST PUSH2 0x2DE PUSH2 0x544 CALLDATASIZE PUSH1 0x4 PUSH2 0x3909 JUMP JUMPDEST PUSH2 0x2DE4 JUMP JUMPDEST PUSH2 0x2DE PUSH2 0x557 CALLDATASIZE PUSH1 0x4 PUSH2 0x3BC1 JUMP JUMPDEST PUSH2 0x2E70 JUMP JUMPDEST PUSH2 0x2AD PUSH2 0x2F8E JUMP JUMPDEST PUSH2 0x2DE PUSH2 0x572 CALLDATASIZE PUSH1 0x4 PUSH2 0x3B18 JUMP JUMPDEST PUSH2 0x2F94 JUMP JUMPDEST PUSH2 0x2DE PUSH2 0x308F JUMP JUMPDEST PUSH2 0x49A PUSH2 0x58D CALLDATASIZE PUSH1 0x4 PUSH2 0x39FC JUMP JUMPDEST PUSH2 0x30F8 JUMP JUMPDEST PUSH2 0x316 PUSH2 0x3143 JUMP JUMPDEST PUSH2 0x2DE PUSH2 0x5A8 CALLDATASIZE PUSH1 0x4 PUSH2 0x3AE8 JUMP JUMPDEST PUSH2 0x3152 JUMP JUMPDEST PUSH2 0x2DE PUSH2 0x5BB CALLDATASIZE PUSH1 0x4 PUSH2 0x3AE8 JUMP JUMPDEST PUSH2 0x329D JUMP JUMPDEST PUSH2 0x2DE PUSH2 0x5CE CALLDATASIZE PUSH1 0x4 PUSH2 0x3AE8 JUMP JUMPDEST PUSH2 0x32F6 JUMP JUMPDEST PUSH2 0x405 PUSH2 0x5E1 CALLDATASIZE PUSH1 0x4 PUSH2 0x3909 JUMP JUMPDEST PUSH2 0x3340 JUMP JUMPDEST PUSH2 0x316 PUSH2 0x33B1 JUMP JUMPDEST PUSH4 0xFFFFFFFF DUP2 AND PUSH1 0x0 SWAP1 DUP2 MSTORE PUSH1 0x9 PUSH1 0x20 MSTORE PUSH1 0x40 DUP2 KECCAK256 SLOAD PUSH2 0x610 JUMPI POP PUSH1 0x0 PUSH2 0x668 JUMP JUMPDEST PUSH4 0xFFFFFFFF DUP3 AND PUSH1 0x0 SWAP1 DUP2 MSTORE PUSH1 0x9 PUSH1 0x20 MSTORE PUSH1 0x40 SWAP1 KECCAK256 SLOAD PUSH1 0x6 SWAP1 PUSH2 0x635 SWAP1 PUSH1 0x1 SWAP1 PUSH2 0x46C2 JUMP JUMPDEST DUP2 SLOAD DUP2 LT PUSH2 0x653 JUMPI PUSH4 0x4E487B71 PUSH1 0xE0 SHL PUSH1 0x0 MSTORE PUSH1 0x32 PUSH1 0x4 MSTORE PUSH1 0x24 PUSH1 0x0 REVERT JUMPDEST SWAP1 PUSH1 0x0 MSTORE PUSH1 0x20 PUSH1 0x0 KECCAK256 SWAP1 PUSH1 0x5 MUL ADD PUSH1 0x2 ADD SLOAD SWAP1 POP JUMPDEST SWAP2 SWAP1 POP JUMP JUMPDEST PUSH1 0x6 SLOAD SWAP1 JUMP JUMPDEST PUSH1 0x0 PUSH2 0x67D PUSH2 0x33C0 JUMP JUMPDEST PUSH1 0x1 PUSH1 0x1 PUSH1 0xA0 SHL SUB AND PUSH2 0x68E PUSH2 0x1FFC JUMP JUMPDEST PUSH1 0x1 PUSH1 0x1 PUSH1 0xA0 SHL SUB AND EQ PUSH2 0x6BD JUMPI PUSH1 0x40 MLOAD PUSH3 0x461BCD PUSH1 0xE5 SHL DUP2 MSTORE PUSH1 0x4 ADD PUSH2 0x6B4 SWAP1 PUSH2 0x4270 JUMP JUMPDEST PUSH1 0x40 MLOAD DUP1 SWAP2 SUB SWAP1 REVERT JUMPDEST PUSH1 0x0 DUP3 GT PUSH2 0x6DD JUMPI PUSH1 0x40 MLOAD PUSH3 0x461BCD PUSH1 0xE5 SHL DUP2 MSTORE PUSH1 0x4 ADD PUSH2 0x6B4 SWAP1 PUSH2 0x41DC JUMP JUMPDEST PUSH1 0x1 PUSH1 0x1 PUSH1 0xA0 SHL SUB DUP4 AND PUSH2 0x703 JUMPI PUSH1 0x40 MLOAD PUSH3 0x461BCD PUSH1 0xE5 SHL DUP2 MSTORE PUSH1 0x4 ADD PUSH2 0x6B4 SWAP1 PUSH2 0x4152 JUMP JUMPDEST PUSH1 0x2 SLOAD PUSH1 0x40 MLOAD PUSH4 0x70A08231 PUSH1 0xE0 SHL DUP2 MSTORE DUP4 SWAP2 PUSH1 0x1 PUSH1 0x1 PUSH1 0xA0 SHL SUB AND SWAP1 PUSH4 0x70A08231 SWAP1 PUSH2 0x733 SWAP1 ADDRESS SWAP1 PUSH1 0x4 ADD PUSH2 0x3D79 JUMP JUMPDEST PUSH1 0x20 PUSH1 0x40 MLOAD DUP1 DUP4 SUB DUP2 DUP7 DUP1 EXTCODESIZE ISZERO DUP1 ISZERO PUSH2 0x74B JUMPI PUSH1 0x0 DUP1 REVERT JUMPDEST POP GAS STATICCALL ISZERO DUP1 ISZERO PUSH2 0x75F JUMPI RETURNDATASIZE PUSH1 0x0 DUP1 RETURNDATACOPY RETURNDATASIZE PUSH1 0x0 REVERT JUMPDEST POP POP POP POP PUSH1 0x40 MLOAD RETURNDATASIZE PUSH1 0x1F NOT PUSH1 0x1F DUP3 ADD AND DUP3 ADD DUP1 PUSH1 0x40 MSTORE POP DUP2 ADD SWAP1 PUSH2 0x783 SWAP2 SWAP1 PUSH2 0x3B00 JUMP JUMPDEST LT ISZERO PUSH2 0x7A1 JUMPI PUSH1 0x40 MLOAD PUSH3 0x461BCD PUSH1 0xE5 SHL DUP2 MSTORE PUSH1 0x4 ADD PUSH2 0x6B4 SWAP1 PUSH2 0x4059 JUMP JUMPDEST PUSH1 0x2 SLOAD PUSH1 0x40 MLOAD PUSH4 0xA9059CBB PUSH1 0xE0 SHL DUP2 MSTORE PUSH1 0x1 PUSH1 0x1 PUSH1 0xA0 SHL SUB SWAP1 SWAP2 AND SWAP1 PUSH4 0xA9059CBB SWAP1 PUSH2 0x7D3 SWAP1 DUP7 SWAP1 DUP7 SWAP1 PUSH1 0x4 ADD PUSH2 0x3DB1 JUMP JUMPDEST PUSH1 0x20 PUSH1 0x40 MLOAD DUP1 DUP4 SUB DUP2 PUSH1 0x0 DUP8 DUP1 EXTCODESIZE ISZERO DUP1 ISZERO PUSH2 0x7ED JUMPI PUSH1 0x0 DUP1 REVERT JUMPDEST POP GAS CALL ISZERO DUP1 ISZERO PUSH2 0x801 JUMPI RETURNDATASIZE PUSH1 0x0 DUP1 RETURNDATACOPY RETURNDATASIZE PUSH1 0x0 REVERT JUMPDEST POP POP POP POP PUSH1 0x40 MLOAD RETURNDATASIZE PUSH1 0x1F NOT PUSH1 0x1F DUP3 ADD AND DUP3 ADD DUP1 PUSH1 0x40 MSTORE POP DUP2 ADD SWAP1 PUSH2 0x825 SWAP2 SWAP1 PUSH2 0x39DC JUMP JUMPDEST PUSH2 0x841 JUMPI PUSH1 0x40 MLOAD PUSH3 0x461BCD PUSH1 0xE5 SHL DUP2 MSTORE PUSH1 0x4 ADD PUSH2 0x6B4 SWAP1 PUSH2 0x402C JUMP JUMPDEST PUSH32 0xDDDDC48B57DD67F8FA2FF05C78034B578C31EF5CAA05B03D2CA16FEADBBB98F DUP3 DUP5 PUSH1 0x40 MLOAD PUSH2 0x872 SWAP3 SWAP2 SWAP1 PUSH2 0x4530 JUMP JUMPDEST PUSH1 0x40 MLOAD DUP1 SWAP2 SUB SWAP1 LOG1 POP PUSH1 0x1 SWAP3 SWAP2 POP POP JUMP JUMPDEST PUSH4 0xFFFFFFFF DUP2 AND PUSH1 0x0 SWAP1 DUP2 MSTORE PUSH1 0x9 PUSH1 0x20 MSTORE PUSH1 0x40 DUP2 KECCAK256 SLOAD DUP2 SWAP1 PUSH1 0x60 SWAP1 DUP3 SWAP1 PUSH2 0x8C4 JUMPI POP POP PUSH1 0x40 DUP1 MLOAD PUSH1 0x20 DUP2 ADD SWAP1 SWAP2 MSTORE PUSH1 0x0 DUP1 DUP3 MSTORE SWAP3 POP DUP3 SWAP2 POP PUSH3 0x98967F PUSH2 0xA59 JUMP JUMPDEST PUSH4 0xFFFFFFFF DUP6 AND PUSH1 0x0 SWAP1 DUP2 MSTORE PUSH1 0x9 PUSH1 0x20 MSTORE PUSH1 0x40 DUP2 KECCAK256 SLOAD PUSH2 0x8E6 SWAP1 PUSH1 0x1 SWAP1 PUSH2 0x46C2 JUMP JUMPDEST SWAP1 POP PUSH1 0x6 DUP2 DUP2 SLOAD DUP2 LT PUSH2 0x909 JUMPI PUSH4 0x4E487B71 PUSH1 0xE0 SHL PUSH1 0x0 MSTORE PUSH1 0x32 PUSH1 0x4 MSTORE PUSH1 0x24 PUSH1 0x0 REVERT JUMPDEST SWAP1 PUSH1 0x0 MSTORE PUSH1 0x20 PUSH1 0x0 KECCAK256 SWAP1 PUSH1 0x5 MUL ADD PUSH1 0x1 ADD SLOAD PUSH1 0x6 DUP3 DUP2 SLOAD DUP2 LT PUSH2 0x93C JUMPI PUSH4 0x4E487B71 PUSH1 0xE0 SHL PUSH1 0x0 MSTORE PUSH1 0x32 PUSH1 0x4 MSTORE PUSH1 0x24 PUSH1 0x0 REVERT JUMPDEST SWAP1 PUSH1 0x0 MSTORE PUSH1 0x20 PUSH1 0x0 KECCAK256 SWAP1 PUSH1 0x5 MUL ADD PUSH1 0x2 ADD SLOAD PUSH1 0x6 DUP4 DUP2 SLOAD DUP2 LT PUSH2 0x96F JUMPI PUSH4 0x4E487B71 PUSH1 0xE0 SHL PUSH1 0x0 MSTORE PUSH1 0x32 PUSH1 0x4 MSTORE PUSH1 0x24 PUSH1 0x0 REVERT JUMPDEST SWAP1 PUSH1 0x0 MSTORE PUSH1 0x20 PUSH1 0x0 KECCAK256 SWAP1 PUSH1 0x5 MUL ADD PUSH1 0x3 ADD PUSH1 0x6 DUP5 DUP2 SLOAD DUP2 LT PUSH2 0x9A1 JUMPI PUSH4 0x4E487B71 PUSH1 0xE0 SHL PUSH1 0x0 MSTORE PUSH1 0x32 PUSH1 0x4 MSTORE PUSH1 0x24 PUSH1 0x0 REVERT JUMPDEST SWAP1 PUSH1 0x0 MSTORE PUSH1 0x20 PUSH1 0x0 KECCAK256 SWAP1 PUSH1 0x5 MUL ADD PUSH1 0x4 ADD PUSH1 0x0 SWAP1 SLOAD SWAP1 PUSH2 0x100 EXP SWAP1 DIV PUSH4 0xFFFFFFFF AND DUP2 DUP1 SLOAD PUSH2 0x9CF SWAP1 PUSH2 0x4765 JUMP JUMPDEST DUP1 PUSH1 0x1F ADD PUSH1 0x20 DUP1 SWAP2 DIV MUL PUSH1 0x20 ADD PUSH1 0x40 MLOAD SWAP1 DUP2 ADD PUSH1 0x40 MSTORE DUP1 SWAP3 SWAP2 SWAP1 DUP2 DUP2 MSTORE PUSH1 0x20 ADD DUP3 DUP1 SLOAD PUSH2 0x9FB SWAP1 PUSH2 0x4765 JUMP JUMPDEST DUP1 ISZERO PUSH2 0xA48 JUMPI DUP1 PUSH1 0x1F LT PUSH2 0xA1D JUMPI PUSH2 0x100 DUP1 DUP4 SLOAD DIV MUL DUP4 MSTORE SWAP2 PUSH1 0x20 ADD SWAP2 PUSH2 0xA48 JUMP JUMPDEST DUP3 ADD SWAP2 SWAP1 PUSH1 0x0 MSTORE PUSH1 0x20 PUSH1 0x0 KECCAK256 SWAP1 JUMPDEST DUP2 SLOAD DUP2 MSTORE SWAP1 PUSH1 0x1 ADD SWAP1 PUSH1 0x20 ADD DUP1 DUP4 GT PUSH2 0xA2B JUMPI DUP3 SWAP1 SUB PUSH1 0x1F AND DUP3 ADD SWAP2 JUMPDEST POP POP POP POP POP SWAP2 POP SWAP5 POP SWAP5 POP SWAP5 POP SWAP5 POP POP JUMPDEST SWAP2 SWAP4 POP SWAP2 SWAP4 JUMP JUMPDEST PUSH1 0x4 SLOAD PUSH1 0x1 PUSH1 0x1 PUSH1 0xA0 SHL SUB AND SWAP1 JUMP JUMPDEST PUSH1 0x3 SLOAD PUSH1 0x0 SWAP1 PUSH1 0x1 PUSH1 0x1 PUSH1 0xA0 SHL SUB AND CALLER EQ DUP1 PUSH2 0xAA3 JUMPI POP PUSH2 0xA8E PUSH2 0x1FFC JUMP JUMPDEST PUSH1 0x1 PUSH1 0x1 PUSH1 0xA0 SHL SUB AND CALLER PUSH1 0x1 PUSH1 0x1 PUSH1 0xA0 SHL SUB AND EQ JUMPDEST PUSH2 0xABF JUMPI PUSH1 0x40 MLOAD PUSH3 0x461BCD PUSH1 0xE5 SHL DUP2 MSTORE PUSH1 0x4 ADD PUSH2 0x6B4 SWAP1 PUSH2 0x421E JUMP JUMPDEST PUSH4 0xFFFFFFFF DUP8 AND PUSH1 0x0 SWAP1 DUP2 MSTORE PUSH1 0x9 PUSH1 0x20 MSTORE PUSH1 0x40 SWAP1 KECCAK256 SLOAD PUSH2 0xAF1 JUMPI PUSH1 0x40 MLOAD PUSH3 0x461BCD PUSH1 0xE5 SHL DUP2 MSTORE PUSH1 0x4 ADD PUSH2 0x6B4 SWAP1 PUSH2 0x3FE9 JUMP JUMPDEST PUSH1 0x0 DUP5 DUP5 PUSH1 0x40 MLOAD PUSH2 0xB03 SWAP3 SWAP2 SWAP1 PUSH2 0x3CFA JUMP JUMPDEST PUSH1 0x40 DUP1 MLOAD SWAP2 DUP3 SWAP1 SUB SWAP1 SWAP2 KECCAK256 PUSH1 0x0 DUP2 DUP2 MSTORE PUSH1 0xC PUSH1 0x20 MSTORE SWAP2 SWAP1 SWAP2 KECCAK256 SLOAD SWAP1 SWAP2 POP PUSH4 0xFFFFFFFF AND ISZERO DUP1 PUSH2 0xB48 JUMPI POP PUSH1 0x0 DUP2 DUP2 MSTORE PUSH1 0xC PUSH1 0x20 MSTORE PUSH1 0x40 SWAP1 KECCAK256 SLOAD PUSH4 0xFFFFFFFF DUP10 DUP2 AND SWAP2 AND EQ JUMPDEST PUSH2 0xB64 JUMPI PUSH1 0x40 MLOAD PUSH3 0x461BCD PUSH1 0xE5 SHL DUP2 MSTORE PUSH1 0x4 ADD PUSH2 0x6B4 SWAP1 PUSH2 0x4409 JUMP JUMPDEST PUSH4 0xFFFFFFFF DUP9 AND PUSH1 0x0 SWAP1 DUP2 MSTORE PUSH1 0x9 PUSH1 0x20 MSTORE PUSH1 0x40 DUP2 KECCAK256 SLOAD PUSH2 0xB86 SWAP1 PUSH1 0x1 SWAP1 PUSH2 0x46C2 JUMP JUMPDEST SWAP1 POP PUSH1 0x0 PUSH1 0xC PUSH1 0x0 PUSH1 0x6 DUP5 DUP2 SLOAD DUP2 LT PUSH2 0xBAF JUMPI PUSH4 0x4E487B71 PUSH1 0xE0 SHL PUSH1 0x0 MSTORE PUSH1 0x32 PUSH1 0x4 MSTORE PUSH1 0x24 PUSH1 0x0 REVERT JUMPDEST SWAP1 PUSH1 0x0 MSTORE PUSH1 0x20 PUSH1 0x0 KECCAK256 SWAP1 PUSH1 0x5 MUL ADD PUSH1 0x3 ADD PUSH1 0x40 MLOAD PUSH2 0xBCD SWAP2 SWAP1 PUSH2 0x3D0A JUMP JUMPDEST PUSH1 0x40 DUP1 MLOAD SWAP2 DUP3 SWAP1 SUB SWAP1 SWAP2 KECCAK256 DUP3 MSTORE PUSH1 0x20 DUP1 DUP4 ADD SWAP4 SWAP1 SWAP4 MSTORE SWAP1 DUP2 ADD PUSH1 0x0 SWAP1 DUP2 KECCAK256 DUP1 SLOAD PUSH4 0xFFFFFFFF SWAP6 DUP7 AND PUSH4 0xFFFFFFFF NOT SWAP2 DUP3 AND OR SWAP1 SWAP2 SSTORE DUP7 DUP3 MSTORE PUSH1 0xC DUP5 MSTORE SWAP1 DUP3 SWAP1 KECCAK256 DUP1 SLOAD SWAP5 DUP15 AND SWAP5 SWAP1 SWAP2 AND DUP5 OR SWAP1 SSTORE DUP1 MLOAD PUSH1 0xA0 DUP2 ADD DUP3 MSTORE SWAP3 DUP4 MSTORE DUP3 DUP3 ADD DUP12 SWAP1 MSTORE DUP3 DUP2 ADD DUP11 SWAP1 MSTORE DUP1 MLOAD PUSH1 0x1F DUP10 ADD DUP4 SWAP1 DIV DUP4 MUL DUP2 ADD DUP4 ADD SWAP1 SWAP2 MSTORE DUP8 DUP2 MSTORE PUSH1 0x60 DUP4 ADD SWAP2 DUP10 SWAP1 DUP10 SWAP1 DUP2 SWAP1 DUP5 ADD DUP4 DUP3 DUP1 DUP3 DUP5 CALLDATACOPY PUSH1 0x0 SWAP3 ADD SWAP2 SWAP1 SWAP2 MSTORE POP POP POP SWAP1 DUP3 MSTORE POP PUSH4 0xFFFFFFFF DUP7 AND PUSH1 0x20 SWAP1 SWAP2 ADD MSTORE PUSH1 0x6 DUP1 SLOAD DUP4 SWAP1 DUP2 LT PUSH2 0xC97 JUMPI PUSH4 0x4E487B71 PUSH1 0xE0 SHL PUSH1 0x0 MSTORE PUSH1 0x32 PUSH1 0x4 MSTORE PUSH1 0x24 PUSH1 0x0 REVERT JUMPDEST PUSH1 0x0 SWAP2 DUP3 MSTORE PUSH1 0x20 SWAP2 DUP3 SWAP1 KECCAK256 DUP4 MLOAD PUSH1 0x5 SWAP3 SWAP1 SWAP3 MUL ADD DUP1 SLOAD PUSH4 0xFFFFFFFF NOT AND PUSH4 0xFFFFFFFF SWAP1 SWAP3 AND SWAP2 SWAP1 SWAP2 OR DUP2 SSTORE DUP3 DUP3 ADD MLOAD PUSH1 0x1 DUP3 ADD SSTORE PUSH1 0x40 DUP4 ADD MLOAD PUSH1 0x2 DUP3 ADD SSTORE PUSH1 0x60 DUP4 ADD MLOAD DUP1 MLOAD SWAP2 SWAP3 PUSH2 0xCF0 SWAP3 PUSH1 0x3 DUP6 ADD SWAP3 SWAP1 SWAP2 ADD SWAP1 PUSH2 0x3760 JUMP JUMPDEST POP PUSH1 0x80 SWAP2 SWAP1 SWAP2 ADD MLOAD PUSH1 0x4 SWAP1 SWAP2 ADD DUP1 SLOAD PUSH4 0xFFFFFFFF NOT AND PUSH4 0xFFFFFFFF SWAP1 SWAP3 AND SWAP2 SWAP1 SWAP2 OR SWAP1 SSTORE POP PUSH1 0x1 SWAP9 SWAP8 POP POP POP POP POP POP POP POP JUMP JUMPDEST PUSH1 0x0 PUSH2 0xD2D PUSH2 0x33C0 JUMP JUMPDEST PUSH1 0x1 PUSH1 0x1 PUSH1 0xA0 SHL SUB AND PUSH2 0xD3E PUSH2 0x1FFC JUMP JUMPDEST PUSH1 0x1 PUSH1 0x1 PUSH1 0xA0 SHL SUB AND EQ PUSH2 0xD64 JUMPI PUSH1 0x40 MLOAD PUSH3 0x461BCD PUSH1 0xE5 SHL DUP2 MSTORE PUSH1 0x4 ADD PUSH2 0x6B4 SWAP1 PUSH2 0x4270 JUMP JUMPDEST PUSH1 0x1 PUSH1 0x1 PUSH1 0xA0 SHL SUB DUP3 AND PUSH2 0xD8A JUMPI PUSH1 0x40 MLOAD PUSH3 0x461BCD PUSH1 0xE5 SHL DUP2 MSTORE PUSH1 0x4 ADD PUSH2 0x6B4 SWAP1 PUSH2 0x40D3 JUMP JUMPDEST POP PUSH1 0x3 DUP1 SLOAD PUSH1 0x1 PUSH1 0x1 PUSH1 0xA0 SHL SUB DUP4 AND PUSH1 0x1 PUSH1 0x1 PUSH1 0xA0 SHL SUB NOT SWAP1 SWAP2 AND OR SWAP1 SSTORE PUSH1 0x1 SWAP2 SWAP1 POP JUMP JUMPDEST PUSH1 0x0 PUSH2 0xDBA CALLER PUSH2 0x33C4 JUMP JUMPDEST ISZERO PUSH2 0xDD7 JUMPI PUSH1 0x40 MLOAD PUSH3 0x461BCD PUSH1 0xE5 SHL DUP2 MSTORE PUSH1 0x4 ADD PUSH2 0x6B4 SWAP1 PUSH2 0x4309 JUMP JUMPDEST PUSH1 0x1 SLOAD PUSH1 0x40 MLOAD PUSH4 0x31A9108F PUSH1 0xE1 SHL DUP2 MSTORE CALLER SWAP2 PUSH1 0x1 PUSH1 0x1 PUSH1 0xA0 SHL SUB AND SWAP1 PUSH4 0x6352211E SWAP1 PUSH2 0xE07 SWAP1 DUP7 SWAP1 PUSH1 0x4 ADD PUSH2 0x4527 JUMP JUMPDEST PUSH1 0x20 PUSH1 0x40 MLOAD DUP1 DUP4 SUB DUP2 DUP7 DUP1 EXTCODESIZE ISZERO DUP1 ISZERO PUSH2 0xE1F JUMPI PUSH1 0x0 DUP1 REVERT JUMPDEST POP GAS STATICCALL ISZERO DUP1 ISZERO PUSH2 0xE33 JUMPI RETURNDATASIZE PUSH1 0x0 DUP1 RETURNDATACOPY RETURNDATASIZE PUSH1 0x0 REVERT JUMPDEST POP POP POP POP PUSH1 0x40 MLOAD RETURNDATASIZE PUSH1 0x1F NOT PUSH1 0x1F DUP3 ADD AND DUP3 ADD DUP1 PUSH1 0x40 MSTORE POP DUP2 ADD SWAP1 PUSH2 0xE57 SWAP2 SWAP1 PUSH2 0x392C JUMP JUMPDEST PUSH1 0x1 PUSH1 0x1 PUSH1 0xA0 SHL SUB AND EQ PUSH2 0xE7D JUMPI PUSH1 0x40 MLOAD PUSH3 0x461BCD PUSH1 0xE5 SHL DUP2 MSTORE PUSH1 0x4 ADD PUSH2 0x6B4 SWAP1 PUSH2 0x4391 JUMP JUMPDEST PUSH1 0x0 PUSH2 0xE88 DUP4 PUSH2 0x33D0 JUMP JUMPDEST SWAP1 POP PUSH1 0x0 DUP2 PUSH4 0xFFFFFFFF AND GT PUSH2 0xEB0 JUMPI PUSH1 0x40 MLOAD PUSH3 0x461BCD PUSH1 0xE5 SHL DUP2 MSTORE PUSH1 0x4 ADD PUSH2 0x6B4 SWAP1 PUSH2 0x411B JUMP JUMPDEST PUSH4 0xFFFFFFFF DUP2 AND PUSH1 0x0 SWAP1 DUP2 MSTORE PUSH1 0x9 PUSH1 0x20 MSTORE PUSH1 0x40 DUP2 KECCAK256 SLOAD PUSH2 0xED2 SWAP1 PUSH1 0x1 SWAP1 PUSH2 0x46C2 JUMP JUMPDEST SWAP1 POP PUSH1 0x0 PUSH1 0x6 DUP3 DUP2 SLOAD DUP2 LT PUSH2 0xEF7 JUMPI PUSH4 0x4E487B71 PUSH1 0xE0 SHL PUSH1 0x0 MSTORE PUSH1 0x32 PUSH1 0x4 MSTORE PUSH1 0x24 PUSH1 0x0 REVERT JUMPDEST PUSH1 0x0 SWAP2 DUP3 MSTORE PUSH1 0x20 SWAP1 SWAP2 KECCAK256 PUSH1 0x2 PUSH1 0x5 SWAP1 SWAP3 MUL ADD DUP2 ADD SLOAD SWAP1 SLOAD PUSH1 0x40 MLOAD PUSH4 0x70A08231 PUSH1 0xE0 SHL DUP2 MSTORE SWAP2 SWAP3 POP DUP3 SWAP2 PUSH1 0x1 PUSH1 0x1 PUSH1 0xA0 SHL SUB SWAP1 SWAP2 AND SWAP1 PUSH4 0x70A08231 SWAP1 PUSH2 0xF40 SWAP1 ADDRESS SWAP1 PUSH1 0x4 ADD PUSH2 0x3D79 JUMP JUMPDEST PUSH1 0x20 PUSH1 0x40 MLOAD DUP1 DUP4 SUB DUP2 DUP7 DUP1 EXTCODESIZE ISZERO DUP1 ISZERO PUSH2 0xF58 JUMPI PUSH1 0x0 DUP1 REVERT JUMPDEST POP GAS STATICCALL ISZERO DUP1 ISZERO PUSH2 0xF6C JUMPI RETURNDATASIZE PUSH1 0x0 DUP1 RETURNDATACOPY RETURNDATASIZE PUSH1 0x0 REVERT JUMPDEST POP POP POP POP PUSH1 0x40 MLOAD RETURNDATASIZE PUSH1 0x1F NOT PUSH1 0x1F DUP3 ADD AND DUP3 ADD DUP1 PUSH1 0x40 MSTORE POP DUP2 ADD SWAP1 PUSH2 0xF90 SWAP2 SWAP1 PUSH2 0x3B00 JUMP JUMPDEST LT ISZERO PUSH2 0xFAE JUMPI PUSH1 0x40 MLOAD PUSH3 0x461BCD PUSH1 0xE5 SHL DUP2 MSTORE PUSH1 0x4 ADD PUSH2 0x6B4 SWAP1 PUSH2 0x3EF2 JUMP JUMPDEST PUSH1 0x0 DUP6 DUP2 MSTORE PUSH1 0xB PUSH1 0x20 MSTORE PUSH1 0x40 SWAP1 KECCAK256 SLOAD PUSH4 0xFFFFFFFF AND ISZERO PUSH2 0xFE2 JUMPI PUSH1 0x0 DUP6 DUP2 MSTORE PUSH1 0xB PUSH1 0x20 MSTORE PUSH1 0x40 SWAP1 KECCAK256 DUP1 SLOAD PUSH4 0xFFFFFFFF NOT AND SWAP1 SSTORE JUMPDEST PUSH1 0x6 DUP3 DUP2 SLOAD DUP2 LT PUSH2 0x1003 JUMPI PUSH4 0x4E487B71 PUSH1 0xE0 SHL PUSH1 0x0 MSTORE PUSH1 0x32 PUSH1 0x4 MSTORE PUSH1 0x24 PUSH1 0x0 REVERT JUMPDEST PUSH1 0x0 SWAP2 DUP3 MSTORE PUSH1 0x20 DUP3 KECCAK256 PUSH1 0x4 PUSH1 0x5 SWAP1 SWAP3 MUL ADD ADD DUP1 SLOAD PUSH4 0xFFFFFFFF AND SWAP2 PUSH2 0x1027 DUP4 PUSH2 0x47BB JUMP JUMPDEST DUP3 SLOAD PUSH2 0x100 SWAP3 SWAP1 SWAP3 EXP PUSH4 0xFFFFFFFF DUP2 DUP2 MUL NOT SWAP1 SWAP4 AND SWAP2 DUP4 AND MUL OR SWAP1 SWAP2 SSTORE DUP5 AND PUSH1 0x0 SWAP1 DUP2 MSTORE PUSH1 0xA PUSH1 0x20 MSTORE PUSH1 0x40 SWAP1 KECCAK256 SLOAD ISZERO SWAP1 POP PUSH2 0x1083 JUMPI PUSH4 0xFFFFFFFF DUP4 AND PUSH1 0x0 SWAP1 DUP2 MSTORE PUSH1 0xA PUSH1 0x20 MSTORE PUSH1 0x40 DUP2 KECCAK256 DUP1 SLOAD SWAP2 PUSH2 0x107D DUP4 PUSH2 0x472E JUMP JUMPDEST SWAP2 SWAP1 POP SSTORE POP JUMPDEST PUSH1 0x1 SLOAD PUSH1 0x40 MLOAD PUSH4 0x852CD8D PUSH1 0xE3 SHL DUP2 MSTORE PUSH1 0x1 PUSH1 0x1 PUSH1 0xA0 SHL SUB SWAP1 SWAP2 AND SWAP1 PUSH4 0x42966C68 SWAP1 PUSH2 0x10B3 SWAP1 DUP9 SWAP1 PUSH1 0x4 ADD PUSH2 0x4527 JUMP JUMPDEST PUSH1 0x0 PUSH1 0x40 MLOAD DUP1 DUP4 SUB DUP2 PUSH1 0x0 DUP8 DUP1 EXTCODESIZE ISZERO DUP1 ISZERO PUSH2 0x10CD JUMPI PUSH1 0x0 DUP1 REVERT JUMPDEST POP GAS CALL ISZERO DUP1 ISZERO PUSH2 0x10E1 JUMPI RETURNDATASIZE PUSH1 0x0 DUP1 RETURNDATACOPY RETURNDATASIZE PUSH1 0x0 REVERT JUMPDEST POP POP PUSH1 0x4 SLOAD PUSH1 0x1 PUSH1 0xA0 SHL SWAP1 DIV PUSH1 0xFF AND ISZERO SWAP2 POP PUSH2 0x1236 SWAP1 POP JUMPI PUSH1 0x5 SLOAD PUSH2 0x1107 SWAP1 PUSH1 0x64 PUSH2 0x46C2 JUMP JUMPDEST PUSH1 0x6 DUP4 DUP2 SLOAD DUP2 LT PUSH2 0x1128 JUMPI PUSH4 0x4E487B71 PUSH1 0xE0 SHL PUSH1 0x0 MSTORE PUSH1 0x32 PUSH1 0x4 MSTORE PUSH1 0x24 PUSH1 0x0 REVERT JUMPDEST SWAP1 PUSH1 0x0 MSTORE PUSH1 0x20 PUSH1 0x0 KECCAK256 SWAP1 PUSH1 0x5 MUL ADD PUSH1 0x1 ADD PUSH1 0x0 DUP3 DUP3 SLOAD PUSH2 0x1148 SWAP2 SWAP1 PUSH2 0x46A3 JUMP JUMPDEST SWAP3 POP POP DUP2 SWAP1 SSTORE POP PUSH1 0x64 PUSH1 0x6 DUP4 DUP2 SLOAD DUP2 LT PUSH2 0x1172 JUMPI PUSH4 0x4E487B71 PUSH1 0xE0 SHL PUSH1 0x0 MSTORE PUSH1 0x32 PUSH1 0x4 MSTORE PUSH1 0x24 PUSH1 0x0 REVERT JUMPDEST SWAP1 PUSH1 0x0 MSTORE PUSH1 0x20 PUSH1 0x0 KECCAK256 SWAP1 PUSH1 0x5 MUL ADD PUSH1 0x1 ADD PUSH1 0x0 DUP3 DUP3 SLOAD PUSH2 0x1192 SWAP2 SWAP1 PUSH2 0x4683 JUMP JUMPDEST SWAP1 SWAP2 SSTORE POP POP PUSH1 0x5 SLOAD PUSH2 0x11A5 SWAP1 PUSH1 0x64 PUSH2 0x46C2 JUMP JUMPDEST PUSH1 0x6 DUP4 DUP2 SLOAD DUP2 LT PUSH2 0x11C6 JUMPI PUSH4 0x4E487B71 PUSH1 0xE0 SHL PUSH1 0x0 MSTORE PUSH1 0x32 PUSH1 0x4 MSTORE PUSH1 0x24 PUSH1 0x0 REVERT JUMPDEST SWAP1 PUSH1 0x0 MSTORE PUSH1 0x20 PUSH1 0x0 KECCAK256 SWAP1 PUSH1 0x5 MUL ADD PUSH1 0x2 ADD PUSH1 0x0 DUP3 DUP3 SLOAD PUSH2 0x11E6 SWAP2 SWAP1 PUSH2 0x46A3 JUMP JUMPDEST SWAP3 POP POP DUP2 SWAP1 SSTORE POP PUSH1 0x64 PUSH1 0x6 DUP4 DUP2 SLOAD DUP2 LT PUSH2 0x1210 JUMPI PUSH4 0x4E487B71 PUSH1 0xE0 SHL PUSH1 0x0 MSTORE PUSH1 0x32 PUSH1 0x4 MSTORE PUSH1 0x24 PUSH1 0x0 REVERT JUMPDEST SWAP1 PUSH1 0x0 MSTORE PUSH1 0x20 PUSH1 0x0 KECCAK256 SWAP1 PUSH1 0x5 MUL ADD PUSH1 0x2 ADD PUSH1 0x0 DUP3 DUP3 SLOAD PUSH2 0x1230 SWAP2 SWAP1 PUSH2 0x4683 JUMP JUMPDEST SWAP1 SWAP2 SSTORE POP POP JUMPDEST PUSH32 0x474D6188A0935B1C81C51A2B50FEAA24683EDDF88908AF6FB56E657989179A4F DUP4 DUP7 CALLER DUP5 PUSH1 0x40 MLOAD PUSH2 0x126B SWAP5 SWAP4 SWAP3 SWAP2 SWAP1 PUSH2 0x458E JUMP JUMPDEST PUSH1 0x40 MLOAD DUP1 SWAP2 SUB SWAP1 LOG1 PUSH1 0x2 SLOAD PUSH1 0x40 MLOAD PUSH4 0xA9059CBB PUSH1 0xE0 SHL DUP2 MSTORE PUSH1 0x1 PUSH1 0x1 PUSH1 0xA0 SHL SUB SWAP1 SWAP2 AND SWAP1 PUSH4 0xA9059CBB SWAP1 PUSH2 0x12A5 SWAP1 CALLER SWAP1 DUP6 SWAP1 PUSH1 0x4 ADD PUSH2 0x3DB1 JUMP JUMPDEST PUSH1 0x20 PUSH1 0x40 MLOAD DUP1 DUP4 SUB DUP2 PUSH1 0x0 DUP8 DUP1 EXTCODESIZE ISZERO DUP1 ISZERO PUSH2 0x12BF JUMPI PUSH1 0x0 DUP1 REVERT JUMPDEST POP GAS CALL ISZERO DUP1 ISZERO PUSH2 0x12D3 JUMPI RETURNDATASIZE PUSH1 0x0 DUP1 RETURNDATACOPY RETURNDATASIZE PUSH1 0x0 REVERT JUMPDEST POP POP POP POP PUSH1 0x40 MLOAD RETURNDATASIZE PUSH1 0x1F NOT PUSH1 0x1F DUP3 ADD AND DUP3 ADD DUP1 PUSH1 0x40 MSTORE POP DUP2 ADD SWAP1 PUSH2 0x12F7 SWAP2 SWAP1 PUSH2 0x39DC JUMP JUMPDEST PUSH2 0x1313 JUMPI PUSH1 0x40 MLOAD PUSH3 0x461BCD PUSH1 0xE5 SHL DUP2 MSTORE PUSH1 0x4 ADD PUSH2 0x6B4 SWAP1 PUSH2 0x402C JUMP JUMPDEST POP PUSH1 0x1 SWAP5 SWAP4 POP POP POP POP JUMP JUMPDEST PUSH1 0x3 SLOAD PUSH1 0x0 SWAP1 PUSH1 0x1 PUSH1 0x1 PUSH1 0xA0 SHL SUB AND CALLER EQ DUP1 PUSH2 0x1352 JUMPI POP PUSH2 0x133D PUSH2 0x1FFC JUMP JUMPDEST PUSH1 0x1 PUSH1 0x1 PUSH1 0xA0 SHL SUB AND CALLER PUSH1 0x1 PUSH1 0x1 PUSH1 0xA0 SHL SUB AND EQ JUMPDEST PUSH2 0x136E JUMPI PUSH1 0x40 MLOAD PUSH3 0x461BCD PUSH1 0xE5 SHL DUP2 MSTORE PUSH1 0x4 ADD PUSH2 0x6B4 SWAP1 PUSH2 0x421E JUMP JUMPDEST POP PUSH1 0x4 DUP1 SLOAD PUSH1 0xFF PUSH1 0xA0 SHL NOT AND SWAP1 SSTORE PUSH1 0x1 SWAP1 JUMP JUMPDEST PUSH1 0x3 SLOAD PUSH1 0x0 SWAP1 PUSH1 0x1 PUSH1 0x1 PUSH1 0xA0 SHL SUB AND CALLER EQ DUP1 PUSH2 0x13B5 JUMPI POP PUSH2 0x13A0 PUSH2 0x1FFC JUMP JUMPDEST PUSH1 0x1 PUSH1 0x1 PUSH1 0xA0 SHL SUB AND CALLER PUSH1 0x1 PUSH1 0x1 PUSH1 0xA0 SHL SUB AND EQ JUMPDEST PUSH2 0x13D1 JUMPI PUSH1 0x40 MLOAD PUSH3 0x461BCD PUSH1 0xE5 SHL DUP2 MSTORE PUSH1 0x4 ADD PUSH2 0x6B4 SWAP1 PUSH2 0x421E JUMP JUMPDEST PUSH4 0xFFFFFFFF DUP4 AND PUSH1 0x0 SWAP1 DUP2 MSTORE PUSH1 0x9 PUSH1 0x20 MSTORE PUSH1 0x40 SWAP1 KECCAK256 SLOAD PUSH2 0x1403 JUMPI PUSH1 0x40 MLOAD PUSH3 0x461BCD PUSH1 0xE5 SHL DUP2 MSTORE PUSH1 0x4 ADD PUSH2 0x6B4 SWAP1 PUSH2 0x3FE9 JUMP JUMPDEST PUSH4 0xFFFFFFFF DUP4 AND PUSH1 0x0 SWAP1 DUP2 MSTORE PUSH1 0x9 PUSH1 0x20 MSTORE PUSH1 0x40 SWAP1 KECCAK256 SLOAD DUP3 SWAP1 PUSH1 0x6 SWAP1 PUSH2 0x142A SWAP1 PUSH1 0x1 SWAP1 PUSH2 0x46C2 JUMP JUMPDEST DUP2 SLOAD DUP2 LT PUSH2 0x1448 JUMPI PUSH4 0x4E487B71 PUSH1 0xE0 SHL PUSH1 0x0 MSTORE PUSH1 0x32 PUSH1 0x4 MSTORE PUSH1 0x24 PUSH1 0x0 REVERT JUMPDEST PUSH1 0x0 SWAP2 DUP3 MSTORE PUSH1 0x20 SWAP1 SWAP2 KECCAK256 PUSH1 0x2 PUSH1 0x5 SWAP1 SWAP3 MUL ADD ADD SSTORE POP PUSH1 0x1 SWAP3 SWAP2 POP POP JUMP JUMPDEST PUSH1 0x1 SLOAD PUSH1 0x1 PUSH1 0x1 PUSH1 0xA0 SHL SUB AND SWAP1 JUMP JUMPDEST PUSH1 0x8 SLOAD SWAP1 JUMP JUMPDEST PUSH1 0x3 SLOAD PUSH1 0x0 SWAP1 PUSH1 0x1 PUSH1 0x1 PUSH1 0xA0 SHL SUB AND CALLER EQ DUP1 PUSH2 0x14AE JUMPI POP PUSH2 0x1499 PUSH2 0x1FFC JUMP JUMPDEST PUSH1 0x1 PUSH1 0x1 PUSH1 0xA0 SHL SUB AND CALLER PUSH1 0x1 PUSH1 0x1 PUSH1 0xA0 SHL SUB AND EQ JUMPDEST PUSH2 0x14CA JUMPI PUSH1 0x40 MLOAD PUSH3 0x461BCD PUSH1 0xE5 SHL DUP2 MSTORE PUSH1 0x4 ADD PUSH2 0x6B4 SWAP1 PUSH2 0x421E JUMP JUMPDEST PUSH4 0xFFFFFFFF DUP5 AND PUSH1 0x0 SWAP1 DUP2 MSTORE PUSH1 0x9 PUSH1 0x20 MSTORE PUSH1 0x40 SWAP1 KECCAK256 SLOAD PUSH2 0x14FC JUMPI PUSH1 0x40 MLOAD PUSH3 0x461BCD PUSH1 0xE5 SHL DUP2 MSTORE PUSH1 0x4 ADD PUSH2 0x6B4 SWAP1 PUSH2 0x3FE9 JUMP JUMPDEST PUSH1 0x0 DUP3 DUP2 MSTORE PUSH1 0xB PUSH1 0x20 MSTORE PUSH1 0x40 SWAP1 KECCAK256 SLOAD PUSH4 0xFFFFFFFF AND ISZERO PUSH2 0x152E JUMPI PUSH1 0x40 MLOAD PUSH3 0x461BCD PUSH1 0xE5 SHL DUP2 MSTORE PUSH1 0x4 ADD PUSH2 0x6B4 SWAP1 PUSH2 0x3F6C JUMP JUMPDEST PUSH1 0x1 SLOAD PUSH1 0x40 MLOAD PUSH4 0x31A9108F PUSH1 0xE1 SHL DUP2 MSTORE PUSH1 0x1 PUSH1 0x1 PUSH1 0xA0 SHL SUB SWAP1 SWAP2 AND SWAP1 PUSH4 0x6352211E SWAP1 PUSH2 0x155E SWAP1 DUP6 SWAP1 PUSH1 0x4 ADD PUSH2 0x4527 JUMP JUMPDEST PUSH1 0x20 PUSH1 0x40 MLOAD DUP1 DUP4 SUB DUP2 DUP7 DUP1 EXTCODESIZE ISZERO DUP1 ISZERO PUSH2 0x1576 JUMPI PUSH1 0x0 DUP1 REVERT JUMPDEST POP GAS STATICCALL SWAP3 POP POP POP DUP1 ISZERO PUSH2 0x15A6 JUMPI POP PUSH1 0x40 DUP1 MLOAD PUSH1 0x1F RETURNDATASIZE SWAP1 DUP2 ADD PUSH1 0x1F NOT AND DUP3 ADD SWAP1 SWAP3 MSTORE PUSH2 0x15A3 SWAP2 DUP2 ADD SWAP1 PUSH2 0x392C JUMP JUMPDEST PUSH1 0x1 JUMPDEST PUSH2 0x15AF JUMPI PUSH2 0x15C7 JUMP JUMPDEST PUSH1 0x40 MLOAD PUSH3 0x461BCD PUSH1 0xE5 SHL DUP2 MSTORE PUSH1 0x4 ADD PUSH2 0x6B4 SWAP1 PUSH2 0x3F6C JUMP JUMPDEST PUSH1 0x1 PUSH1 0x1 PUSH1 0xA0 SHL SUB DUP4 AND PUSH2 0x15ED JUMPI PUSH1 0x40 MLOAD PUSH3 0x461BCD PUSH1 0xE5 SHL DUP2 MSTORE PUSH1 0x4 ADD PUSH2 0x6B4 SWAP1 PUSH2 0x4152 JUMP JUMPDEST PUSH4 0xFFFFFFFF DUP5 AND PUSH1 0x0 SWAP1 DUP2 MSTORE PUSH1 0x9 PUSH1 0x20 MSTORE PUSH1 0x40 DUP2 KECCAK256 SLOAD PUSH2 0x160F SWAP1 PUSH1 0x1 SWAP1 PUSH2 0x46C2 JUMP JUMPDEST PUSH4 0xFFFFFFFF DUP7 AND PUSH1 0x0 SWAP1 DUP2 MSTORE PUSH1 0xA PUSH1 0x20 MSTORE PUSH1 0x40 DUP2 KECCAK256 DUP1 SLOAD SWAP3 SWAP4 POP SWAP1 PUSH2 0x1633 DUP4 PUSH2 0x47A0 JUMP JUMPDEST SWAP1 SWAP2 SSTORE POP POP PUSH1 0x0 DUP4 DUP2 MSTORE PUSH1 0xB PUSH1 0x20 MSTORE PUSH1 0x40 SWAP1 KECCAK256 DUP1 SLOAD PUSH4 0xFFFFFFFF NOT AND PUSH4 0xFFFFFFFF DUP8 AND OR SWAP1 SSTORE PUSH1 0x1 SLOAD PUSH1 0x6 DUP1 SLOAD PUSH1 0x1 PUSH1 0x1 PUSH1 0xA0 SHL SUB SWAP1 SWAP3 AND SWAP2 PUSH4 0xD3FC9864 SWAP2 DUP8 SWAP2 DUP8 SWAP2 SWAP1 DUP7 SWAP1 DUP2 LT PUSH2 0x1695 JUMPI PUSH4 0x4E487B71 PUSH1 0xE0 SHL PUSH1 0x0 MSTORE PUSH1 0x32 PUSH1 0x4 MSTORE PUSH1 0x24 PUSH1 0x0 REVERT JUMPDEST SWAP1 PUSH1 0x0 MSTORE PUSH1 0x20 PUSH1 0x0 KECCAK256 SWAP1 PUSH1 0x5 MUL ADD PUSH1 0x3 ADD PUSH1 0x40 MLOAD DUP5 PUSH4 0xFFFFFFFF AND PUSH1 0xE0 SHL DUP2 MSTORE PUSH1 0x4 ADD PUSH2 0x16C4 SWAP4 SWAP3 SWAP2 SWAP1 PUSH2 0x3DCA JUMP JUMPDEST PUSH1 0x0 PUSH1 0x40 MLOAD DUP1 DUP4 SUB DUP2 PUSH1 0x0 DUP8 DUP1 EXTCODESIZE ISZERO DUP1 ISZERO PUSH2 0x16DE JUMPI PUSH1 0x0 DUP1 REVERT JUMPDEST POP GAS CALL ISZERO DUP1 ISZERO PUSH2 0x16F2 JUMPI RETURNDATASIZE PUSH1 0x0 DUP1 RETURNDATACOPY RETURNDATASIZE PUSH1 0x0 REVERT JUMPDEST POP POP POP POP PUSH32 0x7758C1736FE471CBBFB2DECFD56015182A376E8753B390846FA0C3A23036B34 DUP6 DUP5 DUP7 PUSH1 0x6 DUP6 DUP2 SLOAD DUP2 LT PUSH2 0x173B JUMPI PUSH4 0x4E487B71 PUSH1 0xE0 SHL PUSH1 0x0 MSTORE PUSH1 0x32 PUSH1 0x4 MSTORE PUSH1 0x24 PUSH1 0x0 REVERT JUMPDEST SWAP1 PUSH1 0x0 MSTORE PUSH1 0x20 PUSH1 0x0 KECCAK256 SWAP1 PUSH1 0x5 MUL ADD PUSH1 0x1 ADD SLOAD PUSH1 0x40 MLOAD PUSH2 0x175D SWAP5 SWAP4 SWAP3 SWAP2 SWAP1 PUSH2 0x458E JUMP JUMPDEST PUSH1 0x40 MLOAD DUP1 SWAP2 SUB SWAP1 LOG1 POP SWAP1 SWAP4 SWAP3 POP POP POP JUMP JUMPDEST PUSH1 0x60 DUP1 PUSH1 0x60 PUSH1 0x0 PUSH1 0x6 DUP1 SLOAD SWAP1 POP PUSH8 0xFFFFFFFFFFFFFFFF DUP2 GT ISZERO PUSH2 0x17A1 JUMPI PUSH4 0x4E487B71 PUSH1 0xE0 SHL PUSH1 0x0 MSTORE PUSH1 0x41 PUSH1 0x4 MSTORE PUSH1 0x24 PUSH1 0x0 REVERT JUMPDEST PUSH1 0x40 MLOAD SWAP1 DUP1 DUP3 MSTORE DUP1 PUSH1 0x20 MUL PUSH1 0x20 ADD DUP3 ADD PUSH1 0x40 MSTORE DUP1 ISZERO PUSH2 0x17CA JUMPI DUP2 PUSH1 0x20 ADD PUSH1 0x20 DUP3 MUL DUP1 CALLDATASIZE DUP4 CALLDATACOPY ADD SWAP1 POP JUMPDEST POP PUSH1 0x6 SLOAD SWAP1 SWAP2 POP PUSH1 0x0 SWAP1 PUSH8 0xFFFFFFFFFFFFFFFF DUP2 GT ISZERO PUSH2 0x17FA JUMPI PUSH4 0x4E487B71 PUSH1 0xE0 SHL PUSH1 0x0 MSTORE PUSH1 0x41 PUSH1 0x4 MSTORE PUSH1 0x24 PUSH1 0x0 REVERT JUMPDEST PUSH1 0x40 MLOAD SWAP1 DUP1 DUP3 MSTORE DUP1 PUSH1 0x20 MUL PUSH1 0x20 ADD DUP3 ADD PUSH1 0x40 MSTORE DUP1 ISZERO PUSH2 0x1823 JUMPI DUP2 PUSH1 0x20 ADD PUSH1 0x20 DUP3 MUL DUP1 CALLDATASIZE DUP4 CALLDATACOPY ADD SWAP1 POP JUMPDEST POP PUSH1 0x6 SLOAD SWAP1 SWAP2 POP PUSH1 0x0 SWAP1 PUSH8 0xFFFFFFFFFFFFFFFF DUP2 GT ISZERO PUSH2 0x1853 JUMPI PUSH4 0x4E487B71 PUSH1 0xE0 SHL PUSH1 0x0 MSTORE PUSH1 0x41 PUSH1 0x4 MSTORE PUSH1 0x24 PUSH1 0x0 REVERT JUMPDEST PUSH1 0x40 MLOAD SWAP1 DUP1 DUP3 MSTORE DUP1 PUSH1 0x20 MUL PUSH1 0x20 ADD DUP3 ADD PUSH1 0x40 MSTORE DUP1 ISZERO PUSH2 0x187C JUMPI DUP2 PUSH1 0x20 ADD PUSH1 0x20 DUP3 MUL DUP1 CALLDATASIZE DUP4 CALLDATACOPY ADD SWAP1 POP JUMPDEST POP SWAP1 POP PUSH1 0x0 JUMPDEST PUSH1 0x6 SLOAD DUP2 LT ISZERO PUSH2 0x19D2 JUMPI PUSH1 0x6 DUP2 DUP2 SLOAD DUP2 LT PUSH2 0x18AD JUMPI PUSH4 0x4E487B71 PUSH1 0xE0 SHL PUSH1 0x0 MSTORE PUSH1 0x32 PUSH1 0x4 MSTORE PUSH1 0x24 PUSH1 0x0 REVERT JUMPDEST PUSH1 0x0 SWAP2 DUP3 MSTORE PUSH1 0x20 SWAP1 SWAP2 KECCAK256 PUSH1 0x5 SWAP1 SWAP2 MUL ADD SLOAD DUP5 MLOAD PUSH4 0xFFFFFFFF SWAP1 SWAP2 AND SWAP1 DUP6 SWAP1 DUP4 SWAP1 DUP2 LT PUSH2 0x18E9 JUMPI PUSH4 0x4E487B71 PUSH1 0xE0 SHL PUSH1 0x0 MSTORE PUSH1 0x32 PUSH1 0x4 MSTORE PUSH1 0x24 PUSH1 0x0 REVERT JUMPDEST PUSH1 0x20 MUL PUSH1 0x20 ADD ADD SWAP1 PUSH4 0xFFFFFFFF AND SWAP1 DUP2 PUSH4 0xFFFFFFFF AND DUP2 MSTORE POP POP PUSH1 0x6 DUP2 DUP2 SLOAD DUP2 LT PUSH2 0x1924 JUMPI PUSH4 0x4E487B71 PUSH1 0xE0 SHL PUSH1 0x0 MSTORE PUSH1 0x32 PUSH1 0x4 MSTORE PUSH1 0x24 PUSH1 0x0 REVERT JUMPDEST SWAP1 PUSH1 0x0 MSTORE PUSH1 0x20 PUSH1 0x0 KECCAK256 SWAP1 PUSH1 0x5 MUL ADD PUSH1 0x1 ADD SLOAD DUP4 DUP3 DUP2 MLOAD DUP2 LT PUSH2 0x1956 JUMPI PUSH4 0x4E487B71 PUSH1 0xE0 SHL PUSH1 0x0 MSTORE PUSH1 0x32 PUSH1 0x4 MSTORE PUSH1 0x24 PUSH1 0x0 REVERT JUMPDEST PUSH1 0x20 MUL PUSH1 0x20 ADD ADD DUP2 DUP2 MSTORE POP POP PUSH1 0x6 DUP2 DUP2 SLOAD DUP2 LT PUSH2 0x1983 JUMPI PUSH4 0x4E487B71 PUSH1 0xE0 SHL PUSH1 0x0 MSTORE PUSH1 0x32 PUSH1 0x4 MSTORE PUSH1 0x24 PUSH1 0x0 REVERT JUMPDEST SWAP1 PUSH1 0x0 MSTORE PUSH1 0x20 PUSH1 0x0 KECCAK256 SWAP1 PUSH1 0x5 MUL ADD PUSH1 0x2 ADD SLOAD DUP3 DUP3 DUP2 MLOAD DUP2 LT PUSH2 0x19B5 JUMPI PUSH4 0x4E487B71 PUSH1 0xE0 SHL PUSH1 0x0 MSTORE PUSH1 0x32 PUSH1 0x4 MSTORE PUSH1 0x24 PUSH1 0x0 REVERT JUMPDEST PUSH1 0x20 SWAP1 DUP2 MUL SWAP2 SWAP1 SWAP2 ADD ADD MSTORE DUP1 PUSH2 0x19CA DUP2 PUSH2 0x47A0 JUMP JUMPDEST SWAP2 POP POP PUSH2 0x1882 JUMP JUMPDEST POP SWAP2 SWAP5 POP SWAP3 POP SWAP1 POP SWAP1 SWAP2 SWAP3 JUMP JUMPDEST PUSH4 0xFFFFFFFF DUP3 AND PUSH1 0x0 SWAP1 DUP2 MSTORE PUSH1 0xD PUSH1 0x20 SWAP1 DUP2 MSTORE PUSH1 0x40 DUP1 DUP4 KECCAK256 PUSH1 0x1 PUSH1 0x1 PUSH1 0xA0 SHL SUB DUP6 AND DUP5 MSTORE SWAP1 SWAP2 MSTORE SWAP1 KECCAK256 SLOAD PUSH1 0xFF AND SWAP3 SWAP2 POP POP JUMP JUMPDEST PUSH1 0x3 SLOAD PUSH1 0x0 SWAP1 PUSH1 0x1 PUSH1 0x1 PUSH1 0xA0 SHL SUB AND CALLER EQ DUP1 PUSH2 0x1A46 JUMPI POP PUSH2 0x1A31 PUSH2 0x1FFC JUMP JUMPDEST PUSH1 0x1 PUSH1 0x1 PUSH1 0xA0 SHL SUB AND CALLER PUSH1 0x1 PUSH1 0x1 PUSH1 0xA0 SHL SUB AND EQ JUMPDEST PUSH2 0x1A62 JUMPI PUSH1 0x40 MLOAD PUSH3 0x461BCD PUSH1 0xE5 SHL DUP2 MSTORE PUSH1 0x4 ADD PUSH2 0x6B4 SWAP1 PUSH2 0x421E JUMP JUMPDEST PUSH1 0x0 PUSH1 0x40 MLOAD DUP1 PUSH1 0xA0 ADD PUSH1 0x40 MSTORE DUP1 DUP10 PUSH4 0xFFFFFFFF AND DUP2 MSTORE PUSH1 0x20 ADD DUP9 DUP2 MSTORE PUSH1 0x20 ADD DUP8 DUP2 MSTORE PUSH1 0x20 ADD DUP7 DUP7 DUP1 DUP1 PUSH1 0x1F ADD PUSH1 0x20 DUP1 SWAP2 DIV MUL PUSH1 0x20 ADD PUSH1 0x40 MLOAD SWAP1 DUP2 ADD PUSH1 0x40 MSTORE DUP1 SWAP4 SWAP3 SWAP2 SWAP1 DUP2 DUP2 MSTORE PUSH1 0x20 ADD DUP4 DUP4 DUP1 DUP3 DUP5 CALLDATACOPY PUSH1 0x0 SWAP3 ADD DUP3 SWAP1 MSTORE POP SWAP4 DUP6 MSTORE POP POP POP PUSH4 0xFFFFFFFF DUP1 DUP8 AND PUSH1 0x20 SWAP4 DUP5 ADD MSTORE DUP12 AND DUP2 MSTORE PUSH1 0x9 SWAP1 SWAP2 MSTORE PUSH1 0x40 SWAP1 KECCAK256 SLOAD SWAP1 SWAP2 POP ISZERO PUSH2 0x1AFB JUMPI PUSH1 0x40 MLOAD PUSH3 0x461BCD PUSH1 0xE5 SHL DUP2 MSTORE PUSH1 0x4 ADD PUSH2 0x6B4 SWAP1 PUSH2 0x43C8 JUMP JUMPDEST PUSH1 0x0 DUP6 DUP6 PUSH1 0x40 MLOAD PUSH2 0x1B0D SWAP3 SWAP2 SWAP1 PUSH2 0x3CFA JUMP JUMPDEST PUSH1 0x40 DUP1 MLOAD SWAP2 DUP3 SWAP1 SUB SWAP1 SWAP2 KECCAK256 PUSH1 0x0 DUP2 DUP2 MSTORE PUSH1 0xC PUSH1 0x20 MSTORE SWAP2 SWAP1 SWAP2 KECCAK256 SLOAD SWAP1 SWAP2 POP PUSH4 0xFFFFFFFF AND ISZERO PUSH2 0x1B4D JUMPI PUSH1 0x40 MLOAD PUSH3 0x461BCD PUSH1 0xE5 SHL DUP2 MSTORE PUSH1 0x4 ADD PUSH2 0x6B4 SWAP1 PUSH2 0x4409 JUMP JUMPDEST PUSH1 0x6 DUP1 SLOAD PUSH1 0x1 DUP2 ADD DUP3 SSTORE PUSH1 0x0 SWAP2 SWAP1 SWAP2 MSTORE DUP3 MLOAD PUSH32 0xF652222313E28459528D920B65115C16C04F3EFC82AAEDC97BE59F3F377C0D3F PUSH1 0x5 SWAP1 SWAP3 MUL SWAP2 DUP3 ADD DUP1 SLOAD PUSH4 0xFFFFFFFF NOT AND PUSH4 0xFFFFFFFF SWAP1 SWAP3 AND SWAP2 SWAP1 SWAP2 OR DUP2 SSTORE PUSH1 0x20 DUP1 DUP6 ADD MLOAD PUSH32 0xF652222313E28459528D920B65115C16C04F3EFC82AAEDC97BE59F3F377C0D40 DUP5 ADD SSTORE PUSH1 0x40 DUP6 ADD MLOAD PUSH32 0xF652222313E28459528D920B65115C16C04F3EFC82AAEDC97BE59F3F377C0D41 DUP5 ADD SSTORE PUSH1 0x60 DUP6 ADD MLOAD DUP1 MLOAD DUP7 SWAP5 PUSH2 0x1C2B SWAP4 PUSH32 0xF652222313E28459528D920B65115C16C04F3EFC82AAEDC97BE59F3F377C0D42 SWAP1 SWAP2 ADD SWAP3 ADD SWAP1 PUSH2 0x3760 JUMP JUMPDEST POP PUSH1 0x80 SWAP2 SWAP1 SWAP2 ADD MLOAD PUSH1 0x4 SWAP1 SWAP2 ADD DUP1 SLOAD PUSH4 0xFFFFFFFF SWAP3 DUP4 AND PUSH4 0xFFFFFFFF NOT SWAP2 DUP3 AND OR SWAP1 SWAP2 SSTORE PUSH1 0x6 SLOAD SWAP2 DUP12 AND PUSH1 0x0 DUP2 DUP2 MSTORE PUSH1 0x9 PUSH1 0x20 SWAP1 DUP2 MSTORE PUSH1 0x40 DUP1 DUP4 KECCAK256 SWAP6 SWAP1 SWAP6 SSTORE SWAP5 DUP2 MSTORE PUSH1 0xC SWAP1 SWAP5 MSTORE SWAP2 SWAP1 SWAP3 KECCAK256 DUP1 SLOAD SWAP1 SWAP3 AND OR SWAP1 SSTORE POP PUSH1 0x1 SWAP1 POP SWAP7 SWAP6 POP POP POP POP POP POP JUMP JUMPDEST PUSH4 0xFFFFFFFF DUP2 AND PUSH1 0x0 SWAP1 DUP2 MSTORE PUSH1 0x9 PUSH1 0x20 MSTORE PUSH1 0x40 DUP2 KECCAK256 SLOAD PUSH2 0x1CAF JUMPI POP PUSH1 0x0 PUSH2 0x668 JUMP JUMPDEST PUSH4 0xFFFFFFFF DUP3 AND PUSH1 0x0 SWAP1 DUP2 MSTORE PUSH1 0x9 PUSH1 0x20 MSTORE PUSH1 0x40 SWAP1 KECCAK256 SLOAD PUSH1 0x6 SWAP1 PUSH2 0x1CD4 SWAP1 PUSH1 0x1 SWAP1 PUSH2 0x46C2 JUMP JUMPDEST DUP2 SLOAD DUP2 LT PUSH2 0x1CF2 JUMPI PUSH4 0x4E487B71 PUSH1 0xE0 SHL PUSH1 0x0 MSTORE PUSH1 0x32 PUSH1 0x4 MSTORE PUSH1 0x24 PUSH1 0x0 REVERT JUMPDEST SWAP1 PUSH1 0x0 MSTORE PUSH1 0x20 PUSH1 0x0 KECCAK256 SWAP1 PUSH1 0x5 MUL ADD PUSH1 0x1 ADD SLOAD SWAP1 POP SWAP2 SWAP1 POP JUMP JUMPDEST PUSH1 0x0 PUSH2 0x1D15 PUSH2 0x33C0 JUMP JUMPDEST PUSH1 0x1 PUSH1 0x1 PUSH1 0xA0 SHL SUB AND PUSH2 0x1D26 PUSH2 0x1FFC JUMP JUMPDEST PUSH1 0x1 PUSH1 0x1 PUSH1 0xA0 SHL SUB AND EQ PUSH2 0x1D4C JUMPI PUSH1 0x40 MLOAD PUSH3 0x461BCD PUSH1 0xE5 SHL DUP2 MSTORE PUSH1 0x4 ADD PUSH2 0x6B4 SWAP1 PUSH2 0x4270 JUMP JUMPDEST PUSH1 0x1 PUSH1 0x1 PUSH1 0xA0 SHL SUB DUP3 AND PUSH2 0x1D72 JUMPI PUSH1 0x40 MLOAD PUSH3 0x461BCD PUSH1 0xE5 SHL DUP2 MSTORE PUSH1 0x4 ADD PUSH2 0x6B4 SWAP1 PUSH2 0x4494 JUMP JUMPDEST POP PUSH1 0x2 DUP1 SLOAD PUSH1 0x1 PUSH1 0x1 PUSH1 0xA0 SHL SUB DUP4 AND PUSH1 0x1 PUSH1 0x1 PUSH1 0xA0 SHL SUB NOT SWAP1 SWAP2 AND OR SWAP1 SSTORE PUSH1 0x1 SWAP2 SWAP1 POP JUMP JUMPDEST PUSH2 0x1D9F PUSH2 0x33C0 JUMP JUMPDEST PUSH1 0x1 PUSH1 0x1 PUSH1 0xA0 SHL SUB AND PUSH2 0x1DB0 PUSH2 0x1FFC JUMP JUMPDEST PUSH1 0x1 PUSH1 0x1 PUSH1 0xA0 SHL SUB AND EQ PUSH2 0x1DD6 JUMPI PUSH1 0x40 MLOAD PUSH3 0x461BCD PUSH1 0xE5 SHL DUP2 MSTORE PUSH1 0x4 ADD PUSH2 0x6B4 SWAP1 PUSH2 0x4270 JUMP JUMPDEST PUSH2 0x1DE0 PUSH1 0x0 PUSH2 0x3434 JUMP JUMPDEST JUMP JUMPDEST PUSH1 0x3 SLOAD PUSH1 0x0 SWAP1 PUSH1 0x1 PUSH1 0x1 PUSH1 0xA0 SHL SUB AND CALLER EQ DUP1 PUSH2 0x1E16 JUMPI POP PUSH2 0x1E01 PUSH2 0x1FFC JUMP JUMPDEST PUSH1 0x1 PUSH1 0x1 PUSH1 0xA0 SHL SUB AND CALLER PUSH1 0x1 PUSH1 0x1 PUSH1 0xA0 SHL SUB AND EQ JUMPDEST PUSH2 0x1E32 JUMPI PUSH1 0x40 MLOAD PUSH3 0x461BCD PUSH1 0xE5 SHL DUP2 MSTORE PUSH1 0x4 ADD PUSH2 0x6B4 SWAP1 PUSH2 0x421E JUMP JUMPDEST PUSH4 0xFFFFFFFF DUP4 AND PUSH1 0x0 SWAP1 DUP2 MSTORE PUSH1 0x9 PUSH1 0x20 MSTORE PUSH1 0x40 SWAP1 KECCAK256 SLOAD PUSH2 0x1E64 JUMPI PUSH1 0x40 MLOAD PUSH3 0x461BCD PUSH1 0xE5 SHL DUP2 MSTORE PUSH1 0x4 ADD PUSH2 0x6B4 SWAP1 PUSH2 0x3FE9 JUMP JUMPDEST PUSH4 0xFFFFFFFF DUP4 AND PUSH1 0x0 SWAP1 DUP2 MSTORE PUSH1 0x9 PUSH1 0x20 MSTORE PUSH1 0x40 SWAP1 KECCAK256 SLOAD DUP3 SWAP1 PUSH1 0x6 SWAP1 PUSH2 0x1E8B SWAP1 PUSH1 0x1 SWAP1 PUSH2 0x46C2 JUMP JUMPDEST DUP2 SLOAD DUP2 LT PUSH2 0x1EA9 JUMPI PUSH4 0x4E487B71 PUSH1 0xE0 SHL PUSH1 0x0 MSTORE PUSH1 0x32 PUSH1 0x4 MSTORE PUSH1 0x24 PUSH1 0x0 REVERT JUMPDEST SWAP1 PUSH1 0x0 MSTORE PUSH1 0x20 PUSH1 0x0 KECCAK256 SWAP1 PUSH1 0x5 MUL ADD PUSH1 0x1 ADD DUP2 SWAP1 SSTORE POP PUSH1 0x1 SWAP1 POP SWAP3 SWAP2 POP POP JUMP JUMPDEST PUSH1 0x3 SLOAD PUSH1 0x0 SWAP1 PUSH1 0x1 PUSH1 0x1 PUSH1 0xA0 SHL SUB AND CALLER EQ DUP1 PUSH2 0x1EFC JUMPI POP PUSH2 0x1EE7 PUSH2 0x1FFC JUMP JUMPDEST PUSH1 0x1 PUSH1 0x1 PUSH1 0xA0 SHL SUB AND CALLER PUSH1 0x1 PUSH1 0x1 PUSH1 0xA0 SHL SUB AND EQ JUMPDEST PUSH2 0x1F18 JUMPI PUSH1 0x40 MLOAD PUSH3 0x461BCD PUSH1 0xE5 SHL DUP2 MSTORE PUSH1 0x4 ADD PUSH2 0x6B4 SWAP1 PUSH2 0x421E JUMP JUMPDEST POP PUSH1 0x7 SSTORE PUSH1 0x1 SWAP1 JUMP JUMPDEST PUSH1 0x6 DUP2 DUP2 SLOAD DUP2 LT PUSH2 0x1F31 JUMPI PUSH1 0x0 DUP1 REVERT JUMPDEST PUSH1 0x0 SWAP2 DUP3 MSTORE PUSH1 0x20 SWAP1 SWAP2 KECCAK256 PUSH1 0x5 SWAP1 SWAP2 MUL ADD DUP1 SLOAD PUSH1 0x1 DUP3 ADD SLOAD PUSH1 0x2 DUP4 ADD SLOAD PUSH1 0x3 DUP5 ADD DUP1 SLOAD PUSH4 0xFFFFFFFF SWAP1 SWAP5 AND SWAP6 POP SWAP2 SWAP4 SWAP1 SWAP3 SWAP1 SWAP2 SWAP1 PUSH2 0x1F6D SWAP1 PUSH2 0x4765 JUMP JUMPDEST DUP1 PUSH1 0x1F ADD PUSH1 0x20 DUP1 SWAP2 DIV MUL PUSH1 0x20 ADD PUSH1 0x40 MLOAD SWAP1 DUP2 ADD PUSH1 0x40 MSTORE DUP1 SWAP3 SWAP2 SWAP1 DUP2 DUP2 MSTORE PUSH1 0x20 ADD DUP3 DUP1 SLOAD PUSH2 0x1F99 SWAP1 PUSH2 0x4765 JUMP JUMPDEST DUP1 ISZERO PUSH2 0x1FE6 JUMPI DUP1 PUSH1 0x1F LT PUSH2 0x1FBB JUMPI PUSH2 0x100 DUP1 DUP4 SLOAD DIV MUL DUP4 MSTORE SWAP2 PUSH1 0x20 ADD SWAP2 PUSH2 0x1FE6 JUMP JUMPDEST DUP3 ADD SWAP2 SWAP1 PUSH1 0x0 MSTORE PUSH1 0x20 PUSH1 0x0 KECCAK256 SWAP1 JUMPDEST DUP2 SLOAD DUP2 MSTORE SWAP1 PUSH1 0x1 ADD SWAP1 PUSH1 0x20 ADD DUP1 DUP4 GT PUSH2 0x1FC9 JUMPI DUP3 SWAP1 SUB PUSH1 0x1F AND DUP3 ADD SWAP2 JUMPDEST POP POP POP PUSH1 0x4 SWAP1 SWAP4 ADD SLOAD SWAP2 SWAP3 POP POP PUSH4 0xFFFFFFFF AND DUP6 JUMP JUMPDEST PUSH1 0x0 SLOAD PUSH1 0x1 PUSH1 0x1 PUSH1 0xA0 SHL SUB AND SWAP1 JUMP JUMPDEST PUSH1 0x4 SLOAD PUSH1 0x1 PUSH1 0xA0 SHL SWAP1 DIV PUSH1 0xFF AND SWAP1 JUMP JUMPDEST PUSH1 0x4 SLOAD PUSH1 0x0 SWAP1 PUSH1 0x1 PUSH1 0x1 PUSH1 0xA0 SHL SUB AND CALLER EQ DUP1 PUSH2 0x204F JUMPI POP PUSH2 0x203A PUSH2 0x1FFC JUMP JUMPDEST PUSH1 0x1 PUSH1 0x1 PUSH1 0xA0 SHL SUB AND CALLER PUSH1 0x1 PUSH1 0x1 PUSH1 0xA0 SHL SUB AND EQ JUMPDEST PUSH2 0x206B JUMPI PUSH1 0x40 MLOAD PUSH3 0x461BCD PUSH1 0xE5 SHL DUP2 MSTORE PUSH1 0x4 ADD PUSH2 0x6B4 SWAP1 PUSH2 0x4440 JUMP JUMPDEST DUP4 DUP3 EQ PUSH2 0x208A JUMPI PUSH1 0x40 MLOAD PUSH3 0x461BCD PUSH1 0xE5 SHL DUP2 MSTORE PUSH1 0x4 ADD PUSH2 0x6B4 SWAP1 PUSH2 0x3F29 JUMP JUMPDEST PUSH1 0x0 JUMPDEST DUP5 DUP2 LT ISZERO PUSH2 0x21B5 JUMPI PUSH1 0x9 PUSH1 0x0 DUP8 DUP8 DUP5 DUP2 DUP2 LT PUSH2 0x20B9 JUMPI PUSH4 0x4E487B71 PUSH1 0xE0 SHL PUSH1 0x0 MSTORE PUSH1 0x32 PUSH1 0x4 MSTORE PUSH1 0x24 PUSH1 0x0 REVERT JUMPDEST SWAP1 POP PUSH1 0x20 MUL ADD PUSH1 0x20 DUP2 ADD SWAP1 PUSH2 0x20CE SWAP2 SWAP1 PUSH2 0x3B18 JUMP JUMPDEST PUSH4 0xFFFFFFFF AND DUP2 MSTORE PUSH1 0x20 DUP2 ADD SWAP2 SWAP1 SWAP2 MSTORE PUSH1 0x40 ADD PUSH1 0x0 KECCAK256 SLOAD PUSH2 0x20EE JUMPI PUSH2 0x21A3 JUMP JUMPDEST PUSH1 0x1 PUSH1 0xD PUSH1 0x0 DUP9 DUP9 DUP6 DUP2 DUP2 LT PUSH2 0x2114 JUMPI PUSH4 0x4E487B71 PUSH1 0xE0 SHL PUSH1 0x0 MSTORE PUSH1 0x32 PUSH1 0x4 MSTORE PUSH1 0x24 PUSH1 0x0 REVERT JUMPDEST SWAP1 POP PUSH1 0x20 MUL ADD PUSH1 0x20 DUP2 ADD SWAP1 PUSH2 0x2129 SWAP2 SWAP1 PUSH2 0x3B18 JUMP JUMPDEST PUSH4 0xFFFFFFFF AND PUSH4 0xFFFFFFFF AND DUP2 MSTORE PUSH1 0x20 ADD SWAP1 DUP2 MSTORE PUSH1 0x20 ADD PUSH1 0x0 KECCAK256 PUSH1 0x0 DUP7 DUP7 DUP6 DUP2 DUP2 LT PUSH2 0x2165 JUMPI PUSH4 0x4E487B71 PUSH1 0xE0 SHL PUSH1 0x0 MSTORE PUSH1 0x32 PUSH1 0x4 MSTORE PUSH1 0x24 PUSH1 0x0 REVERT JUMPDEST SWAP1 POP PUSH1 0x20 MUL ADD PUSH1 0x20 DUP2 ADD SWAP1 PUSH2 0x217A SWAP2 SWAP1 PUSH2 0x3909 JUMP JUMPDEST PUSH1 0x1 PUSH1 0x1 PUSH1 0xA0 SHL SUB AND DUP2 MSTORE PUSH1 0x20 DUP2 ADD SWAP2 SWAP1 SWAP2 MSTORE PUSH1 0x40 ADD PUSH1 0x0 KECCAK256 DUP1 SLOAD PUSH1 0xFF NOT AND SWAP2 ISZERO ISZERO SWAP2 SWAP1 SWAP2 OR SWAP1 SSTORE JUMPDEST DUP1 PUSH2 0x21AD DUP2 PUSH2 0x47A0 JUMP JUMPDEST SWAP2 POP POP PUSH2 0x208D JUMP JUMPDEST POP PUSH1 0x1 SWAP6 SWAP5 POP POP POP POP POP JUMP JUMPDEST PUSH4 0xFFFFFFFF DUP2 AND PUSH1 0x0 SWAP1 DUP2 MSTORE PUSH1 0xD PUSH1 0x20 SWAP1 DUP2 MSTORE PUSH1 0x40 DUP1 DUP4 KECCAK256 CALLER DUP5 MSTORE SWAP1 SWAP2 MSTORE DUP2 KECCAK256 SLOAD PUSH1 0xFF AND PUSH2 0x2201 JUMPI PUSH1 0x40 MLOAD PUSH3 0x461BCD PUSH1 0xE5 SHL DUP2 MSTORE PUSH1 0x4 ADD PUSH2 0x6B4 SWAP1 PUSH2 0x434B JUMP JUMPDEST PUSH4 0xFFFFFFFF DUP3 AND PUSH1 0x0 SWAP1 DUP2 MSTORE PUSH1 0x9 PUSH1 0x20 MSTORE PUSH1 0x40 SWAP1 KECCAK256 SLOAD PUSH2 0x2233 JUMPI PUSH1 0x40 MLOAD PUSH3 0x461BCD PUSH1 0xE5 SHL DUP2 MSTORE PUSH1 0x4 ADD PUSH2 0x6B4 SWAP1 PUSH2 0x3FE9 JUMP JUMPDEST PUSH4 0xFFFFFFFF DUP3 AND PUSH1 0x0 SWAP1 DUP2 MSTORE PUSH1 0x9 PUSH1 0x20 MSTORE PUSH1 0x40 DUP2 KECCAK256 SLOAD PUSH2 0x2255 SWAP1 PUSH1 0x1 SWAP1 PUSH2 0x46C2 JUMP JUMPDEST PUSH1 0x7 DUP1 SLOAD SWAP2 SWAP3 POP PUSH1 0x0 PUSH2 0x2267 DUP4 PUSH2 0x47A0 JUMP JUMPDEST SWAP1 SWAP2 SSTORE POP POP PUSH4 0xFFFFFFFF DUP4 AND PUSH1 0x0 SWAP1 DUP2 MSTORE PUSH1 0xA PUSH1 0x20 MSTORE PUSH1 0x40 DUP2 KECCAK256 DUP1 SLOAD SWAP2 PUSH2 0x228D DUP4 PUSH2 0x47A0 JUMP JUMPDEST SWAP1 SWAP2 SSTORE POP POP PUSH1 0x7 DUP1 SLOAD PUSH1 0x0 SWAP1 DUP2 MSTORE PUSH1 0xB PUSH1 0x20 SWAP1 DUP2 MSTORE PUSH1 0x40 DUP1 DUP4 KECCAK256 DUP1 SLOAD PUSH4 0xFFFFFFFF NOT AND PUSH4 0xFFFFFFFF DUP10 AND SWAP1 DUP2 OR SWAP1 SWAP2 SSTORE DUP4 MSTORE PUSH1 0xD DUP3 MSTORE DUP1 DUP4 KECCAK256 CALLER DUP1 DUP6 MSTORE SWAP3 MSTORE SWAP1 SWAP2 KECCAK256 DUP1 SLOAD PUSH1 0xFF NOT AND SWAP1 SSTORE PUSH1 0x1 SLOAD SWAP2 SLOAD PUSH1 0x6 DUP1 SLOAD PUSH1 0x1 PUSH1 0x1 PUSH1 0xA0 SHL SUB SWAP1 SWAP5 AND SWAP4 PUSH4 0xD3FC9864 SWAP4 SWAP3 SWAP2 SWAP1 DUP7 SWAP1 DUP2 LT PUSH2 0x2313 JUMPI PUSH4 0x4E487B71 PUSH1 0xE0 SHL PUSH1 0x0 MSTORE PUSH1 0x32 PUSH1 0x4 MSTORE PUSH1 0x24 PUSH1 0x0 REVERT JUMPDEST SWAP1 PUSH1 0x0 MSTORE PUSH1 0x20 PUSH1 0x0 KECCAK256 SWAP1 PUSH1 0x5 MUL ADD PUSH1 0x3 ADD PUSH1 0x40 MLOAD DUP5 PUSH4 0xFFFFFFFF AND PUSH1 0xE0 SHL DUP2 MSTORE PUSH1 0x4 ADD PUSH2 0x2342 SWAP4 SWAP3 SWAP2 SWAP1 PUSH2 0x3DCA JUMP JUMPDEST PUSH1 0x0 PUSH1 0x40 MLOAD DUP1 DUP4 SUB DUP2 PUSH1 0x0 DUP8 DUP1 EXTCODESIZE ISZERO DUP1 ISZERO PUSH2 0x235C JUMPI PUSH1 0x0 DUP1 REVERT JUMPDEST POP GAS CALL ISZERO DUP1 ISZERO PUSH2 0x2370 JUMPI RETURNDATASIZE PUSH1 0x0 DUP1 RETURNDATACOPY RETURNDATASIZE PUSH1 0x0 REVERT JUMPDEST POP POP POP POP PUSH32 0x1B355AC6FC881BC27762124D8DF069FBE016A461AA27040C8B97FB00A481BE44 DUP4 PUSH1 0x7 SLOAD CALLER PUSH1 0x6 DUP6 DUP2 SLOAD DUP2 LT PUSH2 0x23BB JUMPI PUSH4 0x4E487B71 PUSH1 0xE0 SHL PUSH1 0x0 MSTORE PUSH1 0x32 PUSH1 0x4 MSTORE PUSH1 0x24 PUSH1 0x0 REVERT JUMPDEST SWAP1 PUSH1 0x0 MSTORE PUSH1 0x20 PUSH1 0x0 KECCAK256 SWAP1 PUSH1 0x5 MUL ADD PUSH1 0x1 ADD SLOAD PUSH1 0x40 MLOAD PUSH2 0x23DD SWAP5 SWAP4 SWAP3 SWAP2 SWAP1 PUSH2 0x458E JUMP JUMPDEST PUSH1 0x40 MLOAD DUP1 SWAP2 SUB SWAP1 LOG1 POP POP PUSH1 0x7 SLOAD SWAP2 SWAP1 POP JUMP JUMPDEST PUSH4 0xFFFFFFFF DUP2 AND PUSH1 0x0 SWAP1 DUP2 MSTORE PUSH1 0x9 PUSH1 0x20 MSTORE PUSH1 0x40 DUP2 KECCAK256 SLOAD PUSH2 0x2413 JUMPI POP PUSH3 0x98967F PUSH2 0x668 JUMP JUMPDEST PUSH4 0xFFFFFFFF DUP3 AND PUSH1 0x0 SWAP1 DUP2 MSTORE PUSH1 0x9 PUSH1 0x20 MSTORE PUSH1 0x40 SWAP1 KECCAK256 SLOAD PUSH1 0x6 SWAP1 PUSH2 0x2438 SWAP1 PUSH1 0x1 SWAP1 PUSH2 0x46C2 JUMP JUMPDEST DUP2 SLOAD DUP2 LT PUSH2 0x2456 JUMPI PUSH4 0x4E487B71 PUSH1 0xE0 SHL PUSH1 0x0 MSTORE PUSH1 0x32 PUSH1 0x4 MSTORE PUSH1 0x24 PUSH1 0x0 REVERT JUMPDEST PUSH1 0x0 SWAP2 DUP3 MSTORE PUSH1 0x20 SWAP1 SWAP2 KECCAK256 PUSH1 0x5 SWAP1 SWAP2 MUL ADD PUSH1 0x4 ADD SLOAD PUSH4 0xFFFFFFFF AND SWAP3 SWAP2 POP POP JUMP JUMPDEST PUSH1 0x2 SLOAD PUSH1 0x40 MLOAD PUSH4 0x70A08231 PUSH1 0xE0 SHL DUP2 MSTORE PUSH1 0x0 SWAP2 PUSH1 0x1 PUSH1 0x1 PUSH1 0xA0 SHL SUB AND SWAP1 PUSH4 0x70A08231 SWAP1 PUSH2 0x24A7 SWAP1 ADDRESS SWAP1 PUSH1 0x4 ADD PUSH2 0x3D79 JUMP JUMPDEST PUSH1 0x20 PUSH1 0x40 MLOAD DUP1 DUP4 SUB DUP2 DUP7 DUP1 EXTCODESIZE ISZERO DUP1 ISZERO PUSH2 0x24BF JUMPI PUSH1 0x0 DUP1 REVERT JUMPDEST POP GAS STATICCALL ISZERO DUP1 ISZERO PUSH2 0x24D3 JUMPI RETURNDATASIZE PUSH1 0x0 DUP1 RETURNDATACOPY RETURNDATASIZE PUSH1 0x0 REVERT JUMPDEST POP POP POP POP PUSH1 0x40 MLOAD RETURNDATASIZE PUSH1 0x1F NOT PUSH1 0x1F DUP3 ADD AND DUP3 ADD DUP1 PUSH1 0x40 MSTORE POP DUP2 ADD SWAP1 PUSH2 0x24F7 SWAP2 SWAP1 PUSH2 0x3B00 JUMP JUMPDEST SWAP1 POP SWAP1 JUMP JUMPDEST PUSH1 0x5 SLOAD SWAP1 JUMP JUMPDEST PUSH1 0x0 PUSH2 0x250D CALLER PUSH2 0x33C4 JUMP JUMPDEST ISZERO PUSH2 0x252A JUMPI PUSH1 0x40 MLOAD PUSH3 0x461BCD PUSH1 0xE5 SHL DUP2 MSTORE PUSH1 0x4 ADD PUSH2 0x6B4 SWAP1 PUSH2 0x4309 JUMP JUMPDEST PUSH4 0xFFFFFFFF DUP3 AND PUSH1 0x0 SWAP1 DUP2 MSTORE PUSH1 0x9 PUSH1 0x20 MSTORE PUSH1 0x40 SWAP1 KECCAK256 SLOAD PUSH2 0x255C JUMPI PUSH1 0x40 MLOAD PUSH3 0x461BCD PUSH1 0xE5 SHL DUP2 MSTORE PUSH1 0x4 ADD PUSH2 0x6B4 SWAP1 PUSH2 0x3FE9 JUMP JUMPDEST PUSH4 0xFFFFFFFF DUP3 AND PUSH1 0x0 SWAP1 DUP2 MSTORE PUSH1 0x9 PUSH1 0x20 MSTORE PUSH1 0x40 DUP2 KECCAK256 SLOAD PUSH2 0x257E SWAP1 PUSH1 0x1 SWAP1 PUSH2 0x46C2 JUMP JUMPDEST SWAP1 POP PUSH1 0x0 PUSH1 0x6 DUP3 DUP2 SLOAD DUP2 LT PUSH2 0x25A3 JUMPI PUSH4 0x4E487B71 PUSH1 0xE0 SHL PUSH1 0x0 MSTORE PUSH1 0x32 PUSH1 0x4 MSTORE PUSH1 0x24 PUSH1 0x0 REVERT JUMPDEST PUSH1 0x0 SWAP2 DUP3 MSTORE PUSH1 0x20 SWAP1 SWAP2 KECCAK256 PUSH1 0x4 PUSH1 0x5 SWAP1 SWAP3 MUL ADD ADD SLOAD PUSH4 0xFFFFFFFF AND GT PUSH2 0x25DA JUMPI PUSH1 0x40 MLOAD PUSH3 0x461BCD PUSH1 0xE5 SHL DUP2 MSTORE PUSH1 0x4 ADD PUSH2 0x6B4 SWAP1 PUSH2 0x40A8 JUMP JUMPDEST PUSH1 0x6 DUP2 DUP2 SLOAD DUP2 LT PUSH2 0x25FB JUMPI PUSH4 0x4E487B71 PUSH1 0xE0 SHL PUSH1 0x0 MSTORE PUSH1 0x32 PUSH1 0x4 MSTORE PUSH1 0x24 PUSH1 0x0 REVERT JUMPDEST PUSH1 0x0 SWAP2 DUP3 MSTORE PUSH1 0x20 DUP3 KECCAK256 PUSH1 0x4 PUSH1 0x5 SWAP1 SWAP3 MUL ADD ADD DUP1 SLOAD PUSH4 0xFFFFFFFF AND SWAP2 PUSH2 0x261F DUP4 PUSH2 0x4745 JUMP JUMPDEST SWAP2 SWAP1 PUSH2 0x100 EXP DUP2 SLOAD DUP2 PUSH4 0xFFFFFFFF MUL NOT AND SWAP1 DUP4 PUSH4 0xFFFFFFFF AND MUL OR SWAP1 SSTORE POP POP PUSH1 0x0 PUSH1 0x6 DUP3 DUP2 SLOAD DUP2 LT PUSH2 0x2661 JUMPI PUSH4 0x4E487B71 PUSH1 0xE0 SHL PUSH1 0x0 MSTORE PUSH1 0x32 PUSH1 0x4 MSTORE PUSH1 0x24 PUSH1 0x0 REVERT JUMPDEST SWAP1 PUSH1 0x0 MSTORE PUSH1 0x20 PUSH1 0x0 KECCAK256 SWAP1 PUSH1 0x5 MUL ADD PUSH1 0x1 ADD SLOAD SWAP1 POP PUSH1 0x7 PUSH1 0x0 DUP2 SLOAD DUP1 SWAP3 SWAP2 SWAP1 PUSH2 0x2688 SWAP1 PUSH2 0x47A0 JUMP JUMPDEST SWAP1 SWAP2 SSTORE POP POP PUSH4 0xFFFFFFFF DUP5 AND PUSH1 0x0 SWAP1 DUP2 MSTORE PUSH1 0xA PUSH1 0x20 MSTORE PUSH1 0x40 DUP2 KECCAK256 DUP1 SLOAD SWAP2 PUSH2 0x26AE DUP4 PUSH2 0x47A0 JUMP JUMPDEST SWAP1 SWAP2 SSTORE POP POP PUSH1 0x7 SLOAD PUSH1 0x0 SWAP1 DUP2 MSTORE PUSH1 0xB PUSH1 0x20 MSTORE PUSH1 0x40 SWAP1 DUP2 SWAP1 KECCAK256 DUP1 SLOAD PUSH4 0xFFFFFFFF NOT AND PUSH4 0xFFFFFFFF DUP8 AND OR SWAP1 SSTORE PUSH1 0x2 SLOAD SWAP1 MLOAD PUSH4 0x23B872DD PUSH1 0xE0 SHL DUP2 MSTORE PUSH1 0x1 PUSH1 0x1 PUSH1 0xA0 SHL SUB SWAP1 SWAP2 AND SWAP1 PUSH4 0x23B872DD SWAP1 PUSH2 0x270C SWAP1 CALLER SWAP1 ADDRESS SWAP1 DUP7 SWAP1 PUSH1 0x4 ADD PUSH2 0x3D8D JUMP JUMPDEST PUSH1 0x20 PUSH1 0x40 MLOAD DUP1 DUP4 SUB DUP2 PUSH1 0x0 DUP8 DUP1 EXTCODESIZE ISZERO DUP1 ISZERO PUSH2 0x2726 JUMPI PUSH1 0x0 DUP1 REVERT JUMPDEST POP GAS CALL ISZERO DUP1 ISZERO PUSH2 0x273A JUMPI RETURNDATASIZE PUSH1 0x0 DUP1 RETURNDATACOPY RETURNDATASIZE PUSH1 0x0 REVERT JUMPDEST POP POP POP POP PUSH1 0x40 MLOAD RETURNDATASIZE PUSH1 0x1F NOT PUSH1 0x1F DUP3 ADD AND DUP3 ADD DUP1 PUSH1 0x40 MSTORE POP DUP2 ADD SWAP1 PUSH2 0x275E SWAP2 SWAP1 PUSH2 0x39DC JUMP JUMPDEST PUSH2 0x2767 JUMPI PUSH1 0x0 DUP1 REVERT JUMPDEST PUSH1 0x1 SLOAD PUSH1 0x7 SLOAD PUSH1 0x6 DUP1 SLOAD PUSH1 0x1 PUSH1 0x1 PUSH1 0xA0 SHL SUB SWAP1 SWAP4 AND SWAP3 PUSH4 0xD3FC9864 SWAP3 CALLER SWAP3 SWAP1 SWAP2 DUP8 SWAP1 DUP2 LT PUSH2 0x27A5 JUMPI PUSH4 0x4E487B71 PUSH1 0xE0 SHL PUSH1 0x0 MSTORE PUSH1 0x32 PUSH1 0x4 MSTORE PUSH1 0x24 PUSH1 0x0 REVERT JUMPDEST SWAP1 PUSH1 0x0 MSTORE PUSH1 0x20 PUSH1 0x0 KECCAK256 SWAP1 PUSH1 0x5 MUL ADD PUSH1 0x3 ADD PUSH1 0x40 MLOAD DUP5 PUSH4 0xFFFFFFFF AND PUSH1 0xE0 SHL DUP2 MSTORE PUSH1 0x4 ADD PUSH2 0x27D4 SWAP4 SWAP3 SWAP2 SWAP1 PUSH2 0x3DCA JUMP JUMPDEST PUSH1 0x0 PUSH1 0x40 MLOAD DUP1 DUP4 SUB DUP2 PUSH1 0x0 DUP8 DUP1 EXTCODESIZE ISZERO DUP1 ISZERO PUSH2 0x27EE JUMPI PUSH1 0x0 DUP1 REVERT JUMPDEST POP GAS CALL ISZERO DUP1 ISZERO PUSH2 0x2802 JUMPI RETURNDATASIZE PUSH1 0x0 DUP1 RETURNDATACOPY RETURNDATASIZE PUSH1 0x0 REVERT JUMPDEST POP POP PUSH1 0x4 SLOAD PUSH1 0x1 PUSH1 0xA0 SHL SWAP1 DIV PUSH1 0xFF AND ISZERO SWAP2 POP PUSH2 0x2957 SWAP1 POP JUMPI PUSH1 0x5 SLOAD PUSH2 0x2828 SWAP1 PUSH1 0x64 PUSH2 0x466B JUMP JUMPDEST PUSH1 0x6 DUP4 DUP2 SLOAD DUP2 LT PUSH2 0x2849 JUMPI PUSH4 0x4E487B71 PUSH1 0xE0 SHL PUSH1 0x0 MSTORE PUSH1 0x32 PUSH1 0x4 MSTORE PUSH1 0x24 PUSH1 0x0 REVERT JUMPDEST SWAP1 PUSH1 0x0 MSTORE PUSH1 0x20 PUSH1 0x0 KECCAK256 SWAP1 PUSH1 0x5 MUL ADD PUSH1 0x1 ADD PUSH1 0x0 DUP3 DUP3 SLOAD PUSH2 0x2869 SWAP2 SWAP1 PUSH2 0x46A3 JUMP JUMPDEST SWAP3 POP POP DUP2 SWAP1 SSTORE POP PUSH1 0x64 PUSH1 0x6 DUP4 DUP2 SLOAD DUP2 LT PUSH2 0x2893 JUMPI PUSH4 0x4E487B71 PUSH1 0xE0 SHL PUSH1 0x0 MSTORE PUSH1 0x32 PUSH1 0x4 MSTORE PUSH1 0x24 PUSH1 0x0 REVERT JUMPDEST SWAP1 PUSH1 0x0 MSTORE PUSH1 0x20 PUSH1 0x0 KECCAK256 SWAP1 PUSH1 0x5 MUL ADD PUSH1 0x1 ADD PUSH1 0x0 DUP3 DUP3 SLOAD PUSH2 0x28B3 SWAP2 SWAP1 PUSH2 0x4683 JUMP JUMPDEST SWAP1 SWAP2 SSTORE POP POP PUSH1 0x5 SLOAD PUSH2 0x28C6 SWAP1 PUSH1 0x64 PUSH2 0x466B JUMP JUMPDEST PUSH1 0x6 DUP4 DUP2 SLOAD DUP2 LT PUSH2 0x28E7 JUMPI PUSH4 0x4E487B71 PUSH1 0xE0 SHL PUSH1 0x0 MSTORE PUSH1 0x32 PUSH1 0x4 MSTORE PUSH1 0x24 PUSH1 0x0 REVERT JUMPDEST SWAP1 PUSH1 0x0 MSTORE PUSH1 0x20 PUSH1 0x0 KECCAK256 SWAP1 PUSH1 0x5 MUL ADD PUSH1 0x2 ADD PUSH1 0x0 DUP3 DUP3 SLOAD PUSH2 0x2907 SWAP2 SWAP1 PUSH2 0x46A3 JUMP JUMPDEST SWAP3 POP POP DUP2 SWAP1 SSTORE POP PUSH1 0x64 PUSH1 0x6 DUP4 DUP2 SLOAD DUP2 LT PUSH2 0x2931 JUMPI PUSH4 0x4E487B71 PUSH1 0xE0 SHL PUSH1 0x0 MSTORE PUSH1 0x32 PUSH1 0x4 MSTORE PUSH1 0x24 PUSH1 0x0 REVERT JUMPDEST SWAP1 PUSH1 0x0 MSTORE PUSH1 0x20 PUSH1 0x0 KECCAK256 SWAP1 PUSH1 0x5 MUL ADD PUSH1 0x2 ADD PUSH1 0x0 DUP3 DUP3 SLOAD PUSH2 0x2951 SWAP2 SWAP1 PUSH2 0x4683 JUMP JUMPDEST SWAP1 SWAP2 SSTORE POP POP JUMPDEST PUSH32 0xCAE7F75822AE2F0FAB2B77A5FAF0B51C6A3B09B495783BD615A5B18472C6CC61 DUP5 PUSH1 0x7 SLOAD CALLER DUP5 PUSH1 0x40 MLOAD PUSH2 0x298E SWAP5 SWAP4 SWAP3 SWAP2 SWAP1 PUSH2 0x458E JUMP JUMPDEST PUSH1 0x40 MLOAD DUP1 SWAP2 SUB SWAP1 LOG1 POP POP PUSH1 0x7 SLOAD SWAP3 SWAP2 POP POP JUMP JUMPDEST PUSH4 0xFFFFFFFF DUP2 AND PUSH1 0x0 SWAP1 DUP2 MSTORE PUSH1 0x9 PUSH1 0x20 MSTORE PUSH1 0x40 SWAP1 KECCAK256 SLOAD PUSH1 0x60 SWAP1 PUSH2 0x29D3 JUMPI POP PUSH1 0x40 DUP1 MLOAD PUSH1 0x20 DUP2 ADD SWAP1 SWAP2 MSTORE PUSH1 0x0 DUP2 MSTORE PUSH2 0x668 JUMP JUMPDEST PUSH4 0xFFFFFFFF DUP3 AND PUSH1 0x0 SWAP1 DUP2 MSTORE PUSH1 0x9 PUSH1 0x20 MSTORE PUSH1 0x40 SWAP1 KECCAK256 SLOAD PUSH1 0x6 SWAP1 PUSH2 0x29F8 SWAP1 PUSH1 0x1 SWAP1 PUSH2 0x46C2 JUMP JUMPDEST DUP2 SLOAD DUP2 LT PUSH2 0x2A16 JUMPI PUSH4 0x4E487B71 PUSH1 0xE0 SHL PUSH1 0x0 MSTORE PUSH1 0x32 PUSH1 0x4 MSTORE PUSH1 0x24 PUSH1 0x0 REVERT JUMPDEST SWAP1 PUSH1 0x0 MSTORE PUSH1 0x20 PUSH1 0x0 KECCAK256 SWAP1 PUSH1 0x5 MUL ADD PUSH1 0x3 ADD DUP1 SLOAD PUSH2 0x2A32 SWAP1 PUSH2 0x4765 JUMP JUMPDEST DUP1 PUSH1 0x1F ADD PUSH1 0x20 DUP1 SWAP2 DIV MUL PUSH1 0x20 ADD PUSH1 0x40 MLOAD SWAP1 DUP2 ADD PUSH1 0x40 MSTORE DUP1 SWAP3 SWAP2 SWAP1 DUP2 DUP2 MSTORE PUSH1 0x20 ADD DUP3 DUP1 SLOAD PUSH2 0x2A5E SWAP1 PUSH2 0x4765 JUMP JUMPDEST DUP1 ISZERO PUSH2 0x2AAB JUMPI DUP1 PUSH1 0x1F LT PUSH2 0x2A80 JUMPI PUSH2 0x100 DUP1 DUP4 SLOAD DIV MUL DUP4 MSTORE SWAP2 PUSH1 0x20 ADD SWAP2 PUSH2 0x2AAB JUMP JUMPDEST DUP3 ADD SWAP2 SWAP1 PUSH1 0x0 MSTORE PUSH1 0x20 PUSH1 0x0 KECCAK256 SWAP1 JUMPDEST DUP2 SLOAD DUP2 MSTORE SWAP1 PUSH1 0x1 ADD SWAP1 PUSH1 0x20 ADD DUP1 DUP4 GT PUSH2 0x2A8E JUMPI DUP3 SWAP1 SUB PUSH1 0x1F AND DUP3 ADD SWAP2 JUMPDEST POP POP POP POP POP SWAP1 POP SWAP2 SWAP1 POP JUMP JUMPDEST PUSH1 0x0 PUSH2 0x2AC1 PUSH2 0x33C0 JUMP JUMPDEST PUSH1 0x1 PUSH1 0x1 PUSH1 0xA0 SHL SUB AND PUSH2 0x2AD2 PUSH2 0x1FFC JUMP JUMPDEST PUSH1 0x1 PUSH1 0x1 PUSH1 0xA0 SHL SUB AND EQ PUSH2 0x2AF8 JUMPI PUSH1 0x40 MLOAD PUSH3 0x461BCD PUSH1 0xE5 SHL DUP2 MSTORE PUSH1 0x4 ADD PUSH2 0x6B4 SWAP1 PUSH2 0x4270 JUMP JUMPDEST PUSH1 0x1 PUSH1 0x1 PUSH1 0xA0 SHL SUB DUP3 AND PUSH2 0x2B1E JUMPI PUSH1 0x40 MLOAD PUSH3 0x461BCD PUSH1 0xE5 SHL DUP2 MSTORE PUSH1 0x4 ADD PUSH2 0x6B4 SWAP1 PUSH2 0x4195 JUMP JUMPDEST POP PUSH1 0x1 DUP1 SLOAD PUSH1 0x1 PUSH1 0x1 PUSH1 0xA0 SHL SUB DUP4 AND PUSH1 0x1 PUSH1 0x1 PUSH1 0xA0 SHL SUB NOT SWAP1 SWAP2 AND OR DUP2 SSTORE SWAP2 SWAP1 POP JUMP JUMPDEST PUSH1 0x0 DUP1 PUSH2 0x2B4D DUP4 PUSH2 0x33D0 JUMP JUMPDEST SWAP1 POP PUSH4 0xFFFFFFFF DUP2 AND PUSH2 0x2B64 JUMPI PUSH1 0x0 SWAP2 POP POP PUSH2 0x668 JUMP JUMPDEST PUSH4 0xFFFFFFFF DUP2 AND PUSH3 0x98967F EQ ISZERO PUSH2 0x2B7F JUMPI PUSH1 0x0 SWAP2 POP POP PUSH2 0x668 JUMP JUMPDEST PUSH1 0x6 PUSH2 0x2B8C PUSH1 0x1 DUP4 PUSH2 0x46D9 JUMP JUMPDEST PUSH4 0xFFFFFFFF AND DUP2 SLOAD DUP2 LT PUSH2 0x2BB0 JUMPI PUSH4 0x4E487B71 PUSH1 0xE0 SHL PUSH1 0x0 MSTORE PUSH1 0x32 PUSH1 0x4 MSTORE PUSH1 0x24 PUSH1 0x0 REVERT JUMPDEST SWAP1 PUSH1 0x0 MSTORE PUSH1 0x20 PUSH1 0x0 KECCAK256 SWAP1 PUSH1 0x5 MUL ADD PUSH1 0x2 ADD SLOAD SWAP2 POP POP SWAP2 SWAP1 POP JUMP JUMPDEST PUSH1 0x0 PUSH2 0x2BD5 DUP3 PUSH2 0x33D0 JUMP JUMPDEST SWAP3 SWAP2 POP POP JUMP JUMPDEST PUSH1 0x3 SLOAD PUSH1 0x0 SWAP1 PUSH1 0x1 PUSH1 0x1 PUSH1 0xA0 SHL SUB AND CALLER EQ DUP1 PUSH2 0x2C0F JUMPI POP PUSH2 0x2BFA PUSH2 0x1FFC JUMP JUMPDEST PUSH1 0x1 PUSH1 0x1 PUSH1 0xA0 SHL SUB AND CALLER PUSH1 0x1 PUSH1 0x1 PUSH1 0xA0 SHL SUB AND EQ JUMPDEST PUSH2 0x2C2B JUMPI PUSH1 0x40 MLOAD PUSH3 0x461BCD PUSH1 0xE5 SHL DUP2 MSTORE PUSH1 0x4 ADD PUSH2 0x6B4 SWAP1 PUSH2 0x421E JUMP JUMPDEST PUSH1 0x0 PUSH2 0x2C36 DUP4 PUSH2 0x33D0 JUMP JUMPDEST SWAP1 POP PUSH1 0x0 DUP2 PUSH4 0xFFFFFFFF AND GT PUSH2 0x2C5E JUMPI PUSH1 0x40 MLOAD PUSH3 0x461BCD PUSH1 0xE5 SHL DUP2 MSTORE PUSH1 0x4 ADD PUSH2 0x6B4 SWAP1 PUSH2 0x411B JUMP JUMPDEST PUSH4 0xFFFFFFFF DUP2 AND PUSH1 0x0 SWAP1 DUP2 MSTORE PUSH1 0x9 PUSH1 0x20 MSTORE PUSH1 0x40 DUP2 KECCAK256 SLOAD PUSH2 0x2C80 SWAP1 PUSH1 0x1 SWAP1 PUSH2 0x46C2 JUMP JUMPDEST SWAP1 POP PUSH1 0x0 PUSH1 0x6 DUP3 DUP2 SLOAD DUP2 LT PUSH2 0x2CA5 JUMPI PUSH4 0x4E487B71 PUSH1 0xE0 SHL PUSH1 0x0 MSTORE PUSH1 0x32 PUSH1 0x4 MSTORE PUSH1 0x24 PUSH1 0x0 REVERT JUMPDEST SWAP1 PUSH1 0x0 MSTORE PUSH1 0x20 PUSH1 0x0 KECCAK256 SWAP1 PUSH1 0x5 MUL ADD PUSH1 0x2 ADD SLOAD SWAP1 POP PUSH1 0x0 PUSH1 0xA PUSH1 0x0 DUP6 PUSH4 0xFFFFFFFF AND PUSH4 0xFFFFFFFF AND DUP2 MSTORE PUSH1 0x20 ADD SWAP1 DUP2 MSTORE PUSH1 0x20 ADD PUSH1 0x0 KECCAK256 SLOAD GT ISZERO PUSH2 0x2D08 JUMPI PUSH4 0xFFFFFFFF DUP4 AND PUSH1 0x0 SWAP1 DUP2 MSTORE PUSH1 0xA PUSH1 0x20 MSTORE PUSH1 0x40 DUP2 KECCAK256 DUP1 SLOAD SWAP2 PUSH2 0x2D02 DUP4 PUSH2 0x472E JUMP JUMPDEST SWAP2 SWAP1 POP SSTORE POP JUMPDEST PUSH1 0x0 DUP6 DUP2 MSTORE PUSH1 0xB PUSH1 0x20 MSTORE PUSH1 0x40 SWAP1 KECCAK256 SLOAD PUSH4 0xFFFFFFFF AND ISZERO PUSH2 0x2D3C JUMPI PUSH1 0x0 DUP6 DUP2 MSTORE PUSH1 0xB PUSH1 0x20 MSTORE PUSH1 0x40 SWAP1 KECCAK256 DUP1 SLOAD PUSH4 0xFFFFFFFF NOT AND SWAP1 SSTORE JUMPDEST PUSH1 0x1 SLOAD PUSH1 0x40 MLOAD PUSH4 0x852CD8D PUSH1 0xE3 SHL DUP2 MSTORE PUSH1 0x1 PUSH1 0x1 PUSH1 0xA0 SHL SUB SWAP1 SWAP2 AND SWAP1 PUSH4 0x42966C68 SWAP1 PUSH2 0x2D6C SWAP1 DUP9 SWAP1 PUSH1 0x4 ADD PUSH2 0x4527 JUMP JUMPDEST PUSH1 0x0 PUSH1 0x40 MLOAD DUP1 DUP4 SUB DUP2 PUSH1 0x0 DUP8 DUP1 EXTCODESIZE ISZERO DUP1 ISZERO PUSH2 0x2D86 JUMPI PUSH1 0x0 DUP1 REVERT JUMPDEST POP GAS CALL ISZERO DUP1 ISZERO PUSH2 0x2D9A JUMPI RETURNDATASIZE PUSH1 0x0 DUP1 RETURNDATACOPY RETURNDATASIZE PUSH1 0x0 REVERT JUMPDEST POP POP POP POP PUSH32 0xEBEF1F55D2FB294CD47BE007B2C6B482C84F4262793F7A9457C3B7141D26F13C DUP4 DUP7 DUP4 PUSH1 0x40 MLOAD PUSH2 0x2DD1 SWAP4 SWAP3 SWAP2 SWAP1 PUSH2 0x45BA JUMP JUMPDEST PUSH1 0x40 MLOAD DUP1 SWAP2 SUB SWAP1 LOG1 POP PUSH1 0x1 SWAP5 SWAP4 POP POP POP POP JUMP JUMPDEST PUSH1 0x0 PUSH2 0x2DEE PUSH2 0x33C0 JUMP JUMPDEST PUSH1 0x1 PUSH1 0x1 PUSH1 0xA0 SHL SUB AND PUSH2 0x2DFF PUSH2 0x1FFC JUMP JUMPDEST PUSH1 0x1 PUSH1 0x1 PUSH1 0xA0 SHL SUB AND EQ PUSH2 0x2E25 JUMPI PUSH1 0x40 MLOAD PUSH3 0x461BCD PUSH1 0xE5 SHL DUP2 MSTORE PUSH1 0x4 ADD PUSH2 0x6B4 SWAP1 PUSH2 0x4270 JUMP JUMPDEST PUSH1 0x1 PUSH1 0x1 PUSH1 0xA0 SHL SUB DUP3 AND PUSH2 0x2E4B JUMPI PUSH1 0x40 MLOAD PUSH3 0x461BCD PUSH1 0xE5 SHL DUP2 MSTORE PUSH1 0x4 ADD PUSH2 0x6B4 SWAP1 PUSH2 0x44DD JUMP JUMPDEST POP PUSH1 0x4 DUP1 SLOAD PUSH1 0x1 PUSH1 0x1 PUSH1 0xA0 SHL SUB DUP4 AND PUSH1 0x1 PUSH1 0x1 PUSH1 0xA0 SHL SUB NOT SWAP1 SWAP2 AND OR SWAP1 SSTORE PUSH1 0x1 SWAP2 SWAP1 POP JUMP JUMPDEST PUSH1 0x3 SLOAD PUSH1 0x0 SWAP1 PUSH1 0x1 PUSH1 0x1 PUSH1 0xA0 SHL SUB AND CALLER EQ DUP1 PUSH2 0x2EA4 JUMPI POP PUSH2 0x2E8F PUSH2 0x1FFC JUMP JUMPDEST PUSH1 0x1 PUSH1 0x1 PUSH1 0xA0 SHL SUB AND CALLER PUSH1 0x1 PUSH1 0x1 PUSH1 0xA0 SHL SUB AND EQ JUMPDEST PUSH2 0x2EC0 JUMPI PUSH1 0x40 MLOAD PUSH3 0x461BCD PUSH1 0xE5 SHL DUP2 MSTORE PUSH1 0x4 ADD PUSH2 0x6B4 SWAP1 PUSH2 0x421E JUMP JUMPDEST PUSH4 0xFFFFFFFF DUP5 AND PUSH1 0x0 SWAP1 DUP2 MSTORE PUSH1 0x9 PUSH1 0x20 MSTORE PUSH1 0x40 SWAP1 KECCAK256 SLOAD PUSH2 0x2EF2 JUMPI PUSH1 0x40 MLOAD PUSH3 0x461BCD PUSH1 0xE5 SHL DUP2 MSTORE PUSH1 0x4 ADD PUSH2 0x6B4 SWAP1 PUSH2 0x3FE9 JUMP JUMPDEST PUSH4 0xFFFFFFFF DUP5 AND PUSH1 0x0 SWAP1 DUP2 MSTORE PUSH1 0x9 PUSH1 0x20 MSTORE PUSH1 0x40 DUP2 KECCAK256 SLOAD PUSH2 0x2F14 SWAP1 PUSH1 0x1 SWAP1 PUSH2 0x46C2 JUMP JUMPDEST SWAP1 POP DUP4 PUSH1 0x6 DUP3 DUP2 SLOAD DUP2 LT PUSH2 0x2F38 JUMPI PUSH4 0x4E487B71 PUSH1 0xE0 SHL PUSH1 0x0 MSTORE PUSH1 0x32 PUSH1 0x4 MSTORE PUSH1 0x24 PUSH1 0x0 REVERT JUMPDEST SWAP1 PUSH1 0x0 MSTORE PUSH1 0x20 PUSH1 0x0 KECCAK256 SWAP1 PUSH1 0x5 MUL ADD PUSH1 0x1 ADD DUP2 SWAP1 SSTORE POP DUP3 PUSH1 0x6 DUP3 DUP2 SLOAD DUP2 LT PUSH2 0x2F6F JUMPI PUSH4 0x4E487B71 PUSH1 0xE0 SHL PUSH1 0x0 MSTORE PUSH1 0x32 PUSH1 0x4 MSTORE PUSH1 0x24 PUSH1 0x0 REVERT JUMPDEST PUSH1 0x0 SWAP2 DUP3 MSTORE PUSH1 0x20 SWAP1 SWAP2 KECCAK256 PUSH1 0x2 PUSH1 0x5 SWAP1 SWAP3 MUL ADD ADD SSTORE POP PUSH1 0x1 SWAP5 SWAP4 POP POP POP POP JUMP JUMPDEST PUSH1 0x7 SLOAD SWAP1 JUMP JUMPDEST PUSH1 0x3 SLOAD PUSH1 0x0 SWAP1 PUSH1 0x1 PUSH1 0x1 PUSH1 0xA0 SHL SUB AND CALLER EQ DUP1 PUSH2 0x2FC8 JUMPI POP PUSH2 0x2FB3 PUSH2 0x1FFC JUMP JUMPDEST PUSH1 0x1 PUSH1 0x1 PUSH1 0xA0 SHL SUB AND CALLER PUSH1 0x1 PUSH1 0x1 PUSH1 0xA0 SHL SUB AND EQ JUMPDEST PUSH2 0x2FE4 JUMPI PUSH1 0x40 MLOAD PUSH3 0x461BCD PUSH1 0xE5 SHL DUP2 MSTORE PUSH1 0x4 ADD PUSH2 0x6B4 SWAP1 PUSH2 0x421E JUMP JUMPDEST PUSH4 0xFFFFFFFF DUP3 AND PUSH1 0x0 SWAP1 DUP2 MSTORE PUSH1 0x9 PUSH1 0x20 MSTORE PUSH1 0x40 SWAP1 KECCAK256 SLOAD PUSH2 0x3016 JUMPI PUSH1 0x40 MLOAD PUSH3 0x461BCD PUSH1 0xE5 SHL DUP2 MSTORE PUSH1 0x4 ADD PUSH2 0x6B4 SWAP1 PUSH2 0x3FE9 JUMP JUMPDEST PUSH4 0xFFFFFFFF DUP3 AND PUSH1 0x0 SWAP1 DUP2 MSTORE PUSH1 0xA PUSH1 0x20 MSTORE PUSH1 0x40 SWAP1 KECCAK256 SLOAD ISZERO PUSH2 0x3049 JUMPI PUSH1 0x40 MLOAD PUSH3 0x461BCD PUSH1 0xE5 SHL DUP2 MSTORE PUSH1 0x4 ADD PUSH2 0x6B4 SWAP1 PUSH2 0x42A5 JUMP JUMPDEST PUSH4 0xFFFFFFFF DUP3 AND PUSH1 0x0 SWAP1 DUP2 MSTORE PUSH1 0x9 PUSH1 0x20 MSTORE PUSH1 0x40 SWAP1 KECCAK256 SLOAD PUSH2 0x3074 SWAP1 PUSH2 0x306F SWAP1 PUSH1 0x1 SWAP1 PUSH2 0x46C2 JUMP JUMPDEST PUSH2 0x3484 JUMP JUMPDEST POP PUSH4 0xFFFFFFFF AND PUSH1 0x0 SWAP1 DUP2 MSTORE PUSH1 0x9 PUSH1 0x20 MSTORE PUSH1 0x40 DUP2 KECCAK256 SSTORE PUSH1 0x1 SWAP1 JUMP JUMPDEST PUSH1 0x3 SLOAD PUSH1 0x0 SWAP1 PUSH1 0x1 PUSH1 0x1 PUSH1 0xA0 SHL SUB AND CALLER EQ DUP1 PUSH2 0x30C3 JUMPI POP PUSH2 0x30AE PUSH2 0x1FFC JUMP JUMPDEST PUSH1 0x1 PUSH1 0x1 PUSH1 0xA0 SHL SUB AND CALLER PUSH1 0x1 PUSH1 0x1 PUSH1 0xA0 SHL SUB AND EQ JUMPDEST PUSH2 0x30DF JUMPI PUSH1 0x40 MLOAD PUSH3 0x461BCD PUSH1 0xE5 SHL DUP2 MSTORE PUSH1 0x4 ADD PUSH2 0x6B4 SWAP1 PUSH2 0x421E JUMP JUMPDEST POP PUSH1 0x4 DUP1 SLOAD PUSH1 0xFF PUSH1 0xA0 SHL NOT AND PUSH1 0x1 PUSH1 0xA0 SHL OR SWAP1 SSTORE PUSH1 0x1 SWAP1 JUMP JUMPDEST DUP1 MLOAD PUSH1 0x20 DUP1 DUP4 ADD SWAP2 SWAP1 SWAP2 KECCAK256 PUSH1 0x0 DUP2 DUP2 MSTORE PUSH1 0xC SWAP1 SWAP3 MSTORE PUSH1 0x40 DUP3 KECCAK256 SLOAD PUSH4 0xFFFFFFFF AND PUSH2 0x3128 JUMPI PUSH3 0x98967F SWAP2 POP POP PUSH2 0x668 JUMP JUMPDEST PUSH1 0x0 SWAP1 DUP2 MSTORE PUSH1 0xC PUSH1 0x20 MSTORE PUSH1 0x40 SWAP1 KECCAK256 SLOAD PUSH4 0xFFFFFFFF AND SWAP3 SWAP2 POP POP JUMP JUMPDEST PUSH1 0x2 SLOAD PUSH1 0x1 PUSH1 0x1 PUSH1 0xA0 SHL SUB AND SWAP1 JUMP JUMPDEST PUSH1 0x0 PUSH2 0x315C PUSH2 0x33C0 JUMP JUMPDEST PUSH1 0x1 PUSH1 0x1 PUSH1 0xA0 SHL SUB AND PUSH2 0x316D PUSH2 0x1FFC JUMP JUMPDEST PUSH1 0x1 PUSH1 0x1 PUSH1 0xA0 SHL SUB AND EQ PUSH2 0x3193 JUMPI PUSH1 0x40 MLOAD PUSH3 0x461BCD PUSH1 0xE5 SHL DUP2 MSTORE PUSH1 0x4 ADD PUSH2 0x6B4 SWAP1 PUSH2 0x4270 JUMP JUMPDEST PUSH1 0x0 DUP3 GT PUSH2 0x31B3 JUMPI PUSH1 0x40 MLOAD PUSH3 0x461BCD PUSH1 0xE5 SHL DUP2 MSTORE PUSH1 0x4 ADD PUSH2 0x6B4 SWAP1 PUSH2 0x41DC JUMP JUMPDEST PUSH1 0x2 SLOAD PUSH1 0x40 MLOAD PUSH4 0x23B872DD PUSH1 0xE0 SHL DUP2 MSTORE PUSH1 0x1 PUSH1 0x1 PUSH1 0xA0 SHL SUB SWAP1 SWAP2 AND SWAP1 PUSH4 0x23B872DD SWAP1 PUSH2 0x31E7 SWAP1 CALLER SWAP1 ADDRESS SWAP1 DUP8 SWAP1 PUSH1 0x4 ADD PUSH2 0x3D8D JUMP JUMPDEST PUSH1 0x20 PUSH1 0x40 MLOAD DUP1 DUP4 SUB DUP2 PUSH1 0x0 DUP8 DUP1 EXTCODESIZE ISZERO DUP1 ISZERO PUSH2 0x3201 JUMPI PUSH1 0x0 DUP1 REVERT JUMPDEST POP GAS CALL ISZERO DUP1 ISZERO PUSH2 0x3215 JUMPI RETURNDATASIZE PUSH1 0x0 DUP1 RETURNDATACOPY RETURNDATASIZE PUSH1 0x0 REVERT JUMPDEST POP POP POP POP PUSH1 0x40 MLOAD RETURNDATASIZE PUSH1 0x1F NOT PUSH1 0x1F DUP3 ADD AND DUP3 ADD DUP1 PUSH1 0x40 MSTORE POP DUP2 ADD SWAP1 PUSH2 0x3239 SWAP2 SWAP1 PUSH2 0x39DC JUMP JUMPDEST PUSH2 0x3255 JUMPI PUSH1 0x40 MLOAD PUSH3 0x461BCD PUSH1 0xE5 SHL DUP2 MSTORE PUSH1 0x4 ADD PUSH2 0x6B4 SWAP1 PUSH2 0x42DC JUMP JUMPDEST PUSH32 0xBB18388C519FE4B4B577B17F416832C870492BE5510CDB062B086C0A0025D788 DUP3 PUSH2 0x327F PUSH2 0x1FFC JUMP JUMPDEST PUSH1 0x40 MLOAD PUSH2 0x328D SWAP3 SWAP2 SWAP1 PUSH2 0x4530 JUMP JUMPDEST PUSH1 0x40 MLOAD DUP1 SWAP2 SUB SWAP1 LOG1 POP PUSH1 0x1 SWAP2 SWAP1 POP JUMP JUMPDEST PUSH1 0x3 SLOAD PUSH1 0x0 SWAP1 PUSH1 0x1 PUSH1 0x1 PUSH1 0xA0 SHL SUB AND CALLER EQ DUP1 PUSH2 0x32D1 JUMPI POP PUSH2 0x32BC PUSH2 0x1FFC JUMP JUMPDEST PUSH1 0x1 PUSH1 0x1 PUSH1 0xA0 SHL SUB AND CALLER PUSH1 0x1 PUSH1 0x1 PUSH1 0xA0 SHL SUB AND EQ JUMPDEST PUSH2 0x32ED JUMPI PUSH1 0x40 MLOAD PUSH3 0x461BCD PUSH1 0xE5 SHL DUP2 MSTORE PUSH1 0x4 ADD PUSH2 0x6B4 SWAP1 PUSH2 0x421E JUMP JUMPDEST POP PUSH1 0x5 SSTORE PUSH1 0x1 SWAP1 JUMP JUMPDEST PUSH1 0x0 PUSH2 0x3300 PUSH2 0x33C0 JUMP JUMPDEST PUSH1 0x1 PUSH1 0x1 PUSH1 0xA0 SHL SUB AND PUSH2 0x3311 PUSH2 0x1FFC JUMP JUMPDEST PUSH1 0x1 PUSH1 0x1 PUSH1 0xA0 SHL SUB AND EQ PUSH2 0x3337 JUMPI PUSH1 0x40 MLOAD PUSH3 0x461BCD PUSH1 0xE5 SHL DUP2 MSTORE PUSH1 0x4 ADD PUSH2 0x6B4 SWAP1 PUSH2 0x4270 JUMP JUMPDEST POP PUSH1 0x8 SSTORE PUSH1 0x1 SWAP1 JUMP JUMPDEST PUSH2 0x3348 PUSH2 0x33C0 JUMP JUMPDEST PUSH1 0x1 PUSH1 0x1 PUSH1 0xA0 SHL SUB AND PUSH2 0x3359 PUSH2 0x1FFC JUMP JUMPDEST PUSH1 0x1 PUSH1 0x1 PUSH1 0xA0 SHL SUB AND EQ PUSH2 0x337F JUMPI PUSH1 0x40 MLOAD PUSH3 0x461BCD PUSH1 0xE5 SHL DUP2 MSTORE PUSH1 0x4 ADD PUSH2 0x6B4 SWAP1 PUSH2 0x4270 JUMP JUMPDEST PUSH1 0x1 PUSH1 0x1 PUSH1 0xA0 SHL SUB DUP2 AND PUSH2 0x33A5 JUMPI PUSH1 0x40 MLOAD PUSH3 0x461BCD PUSH1 0xE5 SHL DUP2 MSTORE PUSH1 0x4 ADD PUSH2 0x6B4 SWAP1 PUSH2 0x3FA3 JUMP JUMPDEST PUSH2 0x33AE DUP2 PUSH2 0x3434 JUMP JUMPDEST POP JUMP JUMPDEST PUSH1 0x3 SLOAD PUSH1 0x1 PUSH1 0x1 PUSH1 0xA0 SHL SUB AND SWAP1 JUMP JUMPDEST CALLER SWAP1 JUMP JUMPDEST EXTCODESIZE PUSH4 0xFFFFFFFF AND ISZERO ISZERO SWAP1 JUMP JUMPDEST PUSH1 0x0 DUP2 DUP2 MSTORE PUSH1 0xB PUSH1 0x20 MSTORE PUSH1 0x40 DUP2 KECCAK256 SLOAD PUSH4 0xFFFFFFFF AND PUSH2 0x341B JUMPI PUSH1 0x8 SLOAD DUP3 GT ISZERO PUSH2 0x33FD JUMPI POP PUSH3 0x98967F PUSH2 0x668 JUMP JUMPDEST PUSH1 0x0 PUSH2 0x3408 DUP4 PUSH2 0x36BE JUMP JUMPDEST SWAP1 POP PUSH2 0x3413 DUP2 PUSH2 0x30F8 JUMP JUMPDEST SWAP2 POP POP PUSH2 0x668 JUMP JUMPDEST POP PUSH1 0x0 SWAP1 DUP2 MSTORE PUSH1 0xB PUSH1 0x20 MSTORE PUSH1 0x40 SWAP1 KECCAK256 SLOAD PUSH4 0xFFFFFFFF AND SWAP1 JUMP JUMPDEST PUSH1 0x0 DUP1 SLOAD PUSH1 0x1 PUSH1 0x1 PUSH1 0xA0 SHL SUB DUP4 DUP2 AND PUSH1 0x1 PUSH1 0x1 PUSH1 0xA0 SHL SUB NOT DUP4 AND DUP2 OR DUP5 SSTORE PUSH1 0x40 MLOAD SWAP2 SWAP1 SWAP3 AND SWAP3 DUP4 SWAP2 PUSH32 0x8BE0079C531659141344CD1FD0A4F28419497F9722A3DAAFE3B4186F6B6457E0 SWAP2 SWAP1 LOG3 POP POP JUMP JUMPDEST PUSH1 0x6 SLOAD DUP2 LT PUSH2 0x3492 JUMPI PUSH2 0x33AE JUMP JUMPDEST PUSH1 0x0 PUSH1 0xC PUSH1 0x0 PUSH1 0x6 DUP5 DUP2 SLOAD DUP2 LT PUSH2 0x34B9 JUMPI PUSH4 0x4E487B71 PUSH1 0xE0 SHL PUSH1 0x0 MSTORE PUSH1 0x32 PUSH1 0x4 MSTORE PUSH1 0x24 PUSH1 0x0 REVERT JUMPDEST SWAP1 PUSH1 0x0 MSTORE PUSH1 0x20 PUSH1 0x0 KECCAK256 SWAP1 PUSH1 0x5 MUL ADD PUSH1 0x3 ADD PUSH1 0x40 MLOAD PUSH2 0x34D7 SWAP2 SWAP1 PUSH2 0x3D0A JUMP JUMPDEST PUSH1 0x40 DUP1 MLOAD SWAP2 DUP3 SWAP1 SUB SWAP1 SWAP2 KECCAK256 DUP3 MSTORE PUSH1 0x20 DUP3 ADD SWAP3 SWAP1 SWAP3 MSTORE ADD PUSH1 0x0 KECCAK256 DUP1 SLOAD PUSH4 0xFFFFFFFF NOT AND PUSH4 0xFFFFFFFF SWAP3 SWAP1 SWAP3 AND SWAP2 SWAP1 SWAP2 OR SWAP1 SSTORE PUSH1 0x6 SLOAD PUSH2 0x3517 SWAP1 PUSH1 0x1 SWAP1 PUSH2 0x46C2 JUMP JUMPDEST DUP2 LT ISZERO PUSH2 0x364F JUMPI PUSH1 0x6 DUP1 SLOAD PUSH2 0x352E SWAP1 PUSH1 0x1 SWAP1 PUSH2 0x46C2 JUMP JUMPDEST DUP2 SLOAD DUP2 LT PUSH2 0x354C JUMPI PUSH4 0x4E487B71 PUSH1 0xE0 SHL PUSH1 0x0 MSTORE PUSH1 0x32 PUSH1 0x4 MSTORE PUSH1 0x24 PUSH1 0x0 REVERT JUMPDEST SWAP1 PUSH1 0x0 MSTORE PUSH1 0x20 PUSH1 0x0 KECCAK256 SWAP1 PUSH1 0x5 MUL ADD PUSH1 0x6 DUP3 DUP2 SLOAD DUP2 LT PUSH2 0x357B JUMPI PUSH4 0x4E487B71 PUSH1 0xE0 SHL PUSH1 0x0 MSTORE PUSH1 0x32 PUSH1 0x4 MSTORE PUSH1 0x24 PUSH1 0x0 REVERT JUMPDEST PUSH1 0x0 SWAP2 DUP3 MSTORE PUSH1 0x20 SWAP1 SWAP2 KECCAK256 DUP3 SLOAD PUSH1 0x5 SWAP1 SWAP3 MUL ADD DUP1 SLOAD PUSH4 0xFFFFFFFF NOT AND PUSH4 0xFFFFFFFF SWAP1 SWAP3 AND SWAP2 SWAP1 SWAP2 OR DUP2 SSTORE PUSH1 0x1 DUP1 DUP4 ADD SLOAD SWAP1 DUP3 ADD SSTORE PUSH1 0x2 DUP1 DUP4 ADD SLOAD SWAP1 DUP3 ADD SSTORE PUSH1 0x3 DUP1 DUP4 ADD DUP1 SLOAD SWAP2 DUP4 ADD SWAP2 PUSH2 0x35CC SWAP1 PUSH2 0x4765 JUMP JUMPDEST PUSH2 0x35D7 SWAP3 SWAP2 SWAP1 PUSH2 0x37E4 JUMP JUMPDEST POP PUSH1 0x4 SWAP2 DUP3 ADD SLOAD SWAP2 ADD DUP1 SLOAD PUSH4 0xFFFFFFFF NOT AND PUSH4 0xFFFFFFFF SWAP1 SWAP3 AND SWAP2 SWAP1 SWAP2 OR SWAP1 SSTORE PUSH2 0x3602 DUP2 PUSH1 0x1 PUSH2 0x466B JUMP JUMPDEST PUSH1 0x9 PUSH1 0x0 PUSH1 0x6 DUP5 DUP2 SLOAD DUP2 LT PUSH2 0x3627 JUMPI PUSH4 0x4E487B71 PUSH1 0xE0 SHL PUSH1 0x0 MSTORE PUSH1 0x32 PUSH1 0x4 MSTORE PUSH1 0x24 PUSH1 0x0 REVERT JUMPDEST PUSH1 0x0 SWAP2 DUP3 MSTORE PUSH1 0x20 DUP1 DUP4 KECCAK256 PUSH1 0x5 SWAP1 SWAP3 MUL SWAP1 SWAP2 ADD SLOAD PUSH4 0xFFFFFFFF AND DUP4 MSTORE DUP3 ADD SWAP3 SWAP1 SWAP3 MSTORE PUSH1 0x40 ADD SWAP1 KECCAK256 SSTORE JUMPDEST PUSH1 0x6 DUP1 SLOAD DUP1 PUSH2 0x366E JUMPI PUSH4 0x4E487B71 PUSH1 0xE0 SHL PUSH1 0x0 MSTORE PUSH1 0x31 PUSH1 0x4 MSTORE PUSH1 0x24 PUSH1 0x0 REVERT JUMPDEST PUSH1 0x0 DUP3 DUP2 MSTORE PUSH1 0x20 DUP2 KECCAK256 PUSH1 0x5 PUSH1 0x0 NOT SWAP1 SWAP4 ADD SWAP3 DUP4 MUL ADD DUP1 SLOAD PUSH4 0xFFFFFFFF NOT AND DUP2 SSTORE PUSH1 0x1 DUP2 ADD DUP3 SWAP1 SSTORE PUSH1 0x2 DUP2 ADD DUP3 SWAP1 SSTORE SWAP1 PUSH2 0x36AA PUSH1 0x3 DUP4 ADD DUP3 PUSH2 0x385F JUMP JUMPDEST POP PUSH1 0x4 ADD DUP1 SLOAD PUSH4 0xFFFFFFFF NOT AND SWAP1 SSTORE SWAP1 SSTORE POP JUMP JUMPDEST PUSH1 0x1 SLOAD PUSH1 0x40 MLOAD PUSH4 0xC87B56DD PUSH1 0xE0 SHL DUP2 MSTORE PUSH1 0x60 SWAP2 PUSH1 0x1 PUSH1 0x1 PUSH1 0xA0 SHL SUB AND SWAP1 PUSH4 0xC87B56DD SWAP1 PUSH2 0x36EF SWAP1 DUP6 SWAP1 PUSH1 0x4 ADD PUSH2 0x4527 JUMP JUMPDEST PUSH1 0x0 PUSH1 0x40 MLOAD DUP1 DUP4 SUB DUP2 DUP7 DUP1 EXTCODESIZE ISZERO DUP1 ISZERO PUSH2 0x3707 JUMPI PUSH1 0x0 DUP1 REVERT JUMPDEST POP GAS STATICCALL SWAP3 POP POP POP DUP1 ISZERO PUSH2 0x373C JUMPI POP PUSH1 0x40 MLOAD RETURNDATASIZE PUSH1 0x0 DUP3 RETURNDATACOPY PUSH1 0x1F RETURNDATASIZE SWAP1 DUP2 ADD PUSH1 0x1F NOT AND DUP3 ADD PUSH1 0x40 MSTORE PUSH2 0x3739 SWAP2 SWAP1 DUP2 ADD SWAP1 PUSH2 0x3A75 JUMP JUMPDEST PUSH1 0x1 JUMPDEST PUSH2 0x3745 JUMPI PUSH2 0x374C JUMP JUMPDEST SWAP1 POP PUSH2 0x668 JUMP JUMPDEST POP POP PUSH1 0x40 DUP1 MLOAD PUSH1 0x20 DUP2 ADD SWAP1 SWAP2 MSTORE PUSH1 0x0 DUP2 MSTORE SWAP1 JUMP JUMPDEST DUP3 DUP1 SLOAD PUSH2 0x376C SWAP1 PUSH2 0x4765 JUMP JUMPDEST SWAP1 PUSH1 0x0 MSTORE PUSH1 0x20 PUSH1 0x0 KECCAK256 SWAP1 PUSH1 0x1F ADD PUSH1 0x20 SWAP1 DIV DUP2 ADD SWAP3 DUP3 PUSH2 0x378E JUMPI PUSH1 0x0 DUP6 SSTORE PUSH2 0x37D4 JUMP JUMPDEST DUP3 PUSH1 0x1F LT PUSH2 0x37A7 JUMPI DUP1 MLOAD PUSH1 0xFF NOT AND DUP4 DUP1 ADD OR DUP6 SSTORE PUSH2 0x37D4 JUMP JUMPDEST DUP3 DUP1 ADD PUSH1 0x1 ADD DUP6 SSTORE DUP3 ISZERO PUSH2 0x37D4 JUMPI SWAP2 DUP3 ADD JUMPDEST DUP3 DUP2 GT ISZERO PUSH2 0x37D4 JUMPI DUP3 MLOAD DUP3 SSTORE SWAP2 PUSH1 0x20 ADD SWAP2 SWAP1 PUSH1 0x1 ADD SWAP1 PUSH2 0x37B9 JUMP JUMPDEST POP PUSH2 0x37E0 SWAP3 SWAP2 POP PUSH2 0x3897 JUMP JUMPDEST POP SWAP1 JUMP JUMPDEST DUP3 DUP1 SLOAD PUSH2 0x37F0 SWAP1 PUSH2 0x4765 JUMP JUMPDEST SWAP1 PUSH1 0x0 MSTORE PUSH1 0x20 PUSH1 0x0 KECCAK256 SWAP1 PUSH1 0x1F ADD PUSH1 0x20 SWAP1 DIV DUP2 ADD SWAP3 DUP3 PUSH2 0x3812 JUMPI PUSH1 0x0 DUP6 SSTORE PUSH2 0x37D4 JUMP JUMPDEST DUP3 PUSH1 0x1F LT PUSH2 0x3823 JUMPI DUP1 SLOAD DUP6 SSTORE PUSH2 0x37D4 JUMP JUMPDEST DUP3 DUP1 ADD PUSH1 0x1 ADD DUP6 SSTORE DUP3 ISZERO PUSH2 0x37D4 JUMPI PUSH1 0x0 MSTORE PUSH1 0x20 PUSH1 0x0 KECCAK256 SWAP2 PUSH1 0x1F ADD PUSH1 0x20 SWAP1 DIV DUP3 ADD JUMPDEST DUP3 DUP2 GT ISZERO PUSH2 0x37D4 JUMPI DUP3 SLOAD DUP3 SSTORE SWAP2 PUSH1 0x1 ADD SWAP2 SWAP1 PUSH1 0x1 ADD SWAP1 PUSH2 0x3844 JUMP JUMPDEST POP DUP1 SLOAD PUSH2 0x386B SWAP1 PUSH2 0x4765 JUMP JUMPDEST PUSH1 0x0 DUP3 SSTORE DUP1 PUSH1 0x1F LT PUSH2 0x387D JUMPI POP PUSH2 0x33AE JUMP JUMPDEST PUSH1 0x1F ADD PUSH1 0x20 SWAP1 DIV SWAP1 PUSH1 0x0 MSTORE PUSH1 0x20 PUSH1 0x0 KECCAK256 SWAP1 DUP2 ADD SWAP1 PUSH2 0x33AE SWAP2 SWAP1 JUMPDEST JUMPDEST DUP1 DUP3 GT ISZERO PUSH2 0x37E0 JUMPI PUSH1 0x0 DUP2 SSTORE PUSH1 0x1 ADD PUSH2 0x3898 JUMP JUMPDEST PUSH1 0x0 DUP1 DUP4 PUSH1 0x1F DUP5 ADD SLT PUSH2 0x38BD JUMPI DUP2 DUP3 REVERT JUMPDEST POP DUP2 CALLDATALOAD PUSH8 0xFFFFFFFFFFFFFFFF DUP2 GT ISZERO PUSH2 0x38D4 JUMPI DUP2 DUP3 REVERT JUMPDEST PUSH1 0x20 DUP4 ADD SWAP2 POP DUP4 PUSH1 0x20 DUP1 DUP4 MUL DUP6 ADD ADD GT ISZERO PUSH2 0x38EE JUMPI PUSH1 0x0 DUP1 REVERT JUMPDEST SWAP3 POP SWAP3 SWAP1 POP JUMP JUMPDEST DUP1 CALLDATALOAD PUSH4 0xFFFFFFFF DUP2 AND DUP2 EQ PUSH2 0x668 JUMPI PUSH1 0x0 DUP1 REVERT JUMPDEST PUSH1 0x0 PUSH1 0x20 DUP3 DUP5 SUB SLT ISZERO PUSH2 0x391A JUMPI DUP1 DUP2 REVERT JUMPDEST DUP2 CALLDATALOAD PUSH2 0x3925 DUP2 PUSH2 0x480B JUMP JUMPDEST SWAP4 SWAP3 POP POP POP JUMP JUMPDEST PUSH1 0x0 PUSH1 0x20 DUP3 DUP5 SUB SLT ISZERO PUSH2 0x393D JUMPI DUP1 DUP2 REVERT JUMPDEST DUP2 MLOAD PUSH2 0x3925 DUP2 PUSH2 0x480B JUMP JUMPDEST PUSH1 0x0 DUP1 PUSH1 0x40 DUP4 DUP6 SUB SLT ISZERO PUSH2 0x395A JUMPI DUP1 DUP2 REVERT JUMPDEST DUP3 CALLDATALOAD PUSH2 0x3965 DUP2 PUSH2 0x480B JUMP JUMPDEST SWAP5 PUSH1 0x20 SWAP4 SWAP1 SWAP4 ADD CALLDATALOAD SWAP4 POP POP POP JUMP JUMPDEST PUSH1 0x0 DUP1 PUSH1 0x0 DUP1 PUSH1 0x40 DUP6 DUP8 SUB SLT ISZERO PUSH2 0x3988 JUMPI DUP2 DUP3 REVERT JUMPDEST DUP5 CALLDATALOAD PUSH8 0xFFFFFFFFFFFFFFFF DUP1 DUP3 GT ISZERO PUSH2 0x399F JUMPI DUP4 DUP5 REVERT JUMPDEST PUSH2 0x39AB DUP9 DUP4 DUP10 ADD PUSH2 0x38AC JUMP JUMPDEST SWAP1 SWAP7 POP SWAP5 POP PUSH1 0x20 DUP8 ADD CALLDATALOAD SWAP2 POP DUP1 DUP3 GT ISZERO PUSH2 0x39C3 JUMPI DUP4 DUP5 REVERT JUMPDEST POP PUSH2 0x39D0 DUP8 DUP3 DUP9 ADD PUSH2 0x38AC JUMP JUMPDEST SWAP6 SWAP9 SWAP5 SWAP8 POP SWAP6 POP POP POP POP JUMP JUMPDEST PUSH1 0x0 PUSH1 0x20 DUP3 DUP5 SUB SLT ISZERO PUSH2 0x39ED JUMPI DUP1 DUP2 REVERT JUMPDEST DUP2 MLOAD DUP1 ISZERO ISZERO DUP2 EQ PUSH2 0x3925 JUMPI DUP2 DUP3 REVERT JUMPDEST PUSH1 0x0 PUSH1 0x20 DUP3 DUP5 SUB SLT ISZERO PUSH2 0x3A0D JUMPI DUP1 DUP2 REVERT JUMPDEST DUP2 CALLDATALOAD PUSH8 0xFFFFFFFFFFFFFFFF DUP2 GT ISZERO PUSH2 0x3A23 JUMPI DUP2 DUP3 REVERT JUMPDEST DUP3 ADD PUSH1 0x1F DUP2 ADD DUP5 SGT PUSH2 0x3A33 JUMPI DUP2 DUP3 REVERT JUMPDEST DUP1 CALLDATALOAD PUSH2 0x3A46 PUSH2 0x3A41 DUP3 PUSH2 0x4643 JUMP JUMPDEST PUSH2 0x4619 JUMP JUMPDEST DUP2 DUP2 MSTORE DUP6 PUSH1 0x20 DUP4 DUP6 ADD ADD GT ISZERO PUSH2 0x3A5A JUMPI DUP4 DUP5 REVERT JUMPDEST DUP2 PUSH1 0x20 DUP5 ADD PUSH1 0x20 DUP4 ADD CALLDATACOPY SWAP1 DUP2 ADD PUSH1 0x20 ADD SWAP3 SWAP1 SWAP3 MSTORE POP SWAP3 SWAP2 POP POP JUMP JUMPDEST PUSH1 0x0 PUSH1 0x20 DUP3 DUP5 SUB SLT ISZERO PUSH2 0x3A86 JUMPI DUP1 DUP2 REVERT JUMPDEST DUP2 MLOAD PUSH8 0xFFFFFFFFFFFFFFFF DUP2 GT ISZERO PUSH2 0x3A9C JUMPI DUP2 DUP3 REVERT JUMPDEST DUP3 ADD PUSH1 0x1F DUP2 ADD DUP5 SGT PUSH2 0x3AAC JUMPI DUP2 DUP3 REVERT JUMPDEST DUP1 MLOAD PUSH2 0x3ABA PUSH2 0x3A41 DUP3 PUSH2 0x4643 JUMP JUMPDEST DUP2 DUP2 MSTORE DUP6 PUSH1 0x20 DUP4 DUP6 ADD ADD GT ISZERO PUSH2 0x3ACE JUMPI DUP4 DUP5 REVERT JUMPDEST PUSH2 0x3ADF DUP3 PUSH1 0x20 DUP4 ADD PUSH1 0x20 DUP7 ADD PUSH2 0x46FE JUMP JUMPDEST SWAP6 SWAP5 POP POP POP POP POP JUMP JUMPDEST PUSH1 0x0 PUSH1 0x20 DUP3 DUP5 SUB SLT ISZERO PUSH2 0x3AF9 JUMPI DUP1 DUP2 REVERT JUMPDEST POP CALLDATALOAD SWAP2 SWAP1 POP JUMP JUMPDEST PUSH1 0x0 PUSH1 0x20 DUP3 DUP5 SUB SLT ISZERO PUSH2 0x3B11 JUMPI DUP1 DUP2 REVERT JUMPDEST POP MLOAD SWAP2 SWAP1 POP JUMP JUMPDEST PUSH1 0x0 PUSH1 0x20 DUP3 DUP5 SUB SLT ISZERO PUSH2 0x3B29 JUMPI DUP1 DUP2 REVERT JUMPDEST PUSH2 0x3925 DUP3 PUSH2 0x38F5 JUMP JUMPDEST PUSH1 0x0 DUP1 PUSH1 0x40 DUP4 DUP6 SUB SLT ISZERO PUSH2 0x3B44 JUMPI DUP2 DUP3 REVERT JUMPDEST PUSH2 0x3B4D DUP4 PUSH2 0x38F5 JUMP JUMPDEST SWAP2 POP PUSH1 0x20 DUP4 ADD CALLDATALOAD PUSH2 0x3B5D DUP2 PUSH2 0x480B JUMP JUMPDEST DUP1 SWAP2 POP POP SWAP3 POP SWAP3 SWAP1 POP JUMP JUMPDEST PUSH1 0x0 DUP1 PUSH1 0x0 PUSH1 0x60 DUP5 DUP7 SUB SLT ISZERO PUSH2 0x3B7C JUMPI DUP3 DUP4 REVERT JUMPDEST PUSH2 0x3B85 DUP5 PUSH2 0x38F5 JUMP JUMPDEST SWAP3 POP PUSH1 0x20 DUP5 ADD CALLDATALOAD PUSH2 0x3B95 DUP2 PUSH2 0x480B JUMP JUMPDEST SWAP3 SWAP6 SWAP3 SWAP5 POP POP POP PUSH1 0x40 SWAP2 SWAP1 SWAP2 ADD CALLDATALOAD SWAP1 JUMP JUMPDEST PUSH1 0x0 DUP1 PUSH1 0x40 DUP4 DUP6 SUB SLT ISZERO PUSH2 0x3BB8 JUMPI DUP2 DUP3 REVERT JUMPDEST PUSH2 0x3965 DUP4 PUSH2 0x38F5 JUMP JUMPDEST PUSH1 0x0 DUP1 PUSH1 0x0 PUSH1 0x60 DUP5 DUP7 SUB SLT ISZERO PUSH2 0x3BD5 JUMPI DUP1 DUP2 REVERT JUMPDEST PUSH2 0x3BDE DUP5 PUSH2 0x38F5 JUMP JUMPDEST SWAP6 PUSH1 0x20 DUP6 ADD CALLDATALOAD SWAP6 POP PUSH1 0x40 SWAP1 SWAP5 ADD CALLDATALOAD SWAP4 SWAP3 POP POP POP JUMP JUMPDEST PUSH1 0x0 DUP1 PUSH1 0x0 DUP1 PUSH1 0x0 DUP1 PUSH1 0xA0 DUP8 DUP10 SUB SLT ISZERO PUSH2 0x3C0B JUMPI DUP4 DUP5 REVERT JUMPDEST PUSH2 0x3C14 DUP8 PUSH2 0x38F5 JUMP JUMPDEST SWAP6 POP PUSH1 0x20 DUP8 ADD CALLDATALOAD SWAP5 POP PUSH1 0x40 DUP8 ADD CALLDATALOAD SWAP4 POP PUSH1 0x60 DUP8 ADD CALLDATALOAD PUSH8 0xFFFFFFFFFFFFFFFF DUP1 DUP3 GT ISZERO PUSH2 0x3C3E JUMPI DUP4 DUP5 REVERT JUMPDEST DUP2 DUP10 ADD SWAP2 POP DUP10 PUSH1 0x1F DUP4 ADD SLT PUSH2 0x3C51 JUMPI DUP4 DUP5 REVERT JUMPDEST DUP2 CALLDATALOAD DUP2 DUP2 GT ISZERO PUSH2 0x3C5F JUMPI DUP5 DUP6 REVERT JUMPDEST DUP11 PUSH1 0x20 DUP3 DUP6 ADD ADD GT ISZERO PUSH2 0x3C70 JUMPI DUP5 DUP6 REVERT JUMPDEST PUSH1 0x20 DUP4 ADD SWAP6 POP DUP1 SWAP5 POP POP POP POP PUSH2 0x3C88 PUSH1 0x80 DUP9 ADD PUSH2 0x38F5 JUMP JUMPDEST SWAP1 POP SWAP3 SWAP6 POP SWAP3 SWAP6 POP SWAP3 SWAP6 JUMP JUMPDEST PUSH1 0x0 DUP2 MLOAD DUP1 DUP5 MSTORE PUSH1 0x20 DUP1 DUP6 ADD SWAP5 POP DUP1 DUP5 ADD DUP4 JUMPDEST DUP4 DUP2 LT ISZERO PUSH2 0x3CC3 JUMPI DUP2 MLOAD DUP8 MSTORE SWAP6 DUP3 ADD SWAP6 SWAP1 DUP3 ADD SWAP1 PUSH1 0x1 ADD PUSH2 0x3CA7 JUMP JUMPDEST POP SWAP5 SWAP6 SWAP5 POP POP POP POP POP JUMP JUMPDEST PUSH1 0x0 DUP2 MLOAD DUP1 DUP5 MSTORE PUSH2 0x3CE6 DUP2 PUSH1 0x20 DUP7 ADD PUSH1 0x20 DUP7 ADD PUSH2 0x46FE JUMP JUMPDEST PUSH1 0x1F ADD PUSH1 0x1F NOT AND SWAP3 SWAP1 SWAP3 ADD PUSH1 0x20 ADD SWAP3 SWAP2 POP POP JUMP JUMPDEST PUSH1 0x0 DUP3 DUP5 DUP4 CALLDATACOPY SWAP2 ADD SWAP1 DUP2 MSTORE SWAP2 SWAP1 POP JUMP JUMPDEST PUSH1 0x0 DUP1 DUP4 SLOAD PUSH2 0x3D18 DUP2 PUSH2 0x4765 JUMP JUMPDEST PUSH1 0x1 DUP3 DUP2 AND DUP1 ISZERO PUSH2 0x3D30 JUMPI PUSH1 0x1 DUP2 EQ PUSH2 0x3D41 JUMPI PUSH2 0x3D6D JUMP JUMPDEST PUSH1 0xFF NOT DUP5 AND DUP8 MSTORE DUP3 DUP8 ADD SWAP5 POP PUSH2 0x3D6D JUMP JUMPDEST DUP8 DUP7 MSTORE PUSH1 0x20 DUP1 DUP8 KECCAK256 DUP8 JUMPDEST DUP6 DUP2 LT ISZERO PUSH2 0x3D64 JUMPI DUP2 SLOAD DUP11 DUP3 ADD MSTORE SWAP1 DUP5 ADD SWAP1 DUP3 ADD PUSH2 0x3D4B JUMP JUMPDEST POP POP POP DUP3 DUP8 ADD SWAP5 POP JUMPDEST POP SWAP3 SWAP7 SWAP6 POP POP POP POP POP POP JUMP JUMPDEST PUSH1 0x1 PUSH1 0x1 PUSH1 0xA0 SHL SUB SWAP2 SWAP1 SWAP2 AND DUP2 MSTORE PUSH1 0x20 ADD SWAP1 JUMP JUMPDEST PUSH1 0x1 PUSH1 0x1 PUSH1 0xA0 SHL SUB SWAP4 DUP5 AND DUP2 MSTORE SWAP2 SWAP1 SWAP3 AND PUSH1 0x20 DUP3 ADD MSTORE PUSH1 0x40 DUP2 ADD SWAP2 SWAP1 SWAP2 MSTORE PUSH1 0x60 ADD SWAP1 JUMP JUMPDEST PUSH1 0x1 PUSH1 0x1 PUSH1 0xA0 SHL SUB SWAP3 SWAP1 SWAP3 AND DUP3 MSTORE PUSH1 0x20 DUP3 ADD MSTORE PUSH1 0x40 ADD SWAP1 JUMP JUMPDEST PUSH1 0x0 PUSH1 0x1 DUP1 PUSH1 0xA0 SHL SUB DUP6 AND DUP3 MSTORE PUSH1 0x20 DUP5 DUP2 DUP5 ADD MSTORE PUSH1 0x60 PUSH1 0x40 DUP5 ADD MSTORE DUP2 DUP5 SLOAD PUSH2 0x3DF1 DUP2 PUSH2 0x4765 JUMP JUMPDEST DUP1 PUSH1 0x60 DUP8 ADD MSTORE PUSH1 0x80 PUSH1 0x1 DUP1 DUP5 AND PUSH1 0x0 DUP2 EQ PUSH2 0x3E13 JUMPI PUSH1 0x1 DUP2 EQ PUSH2 0x3E27 JUMPI PUSH2 0x3E52 JUMP JUMPDEST PUSH1 0xFF NOT DUP6 AND DUP10 DUP5 ADD MSTORE PUSH1 0xA0 DUP10 ADD SWAP6 POP PUSH2 0x3E52 JUMP JUMPDEST DUP10 DUP9 MSTORE DUP7 DUP9 KECCAK256 DUP9 JUMPDEST DUP6 DUP2 LT ISZERO PUSH2 0x3E4A JUMPI DUP2 SLOAD DUP12 DUP3 ADD DUP7 ADD MSTORE SWAP1 DUP4 ADD SWAP1 DUP9 ADD PUSH2 0x3E2F JUMP JUMPDEST DUP11 ADD DUP5 ADD SWAP7 POP POP JUMPDEST POP SWAP4 SWAP11 SWAP10 POP POP POP POP POP POP POP POP POP POP JUMP JUMPDEST PUSH1 0x60 DUP1 DUP3 MSTORE DUP5 MLOAD SWAP1 DUP3 ADD DUP2 SWAP1 MSTORE PUSH1 0x0 SWAP1 PUSH1 0x20 SWAP1 PUSH1 0x80 DUP5 ADD SWAP1 DUP3 DUP9 ADD DUP5 JUMPDEST DUP3 DUP2 LT ISZERO PUSH2 0x3EA1 JUMPI DUP2 MLOAD PUSH4 0xFFFFFFFF AND DUP5 MSTORE SWAP3 DUP5 ADD SWAP3 SWAP1 DUP5 ADD SWAP1 PUSH1 0x1 ADD PUSH2 0x3E7F JUMP JUMPDEST POP POP POP DUP4 DUP2 SUB DUP3 DUP6 ADD MSTORE PUSH2 0x3EB5 DUP2 DUP8 PUSH2 0x3C94 JUMP JUMPDEST SWAP2 POP POP DUP3 DUP2 SUB PUSH1 0x40 DUP5 ADD MSTORE PUSH2 0x3ECA DUP2 DUP6 PUSH2 0x3C94 JUMP JUMPDEST SWAP7 SWAP6 POP POP POP POP POP POP JUMP JUMPDEST SWAP1 ISZERO ISZERO DUP2 MSTORE PUSH1 0x20 ADD SWAP1 JUMP JUMPDEST PUSH1 0x0 PUSH1 0x20 DUP3 MSTORE PUSH2 0x3925 PUSH1 0x20 DUP4 ADD DUP5 PUSH2 0x3CCE JUMP JUMPDEST PUSH1 0x20 DUP1 DUP3 MSTORE PUSH1 0x1D SWAP1 DUP3 ADD MSTORE PUSH32 0x496E73756666696369656E742045544E41206F6E20636F6E7472616374000000 PUSH1 0x40 DUP3 ADD MSTORE PUSH1 0x60 ADD SWAP1 JUMP JUMPDEST PUSH1 0x20 DUP1 DUP3 MSTORE PUSH1 0x23 SWAP1 DUP3 ADD MSTORE PUSH32 0x4172726179732073686F756C64206265206F66207468652073616D65206C656E PUSH1 0x40 DUP3 ADD MSTORE PUSH3 0xCEE8D PUSH1 0xEB SHL PUSH1 0x60 DUP3 ADD MSTORE PUSH1 0x80 ADD SWAP1 JUMP JUMPDEST PUSH1 0x20 DUP1 DUP3 MSTORE PUSH1 0x1F SWAP1 DUP3 ADD MSTORE PUSH32 0x4E46542077697468207468697320494420616C72656164792065786973747300 PUSH1 0x40 DUP3 ADD MSTORE PUSH1 0x60 ADD SWAP1 JUMP JUMPDEST PUSH1 0x20 DUP1 DUP3 MSTORE PUSH1 0x26 SWAP1 DUP3 ADD MSTORE PUSH32 0x4F776E61626C653A206E6577206F776E657220697320746865207A65726F2061 PUSH1 0x40 DUP3 ADD MSTORE PUSH6 0x646472657373 PUSH1 0xD0 SHL PUSH1 0x60 DUP3 ADD MSTORE PUSH1 0x80 ADD SWAP1 JUMP JUMPDEST PUSH1 0x20 DUP1 DUP3 MSTORE PUSH1 0x23 SWAP1 DUP3 ADD MSTORE PUSH32 0x50726F66696C652077697468207468697320494420646F6573206E6F74206578 PUSH1 0x40 DUP3 ADD MSTORE PUSH3 0x1A5CDD PUSH1 0xEA SHL PUSH1 0x60 DUP3 ADD MSTORE PUSH1 0x80 ADD SWAP1 JUMP JUMPDEST PUSH1 0x20 DUP1 DUP3 MSTORE PUSH1 0x13 SWAP1 DUP3 ADD MSTORE PUSH19 0x11551390481C185E5B595B9D0819985A5B1959 PUSH1 0x6A SHL PUSH1 0x40 DUP3 ADD MSTORE PUSH1 0x60 ADD SWAP1 JUMP JUMPDEST PUSH1 0x20 DUP1 DUP3 MSTORE PUSH1 0x2F SWAP1 DUP3 ADD MSTORE PUSH32 0x416D6F756E742063616E206E6F742062652067726561746572207468616E2063 PUSH1 0x40 DUP3 ADD MSTORE PUSH15 0x6F6E74726163742062616C616E6365 PUSH1 0x88 SHL PUSH1 0x60 DUP3 ADD MSTORE PUSH1 0x80 ADD SWAP1 JUMP JUMPDEST PUSH1 0x20 DUP1 DUP3 MSTORE PUSH1 0x11 SWAP1 DUP3 ADD MSTORE PUSH17 0x2A3432903634B6B4BA1034B99037BB32B9 PUSH1 0x79 SHL PUSH1 0x40 DUP3 ADD MSTORE PUSH1 0x60 ADD SWAP1 JUMP JUMPDEST PUSH1 0x20 DUP1 DUP3 MSTORE PUSH1 0x28 SWAP1 DUP3 ADD MSTORE PUSH32 0x5072696365206D616E6167657220616464726573732073686F756C64206E6F74 PUSH1 0x40 DUP3 ADD MSTORE PUSH8 0x206265207A65726F PUSH1 0xC0 SHL PUSH1 0x60 DUP3 ADD MSTORE PUSH1 0x80 ADD SWAP1 JUMP JUMPDEST PUSH1 0x20 DUP1 DUP3 MSTORE PUSH1 0x18 SWAP1 DUP3 ADD MSTORE PUSH32 0x4E46542070726F66696C65204944206E6F7420666F756E640000000000000000 PUSH1 0x40 DUP3 ADD MSTORE PUSH1 0x60 ADD SWAP1 JUMP JUMPDEST PUSH1 0x20 DUP1 DUP3 MSTORE PUSH1 0x23 SWAP1 DUP3 ADD MSTORE PUSH32 0x526563656976657220616464726573732073686F756C64206E6F74206265207A PUSH1 0x40 DUP3 ADD MSTORE PUSH3 0x65726F PUSH1 0xE8 SHL PUSH1 0x60 DUP3 ADD MSTORE PUSH1 0x80 ADD SWAP1 JUMP JUMPDEST PUSH1 0x20 DUP1 DUP3 MSTORE PUSH1 0x27 SWAP1 DUP3 ADD MSTORE PUSH32 0x4E465420636F6E747261637420616464726573732073686F756C64206E6F7420 PUSH1 0x40 DUP3 ADD MSTORE PUSH7 0x6265207A65726F PUSH1 0xC8 SHL PUSH1 0x60 DUP3 ADD MSTORE PUSH1 0x80 ADD SWAP1 JUMP JUMPDEST PUSH1 0x20 DUP1 DUP3 MSTORE PUSH1 0x22 SWAP1 DUP3 ADD MSTORE PUSH32 0x416D6F756E742073686F756C642062652067726561746572207468616E207A65 PUSH1 0x40 DUP3 ADD MSTORE PUSH2 0x726F PUSH1 0xF0 SHL PUSH1 0x60 DUP3 ADD MSTORE PUSH1 0x80 ADD SWAP1 JUMP JUMPDEST PUSH1 0x20 DUP1 DUP3 MSTORE PUSH1 0x32 SWAP1 DUP3 ADD MSTORE PUSH32 0x4F6E6C79207072696365206D616E61676572206F72206F776E65722063616E20 PUSH1 0x40 DUP3 ADD MSTORE PUSH18 0x31B0B636103A3434B990333AB731BA34B7B7 PUSH1 0x71 SHL PUSH1 0x60 DUP3 ADD MSTORE PUSH1 0x80 ADD SWAP1 JUMP JUMPDEST PUSH1 0x20 DUP1 DUP3 MSTORE DUP2 DUP2 ADD MSTORE PUSH32 0x4F776E61626C653A2063616C6C6572206973206E6F7420746865206F776E6572 PUSH1 0x40 DUP3 ADD MSTORE PUSH1 0x60 ADD SWAP1 JUMP JUMPDEST PUSH1 0x20 DUP1 DUP3 MSTORE PUSH1 0x1F SWAP1 DUP3 ADD MSTORE PUSH32 0x546869732070726F66696C652063616E206E6F742062652072656D6F76656400 PUSH1 0x40 DUP3 ADD MSTORE PUSH1 0x60 ADD SWAP1 JUMP JUMPDEST PUSH1 0x20 DUP1 DUP3 MSTORE PUSH1 0x13 SWAP1 DUP3 ADD MSTORE PUSH19 0x115D1B98481C185E5B595B9D0819985A5B1959 PUSH1 0x6A SHL PUSH1 0x40 DUP3 ADD MSTORE PUSH1 0x60 ADD SWAP1 JUMP JUMPDEST PUSH1 0x20 DUP1 DUP3 MSTORE PUSH1 0x22 SWAP1 DUP3 ADD MSTORE PUSH32 0x65787465726E616C20636F6E74726163747320617265206E6F7420616C6C6F77 PUSH1 0x40 DUP3 ADD MSTORE PUSH2 0x1959 PUSH1 0xF2 SHL PUSH1 0x60 DUP3 ADD MSTORE PUSH1 0x80 ADD SWAP1 JUMP JUMPDEST PUSH1 0x20 DUP1 DUP3 MSTORE PUSH1 0x26 SWAP1 DUP3 ADD MSTORE PUSH32 0x54686973204E4654206973206E6F7420617661696C61626C6520666F72207769 PUSH1 0x40 DUP3 ADD MSTORE PUSH6 0x746864726177 PUSH1 0xD0 SHL PUSH1 0x60 DUP3 ADD MSTORE PUSH1 0x80 ADD SWAP1 JUMP JUMPDEST PUSH1 0x20 DUP1 DUP3 MSTORE PUSH1 0x1B SWAP1 DUP3 ADD MSTORE PUSH32 0x4F776E6572736869702076616C69646174696F6E206661696C65640000000000 PUSH1 0x40 DUP3 ADD MSTORE PUSH1 0x60 ADD SWAP1 JUMP JUMPDEST PUSH1 0x20 DUP1 DUP3 MSTORE PUSH1 0x21 SWAP1 DUP3 ADD MSTORE PUSH32 0x546869732070726F66696C6520494420697320616C726561647920696E207573 PUSH1 0x40 DUP3 ADD MSTORE PUSH1 0x65 PUSH1 0xF8 SHL PUSH1 0x60 DUP3 ADD MSTORE PUSH1 0x80 ADD SWAP1 JUMP JUMPDEST PUSH1 0x20 DUP1 DUP3 MSTORE PUSH1 0x1A SWAP1 DUP3 ADD MSTORE PUSH32 0x546869732075726C20697320616C726561647920696E20757365000000000000 PUSH1 0x40 DUP3 ADD MSTORE PUSH1 0x60 ADD SWAP1 JUMP JUMPDEST PUSH1 0x20 DUP1 DUP3 MSTORE PUSH1 0x34 SWAP1 DUP3 ADD MSTORE PUSH32 0x4F6E6C792061697264726F70206D616E61676572206F72206F776E6572206361 PUSH1 0x40 DUP3 ADD MSTORE PUSH20 0x371031B0B636103A3434B990333AB731BA34B7B7 PUSH1 0x61 SHL PUSH1 0x60 DUP3 ADD MSTORE PUSH1 0x80 ADD SWAP1 JUMP JUMPDEST PUSH1 0x20 DUP1 DUP3 MSTORE PUSH1 0x29 SWAP1 DUP3 ADD MSTORE PUSH32 0x455243323020636F6E747261637420616464726573732073686F756C64206E6F PUSH1 0x40 DUP3 ADD MSTORE PUSH9 0x74206265207A65726F PUSH1 0xB8 SHL PUSH1 0x60 DUP3 ADD MSTORE PUSH1 0x80 ADD SWAP1 JUMP JUMPDEST PUSH1 0x20 DUP1 DUP3 MSTORE PUSH1 0x2A SWAP1 DUP3 ADD MSTORE PUSH32 0x41697264726F70206D616E6167657220616464726573732073686F756C64206E PUSH1 0x40 DUP3 ADD MSTORE PUSH10 0x6F74206265207A65726F PUSH1 0xB0 SHL PUSH1 0x60 DUP3 ADD MSTORE PUSH1 0x80 ADD SWAP1 JUMP JUMPDEST SWAP1 DUP2 MSTORE PUSH1 0x20 ADD SWAP1 JUMP JUMPDEST SWAP2 DUP3 MSTORE PUSH1 0x1 PUSH1 0x1 PUSH1 0xA0 SHL SUB AND PUSH1 0x20 DUP3 ADD MSTORE PUSH1 0x40 ADD SWAP1 JUMP JUMPDEST PUSH1 0x0 DUP6 DUP3 MSTORE DUP5 PUSH1 0x20 DUP4 ADD MSTORE PUSH1 0x80 PUSH1 0x40 DUP4 ADD MSTORE PUSH2 0x4566 PUSH1 0x80 DUP4 ADD DUP6 PUSH2 0x3CCE JUMP JUMPDEST SWAP1 POP PUSH4 0xFFFFFFFF DUP4 AND PUSH1 0x60 DUP4 ADD MSTORE SWAP6 SWAP5 POP POP POP POP POP JUMP JUMPDEST PUSH4 0xFFFFFFFF SWAP2 SWAP1 SWAP2 AND DUP2 MSTORE PUSH1 0x20 ADD SWAP1 JUMP JUMPDEST PUSH4 0xFFFFFFFF SWAP5 SWAP1 SWAP5 AND DUP5 MSTORE PUSH1 0x20 DUP5 ADD SWAP3 SWAP1 SWAP3 MSTORE PUSH1 0x1 PUSH1 0x1 PUSH1 0xA0 SHL SUB AND PUSH1 0x40 DUP4 ADD MSTORE PUSH1 0x60 DUP3 ADD MSTORE PUSH1 0x80 ADD SWAP1 JUMP JUMPDEST PUSH4 0xFFFFFFFF SWAP4 SWAP1 SWAP4 AND DUP4 MSTORE PUSH1 0x20 DUP4 ADD SWAP2 SWAP1 SWAP2 MSTORE PUSH1 0x40 DUP3 ADD MSTORE PUSH1 0x60 ADD SWAP1 JUMP JUMPDEST PUSH1 0x0 PUSH4 0xFFFFFFFF DUP1 DUP9 AND DUP4 MSTORE DUP7 PUSH1 0x20 DUP5 ADD MSTORE DUP6 PUSH1 0x40 DUP5 ADD MSTORE PUSH1 0xA0 PUSH1 0x60 DUP5 ADD MSTORE PUSH2 0x4604 PUSH1 0xA0 DUP5 ADD DUP7 PUSH2 0x3CCE JUMP JUMPDEST SWAP2 POP DUP1 DUP5 AND PUSH1 0x80 DUP5 ADD MSTORE POP SWAP7 SWAP6 POP POP POP POP POP POP JUMP JUMPDEST PUSH1 0x40 MLOAD DUP2 DUP2 ADD PUSH8 0xFFFFFFFFFFFFFFFF DUP2 GT DUP3 DUP3 LT OR ISZERO PUSH2 0x463B JUMPI PUSH2 0x463B PUSH2 0x47F5 JUMP JUMPDEST PUSH1 0x40 MSTORE SWAP2 SWAP1 POP JUMP JUMPDEST PUSH1 0x0 PUSH8 0xFFFFFFFFFFFFFFFF DUP3 GT ISZERO PUSH2 0x465D JUMPI PUSH2 0x465D PUSH2 0x47F5 JUMP JUMPDEST POP PUSH1 0x1F ADD PUSH1 0x1F NOT AND PUSH1 0x20 ADD SWAP1 JUMP JUMPDEST PUSH1 0x0 DUP3 NOT DUP3 GT ISZERO PUSH2 0x467E JUMPI PUSH2 0x467E PUSH2 0x47DF JUMP JUMPDEST POP ADD SWAP1 JUMP JUMPDEST PUSH1 0x0 DUP3 PUSH2 0x469E JUMPI PUSH4 0x4E487B71 PUSH1 0xE0 SHL DUP2 MSTORE PUSH1 0x12 PUSH1 0x4 MSTORE PUSH1 0x24 DUP2 REVERT JUMPDEST POP DIV SWAP1 JUMP JUMPDEST PUSH1 0x0 DUP2 PUSH1 0x0 NOT DIV DUP4 GT DUP3 ISZERO ISZERO AND ISZERO PUSH2 0x46BD JUMPI PUSH2 0x46BD PUSH2 0x47DF JUMP JUMPDEST POP MUL SWAP1 JUMP JUMPDEST PUSH1 0x0 DUP3 DUP3 LT ISZERO PUSH2 0x46D4 JUMPI PUSH2 0x46D4 PUSH2 0x47DF JUMP JUMPDEST POP SUB SWAP1 JUMP JUMPDEST PUSH1 0x0 PUSH4 0xFFFFFFFF DUP4 DUP2 AND SWAP1 DUP4 AND DUP2 DUP2 LT ISZERO PUSH2 0x46F6 JUMPI PUSH2 0x46F6 PUSH2 0x47DF JUMP JUMPDEST SUB SWAP4 SWAP3 POP POP POP JUMP JUMPDEST PUSH1 0x0 JUMPDEST DUP4 DUP2 LT ISZERO PUSH2 0x4719 JUMPI DUP2 DUP2 ADD MLOAD DUP4 DUP3 ADD MSTORE PUSH1 0x20 ADD PUSH2 0x4701 JUMP JUMPDEST DUP4 DUP2 GT ISZERO PUSH2 0x4728 JUMPI PUSH1 0x0 DUP5 DUP5 ADD MSTORE JUMPDEST POP POP POP POP JUMP JUMPDEST PUSH1 0x0 DUP2 PUSH2 0x473D JUMPI PUSH2 0x473D PUSH2 0x47DF JUMP JUMPDEST POP PUSH1 0x0 NOT ADD SWAP1 JUMP JUMPDEST PUSH1 0x0 PUSH4 0xFFFFFFFF DUP3 AND DUP1 PUSH2 0x475B JUMPI PUSH2 0x475B PUSH2 0x47DF JUMP JUMPDEST PUSH1 0x0 NOT ADD SWAP3 SWAP2 POP POP JUMP JUMPDEST PUSH1 0x2 DUP2 DIV PUSH1 0x1 DUP3 AND DUP1 PUSH2 0x4779 JUMPI PUSH1 0x7F DUP3 AND SWAP2 POP JUMPDEST PUSH1 0x20 DUP3 LT DUP2 EQ ISZERO PUSH2 0x479A JUMPI PUSH4 0x4E487B71 PUSH1 0xE0 SHL PUSH1 0x0 MSTORE PUSH1 0x22 PUSH1 0x4 MSTORE PUSH1 0x24 PUSH1 0x0 REVERT JUMPDEST POP SWAP2 SWAP1 POP JUMP JUMPDEST PUSH1 0x0 PUSH1 0x0 NOT DUP3 EQ ISZERO PUSH2 0x47B4 JUMPI PUSH2 0x47B4 PUSH2 0x47DF JUMP JUMPDEST POP PUSH1 0x1 ADD SWAP1 JUMP JUMPDEST PUSH1 0x0 PUSH4 0xFFFFFFFF DUP1 DUP4 AND DUP2 DUP2 EQ ISZERO PUSH2 0x47D5 JUMPI PUSH2 0x47D5 PUSH2 0x47DF JUMP JUMPDEST PUSH1 0x1 ADD SWAP4 SWAP3 POP POP POP JUMP JUMPDEST PUSH4 0x4E487B71 PUSH1 0xE0 SHL PUSH1 0x0 MSTORE PUSH1 0x11 PUSH1 0x4 MSTORE PUSH1 0x24 PUSH1 0x0 REVERT JUMPDEST PUSH4 0x4E487B71 PUSH1 0xE0 SHL PUSH1 0x0 MSTORE PUSH1 0x41 PUSH1 0x4 MSTORE PUSH1 0x24 PUSH1 0x0 REVERT JUMPDEST PUSH1 0x1 PUSH1 0x1 PUSH1 0xA0 SHL SUB DUP2 AND DUP2 EQ PUSH2 0x33AE JUMPI PUSH1 0x0 DUP1 REVERT INVALID LOG2 PUSH5 0x6970667358 0x22 SLT KECCAK256 0xB8 PUSH2 0x539E 0xF8 PUSH7 0xBB59BFE1E38B54 XOR SWAP7 0xA7 0xC SAR PUSH26 0x6400C5D4A5765EE4AEB30AD30F64736F6C634300080000330000 "
        },
        "methodIdentifiers": {
          "addNFTProfile(uint32,uint256,uint256,string,uint32)": "5d7dc9da",
          "adminBurn(uint256)": "badb97ff",
          "adminMint(uint32,address,uint256)": "45f40362",
          "allowMinting(uint32[],address[])": "90b7ac1a",
          "buyNFT(uint32)": "a2a424d1",
          "checkMintingAvailability(uint32,address)": "571766b2",
          "depositTokens(uint256)": "dd49756e",
          "getAirdropManager()": "12c178a6",
          "getContractTokensBalance()": "94d212e6",
          "getLimitById(uint32)": "940a1455",
          "getNFTContract()": "2b1f4ad6",
          "getNextTokenId()": "caa0f92a",
          "getOldContractMaxId()": "34a2a4e1",
          "getPaymentToken()": "d41c3a65",
          "getPriceById(uint32)": "5d82c462",
          "getPriceCurve()": "9609f6c7",
          "getPriceManager()": "f8a623d3",
          "getProfileIdByTokenId(uint256)": "b6749d94",
          "getProfileIdbyUrl(string)": "d3c5f137",
          "getProfilesNumber()": "061584eb",
          "getSellPriceById(uint32)": "02d1003b",
          "getTokenPriceByTokenId(uint256)": "a8f621ea",
          "getUrlById(uint32)": "a77cefc4",
          "isPriceCurveInternal()": "8da7df22",
          "mintAvailableNFT(uint32)": "93fcffe6",
          "nftProfiles(uint256)": "8cec7946",
          "owner()": "8da5cb5b",
          "removeNFTProfileAtId(uint32)": "cbfcaed5",
          "renounceOwnership()": "715018a6",
          "replaceNFTProfileAtId(uint32,uint256,uint256,string,uint32)": "156b1d37",
          "sellNFTBack(uint256)": "19e1f486",
          "setAirdropManager(address)": "bec1de48",
          "setExternalPriceCurve()": "1ba9bdac",
          "setInternalPriceCurve()": "cf5b2816",
          "setNFTContract(address)": "a7ccabdf",
          "setNextTokenId(uint256)": "83e3500f",
          "setOldContractMaxId(uint256)": "f197c7c2",
          "setPaymentToken(address)": "6a326ab1",
          "setPriceById(uint32,uint256)": "77476c7b",
          "setPriceCurve(uint256)": "dec0fc5c",
          "setPriceManagerRight(address)": "18fdec7e",
          "setSellPriceById(uint32,uint256)": "29598630",
          "transferOwnership(address)": "f2fde38b",
          "updatePricesById(uint32,uint256,uint256)": "c9ab22a7",
          "viewNFTProfileDetails(uint32)": "0ea638a3",
          "viewNFTProfilesPrices()": "5230bcdf",
          "withdrawTokens(address,uint256)": "06b091f9"
        }
      }
    }
  }
}